:020000040000FA
:0600000002011A023105A5
:03002B000237D6C3
:030033000237ABE6
:0300530002317BFC
:03006B0002380454
:10008300022F5BE5C754F84401F5C779012200004C
:100093000080FB120086B90003020104E479217891
:1000A30008B800028004F709D8FCE479297802B87B
:1000B30000028004F709D8FCE490028178BC791728
:1000C3008002F0A3D8FCD9FA781A90014A7A01BACF
:1000D30000028007E493A3F608DAF97A3C7B1990CF
:1000E300014B781379058015E493A3AD82AE838A1F
:1000F300828B83F0A3AA82AB838D828E83D8E9D9C6
:10010300E775824A7583D3740512012C7582917544
:100113008300740012012C75D00075813F7518811E
:10012300751902759F00020096C09FF59FE473D076
:100133009F22D083D082C09FE493C0E0740193C018
:10014300E0740293F59F220101070D0743073D0762
:10015300FF0000B4000028002800283075A000A08C
:1001630000A000A00000080008E001F0001000104B
:10017300001000100010001000500050005000103C
:10018300001000D0070000000000000F0001000570
:1001930000307507001000010081FF00000000FF20
:1001A300FFFF81089F088708C308FF0202020802B5
:1001B3005000A0000000E8030292960100006A9636
:1001C3000298960100009F19029E960100000A04FE
:1001D300029896010000A01902A0960100002004D5
:1001E300029896010000A11902A2960100002204C0
:1001F300029896010000A21902A4960800002304A5
:10020300029896010000A31902A696010000A41902
:10021300FFFF0100FF2002929601000067960298FB
:1002230096010000091A02B8960000000000029C23
:10023300960300005304170009110911091109114C
:1002430009110911091109110911091109110911DB
:1002530009116D138B136713B114C314AB1402028A
:1002630002020202020202010D00000010010292CA
:10027300960100006496029896010000521A0278D3
:1002830096010000A20E029896010000531A027A0A
:10029300960100009892029896010000541A027C7D
:1002A300960100001F92029896010000551A027EE3
:1002B30096010000DF90029896010000561A028012
:1002C30096010000CD90029896010000571A028211
:1002D30096010000BB90029896010000581A028410
:1002E300960100009790029896010000591A02881F
:1002F3009601000049920298960100005A1A028A58
:10030300960100005B1A0401E803057710020A0A4C
:10031300DF16FFFFFF000130750302010600000036
:1003230000000000000000000000000000000000CA
:10033300000000000000000000FFFF0600800CE842
:1003430003013FFEFF0101010201060302F0FF0268
:1003530001061AFF4C000215E2C56DB5DFFB48D25A
:10036300B060D0F5A71096E000010002CD6B1B71C1
:100373001B7D1B831B771B0A436861726163746572
:100383007269737469632031000243686172616347
:10039300746572697374696320320008436861721B
:1003A3006163746572697374696320330010436811
:1003B30061726163746572697374696320340002E6
:1003C300436861726163746572697374696320352C
:1003D300001643686172616374657269737469635B
:1003E30020360010436861726163746572697374C7
:1003F30069632037000292960100006D9602989679
:100403000100006B1B02AA96030000FF18029A96D4
:100413000100006C1B0298960100007D1B02AC9644
:100423000100000019029A960100007E1B029896B3
:100433000100008F1B02AE960200000119029A967A
:10044300010000901B029896010000A11B02B096C8
:100453000000000219029C960300000319029A96F9
:10046300010000A21B029896010000B31B02B29682
:100473000400000519029A96010000B41B02989625
:10048300010000C51B02B4960300000A19029C96E2
:100493000300001F19029A96010000C61B029896DA
:1004A300010000D71B02B6960000002119029C969A
:1004B3000300003619029A96010000D81B0100B010
:1004C300423BAAB83F0000003F8C906339AA0CA3BB
:1004D3003A00941E3C8042633DCFFE753E15723157
:1004E3003F0000803FF304353F8096184B30313294
:1004F3003334353637383941424344454600286E54
:10050300756C6C20706F696E7465722900303132BE
:1005130033343536373839616263646566003F3F8B
:100523003F000000807FF9021550B743BA5100E73E
:10053300DB2E0000A040000080BF2292D43EDD9B52
:100543002A3F0400004000000000FFFF7F7FFFFF01
:100553007FFF010080341872313F1201354AB7051D
:1005630012013531B8051201352BB905120135FDDC
:10057300B40512013510B50512013531B505120167
:10058300359CB505120135DDB505120135FEB505FE
:100593001201353FB605120135D7B6051201351FD5
:1005A300B70512013533A10512013546A105120124
:1005B3003577A105120135B1A1051201350AA2054E
:1005C30012013551A20512013599A205120135C850
:1005D300A205120135F7A2051201352EA30512015A
:1005E3003575A3051201358EA305120135E3A30565
:1005F300120135FCA3051201354AA4051201358405
:10060300A405120135B6DF03120135B9E003120167
:1006130035E6E00312013537E1031201355AE103F0
:100623001201356CE1031201356FE103120135AD9F
:10063300E10312013521E2031201358DE2031201B8
:100643003555E30312013571E303120135A8E303C2
:10065300120135E2E30312013579E403120135CBCC
:10066300E403120135FCE4031201352DE503120105
:10067300353AE503120135A4E503120135A7E50375
:10068300120135B4E503120135B7E5031201350E46
:10069300E60312013511E6031201354AE60312019E
:1006A300354DE60312013581E60312013584E60375
:1006B300120135D8E60312013521E7031201353162
:1006C300E70312013564E70312013571E7031201F1
:1006D3003574E703120135DCE703120135DEE80365
:1006E30012013582E903120135EBE90312013529C1
:1006F300EA031201357CF60212013579F702120181
:10070300350FF8021201355AF802120135BEF8020C
:1007130012013548F90212013501FA02120135239B
:10072300FD02120135A0FE02120135C3FE021201C1
:1007330035458D05120135EA8E051201350A8F05FF
:100743001201352B90051201357E90051201358B70
:100753009105120135B39105120135E0910512019E
:1007630035189205120135769205120135C29205AC
:10077300120135299305120135699305120135A636
:100783009305120135D493051201357E94051201A8
:1007930035889405120135959405120135C89405E1
:1007A300120135D49405120135EC9405120135F686
:1007B3009405120135F2CE0512013500CF05120161
:1007C3003518CF0512013530CF0512013547CF0556
:1007D300120135D7E40212013581E5021201359485
:1007E300E60212013510E7021201352EE80212016A
:1007F300356AE80212013505E902120135E9E90219
:10080300120135ACEA0212013524EB02120135B2B2
:10081300EC0212013523ED02120135DDED02120166
:1008230035CFEE021201350FEF02120135C3EF028D
:10083300120135F5EF02120135EBF10212013532E7
:10084300F20212013550F202120135B6F202120120
:100853003585F30212013549F40212013568F602B7
:1008630012013572F6021201357EBE04120135689B
:10087300BF0412013513C00412013564C004120110
:100883003514C10412013585C1041201356AC2044D
:100893001201359EC20412013597C304120135D4E7
:1008A300C304120135B0C404120135EFC4041201AC
:1008B300350BC50412013581BD0512013505BE0591
:1008C30012013530BE051201354ABF0512013584C8
:1008D30095051201359A9505120135B89505120152
:1008E30035C99605120135D39605120135FE9705D4
:1008F300120135F598051201356299051201356C1F
:10090300990512013537CC041201356DCD0412015E
:1009130035E7CD0412013517CE041201352ACE0472
:1009230012013581CE0412013596D0041201352E01
:100933009602120135DF9602120135FB960212016F
:1009430035C49702120135DE9702120135E9970289
:10095300120135BF98021201359C99021201352C00
:100963009A02120135E39A02120135F19D02120136
:1009730035E09F0212013592A0021201355BA102FC
:10098300120135A0A4021201354AA50212013573E2
:10099300A6021201352FA802120135CFA8021201B7
:1009A300351DA9021201355CA9021201352FAA02D5
:1009B30012013563AA02120135F0AA02120135436E
:1009C300D202120135CFD20212013533D402120101
:1009D300353FD4021201357AD402120135E9D4022B
:1009E300120135F2D502120135FBD602120135C2CE
:1009F300D7021201351FD9021201353DD902120166
:100A0300355AD90212013507DA0212013584DA02A6
:100A1300120135ACDA0212013576DD021201357BA3
:100A2300DD0212013594DF02120135E2DF02120109
:100A33003552E00212013590E0021201356CE102F9
:100A43001201352CE20212013578E2021201357BE4
:100A5300E202120135BFE20212013507E30212017D
:100A63003546E30212013568E3021201359CE302C5
:100A7300120135FFE30212013514ED041201351D95
:100A8300ED041201352BED041201357EED04120144
:100A9300359DED04120135E2ED0412013526EF0414
:100AA300120135C1EF0412013505F0041201352F8F
:100AB300F0041201359EF004120135E4F004120132
:100AC300355BF1041201350CF204120135BC9601B9
:100AD300120135CC96011201356D9701120135C90A
:100AE3009701120135869801120135A2990112016D
:100AF30035D49901120135039A01120135B09B01D6
:100B0300120135279E0112013597A0011201358983
:100B1300A10112013582A20112013589A40112013A
:100B2300357DA701120135ACA801120135B0AA0128
:100B3300120135C0AB011201354FAD011201354031
:100B4300AE011201358EAE01120135FDAE01120167
:100B53003521AF0112013572AF0112013513B40112
:100B630012013514B50112013575B501120135A015
:100B7300B50112013566B60112013519D804120107
:100B83003523D80412013568D8041201357CD80402
:100B93001201350CD90412013545D90412013580EF
:100BA300D904120135A9D904120135F7D904120168
:100BB300350CDA0412013521DA0412013536DA0470
:100BC30012013579DA041201358EDA04120135F98E
:100BD300DA041201350DDB0412013521DB041201A5
:100BE3003536DB0412013570DB0412013594DB0466
:100BF300120135C0DB04120135F7DB04120135594C
:100C0300DC04120135CBDC041201350EDD041201C4
:100C13003538DD0412013563DD04120135ECCC05F2
:100C2300120135B5BC0312013598BD03120135130A
:100C3300BE031201354EBE031201359FBF031201DD
:100C43003528C00312013540C203120135D2C40353
:100C530012013584C50312013590C6031201350311
:100C6300C8031201355CC803120135D6E204120130
:100C73003519E3041201359DE30412013570E404D0
:100C830012013547E704120135F8AF05120135A506
:100C9300B005120135B2B105120135F1B1051201EA
:100CA300354BB20512013561C305120135C4C305C5
:100CB30012013561C40512013596C405120135C60A
:100CC300C405120135E7C40512013522C505120119
:100CD3003542C5051201351EF204120135AAF2048C
:100CE30012013569F30412013581F4041201359BB5
:100CF300F60412013505C9031201352AC90312018D
:100D030035F7C903120135CBCA0312013538CB03BA
:100D13001201358ECB031201352ACC031201355E45
:100D2300CD0312013539CE0312013598CE031201DA
:100D33003524CF0312013592CF031201351ED003A0
:100D430012013521D0031201356BD003120135DDB9
:100D5300D0031201356FD10312013510D2031201F2
:100D63003530D20312013578D203120135C1D203D3
:100D7300120135DDD20312013503D3031201357D90
:100D8300D3031201358BD3031201351AD403120195
:100D93003583D40312013569FB04120135EEFB04DC
:100DA30012013530FC0412013514FD0412013581A2
:100DB300FD04120135C5FD0412013509FE041201BB
:100DC3003536FE041201355EFE0412013596FE042B
:100DD300120135D4FE04120135FBFE0412013575F0
:100DE300FF04120135BFFF04120135D2B60112010F
:100DF30035CBB801120135B7BB011201350BBC016C
:100E030012013536BC0112013510BD011201354FF7
:100E1300BD0112013596BD01120135A9BD011201B3
:100E230035EABD0112013517BE0112013565BE0158
:100E3300120135A4BE01120135CFBE0112013522C4
:100E4300BF01120135B1BF011201358FC201120179
:100E530035AAC401120135E8C4011201355DC6018A
:100E6300120135A2C60112013596C701120135AF31
:100E7300C90112013511CA0112013562CA011201F9
:100E8300357DCF01120135CCCF0112013512D001CE
:100E9300120135FAD101120135C8D301120135CD42
:100EA300D301120135A7D40112013520D501120156
:100EB3003550D60112013562D60112013552AD0506
:100EC300120135C4AD051201351AAE051201355EA6
:100ED300AE051201357EAE05120135CBAE0512010A
:100EE3003513AF0512013566AF05120135B7AF05EE
:100EF3001201359793041201351694041201350F2C
:100F03009A04120135159B04120135889C041201C1
:100F1300351F9D0412013585D601120135CED60148
:100F2300120135FBD6011201352DD70112013539D6
:100F3300D70112013545D7011201355CD7011201E2
:100F43003537D80112013595D801120135CAD801B8
:100F5300120135FBD90112013548DA011201358E30
:100F6300DA01120135FADA011201359EDB011201B1
:100F73003554DC01120135B3DC0112013524DD01E6
:100F830012013582DD01120135B4DE011201351C77
:100F9300E001120135E6E001120135F3E00112012F
:100FA3003535E10112013545E10112013569E101F0
:100FB3001201356CE10112013558E201120135F4D9
:100FC300E2011201358DE30112013524E40112011E
:100FD3003551E401120135AFE401120135F6E401A4
:100FE30012013546E50112013596E5011201350876
:100FF300E601120135A3E6011201354EE7011201A4
:1010030035EDE7011201356BE801120135B2E80154
:1010130012013516E90112013545E901120135DCEA
:10102300E901120135EEEB0112013532EC01120137
:10103300357DEC0112013503ED011201358DED0112
:10104300120135A6EE011201352CEF0112013551C3
:10105300EF01120135A8EF01120135BDEF011201B5
:101063003505F00112013578F001120135BDF001AB
:10107300120135C6F10112013577F201120135D59E
:10108300F20112013531F3011201354AF301120164
:1010930035499D041201359D9D04120135A99D0416
:1010A300120135739E04120135A09E04120135CE40
:1010B3009E041201353A9F04120135709F041201F8
:1010C30035A99F04120135C19F0412013516A004EE
:1010D3001201352FA00412013574A00412013587C3
:1010E300A004120135A1A004120135B7A004120116
:1010F30035D5A10412013500A304120135EAA30476
:10110300120135DBA404120135493800120135F907
:10111300E7041201357CEB04120135C9EC0412011A
:10112300357AF3011201354DF60112013553F601FB
:10113300120135E3F80112013546FB01120135D2E4
:10114300F60412013569F70412013527F804120178
:101153003551F8041201352BFA0412013530FB0422
:101163001201350080021201353280021201354F1F
:101173008C02120135A08D02120135A98E021201D3
:101183003528900212013513910212013562910242
:101193001201357C9102120135BE9102120135C94B
:1011A30091021201351092021201351992021201B5
:1011B30035C592021201359E9302120135E5930261
:1011C3001201354D94021201358F9402120135BD7F
:1011D3009402120135FA94021201353FBF02120143
:1011E300350AC30212013510C302120135B4C90214
:1011F30012013508CE02120135F1D1021201356018
:101203009D05120135D69D05120135EC9D05120190
:10121300357C9E05120135B99E05120135F39E05F5
:101223001201352D9F05120135A09F05120135E1ED
:101233009F05120135EA9F05120135F69F0512013C
:101243003515A0051201353FA00512013554A0053F
:101253001201357CA005120135DEA005120135050A
:10126300A1051201356CC5041201357FC5041201B5
:101273003599C504120135C6C5041201350CC604DF
:101283001201353FC6041201357DC604120135E251
:10129300C604120135F7C60412013502C704120150
:1012A300350FC70412013526C70412013534C704AC
:1012B30012013543C70412013558C7041201356DB5
:1012C300C70412013578C70412013584C70412011B
:1012D3003591C704120135A4C704120135AFC70401
:1012E300120135D4C70412013578C80412013588B8
:1012F300C8041201359DC804120135B2C804120195
:1013030035CCC804120135E9C80412013506C904F5
:1013130012013511C904120135BDC9041201359EEC
:10132300CA04120135C3CA04120135CECA0412011C
:1013330035E3CA04120135F7CA0412013558CB0448
:101343001201355ECB0412013564CB041201356AF8
:10135300CB0412013582CB04120135B5CB04120143
:10136300354FEA0312013571EA0312013539EB03F4
:10137300120135F3ED0312013509EF031201352A8A
:10138300F00312013504F103120135B3F103120125
:101393003532AF03120135C9AF0312013561B00312
:1013A30012013551B10312013588B1031201359B86
:1013B300B10312013509B203120135A4B3031201BB
:1013C30035CBB3031201356DB403120135A2B40357
:1013D300120135B3B4031201352CB5031201354D97
:1013E300B50312013565B503120135BDB60312010C
:1013F30035C6B80312013516BB0312013519BC03F8
:1014030012013568BC0312013596A003120135930E
:10141300A1031201357EA20312013588A203120132
:101423003592A203120135B4A203120135C0A203FF
:1014330012013512A40312013541A40312013571BF
:10144300A503120135B3A503120135DFA60312016B
:1014530035B5A70312013507A80312013566A803A2
:101463001201359DA803120135D8A8031201357363
:10147300AC031201358CAC031201350EAD0312011E
:10148300351CAD0312013571AD031201357FAD0378
:10149300120135ECAD031201355EAE03120135A422
:1014A300AE03120135A6D403120135C8D4031201C9
:1014B30035B2D60312013557DA031201359ADB032D
:1014C30012013574DC03120135E6C8051201350B30
:1014D300C9051201357CC90512013595A60412010F
:1014E300359EA604120135A7A604120135D8A70418
:1014F300120135F7A9041201352DAA04120135672B
:10150300AA041201359DAA04120135D7AA041201B7
:10151300350BAB0412013537AB0412013580AB0434
:10152300120135BAAB0412013502AC04120135586D
:10153300AC041201358DAC04120135E8AC04120180
:101543003522AD0412013573AD04120135A9AD0482
:10155300120135E3AD0412013511AE041201353425
:10156300AE041201355FD1051201358BD10512018D
:1015730035E6D105120135F0D10512013500D2054A
:10158300120135C2AE0412013506AF04120135B49F
:10159300AF041201352CB0041201357EB0041201E0
:1015A300351EB1041201355AB104120135F4B104E8
:1015B30012013571B204120135CAB304120135E3C5
:1015C300B3041201351BB504120135AEB504120183
:1015D3003517B60412013583B6041201358A840522
:1015E300120135B18405120135E18405120135502C
:1015F300C50512013567C50512013596C5051201EA
:10160300351CC6051201350AD2051201352B5E00C1
:10161300120135466100120135366300120135A807
:101623006300120135666400120135116500120171
:1016330035A165001201353066001201355A660086
:10164300120135C76600120135016C001201359491
:101653006C00120135C36D00120135276E001201B3
:1016630035DB6E001201358E7100120135C8710031
:101673001201353272001201358F7200120135ECFE
:1016830072001201354973001201353474001201DE
:10169300357A7400120135C57400120135E6740001
:1016A300120135487600120135637600120135E9DF
:1016B30077001201351678001201355678001201B1
:1016C300359C7800120135BA7800120135F878009C
:1016D300120135367B001201356F7B00120135068E
:1016E3007C00120135A67C00120135397D00120100
:1016F30035AB7D00120135EC7E001201358BDD0424
:101703001201351FDE041201355EDF04120135E7D5
:10171300DF04120135BAE004120135E3E0041201DB
:10172300354AE104120135B2E10412013500CE0558
:1017330012013511CE05120135E2CE05120135CD68
:10174300A70512013598AA0512013553D5051201D3
:10175300359CCA05120135ACCA05120135C6CA0546
:10176300120135C2CB05120135A6AA051201354176
:10177300AB0512013537AD051201356EC1051201F6
:1017830035A4C10512013514C2051201353FC20546
:10179300120135A2C20512013512C30512013550DB
:1017A300C30512013553C305120135F6FF011201BA
:1017B30035F9FF011201350080051201352280053C
:1017C300120135B48005120135B28105120135A32A
:1017D30083051201350384051201356C840512015A
:1017E30035F87F001201355FB90512013503BB05DA
:1017F3001201356FBB05120135F07F00120135EE82
:10180300D405120135FED40512013579BF05120145
:1018130035AABF05120135D4BF051201358FC005A6
:10182300120135AFC00512013507C105120135009C
:1018330080041201350E8004120135548004120114
:1018430035A78004120135EF800412013549810464
:101853001201356A81041201353E84041201354CAC
:101863008404120135A88404120135DB84041201B7
:1018730035EE84041201357985041201351286048C
:101883001201358F8604120135C8860412013550C2
:101893008704120135A78704120135048804120155
:1018A300351688041201354788041201355088041F
:1018B3001201359D89041201352EC7051201358F9A
:1018C300C7051201352CC80512013592C80512014E
:1018D30035E988051201351C8905120135438A054E
:1018E300120135688A051201352D8B051201350960
:1018F3008C05120135C8CB0512013594CC051201B4
:101903003596B205120135DBB2051201351BB3055D
:10191300120135B8B405120135207F001201353BA1
:101923007F001201354B7F00120135B07F00120199
:1019330035D7CF051201359BD005120135D1890466
:10194300120135AD8A04120135F48A0412013531CE
:101953008B041201359D8B04120135F58B041201A2
:1019630035658C04120135358D041201351E8E0444
:10197300120135958E041201352A9004120135B5F2
:1019830090041201352491041201359C9104120133
:1019930035B39104120135DC92041201352E930400
:1019A3001201355DD2041201357DD2041201356D69
:1019B300D304120135B6D304120135D6D304120170
:1019C3003514D4041201356FD404120135ADD40497
:1019D300120135F7D4041201359FD70412013508DB
:1019E300D804120135E6AB02120135FFB002120131
:1019F30035F6B3021201351CB40212013545B402A7
:101A0300120135F7B402120135D8B602120135F3CB
:101A1300B7021201350CB80212013502BD021201E0
:101A2300353BBD021201357FBD021201358CBE026A
:101A3300120135543800120135883800120135C3BC
:101A43003800120135353900120135FE3900120113
:101A530035153A00120135F13A00120135E63E0020
:101A6300120135F63E00120135273F00120135FA07
:101A73003F001201355B40001201355E4000120148
:101A8300357C4000120135E34000120135BF4200AE
:101A9300120135764300120135C84300120135CFD8
:101AA3004300120135E64300120135B84400120128
:101AB30035C844001201350645001201351F4500A3
:101AC300120135364500120135C24500120135DDDC
:101AD30045001201350856001201358556001201E2
:101AE30035725A001201356690031201359A91033B
:101AF300120135C791031201351595031201354EB5
:101B030095031201355F95031201357B960312018C
:101B1300358C96031201351C97031201352C97035C
:101B2300120135F39B03120135959C03120135A372
:101B33009C03120135D09C03120135359D0312011C
:101B4300350D9F03120135BC9F03120135A7F40322
:101B5300120135EDF80312013570FB03120135A9AB
:101B6300FB03120135BAFB03120135D9FB03120142
:101B73003508FD0312013519FD03120135A1FD03DB
:101B830012013532FE03120135CAB604120135D8EB
:101B9300B704120135F5B704120135CEB9041201A9
:101BA30035F2BA041201358EBC04120135E6FF0288
:101BB300120135EEFF0212013535D505120135EC60
:101BC300A405120135E1FE03120135BBD305120151
:101BD3003500800312013513850312013572BB05ED
:101BE3001201351CD40512013599D405120135763D
:101BF3009905120135B4D205120135DED205120161
:101C03003562D405120135C5D40512013517D50542
:101C1300E066701008A3E066700A08A3E06670042B
:101C230008A3E06622C008C3E096F50808A3E0967F
:101C3300420808A3E096420808A3E0964208A2D20D
:101C430065D033E5087001D3D00822C3E7960809AD
:101C5300E7960809E7960809E79622C3E09608A3E2
:101C6300E09608A3E09608A3E09622C008C3E09696
:101C7300F50808A3E096420808A3E096420808A3E3
:101C8300E09645087001D3D00822080808E630E73B
:101C930011122547121CA5080808C64480C6181847
:101CA3001822181818E9799EC608CAC608CBC608B0
:101CB300CCC6C370207996CACBCC7019798ECBCCA5
:101CC30070137986CC700EF9802ACA33CACB33CB12
:101CD300CC33CC331930E7F2CCCBCA335014700475
:101CE300EA30E00DE4CA3ACACB3BCBCC3CCC500241
:101CF30009C3E913C6CC182313C6CB18C6CA18C622
:101D0300F922121D4520F01430E72B74FFFCFBFA77
:101D1300747F8022E4FCFBFA7480801AB48008BCD0
:101D230000F2BB00EF800F50EBF9E4C39AFAE49B97
:101D3300FBE49CFCE499C6CC18C6CB18C6CA18C6EB
:101D4300F922E4C9C608CAC608CBC6D3330308CCF4
:101D5300C63392F0C3947F402E94184019C9B90733
:101D630004CACBCC225025C309CA33CACB33CBCC4C
:101D730033CC33D9F422F4600DC9CCC313CB13CBCA
:101D8300CA13CAD9F6CC22E4FCFBFA2214FCFBFAF0
:101D930022E62618461846184622E7271947194708
:101DA300194722181818E60846087009E62608702D
:101DB30005E633F4220822191919E70947097009BE
:101DC300E727097005E733F4220922E6084608C32A
:101DD300134608336002E633F422E7094709C313C5
:101DE3004709336002E733F422121DCE6025121D2A
:101DF300DD6020121D947003021D9D080808E7662C
:101E030070101819E766700A1819E7667004181934
:101E1300E76622F422121DCE601C121DDD6017122C
:101E23001D947007121D9D7001D322C0D0121D9DF9
:101E33007006D0D0B322C32233D0D0501430E0F692
:101E4300C3E7960809E7960809E7960809E796B3F2
:101E53002220E0D5E6970809E6970809E6970809DE
:101E6300E697B322121DCE601B121DDD6016121DF4
:101E7300947007121D9D600CB322C0D0121D9D707B
:101E830005D0D022C32233D0D0501330E0EBC3E7C8
:101E9300960809E7960809E7960809E7962220E0DD
:101EA300E4E6970809E6970809E6970809E6972202
:101EB30000121DCE604F121DDD6012E7548066F6DE
:101EC300121DA67011121D9D703B090909F4F61825
:101ED300F618F618F622121DBA7015121D9408088A
:101EE3000860EAE6447FF618768018E4F618F622CE
:101EF300121D946016121D9D7012E4F608F608F682
:101F030008E65480F609090918181822EAC0E0EB1C
:101F1300C0E0ECC0E0EDC0E0E687F0A4FBACF00865
:101F2300E687F0A42CFCE435F0FA1809E687F0A460
:101F33002C4B60027401CA35F0FCE433FB09E687DD
:101F4300F0D2F7A42CCB35F0FC1908E687F0A42BCC
:101F5300CC35F0FBE433FD0819E687F0D2E7A42C77
:101F63004ACB35F0CD3400FC09E687F0D2E7A42D47
:101F7300CC35F0FDE433FA0918E687F0D2F7A42C48
:101F8300CD35F0CA3400FC08E687F0D2E7D2F7A4D7
:101F93002ACC35F07A7E20E70B0ACB33CBCD33CD79
:101FA300CC33CC33CB3350147004ED30E00ED2F18C
:101FB300E4CD3DCDCC3CCC3B5005DA05C2F1EB542E
:101FC3007FC63308E63392F0FBE73309E733C39A5E
:101FD300502D2B70190C0D4C4D70151806E608C3C7
:101FE30033700D20F10AA2F013F6E418800B40249D
:101FF300E4F630F002768018F618F618F68024D34B
:102003003B14501074FFA2F013F6187680E418F610
:1020130018F6800FA2F013F618E63303F618ECF661
:1020230018EDF6D0E0FDD0E0FCD0E0FBD0E0FA22E2
:10203300121DDD6046121DCE603DE9687008F6187A
:10204300F618F618F622748067F712206709090953
:10205300748067F722121DCE601D121DDD700519F5
:102063001919801A121DA6701F121DBAC37003E638
:10207300673319191940071818182208080874FF3C
:10208300F618F618F618F622121DBA6017121D9DDF
:10209300702192F0121D947019501720F014080843
:1020A30008090909E7F61819E7F61819E7F61819E0
:1020B300E7F622121D9460E6E869701F0808E6241B
:1020C30080F608E436F618547FB47F0CE65480603B
:1020D30007F6E418F618F622181822E9C6CC08C643
:1020E300CD08C6CE08C6CFC0E0E8C0E0EAC0E0EB4A
:1020F300C0E009E9F809E7FA09E7FBE6F918E6F8A9
:10210300C3EC98ED99EE9AEBC2E7F5F0EFC2E795D1
:10211300F0500E600CEBCFFBEACEFAE9CDF9E8CC38
:10212300F8EAA2E7D2E7FAEB33FB13F5F0EEA2E706
:10213300D2E7FEEF33FFC5F013A2E730E601B31396
:10214300C5F0C3C0E0C0F07F00C39BFB605E941882
:10215300600F401D14601AD0E023F9D0E0F802228A
:10216300398AF0E9486003D2F0E4AFF0FAF9F88075
:102173003BEB30E40D89F0EA6003D2F0E4AFF0F911
:10218300CAF8EB30E30D88F0EF6002D2F0AFF0E471
:10219300CAC9F8EB54076014FBC3EA13FAE913F94D
:1021A300E813F8EF135002D2E0FFDBEDD0E0C0E01C
:1021B30030E739C3E49FFFF5F0EC98FC42F0ED996A
:1021C300FD42F0EE9AFE42F0D0E0F9D0E0F8E5F0FF
:1021D300607AE923F9EE20E742D8028067C3EF3340
:1021E300FFEC33FCED33FDEE33FE80EAEC28FCED2F
:1021F30039FDEE3AFED0E023F9D0E0F84002801B2F
:10220300C3EE13FEED13FDEC13FCEF135002D2E00B
:10221300FF08B800067F7F74FF802EEF3350178CC2
:10222300F020F00260100CBC000C0DBD00080EBEC7
:10223300000408E860DFE933E813FFEE2313FE4FE1
:102243004D4C8008E95480FFE4FEFDFCEE33EF3390
:10225300F47004FCFD7E80D0E0FBD0E0FAD0E0F81F
:10226300D0E0CFC618CEC618CDC618CCC6F92212F8
:102273001DCE700418181822121DDD700D74FFF6A0
:102283001819F61819F61819F622E7548066F6128B
:102293001D94700F121D9D70F014F608F608F608D1
:1022A300F680D1121D9D700CF608F608768008E6BC
:1022B300447F80EC121DBD700C121DA960BFE65453
:1022C30080F6E480BB121DA9700519191980A5E8D1
:1022D30069700C763F18768018F618F6E8F922E64E
:1022E300CDC0E018ECC0E0E633CD33CDD313F6E731
:1022F30019FCE7191933CC33C3947F400ECD9D509D
:102303002408E65480F6E418F6800FF4043D1450D4
:102313001408E6447FF6187680E418F618F6D0E041
:10232300FCD0E0FD22CCD313CCFD18E4C6CBC0E037
:1023330018E4C6CAC0E00808ED08C633E613F61869
:10234300E433C675F003C3CA97CA09CB97CB199C6C
:1023530040047D08802EBD000302241B16B6FF0532
:102363000606081618C3CA33CACB33CB33CA27CAE7
:1023730009CB37CB193CC37D08803E187D0820E785
:102383005CC633C6CA33CACB33CB33DDF1D5F0EBEE
:1023930030E77BCA97CA09CB974ACB199C406F4B4E
:1023A3007025E620E0218066187D08C3CA97CA0914
:1023B300CB97CB199CD3C633C6CA33CACB33CB33E3
:1023C30050C9DDE7D5F0E1D3E4C636C608C636C644
:1023D30008C636C608C636C61818188031C3CA9749
:1023E300CA09CB97CB199CB34097C633C6CA33CA25
:1023F300CB33CB33DD34D5F02EC6A2E0C640C8CAFA
:1024030027CA09CB37194A70BECB3CB480B9080838
:10241300E63308E633601F181818D0E0FAD0E0FB63
:10242300D0E0FCD0E0FD22187D08CA27CA09CB37CB
:10243300CB193CD3808013F618E4B67F11F618B697
:10244300FF0EF618C60470D20808768080CAF61804
:10245300F618F680C5080808EAC0E0EBC0E086F08D
:10246300E7A4FA180986F0E7A42AFA180986F0E720
:10247300A42AFA180986F0E7A42AFA1986F0E7A431
:10248300FBE5F02AFA190886F0E7A42BFBE5F03AFE
:10249300FA190886F0E7A42BFBE5F03AFA181809B5
:1024A30086F0E7A4C5F02BFBE43AFA1908E7C5F078
:1024B300C6A426F6E5F03BFBE43AFA1886F0E7A457
:1024C300F6E5F00826F6E43B08F6E43A08F6D0E031
:1024D300FBD0E0FA22E4CFC0E0E4CEC0E0E4CDC01C
:1024E300E0E4CCC0E075F020E626F608E633F60813
:1024F300E633F608E633F6181818EC33FCED33FD33
:10250300EE33FEEF33FFC3EC9709ED9709EE97091E
:10251300EF97191919400FFFEC97FC09ED97FD0987
:10252300EE97FE191906D5F0BFECF709EDF709EEA2
:10253300F709EFF7191919D0E0FCD0E0FDD0E0FE60
:10254300D0E0FF22181818E4C396F608E496F608BC
:10255300E496F608E496F6226016080808C6C31344
:10256300C618C613C618C613C618C613C6D5E0EADE
:10257300227009080808226016181818C6C333C643
:1025830008C633C608C633C608C633C6D5E0EA2232
:10259300E627F60809E637F60809E637F60809E6F6
:1025A30037F622E026F608A3E036F608A3E036F66F
:1025B30008A3E036F622E026F008A3E036F008A3ED
:1025C300E036F008A3E036F022C3E697F60809E602
:1025D30097F60809E697F60809E697F622C3E09608
:1025E300F008A3E096F008A3E096F008A3E096F0C5
:1025F30022E657F60809E657F60809E657F60809EA
:10260300E657F622E056F608A3E056F608A3E0568E
:10261300F608A3E056F622E056F008A3E056F008C9
:10262300A3E056F008A3E056F022E066F608A3E024
:1026330066F608A3E066F608A3E066F622E0F6086D
:10264300A3E0F608A3E0F608A3E0F622E6F008A369
:10265300E6F008A3E6F008A3E6F022E0FAA3E0FB25
:10266300A3E0FCA3E0FD22EAF0A3EBF0A3ECF0A3CC
:10267300EDF022E0F8A3E0F9A3E0FAA3E0FB22E8FF
:10268300F0A3E9F0A3EAF0A3EBF022CAC0E0E6F07E
:10269300A308DAFAD0E0FA22CAC0E0E0A3C582CCEC
:1026A300C582C583CDC583F0A3C582CCC582C5834E
:1026B300CDC583DAE6D0E0CA22C3E498F8E499F9F9
:1026C3001226FD8026C3E49AFAE49BFBE920E7E99E
:1026D3001226FDE498F8E499F922C3E498F8E49902
:1026E300F91226FDE498F8E499F9C3E49AFAE49B15
:1026F300FB22EB20E7CFE920E7E0B90010BB00089D
:10270300E88AF084F8AAF022E4FBC8FA22EB7022EC
:102713007B10C833C8C933C9335007C39AC3DBF22C
:1027230080069A50012ADBEAC833F4C8C933F4C9D6
:10273300FA2275F008E4C833C8C933C933C99AC942
:102743009B5004C92AC93BD5F0ECFBC833F4C8E459
:10275300C9FA22600D08C6A2E713C618C613C6D568
:10276300E0F322600C08C6C313C618C613C6D5E02F
:10277300F422700422600D18C6C333C608C633C6DC
:10278300D5E0F41822251810AF08F518400C1519D8
:102793008008F51840021519D2AF2200C0D02518C1
:1027A30010AF08F518500C05198008F518500205EC
:1027B30019D2AFD0D0222518F58210AF08F51840F2
:1027C3000C15198008F51840021519D2AF85198325
:1027D300222518F582E43519F583222518F8E43506
:1027E30019F9222518FAE43519FB222518FCE435DA
:1027F30019FD22E4732518C582C0E0E51934FFC52D
:1028030083C0E0E518C3958224F810AF08858319C7
:102813008582188008858319858218D2AFCEF0A3EC
:10282300E520F0A37808E608F0A3DEFAEFF0A3E5CD
:102833008124FAF8E608F0A3E608F0A3E608F0A37B
:102843000808E608F0A3E608F0A315811581D0E097
:10285300FED0E0F8158115811581E8C0E0EEC0E0F7
:10286300222518C582C0E0E51934FFC583C0E0E521
:1028730018C3958224F910AF0885831985821880BF
:1028830008858319858218D2AFCEF0A3E520F0A383
:102893007808E608F0A3DEFAEFF0A3E58124FBF85D
:1028A300E608F0A3E608F0A30808E608F0A3E608A4
:1028B300F0A315811581D0E0FED0E0F815811581D4
:1028C300E8C0E0EEC0E022851983851882E0A3FE0C
:1028D300E0A3F5207808E0A3F608DFFAE0A3FFE021
:1028E300A3C0E0E0A3C0E0E0A3C0E0E0A3C0E0E059
:1028F300A3C0E010AF0885821885831980088582FC
:1029030018858319D2AFD083D0820201328519830F
:10291300851882E0A3FEE0A3F5207808E0A3F6087B
:10292300DFFAE0A3FFE0A3C0E0E0A3C0E0E0A3C0C0
:10293300E0E0A3C0E010AF08858218858319800802
:10294300858218858319D2AFD083D08222C0D02547
:1029530018C582C0E0E51934FFC583C0E0E518C39C
:10296300958224F310AF0885831985821880088522
:102973008319858218D2AFC8F0A3E9F0A3EAF0A3C4
:10298300EBF0A37908E709F0A3D8FAECF0A3EDF094
:10299300A3EEF0A3EFF0A3D0E0F0A3D0E0F0A3D038
:1029A300E0F0A3E520F0A3E5F0F0A32285198385E9
:1029B3001882E0C0E0A3E0F9A3E0FAA3E0FBA37868
:1029C30008E0F608A3DFFAE0FCA3E0FDA3E0FEA322
:1029D300E0FFA3E0C0E0A3E0C0E0A3E0F5D0A3E004
:1029E300F520A3E0A3F5F010AF08858319858218BD
:1029F3008008858319858218D2AFD082D083D0E036
:102A0300F8D0E03274048006740280027401C0E0DE
:102A1300F4041227B9D0E012268E227404800474C1
:102A2300028000CCC0E0EDC0E0E518C39CCCAD193A
:102A330050011D10AF068C188D1980068C188D1946
:102A4300D2AF12269BD0E0FDD0E0FC22D083D0820F
:102A5300E9C0E0E493A3C386F0C5F095F0F908E478
:102A630093A386F0C5F095F0700BE493A3C399404C
:102A730005E9048002A3E475F002A42582F582E54A
:102A8300F03583F583D0E0F9E493A3C0E0E493C089
:102A9300E022D083D082ECC0E0EDC0E0E493A3FC5D
:102AA300E493A3FDED4C600D122AE1EC24FFFCED51
:102AB30034FFFD80EFE493A3FCE493A3FDED4C60AE
:102AC3000D122B20EC24FFFCED34FFFD80EFD0E052
:102AD300FDD0E0FCE493A3C0E0E493C0E022C0E0B7
:102AE300C3E49396087401939618400FE4936670B9
:102AF3000808740193661870007019A3A3C3E493C4
:102B030096087401939618A3A3400DD0E0D0E0D0AB
:102B1300E0022AD1A3A3A3A3A3A3D0E022C0E0C0D1
:102B2300F088F0E4936670080874019366187000E7
:102B3300A8F0A3A3700BD0F0D0E0D0E0D0E0022A3D
:082B4300D1A3A3D0F0D0E022E1
:102B4C0074F6122864EAFEEBFF8C088D09EE24342F
:102B5C00F8E43FF9E8FCE9FD122C7EE0FAEE2437AC
:102B6C00F582E43FF583E0F88508F0A4C885F00A07
:102B7C008509F0A4250AF9EA28F8E439F97A257BC5
:102B8C00001226FDEA8C828D83F0FA131313541F66
:102B9C00F8EE28F8E43FF9E8245DF582E439F58392
:102BAC00E0C0E074075AF8D0E0B800028004C31308
:102BBC00D8FCA2E05003EA8020EE2436F582E43FF4
:102BCC00F583E0F5F0EA84A8F0EE28F8E43FF9E8A4
:102BDC002438F582E439F583E0F97F030229107477
:102BEC00F5122864EAFEEBFFEE2434F582E43FF59F
:102BFC0083E0C0E0122C7ED0E0F08E828F83A3A302
:102C0C00A3A3A3E0FAA3E0FB8E828F83A3A3A3A3C9
:102C1C00A3A3A3E0C39AF508A3E09BF509EE247FD8
:102C2C00F8E43FF9880A890B8882F583E064017027
:102C3C002CEE2480F582E43FF583EA2401F8E43B92
:102C4C00F9E0687003A3E06970137C1A7D08EEFA52
:102C5C00EFFB121019850A82850B83E4F0AC08ADEA
:102C6C0009EEFAEFFB122B4CE9F91237697F0402DB
:102C7C002910EE2435F582E43FF58322C082C0830F
:102C8C00851882851983E0F8A3E0F9C3EA9CEB9DD3
:102C9C005010C3EC98ED99401BC3EA98EB99501473
:102CAC00800EC3EA98EB994007C3EC98ED99400469
:102CBC00790180027900D083D08222EAC39CFAEB9E
:102CCC009DFB2274ED1228649004C3E06408600537
:102CDC00E06407702C9061C8E060269004F1E0F885
:102CEC0074FF68601CE875F00DA4C8AAF02AF9748A
:102CFC00F328FE740439FF8E828F83A3A3A3E070A4
:102D0C00057900022E71EE2468F50EE43FF50F9064
:102D1C006060E0850E82850F83F07510B475110824
:102D2C00750800750900E5D914F50AE5D95403F5C1
:102D3C000B601FEE2483F50CE43FF50D7403650B5B
:102D4C006059E50A6017EE2467F582E43FF583E0ED
:102D5C00700B793DEEFAEFFB12104980A49008AF8E
:102D6C00E064016023850C82850D83E060047A04A5
:102D7C0080027A00E50AC39AFA95E0FB120DFD8AEF
:102D8C00088B09EA45097006121343022D0D850CB8
:102D9C0082850D83E070048A108B117A008014E513
:102DAC00D9C0E0EAF8E51028F582E43511F583D0B6
:102DBC00E0F00AEAC3950A40E6850C82850D83E0B3
:102DCC00602874FC250AF50A7810122A0BAC0AA9A3
:102DDC000BEEFAEFFB121103740212279EE9700A34
:102DEC00AA08AB091218BF022D5E7403650B605460
:102DFC00850A0C750D00780C122A0BAC10AD11AABB
:102E0C0008AB091210C7740212279E850E82850F1B
:102E1C0083E0F87480687005750C7F8002880CE57F
:102E2C000CF50D780D122A0F780B122A0FA90AAC8B
:102E3C0008AD099004F1E0FA7B00120C1D7402122B
:102E4C00279E801C9004C3E06408AC10AD1170097F
:102E5C00EEFAEFFB1211338007EEFAEFFB1211EDD5
:102E6C0012134F79017F0C02291074F31228647429
:102E7C00FC122788EAFEEBFF8909A2AFE433F508C0
:102E8C00C2AFEE2463F50AE43FF50B8010AA0AAB3F
:102E9C000B12107F1218BF900821E004F0850A82F3
:102EAC00850B83E0F8A3E0F9E849602DE82402FAE9
:102EBC00E439FBEA2402F50CE43BF50D780C122AFC
:102ECC000B8A828B83E0FCA3E0F9EEFAEFFB121085
:102EDC0073740212279EE960B4900821E0604D9053
:102EEC000822E0F8900821E0C398500C74026509A0
:102EFC00703A900823E060348E828F83A3A3A3A33F
:102F0C00E0851882851983122F4874021227D4E8A1
:102F1C00122F48900820E028F074021227EEAA180D
:102F2C00AB197901120C7D900821E4F0E508A2E0C0
:102F3C0092AF740412279E7F06022910F0A3E4F0CE
:102F4C00900821E0F82200008521878522C622C046
:102F5C00E074EB122950A2AFE433F508C2AF759BB5
:102F6C0000906182E0A2E05030E591A2E0502A7519
:102F7C0091FE7401652170211230EE12124712304D
:102F8C00DC122A1E123513740412279EE964017098
:102F9C000579011212A1122CCF906182E0A2E550AA
:102FAC005DE591A2E550577591DF9004C3E064078D
:102FBC006005E06408702F1230EE74016521703EDC
:102FCC001212471230DC122A1E1235137404122707
:102FDC009EE96401700579011212A17901EEFAEFF4
:102FEC00FB122E768018E0640D70139004E5E0045B
:102FFC00F064287002E4F07A00E0F9121355906145
:10300C0082E0A2E640030230B1E591A2E640030261
:10301C0030B17591BF9004C3E06405700812122F93
:10302C0012123B80031212357521001212BFE99067
:10303C0004C4F079001212A1120F3B7A017B0090AC
:10304C0004C2E0F912188F907803E0644270569035
:10305C0008B3E014F0704EC2AF12306800782AD07A
:10306C00E0F618D0E0F6E59F5407F87005750DFFF3
:10307C008003750D7FC4C0E07829E6F50A08E65593
:10308C000DF50B740B780A122766D0E0250AF89020
:10309C006270E0A2E740F8E8C333906272F090628D
:1030AC0070E0D2E0F0906181E0A2E35009E5E9A282
:1030BC00E3500375E9F7A3E0A2E75009E591A2E715
:1030CC00500375917FE508A2E092AF7F080229AF0B
:1030DC008E828F83E0F8A3E0C82416F582E438F5DD
:1030EC0083229004F1E0F875F00DA4C8AAF02AF937
:1030FC0074F328FE740439FF22C0E0C0D0C082C033
:10310C0083906183E0A2E05009E5BFA2E050037513
:10311C00BFFEE0A2E15009E5BFA2E1500375BFFD7F
:10312C00E0A2E25009E5BFA2E2500375BFFBE0A2AA
:10313C00E35009E5BFA2E3500375BFF7E0A2E450EA
:10314C0009E5BFA2E4500375BFEFE0A2E55009E525
:10315C00BFA2E5500375BFDFE0A2E65009E5BFA2B0
:10316C00E6500375BFBFD083D082D0D0D0E032C040
:10317C00E074F2122950E5A7A2E4500FE5A1A2E4F5
:10318C00500953A7EF75A1EF1231CFE5A7A2E55077
:10319C000CE5A1A2E5500653A7DF75A1DFE5A7A2B8
:1031AC00E15009E5A1A2E1500375A1FDE5A7A2E25A
:1031BC00500CE5A1A2E2500653A7FB75A1FB7F01C1
:1031CC000229AF74F81228647521019004C3E064DD
:1031DC000670077A007B00121217A2AFE433FED2FE
:1031EC00AF9004C9E0640170187A207B009004C28F
:1031FC00E0F91219C77A207B009004C2E0F912188A
:10320C0095906182E0D2E6F09008B0E0602185C62E
:10321C002280169004C8E064017008E5C654F84496
:10322C0005F5C653BEFC122F547401652160E4EE03
:10323C00A2E092AF7F010229100000008E238F24A0
:10324C00858228858327851882851983E0CEA3E0A3
:10325C00CF852882852783EBC9EAC8EDCBECCA75EC
:10326C00F010C3E833C8E933C9EA33CAEB33CBC334
:10327C00EA9EF526EB9FF525B35004AB25AA26EC68
:10328C0033CCED33CDD5F0DAAE23AF242274E91272
:10329C00286474FA122788EAFEEBFF8C088D091259
:1032AC001259EAF8EBF9ECFAEDFB8E828F831226B9
:1032BC00829004C3E024F7C39405500675100102F4
:1032CC0033D012118D8A0A8B0BEA450B7003023333
:1032DC00CD12124D8A0C8B0D12124DEA650C700337
:1032EC00EB650D60ECEEFCEFFDAA18AB1912125356
:1032FC00850A82850B83A3A3780C1226409095C473
:10330C00780C1226078518828519837814122640AA
:10331C009095C47814122607780C7914121C4E5010
:10332C001F780C79141225CC90962C780C121C6EEC
:10333C004047850C10850D11850E12850F138045A5
:10334C0090962C85141085151185161285171378F7
:10335C0010790C1225CC7810121C6E501C751000B4
:10336C00751100751200751301781079141225CCA3
:10337C007810790C122593800C751001751100755D
:10338C0012007513007409781012257490958C78BE
:10339C000C1226407810790C1224D89004C3E064E7
:1033AC0008600AE064066005E0640570209095985A
:1033BC007810121C6E501690962878101225A68044
:1033CC000C751000751100751200751300850882BC
:1033DC00850983781012264F740612279E7F1002DF
:1033EC00291074F712286412126B9008AEE0640175
:1033FC007010906245E4F0A3F053F4F343FE0C53C9
:10340C0090F3121205E5C654B84441F5C6E59E5436
:10341C0047644170F8906185740FF09008ACE0F44B
:10342C007002A3E0602C7508017509009008ACE0EF
:10343C007808122775E508F4FAA3E0600814600A0E
:10344C0014600C800DEA52808008EA52908003EAE6
:10345C0052A079007F0202291074F7122864E9FE49
:10346C00EAFF74016E700C7A807B009004C2E0F964
:10347C0012188F90384CE493F46008E493F9120F0F
:10348C001D800953C6B8E59E544770FA12120B9072
:10349C0008AEE064017003120F539008ACE0F470B6
:1034AC0002A3E0602B7508017509009008ACE07868
:1034BC0008122775E508FAA3E0600814600A146086
:1034CC000C800DEA42808008EA42908003EA42A018
:1034DC0012118D8A088B09A808A909E8496016E51C
:1034EC00E170FCE82414F582E439F583E0F874FF0C
:1034FC0068600288E174016F700A7A019004C2E07E
:10350C00F912192502346074F11228648A088B09A7
:10351C008C0A8D0B9095C47808122607740F12270D
:10352C00D4780C1226409095C4780C122607780893
:10353C00790C121C4E90962C50107808790C122590
:10354C00CC7808121C6E4014800E780C7908122569
:10355C00CC780C121C6E50047901800279007F0823
:10356C0002291074ED1228648A088B098C0A8D0BC1
:10357C009095C4780812260774131227D4780C126D
:10358C0026409095C4780C122607780C7908121CEA
:10359C004E40117808790C1225CCAA08AB09AC0A5C
:1035AC00AD0B80227510007511007512007513019A
:1035BC007810790C1225CC78107908122593AA1062
:1035CC00AB11AC12AD137F0C0229109095C4780886
:1035DC001226408A828B83780812261A7F040229CD
:1035EC001074F51228648C828D8378081226408A18
:1035FC00828B8378081225E0123641C3E098F0A341
:10360C00E099123633401E9095CC78081226408AE9
:10361C00828B8378081225B98E828F83E02420F068
:10362C00A3E0344EF080A4F08E828F83C3E094200C
:10363C00A3E0944E22EA2404F8E43BF9E8FEE9FF07
:10364C008C828D83A3A3A3A3E0F8A3E0F98E828FD1
:10365C00832274F5122864E9FE90083CE0FAA3E09A
:10366C00FBEE29F8E433F9749828F582749139F556
:10367C0083E02AF508A3E03BF5097808122A0B90A1
:10368C0095D812265E123248740212279E8A088B35
:10369C00098C0A8D0B7410780812255BAA08AB09EB
:1036AC007F0402291074F11228648A0C8B0D8C0E85
:1036BC008D0F74111227D4122A2274111227D4E000
:1036CC002401F508A3E03400F509E4F50AF50B78BC
:1036DC000C79081224589096247808122640780CFD
:1036EC007908122458AA0CAB0DAC0EAD0F1232484F
:1036FC00740212279E8B09EA450960047A01800244
:10370C007A00EC2AFCE43DFD74131227D4E0F8A3F4
:10371C00E0F9E8FEE9FFECF8EDF97A717B0212268C
:10372C00FD88088909E4F50AF50B8E828F837808E9
:10373C0012264FECF8EDF97A717B021226FD8A08FD
:10374C008B09740578081227758E828F83A3A3A327
:10375C00A3E508F0A3E509F07F08022910C082C098
:10376C0083E9906000F0D083D08222C0E074F21222
:10377C002950A2AFE433FED2AFE589A2E14006E5C1
:10378C0089A2E25003121799758900758900C2C588
:10379C00751A00EEF8EEA2E092AF7F010229AFC0DD
:1037AC00E074F2122950A2AFE433FED2AFE58BA243
:1037BC00E05003121799758B00C2E8751A00EEF8E9
:1037CC00EEA2E092AF7F010229AFC0E0C0D0E8C00A
:1037DC00E0E9C0E0A2AFE433F8D2AFC2C7751A007B
:1037EC00E8F9E8A2E092AFD0E0F9D0E0F8D0D0D080
:1037FC00E032C2AF02000022C0E074F212295090F5
:10380C00193874FFF090193974FFF07C027D007A3E
:10381C00387B1912055DE97A047B009018B7E0F942
:10382C0012188FE9A291E433F4D2F0A29130F00196
:10383C00B39291758900C2C57F010229AF02013292
:10384C00FFFFFFFFFFFFFFFFEAF8EBF9E824FFFAA9
:10385C00E934FFFBE84960217800790078DC7905D0
:10386C00C3E89401E99400A2D265D03340DA00E8B1
:10387C0024FFF8E934FFF980E702013274F71227CC
:10388C00F889087E0080010EEEC395085022EEF8F0
:10389C007900EA28F582EB39F583E0FFEEF8790040
:1038AC00EC28F582ED39F583E06F60DB790080025E
:1038BC0079017F010228CA74F01227F8E9FE7C0016
:1038CC00750800750900750A00750B00803A909612
:1038DC0044780C1226407808790C122458ECF879AC
:1038EC0000EA28F582EB39F583E0F87900E824D07A
:1038FC00F50CE934FFF50DE50D3395E0F50EF50FFC
:10390C007808790C1225930CECC39E500FECF879C7
:10391C0000EA28F582EB39F583E070B2AA08AB090E
:10392C00AC0AAD0B7F080228CA74F71227F874EFA3
:10393C00122788909126AC18AD19741112269B7819
:10394C00757918888289837430F088828983A3A85A
:10395C0082A983888289837478F088828983A3A85A
:10396C0082A983EA2406FA50010B7E06806CEA24B5
:10397C00FFF582EB34FFF583AA82AB83E0C4540FCE
:10398C00FC7D00851882851983E5822CF582E58300
:10399C003DF583E0C0E088828983D0E0F08882899D
:1039AC0083A3A882A9838A828B83E0FC7D00EC54DC
:1039BC000FFCED5400FD851882851983E5822CF5EA
:1039CC0082E5833DF583E0C0E088828983D0E0F016
:1039DC0088828983A3A882A9831EEE70918882892C
:1039EC00837400F07A757B18741112279E7F010284
:1039FC0028CAC082C0837CBD7D177AB67980121923
:103A0C0091E9D083D08202013274F71227F8E9FED3
:103A1C00EE6003023AB09017BD7404F09017BE74B8
:103A2C0000F09017BF7400F09017C07400F07C1178
:103A3C007D927AC17B17121BFB9017CD7400F07C22
:103A4C001C7D957ACE7B17121BFB9017D57400F05A
:103A5C007C0D7D0079007AD67B1712184D9017F0EB
:103A6C007400F09017F17400F07C787D0079007A86
:103A7C00F37B1712184D90186B7400F0A37400F0C0
:103A8C0090186D7400F090186E7400F090186F74AC
:103A9C0000F090187074F4F0A37401F09018727424
:103AAC0000F0802B74016E70267C0D7D0079007AFD
:103ABC00D67B1712184D9017F07400F09017F17414
:103ACC0000F07C787D0079007AF37B1712184D7C1E
:103ADC00007D0079007A097B0412160DE9121A4B4D
:103AEC007F010228CA74F41227F874D31227889025
:103AFC0017BDE0F5087509007808122A0B7C9E7D2D
:103B0C008E74021227E6121BFB740212279EAA184F
:103B1C00AB1912182F8A088B09AC08AD09AA18AB7F
:103B2C00191217FF7A647B00121A339017BEE0F556
:103B3C00087509007808122A0B7C3C7D8F740212E0
:103B4C0027E6121BFB740212279EAA18AB19121837
:103B5C002F8A088B09AC08AD09AA18AB191217FFEC
:103B6C007A647B00121A339017BFE0F508750900D0
:103B7C007808122A0B7CEF7D8E74021227E6121B3A
:103B8C00FB740212279EAA18AB1912182F8A088BE5
:103B9C0009AC08AD09AA18AB191217FF7A647B009F
:103BAC00121A339017C0E0F5087509007808122A2C
:103BBC000B7C407D9074021227E6121BFB740212E0
:103BCC00279EAA18AB1912182F8A088B09AC08ADBE
:103BDC0009AA18AB191217FF7A647B00121A3375F5
:103BEC0008C17509177808122A0B7CCD7D8F7402D9
:103BFC001227E6121BFB740212279EAA18AB19128D
:103C0C00182F8A088B09AC08AD09AA18AB19121722
:103C1C00FF7A647B00121A339017CDE0F508750912
:103C2C00007808122A0B7CFB7D8F74021227E61297
:103C3C001BFB740212279EAA18AB1912182F8A08A4
:103C4C008B09AC08AD09AA18AB191217FF7A647B63
:103C5C0000121A337508CE7509177808122A0B7CD6
:103C6C00297D9074021227E6121BFB740212279E08
:103C7C00AA18AB1912182F8A088B09AC08AD09AA1F
:103C8C0018AB191217FF7A647B00121A339017D5F0
:103C9C00E0F5087509007808122A0B7C127D9074E7
:103CAC00021227E6121BFB740212279EAA18AB19EC
:103CBC0012182F8A088B09AC08AD09AA18AB191277
:103CCC0017FF7A647B00121A337508D675091778BA
:103CDC0008122A0B7CB97D8E74021227E6121BFB8C
:103CEC00740212279EAA18AB1912182F8A088B0976
:103CFC00AC08AD09AA18AB191217FF7A647B001235
:103D0C001A33750800750900023DA69092A574201F
:103D1C001227EE740D12269B750A0C750B00780A8F
:103D2C00122A0BA808A909E875F00CA4C8AAF0750A
:103D3C00F000A42AFA75F00CE9A42AF974F328FC13
:103D4C00741739FD74221227E612183574021227E3
:103D5C009E74201227DE880A890B780A122A0B78A7
:103D6C0008122A0B7C247D9374041227E6121BFB89
:103D7C00740412279EAA18AB1912182F8A0A8B0BDF
:103D8C00AC0AAD0BAA18AB191217FF7AC87B00123C
:103D9C001A330508E508700205099017F0E0F87968
:103DAC0000C3E50898E50999A2D265D03350030207
:103DBC003D1790186B122A227C587D8E74021227A4
:103DCC00E6121BFB740212279EAA18AB1912182FAD
:103DDC008A088B09AC08AD09AA18AB191217FF7A1F
:103DEC00647B00121A3390186DE0F5083395E0F5FA
:103DFC00097808122A0B7CE47D8F74021227E612D4
:103E0C001BFB740212279EAA18AB1912182F8A08D2
:103E1C008B09AC08AD09AA18AB191217FF7A647B91
:103E2C0000121A3390186FE0F50875090078081223
:103E3C002A0B7C097D8F74021227E6121BFB74027D
:103E4C0012279EAA18AB1912182F8A088B09AC08D6
:103E5C00AD09AA18AB191217FF7A647B00121A333A
:103E6C00901870122A227C2E7D8E74021227E61274
:103E7C001BFB740212279EAA18AB1912182F8A0862
:103E8C008B09AC08AD09AA18AB191217FF7A647B21
:103E9C0000121A33901872E0F508750900780812B0
:103EAC002A0B7CD47D8E74021227E6121BFB740243
:103EBC0012279EAA18AB1912182F8A088B09AC0866
:103ECC00AD09AA18AB191217FF7A647B00121A33CA
:103EDC00742D12279E7F040228CAC082C0839017BB
:103EEC00CDE0F9D083D082020132C082C083121A95
:103EFC005DE9640170109018ECE0640270047901C3
:103F0C0080127900800E9018F7E064067004790135
:103F1C0080027900D083D08202013274F41227F827
:103F2C0074F4122788EAFEEBFF121A5DE964016053
:103F3C0003023FF0750800800205089017F0E0F8C6
:103F4C00E508C3985033AA18AB19A908121A6FE9DF
:103F5C006027750A0C750B00780A122A0BEEFCEF21
:103F6C00FD74021227E6121847740212279EE960AC
:103F7C00C8E5089017F2F0806B75080C750900788D
:103F8C0008122A0BEEFCEFFD9017F1E0F87900E82F
:103F9C0075F00CA4C8AAF075F000A42AFA75F00C00
:103FAC00E9A42AF974F328FA741739FB121835743A
:103FBC000212279E9017F1E09017F2F09017F1E0A3
:103FCC002401F09017F1E075F00A84E5F09017F1F8
:103FDC00F09017F0E0C3940A50079017F0E024011A
:103FEC00F0121A4B740C12279E7F040228CA74F527
:103FFC001227F8890AEAFEEBFF121A5DE9640170D8
:10400C00479017F0E0F8E50AC398503C75080C751A
:10401C0009007808122A0BA80A7900E875F00CA49C
:10402C00C8AAF075F000A42AFA75F00CE9A42AF9D4
:10403C0074F328FC741739FDEEFAEFFB1218357483
:10404C000212279E7901800279007F030228CA029E
:10405C00013274F71227F8E9FEEEFA79011217BD56
:10406C00E943FD60EEF8EEA2E092867F010228CAD9
:10407C0074EC1227F87E31750C00750D00750E402E
:10408C00750F40121BB98A088B09AA08AB09EEF808
:10409C007900EAC398F508EB99F509E5093395E041
:1040AC00F50AF50B7808121C8D909588781012265D
:1040BC0040780C7910121EB37808790C12227278A1
:1040CC0008122A0790958812265E121BEF740412B0
:1040DC00279E7F0C0228CA74F51227F87800790005
:1040EC007C007D007E007F007508E8750903901840
:1040FC008EE06405600302428490188FE0F8A3E020
:10410C00F9E875F002A4C885F00A75F000A4250A38
:10411C00F50A75F002E9A4250AF9748428F582746D
:10412C001839F583EAF0A3EBF090188FE02401F036
:10413C00A3E03400F090188FE0F8A3E0F97A057B47
:10414C00001226F590188FEAF0A3EBF078007900B6
:10415C00024256E8FAE9FBEA75F002A4CA85F00AB5
:10416C0075F000A4250AF50A75F002EBA4250AFBEC
:10417C0074842AF58274183BF583E0FAA3E0FBC340
:10418C00EE9AEF9BA2D265D0335028E8FAE9FBEA0D
:10419C0075F002A4CAAEF075F000A42EFE75F00204
:1041AC00EBA42EFB74842AF58274183BF583E0FE95
:1041BC00A3E0FFE8FAE9FBEA75F002A4CA85F00A6D
:1041CC0075F000A4250AF50A75F002EBA4250AFB8C
:1041DC0074842AF58274183BF583C3E09508A3E038
:1041EC009509A2D265D033502EE8FAE9FBEA75F0B6
:1041FC0002A4CA85F00875F000A42508F50875F02E
:10420C0002EBA42508FB74842AF58274183BF58311
:10421C00E0F508A3E0F509E8FAE9FBEA75F002A479
:10422C00CA85F00A75F000A4250AF50A75F002EBB0
:10423C00A4250AFB74842AF58274183BF583E02CC0
:10424C00FCA3E03DFD08E8700109C3E89405E9947E
:10425C0000A2D265D033500302415FECC39EF8ED4F
:10426C009FF9E8C39508F8E99509F97A037B0012E0
:10427C0026F5E8FAE9FB803690188EE0F87900E82C
:10428C0075F002A4C8ACF075F000A42CFC75F0021B
:10429C00E9A42CF9748428F582741839F583EAF0B2
:1042AC00A3EBF090188EE02401F07A007B007F03E2
:1042BC000228CA74F01227F874E0122788E9FEEE7F
:1042CC0090186DF0121A63E9700302436CEEFA3326
:1042DC0095E0FB121A818A088B098C0A8D0B90963B
:1042EC004C780C1226407808790C121EB378081200
:1042FC001D05AA08AB09121A878A088B09780812BF
:10430C002A0BEEF404F5087509007808122A0B7CC8
:10431C00377D9174041227E6121BFB740412279E3E
:10432C00901873E0603AAA18AB19121C0D8A088B0E
:10433C0009AC08AD09AA18AB191217FFAA18AB19CA
:10434C00121C0D8A088B09AC08AD09AA18AB1912FE
:10435C00055DE97A107B009018B7E0F912188FE927
:10436C00742012279E7F080228CA74F61227F8744C
:10437C00E8122788908F55AC18AD19741812269B2B
:10438C007508CE7509177808122A0B7C3B7D927440
:10439C00021227E6121BFB740212279EAA18AB19F5
:1043AC0012182F8A088B09AC08AD09AA18AB191280
:1043BC0017FF741812279E7F020228CA7AC17B1736
:1043CC00020132C082C0839017F0E0600479018052
:1043DC00027901D083D082020132C082C083121ACA
:1043EC0063E9600302447F121A5DE96401705312A1
:1043FC001A9FE9701C901891E070077901121A7BD2
:10440C008029901891E0640170217900121A7B8048
:10441C001A901891E070077901121A7B800D901890
:10442C0091E0640970057900121A7B901891E024D0
:10443C0001F0901891E075F00A84E5F0901891F075
:10444C008063901891E070077900121A7B800D90B0
:10445C001891E0640A70057901121A7B901891E0AA
:10446C002401F0901891E075F01484E5F090189107
:10447C00F08032901891E070077901121A7B800D50
:10448C00901891E0640170057900121A7B901891D4
:10449C00E02401F0901891E075F03284E5F090186A
:1044AC0091F0121AD5D083D082020132C082C0831F
:1044BC009017D5E0F9D083D08202013274F0122724
:1044CC00F879067ACE7B17121A3F8A0C8B0D8C0E5C
:1044DC008D0F850C08850D09850E0A850F0B90959F
:1044EC00D8780C1226407808790C1224D8AA0CAB78
:1044FC000DAC0EAD0F7F080228CAC082C083901786
:10450C00C0E064027004790180027900D083D0820B
:10451C00020132C082C0839017C0E0700479018020
:10452C00027900D083D08202013274F61227F890FF
:10453C001874E06403700479008076901874E06459
:10454C00016008901874E0640470419017F0E0600A
:10455C005E75080C7509007808122A0B9017F2E0AA
:10456C00F87900E875F00CA4C8ACF075F000A42C38
:10457C00FC75F00CE9A42CF974F328FC741739FDC4
:10458C00121835740212279E79018025901874E058
:10459C006402701B75080C7509007808122A0B7CD4
:1045AC00E37D17121835740212279E790180027967
:1045BC00007F020228CA74F61227F8901870E0F5F2
:1045CC0008A3E0F509AA08AB09E4FCFD7F02022868
:1045DC00CA74E91227F874B9122788EAFEEBFF8C2B
:1045EC00088D097514017515007404650870047440
:1045FC00006509703479047C6F7D95EEFAEFFB123F
:10460C001A39E960247C7E7D95AA18AB19121BFB24
:10461C00AA18AB1912182F8A088B09AC08AD09AA75
:10462C0018AB191217FF0255E7740865087004746B
:10463C00006509701679087C627D94EEFAEFFB1226
:10464C001A39E96006121A570255E7740A650870A0
:10465C000474006509600302472A79077CF67D948F
:10466C00EEFAEFFB121A39E9700302472A8E828F99
:10467C0083A3A3A3A3A3A3A3E024D0604B146048FB
:10468C0014604514604214603F24F5600302472413
:10469C009017BDE0F5087509007808122A0B7C000C
:1046AC007D9374021227E6121BFB740212279EAA3A
:1046BC0018AB1912182F8A088B09AC08AD09AA1867
:1046CC00AB191217FF0255E78E828F83A3A3A3A306
:1046DC00A3A3A3E024D09017BDF0121A4B9017BDE2
:1046EC00E0F5087509007808122A0B7C187D937484
:1046FC00021227E6121BFB740212279EAA18AB1992
:10470C0012182F8A088B09AC08AD09AA18AB19121C
:10471C0017FF7515010255E77514000255E7740A69
:10472C006508700474006509701679077CE67D9441
:10473C00EEFAEFFB121A39E960067514000255E720
:10474C00740A6508700474006509701679077CDEBC
:10475C007D94EEFAEFFB121A39E96006751400022B
:10476C0055E7740A65087004740065096003024813
:10477C003B79077CB67D94EEFAEFFB121A39E9709F
:10478C000302483B8E828F83A3A3A3A3A3A3A3E01E
:10479C0024D0604514604214603F24F36003024847
:1047AC00359017C0E0F5087509007808122A0B7CC3
:1047BC00007D9374021227E6121BFB740212279ED3
:1047CC00AA18AB1912182F8A088B09AC08AD09AAC4
:1047DC0018AB191217FF0255E78E828F83A3A3A380
:1047EC00A3A3A3A3E024D09017C0F0121A4B9017E8
:1047FC00C0E0F5087509007808122A0B7C187D9327
:10480C0074021227E6121BFB740212279EAA18AB25
:10481C001912182F8A088B09AC08AD09AA18AB1904
:10482C001217FF7515010255E77514000255E7E5DF
:10483C0008C3940AF8E5099400F9C3E8940BE994C9
:10484C0000400302491679077CC67D94EEFAEFFB13
:10485C00121A39E970030249168E828F83A3A3A31F
:10486C00A3A3A3A3E0643F70357508C1750917783D
:10487C0008122A0B7C0C7D9374021227E6121BFB88
:10488C00740212279EAA18AB1912182F8A088B09CA
:10489C00AC08AD09AA18AB191217FF0255E77C0C2E
:1048AC007D0079007AC17B1712184DE50824F9F5C3
:1048BC0008E50934FFF5097808122A0BEE2407FCE9
:1048CC00E43FFD7AC17B17121835740212279E1231
:1048DC001A4B7508C17509177808122A0B7C307DA4
:1048EC009374021227E6121BFB740212279EAA185D
:1048FC00AB1912182F8A088B09AC08AD09AA18AB92
:10490C00191217FF7515010255E7740A6508700432
:10491C0074006509703C79087CFF7D93EEFAEFFB1F
:10492C00121A39E9602C7C837D93AA18AB19121BDF
:10493C00FBAA18AB1912182F8A088B09AC08AD0901
:10494C00AA18AB191217FF7900121A51751501022A
:10495C0055E7740A650870047400650970167908C7
:10496C007C117D94EEFAEFFB121A39E9600675158D
:10497C00010255E7740A6508700474006509600348
:10498C00024A5879077CCE7D94EEFAEFFB121A3965
:10499C00E97003024A588E828F83A3A3A3A3A3A317
:1049AC00A3E024D0604214603F24F26003024A5218
:1049BC009017CDE0F5087509007808122A0B7C00D9
:1049CC007D9374021227E6121BFB740212279EAA17
:1049DC0018AB1912182F8A088B09AC08AD09AA1844
:1049EC00AB191217FF0255E78E828F83A3A3A3A3E3
:1049FC00A3A3A3E024D0F9E970089017CD7400F0BC
:104A0C0080069017CD7401F0121A4B9017CDE0F57B
:104A1C00087509007808122A0B7C187D9374021211
:104A2C0027E6121BFB740212279EAA18AB19121848
:104A3C002F8A088B09AC08AD09AA18AB191217FFFD
:104A4C007515010255E77514000255E7740A6508DF
:104A5C00700474006509701079087C597D94EEFA25
:104A6C00EFFB121A39E97022740F65087004740098
:104A7C0065096003024B3779077CEE7D94EEFAEF03
:104A8C00FB121A39E97003024B378E828F83A3A372
:104A9C00A3A3A3A3A3E0643F70357508CE750917D3
:104AAC007808122A0B7CF37D9274021227E6121BF3
:104ABC00FB740212279EAA18AB1912182F8A088BA6
:104ACC0009AC08AD09AA18AB191217FF0255E77506
:104ADC0008067509007808122A0BEE2407FCE43F3F
:104AEC00FD7ACE7B17121835740212279E9017D4BC
:104AFC007400F0121A4B7508CE7509177808122A33
:104B0C000B7C307D9374021227E6121BFB7402128D
:104B1C00279EAA18AB1912182F8A088B09AC08AD5E
:104B2C0009AA18AB191217FF0255E7740A65087029
:104B3C0004740065096003024C0179077CFE7D94C6
:104B4C00EEFAEFFB121A39E97003024C018E828FD8
:104B5C0083A3A3A3A3A3A3A3E024D0604214603F28
:104B6C0024F26003024BFB9017D5E0F508750900A1
:104B7C007808122A0B7C007D9374021227E6121B14
:104B8C00FB740212279EAA18AB1912182F8A088BD5
:104B9C0009AC08AD09AA18AB191217FF0255E78E1C
:104BAC00828F83A3A3A3A3A3A3A3E024D09017D5A0
:104BBC00F0121A4B9017D5E0F50875090078081219
:104BCC002A0B7C187D9374021227E6121BFB7402CD
:104BDC0012279EAA18AB1912182F8A088B09AC0839
:104BEC00AD09AA18AB191217FF7515010255E77517
:104BFC0014000255E7C3E508940AE5099400404502
:104C0C0079087C507D94EEFAEFFB121A39E9603585
:104C1C007508D67509177808122A0B7CE67D9274F4
:104C2C00021227E6121BFB740212279EAA18AB195C
:104C3C0012182F8A088B09AC08AD09AA18AB1912E7
:104C4C0017FF0255E7740A65087004740065096063
:104C5C0003024CEC79087C6B7D94EEFAEFFB121A94
:104C6C0039E9607C121A5DE96401706E9095A87444
:104C7C00431227EE740412269B7E00901874740164
:104C8C00F09017F0E070047E0180057E00121AEDA2
:104C9C00EEF83395E0F974431227D4E58228F582B7
:104CAC00E58339F583E0F5087509007808122A0BBD
:104CBC007C547D9374021227E6121BFB740212279C
:104CCC009EAA18AB1912182F8A088B09AC08AD09CB
:104CDC00AA18AB191217FF0255E77514000255E715
:104CEC00741465087004740065096003024D9B79A7
:104CFC00067C317D95EEFAEFFB121A39E97003024E
:104D0C004D9B90967374401227EE740312269B757C
:104D1C000800121A5DE96401706F9018747402F047
:104D2C00750A0C750B00780A122A0BEE2406FCE4AB
:104D3C003FFD7AE37B17121835740212279EA808E0
:104D4C00790074401227D4E58228F582E58339F581
:104D5C0083E0F5087509007808122A0B7C547D93C2
:104D6C0074021227E6121BFB740212279EAA18ABC0
:104D7C001912182F8A088B09AC08AD09AA18AB199F
:104D8C001217FF121AED0255E77514000255E7745D
:104D9C000A6508700474006509705579087CF67D05
:104DAC0093EEFAEFFB121A39E96045121A5DE964C9
:104DBC000170377901121A517C007D0079007A0953
:104DCC007B0412160DE97CAF7D93AA18AB19121B4C
:104DDC00FBAA18AB1912182F8A088B09AC08AD095D
:104DEC00AA18AB191217FF0255E77514000255E704
:104DFC00740A65087004740065096003024EC57975
:104E0C00087C087D94EEFAEFFB121A39E970030264
:104E1C004EC5121A5DE964016003024EC5121A5D9B
:104E2C00E964016003024EBF9017F0E070247CC669
:104E3C007D91AA18AB19121BFBAA18AB1912182FCB
:104E4C008A088B09AC08AD09AA18AB191217FF0216
:104E5C0055E77E009017F0E0F8EEC398400302553A
:104E6C00E7EEF87900E875F00CA4C8AAF075F0002C
:104E7C00A42AFA75F00CE9A42AF974F328F508743D
:104E8C001739F5097808122A0B7CB27D927402123C
:104E9C0027E6121BFB740212279EAA18AB191218D4
:104EAC002F8A088B09AC08AD09AA18AB191217FF89
:104EBC000E80A17514000255E7740A65087004741D
:104ECC00006509704579087C8F7D94EEFAEFFB1232
:104EDC001A39E960357508747509957808122A0B2A
:104EEC007C797D9574021227E6121BFB7402122743
:104EFC009EAA18AB1912182F8A088B09AC08AD0999
:104F0C00AA18AB191217FF0255E7740A650870044A
:104F1C00740065096003024FC379077CBE7D94EE73
:104F2C00FAEFFB121A39E97003024FC3121A5DE94A
:104F3C006401707D8E828F83A3A3A3A3A3A3A3E09C
:104F4C00643F703090186B122A227C157D95740288
:104F5C001227E6121BFB740212279EAA18AB191219
:104F6C00182F8A088B09AC08AD09AA18AB191217AF
:104F7C00FF0255E790186B7410F0A37427F0121A07
:104F8C004B90186B122A227C2D7D9274021227E60C
:104F9C00121BFB740212279EAA18AB1912182F8A27
:104FAC00088B09AC08AD09AA18AB191217FF0255EA
:104FBC00E77514000255E7740A65087004740065FF
:104FCC0009704A790A7C2C7D94EEFAEFFB121A399F
:104FDC00E9603A90186DE0F5083395E0F50978082A
:104FEC00122A0B7CD97D9274021227E6121BFB74D9
:104FFC000212279EAA18AB1912182F8A088B09AC1B
:10500C0008AD09AA18AB191217FF0255E7740A6507
:10501C000870047400650960030250F079077CAED7
:10502C007D94EEFAEFFB121A39E970030250F08E00
:10503C00828F83A3A3A3A3A3A3A3E0643F703890A0
:10504C00186FE0F5087509007808122A0B7CBF7DF3
:10505C009274021227E6121BFB740212279EAA18E6
:10506C00AB1912182F8A088B09AC08AD09AA18AB1A
:10507C00191217FF0255E78E828F83A3A3A3A3A354
:10508C00A3A3E024D090186FF090186FE0C39404A1
:10509C00400690186F7400F0121A4B90186FE0F5E0
:1050AC00087509007808122A0B7C187D937402127B
:1050BC0027E6121BFB740212279EAA18AB191218B2
:1050CC002F8A088B09AC08AD09AA18AB191217FF67
:1050DC0090186FE0F87403C398F9120BF9E9751581
:1050EC00010255E7740A6508700474006509600FC5
:1050FC00740F650870047400650960030251D1795E
:10510C00077C067D95EEFAEFFB121A39E970030263
:10511C0051D1121A5DE960030251CB8E828F83A3A9
:10512C00A3A3A3A3A3A3E0643F7030901870122A2A
:10513C00227CD57D9174021227E6121BFB7402129D
:10514C00279EAA18AB1912182F8A088B09AC08AD28
:10515C0009AA18AB191217FF0255E77906EE2407B6
:10516C00FAE43FFB121A3F8A088B098C0A8D0B90CC
:10517C001870E508F0A3E509F0901870C3E09410DE
:10518C00A3E0942740030255E7121A4B90187012B3
:10519C002A227C2D7D9274021227E6121BFB7402CC
:1051AC0012279EAA18AB1912182F8A088B09AC0863
:1051BC00AD09AA18AB191217FF7515010255E77541
:1051CC0014000255E7740A650870047400650960E0
:1051DC000302529C79077CA67D94EEFAEFFB121A1F
:1051EC0039E9700302529C8E828F83A3A3A3A3A3DD
:1051FC00A3A3E0643F7038901872E0F508750900BD
:10520C007808122A0B7C007D9374021227E6121B7D
:10521C00FB740212279EAA18AB1912182F8A088B3E
:10522C0009AC08AD09AA18AB191217FF0255E7799A
:10523C0001EE2407FAE43FFB121A3F8A088B098C13
:10524C000A8D0BE508901872F0901872E0C3940266
:10525C005038121A4B901872E0F50875090078084E
:10526C00122A0B7C187D9374021227E6121BFB7416
:10527C000212279EAA18AB1912182F8A088B09AC98
:10528C0008AD09AA18AB191217FF7515010255E7DD
:10529C00740A6508700474006509704B790A7C788F
:1052AC007D93EEFAEFFB121A39E9603B121A5DE9B5
:1052BC006401702D9018747403F07CA47D93AA186B
:1052CC00AB19121BFBAA18AB1912182F8A088B09E1
:1052DC00AC08AD09AA18AB191217FF121AED02553A
:1052EC00E77514000255E7740A65087004740065CC
:1052FC0009703A79077C987D94EEFAEFFB121A3913
:10530C00E9602A121A5DE96401701C901874740427
:10531C00F08E828F83A3A3A3A3A3A3A3E024D0F92D
:10532C00121B23E90255E77514000255E774096551
:10533C000870047400650960030255E479067C2347
:10534C007D95EEFAEFFB121A39E970030255E48EE3
:10535C00828F83A3A3A3A3A3A3E0F516E51624CC05
:10536C00601814601914601A14601B147003025432
:10537C001F1470030254F30255DF7E04800A7E056D
:10538C0080067E0680027E0779801217397A04EE39
:10539C00F91217338A088B09AC08AD098C088D09F2
:1053AC00E4F50AF50B7808121CA8909650780C12AC
:1053BC0026407808790C121EB3909654780C12265D
:1053CC00407808790C1222727808122A078C088D02
:1053DC00097808122A0BA8167900E824D0F508E9F8
:1053EC0034FFF5097808122A0B7CB57D8F740812EE
:1053FC0027E6121BFB740812279EAA18AB19121869
:10540C002F8A088B09AC08AD09AA18AB191217FF23
:10541C000255E77E117F0175089975090179001213
:10542C0017397A02790F1217338A0A8B0BAC0AAD33
:10543C000BC3EC9508ED9509400478648059C3EED4
:10544C009CEF9D40047800804EE508C39EF8E5096A
:10545C009FF9E82401FAE439FB8A088B0974027875
:10546C0008122766AA08AB09ECC39EF8ED9FF9E871
:10547C0075F019A4C8AEF075F000A42EFE75F019E5
:10548C00E9A42EF9E82AF8E93BF9E824FFF8E93415
:10549C00FFF91226FDE8F888087509007808122A29
:1054AC000B8C088D097808122A0BA8167900E824B1
:1054BC00D0F508E934FFF5097808122A0B7C6E7DCB
:1054CC009074061227E6121BFB740612279EAA186C
:1054DC00AB1912182F8A088B09AC08AD09AA18ABA6
:1054EC00191217FF0255E7750C00750D00750E00AB
:1054FC00750F0090624B7401F09061A97401F07EFD
:10550C0000805779001217397A03790E1217338AF3
:10551C00088B09AC08AD098C088D09E4F50AF50B6C
:10552C007808121CA89096587810122640780879A2
:10553C0010121EB390965C781012264078087910E1
:10554C001220589096607810122640780879101224
:10555C002272780C79081220580EEEC3944040A3A6
:10556C00850C08850D09850E0A850F0B90964878D9
:10557C000C1226407808790C12227290624BE0C211
:10558C00E0F09061A9E0C2E0F07808122A078C08DC
:10559C008D097808122A0BA8167900E824D0F50892
:1055AC00E934FFF5097808122A0B7C577D907408B2
:1055BC001227E6121BFB740812279EAA18AB1912AD
:1055CC00182F8A088B09AC08AD09AA18AB19121749
:1055DC00FF80087514008003751400E51560117ABE
:1055EC00C87B00121A33C2AF75C9AB75C95B80FE9C
:1055FC00A914744712279E7F0F0228CAC082C08349
:10560C0074FE12278890968CAC18AD197402122671
:10561C009B901892E02401F0A3E03400F0901892D3
:10562C00C3E0943CA3E094004043121601900EAEEC
:10563C00E0C0E0851882851983D0E0F0900EACE0D4
:10564C00C0E074011227D4D0E0F07C027D00AA18CF
:10565C00AB1912055DE97A047B009018B7E0F912DA
:10566C00188FE99018927400F0A37400F074021271
:10567C00279ED083D08202013274F61227F874C8A8
:10568C00122788E9FE7F01EEA2E540030257259020
:10569C001B36E0C2E5F07C2A7D957A947B18121BB0
:1056AC00FB7C3C7D937AA07B18121BFB901B35E096
:1056BC007004740180027400901B35F0901B35E06F
:1056CC006007790112191F8005790012191F901BB0
:1056DC0035E0F5087509007808122A0B7CC47D9317
:1056EC00740E1227E6121BFB740212279E790674A5
:1056FC000C1227E61217AB740C1227E6121C0D8A3B
:10570C00088B09AC08AD09740C1227E61218057A3F
:10571C00017B00121A33025935EEA2E05042901B65
:10572C0036E0C2E0F07C0E7D957A947B18121BFB60
:10573C007C747D947AA07B18121BFB121A5DE964B1
:10574C000160030259359018ECE0640270030259B1
:10575C00357C0A7D007A787B93121ACFE902593591
:10576C00EEA2E45031901B36E0C2E4F07C7D7D94D7
:10577C007A947B18121BFB7CA87D917AA07B181263
:10578C001BFB901873E07004780180027800E8909D
:10579C001873F0025935EEA2E3503B901B36E0C271
:1057AC00E3F07C867D947A947B18121BFB7C867DBF
:1057BC00947AA07B18121BFB121A5DE9640160033A
:1057CC000259359018ECE0640270030259357901E6
:1057DC00121B11025935EEA2E15020901B36E0C28B
:1057EC00E1F07CCE7D937A947B18121BFB7C037DBD
:1057FC00917AA07B18121BFB025935EEA2E24003F2
:10580C00025933901B36E0C2E2F07C997D937A9476
:10581C007B18121BFB7CE47D917AA07B18121BFB7E
:10582C00121A5DE9640160030258D79018ECE06429
:10583C00026039121B17E9F5087509007808122A5D
:10584C000B7C6C7D9374021227E6121BFB74021204
:10585C00279EAA18AB19121C0D8A088B09AC08AD2F
:10586C0009AA18AB19121ACFE9025935121A63E9B1
:10587C0070030259359018B4E06004780080027807
:10588C0001E89018B4F09018B4E0F50875090078A8
:10589C0008122A0B7C8B7D9274021227E6121BFBDA
:1058AC00740212279EAA18AB19121C0D8A088B09B8
:1058BC00AC08AD09AA18AB1912055DE97A107B008A
:1058CC009018B7E0F912188FE9805E121A63E9603C
:1058DC00589018B5E06004780080027801E89018C0
:1058EC00B5F09018B5E0F5087509007808122A0B88
:1058FC007C717D9274021227E6121BFB7402122734
:10590C009EAA18AB19121C0D8A088B09AC08AD099C
:10591C00AA18AB1912055DE97A107B009018B7E054
:10592C00F912188FE980027F00901B36E0701490FA
:10593C0018B6E0700E9018B67401F07A017907125F
:10594C0017BDE9EF60567508A07509187808122A7A
:10595C000B7C457D95740E1227E6121BFB7402120C
:10596C00279E901B36E060067800790080047880D2
:10597C007900E84408F9740C1227E61217AB750885
:10598C00947509187808122A0B7C457D95740E12B3
:10599C0027E6121BFB740212279E80547508A07513
:1059AC0009187808122A0B7C387D95740E1227E69C
:1059BC00121BFB740212279E901B36E060067800C7
:1059CC007900800478807900E84408F9740C122777
:1059DC00E61217AB7508947509187808122A0B7C17
:1059EC00387D95740E1227E6121BFB740212279E4B
:1059FC00740C1227DE880889097808122A0B7C7926
:105A0C007D9574261227E6121BFB740212279E1238
:105A1C001A63E9702174241227E6121C0D8A088B74
:105A2C0009AC08AD0974241227E61217FF7A017B22
:105A3C0000121A33802674241227E6121C0D8A08D1
:105A4C008B09AC08AD0974241227E612055DE97ABE
:105A5C00107B009018B7E0F912188FE974381227F0
:105A6C009E7F020228CA74EC1227F874C012278891
:105A7C00EAFEEBFF8C088D09C3E5089409E509944F
:105A8C0000403979087C477D94EEFAEFFB121A3905
:105A9C00E960298E828F83A3A3A3A3A3A3A3A3E06E
:105AAC00F8743068700B7A0079021217BDE9025E47
:105ABC001F7A0179021217BDE9025E1FC3E5089433
:105ACC0009E5099400403979087C3E7D94EEFAEFA3
:105ADC00FB121A39E960298E828F83A3A3A3A3A397
:105AEC00A3A3A3E0F8743068700B7A007904121742
:105AFC00BDE9025E1F7A0179041217BDE9025E1F2F
:105B0C00C3E5089409E5099400403579087C357D96
:105B1C0094EEFAEFFB121A39E960258E828F83A37B
:105B2C00A3A3A3A3A3A3A3E0F874306870099018EF
