:020000040000FA
:0600000002011A02317535
:03002B0002387127
:030033000238464A
:03003B00023899EF
:030043000237E79A
:030053000231EB8C
:03006B0002381246
:10008300022FCBE5C754F84401F5C77901220000DC
:100093000080FB120086B90003020104E479217891
:1000A30008B800028004F709D8FCE479297802B87B
:1000B30000028004F709D8FCE4900281783B7919A7
:1000C3008002F0A3D8FCD9FA781A90014A7A01BACF
:1000D30000028007E493A3F608DAF97ABB7B1A904F
:1000E300014B78DF79048015E493A3AD82AE838A54
:1000F300828B83F0A3AA82AB838D828E83D8E9D9C6
:10010300E775826A7583E9740512012C758291750E
:100113008300740012012C75D00075813F7518811E
:10012300751902759F00020096C09FF59FE473D076
:100133009F22D083D082C09FE493C0E0740193C018
:10014300E0740293F59F2201CD06D9060F07090734
:10015300FF0000B4000028002800283075A000A08C
:1001630000A000A00000080008E001F0001000104B
:10017300001000100010001000500050005000103C
:10018300001000D0070000000000000F0001000570
:1001930000307507001000010081FF00000000FF20
:1001A300FFFF4D086B0853088F08FF020202080285
:1001B3005000A0000000E80302E99A010000CF9A72
:1001C30002EF9A0100001E1B02F99A0100000A04C3
:1001D30002EF9A0100001F1B02FB9A01000020049A
:1001E30002EF9A010000201B02FD9A010000220485
:1001F30002EF9A010000211B02FF9A08000023046A
:1002030002EF9A010000221B02039B010000231B43
:10021300FFFF0100FF2002E99A010000D29A02EFDA
:100223009A010000881B02059B000000000002F3F6
:100233009A03000053041700D510D510D510D5101C
:10024300D510D510D510D510D510D510D510D51083
:10025300D5103913571333137D148F1477140202F7
:1002630002020202020202010D000000100102E973
:100273009A010000D89A02EF9A010000D11B0207ED
:100283009B010000A20E02EF9A010000D21B0201A3
:100293009B0100007C9602EF9A010000D31B02F53C
:1002A3009A0100003C9502EF9A010000D41B02E37F
:1002B3009A0100009D9302EF9A010000D51B02F7FB
:1002C3009A010000679302EF9A010000D61B02DB3C
:1002D3009A010000AF9302EF9A010000D71B02DDE1
:1002E3009A0100008B9302EF9A010000D81B02DFF2
:1002F3009A010000749502EF9A010000D91B02E1F4
:100303009A010000DA1B01E803057710020A0A9339
:1003130016FFFFFF00013075030201060000000015
:1003230000000000000000000000000000000000CA
:100333000000000000000000FFFF0600800CE8033F
:10034300013FFEFF01010201060302F0FF02010665
:100353001AFF4C000215E2C56DB5DFFB48D2B06051
:10036300D0F5A71096E000010002CDCD1BD31BDF13
:100373001BE51BD91B0A436861726163746572696B
:100383007374696320310002436861726163746549
:100393007269737469632032000843686172616330
:1003A3007465726973746963203300104368617202
:1003B300616374657269737469632034000243680E
:1003C30061726163746572697374696320350016C1
:1003D300436861726163746572697374696320361B
:1003E3000002E99A010000D59A02EF9A010000E8A1
:1003F3001C020F9B030000801A02F19A010000E91E
:100403001C02EF9A010000FA1C02119B01000081FB
:100413001A02F19A010000FB1C02EF9A0100000C82
:100423001D02139B020000821A02F19A0100000DC3
:100433001D02EF9A0100001E1D02159B00000083A0
:100443001A02F39A030000841A02F19A0100001FB2
:100453001D02EF9A010000301D02179B0400008665
:100463001A02F19A010000311D02EF9A01000042C5
:100473001D02199B0300008B1A02F39A030000A0CC
:100483001A02F19A010000431D0100B0423BAAB8D1
:100493003F0000003F8C906339AA0CA33A00941EDE
:1004A3003C8042633DCFFE753E1572313F000080B4
:1004B3003FF304353F8096184B30313233343536B1
:1004C30037383941424344454600286E756C6C20E9
:1004D300706F696E7465722900303132333435368A
:1004E300373839616263646566003F3F3F0000004F
:1004F300807FF9021550B743BA5100E7DB2E0000A5
:10050300A040000080BF2292D43EDD9B2A3F04001E
:10051300004000000000FFFF7F7FFFFF7FFF01001F
:1005230080341872313F12013535D0051201351C64
:10053300D10512013516D205120135E8CD05120198
:1005430035FBCD051201351CCE0512013587CE05CD
:10055300120135C8CE05120135E9CE051201352A3F
:10056300CF05120135C2CF051201350AD00512019C
:10057300351EBA0512013531BA0512013562BA05C5
:100583001201359CBA05120135F5BA051201353C45
:10059300BB0512013584BB05120135B3BB0512013E
:1005A30035E2BB0512013519BC0512013560BC05E6
:1005B30012013579BC05120135CEBC05120135E7B0
:1005C300BC0512013535BD051201356FBD0512019C
:1005D3003500800412013503810412013530810492
:1005E300120135818104120135A48104120135B64B
:1005F3008104120135B98104120135F78104120116
:10060300356B8204120135D782041201359F8304AE
:10061300120135BB8304120135F283041201352C18
:100623008404120135C384041201351585041201B3
:100633003546850412013577850412013584850416
:10064300120135EE8504120135F18504120135FEE0
:1006530085041201350186041201355886041201FE
:10066300355B86041201359486041201359786049E
:10067300120135CB8604120135CE860412013522D0
:1006830087041201356B87041201357B870412013D
:1006930035AE8704120135BB8704120135BE8704CA
:1006A300120135268804120135288904120135CC3C
:1006B3008904120135358A04120135738A04120143
:1006C300353AB20412013537B304120135CDB30400
:1006D30012013518B4041201357CB4041201350635
:1006E300B504120135BFB504120135E1B804120196
:1006F300355EBA0412013581BA0412013529AA05FF
:10070300120135CEAB05120135EEAB051201350FE3
:10071300AD0512013562AD05120135DCFB01120195
:100723003504FC0112013531FC0112013569FC016C
:10073300120135C7FC0112013513FD011201357A8F
:10074300FD01120135BAFD01120135F7FD01120158
:100753003525FE01120135CFFE01120135D9FE0107
:10076300120135E6FE0112013519FF01120135258B
:10077300FF011201353DFF0112013547FF0112014F
:100783003515E40512013523E4051201353BE40573
:1007930012013553E4051201356AE40512013500EF
:1007A3008003120135AA8003120135BD81031201B2
:1007B30035398203120135578303120135938303BD
:1007C3001201352E8403120135128503120135D52A
:1007D30085031201354D8603120135DB87031201B0
:1007E300354C8803120135068903120135F8890354
:1007F300120135388A03120135EC8A031201351EC2
:100803008B03120135148D031201355B8D03120125
:1008130035798D03120135DF8D03120135AE8E0359
:10082300120135728F031201359191031201359B29
:100833009103120135A7F80312013591F90312014F
:10084300353CFA031201358DFA031201353DFB03E2
:10085300120135AEFB0312013593FC03120135C7B8
:10086300FC03120135C0FD03120135FDFD03120126
:1008730035D9FE0312013518FF0312013534FF0386
:100883001201356CD605120135F0D6051201351B60
:10089300D70512013535D8051201356FAE051201A2
:1008A3003585AE05120135A3AE05120135B4AF058A
:1008B300120135BEAF05120135E9B005120135E06D
:1008C300B1051201354DB20512013557B2051201BA
:1008D300356F7900120135A57A001201351F7B00AF
:1008E3001201354F7B00120135627B00120135B9CD
:1008F3007B00120135CE7D00120135F59C021201F9
:1009030035A69D02120135C29D021201358B9E024E
:10091300120135A59E02120135B09E0212013586E1
:100923009F0212013563A002120135F3A0021201E6
:1009330035AAA102120135B8A402120135A7A602F5
:1009430012013559A70212013522A8021201356797
:10095300AB0212013511AC021201353AAD0212019C
:1009630035F6AE0212013596AF02120135E4AF023D
:1009730012013523B002120135F6B0021201352AF5
:10098300B102120135B7B1021201350AD9021201BF
:100993003596D902120135FADA0212013506DB0265
:1009A30012013541DB02120135B0DB02120135B908
:1009B300DC02120135C2DD0212013589DE021201A9
:1009C30035E6DF0212013504E00212013521E002AF
:1009D300120135CEE0021201354BE10212013573EB
:1009E300E1021201353DE40212013542E402120133
:1009F300355BE602120135A9E60212013519E70259
:100A030012013557E70212013533E802120135F3BB
:100A1300E8021201353FE90212013542E9021201EF
:100A23003586E902120135CEE9021201350DEA02DB
:100A33001201352FEA0212013563EA02120135C6AB
:100A4300EA021201351B85051201352485051201C1
:100A530035328505120135858505120135A48505D5
:100A6300120135E985051201352D8705120135C8B7
:100A730087051201350C88051201353688051201E8
:100A830035A58805120135EB880512013562890504
:100A9300120135138A0512013513BC0112013523E6
:100AA300BC01120135C4BC0112013520BD01120184
:100AB30035DDBD01120135F9BE011201352BBF0130
:100AC3001201355ABF0112013507C1011201357EEA
:100AD300C301120135EEC501120135E0C601120151
:100AE30035D9C701120135E0C901120135D4CC0152
:100AF30012013503CE0112013507D001120135175A
:100B0300D101120135A6D20112013597D301120189
:100B130035E5D30112013554D40112013578D401DE
:100B2300120135C9D4011201356AD9011201356B9D
:100B3300DA01120135CCDA01120135F7DA011201BB
:100B430035BDDB01120135F0EE04120135FAEE0476
:100B53001201353FEF0412013553EF04120135E35F
:100B6300EF041201351CF00412013557F004120191
:100B73003580F004120135CEF004120135E3F004A0
:100B8300120135F8F0041201350DF104120135504C
:100B9300F10412013565F104120135D0F10412019B
:100BA30035E4F104120135F8F1041201350DF204B4
:100BB30012013547F2041201356BF2041201359725
:100BC300F204120135CEF20412013530F30412019E
:100BD30035A2F304120135E5F3041201350FF404D1
:100BE3001201353AF4041201350FE205120135A65C
:100BF300CA0312013589CB0312013504CC03120158
:100C0300353FCC0312013590CD0312013519CE03C4
:100C130012013531D003120135C3D20312013575E8
:100C2300D30312013581D403120135F4D503120124
:100C3300354DD603120135ADF904120135F0F9042F
:100C430012013574FA0412013547FB041201351EF3
:100C5300FE04120135E3C80512013590C9051201DE
:100C6300359DCA05120135DCCA0512013536CB059F
:100C730012013557DA05120135BADA051201355773
:100C8300DB051201358CDB05120135BCDB051201D6
:100C930035DDDB0512013518DC0512013538DC05BD
:100CA300120135038F051201358F8F051201354E61
:100CB30090051201356691051201358093051201E5
:100CC30035F6D6031201351BD703120135E8D703D6
:100CD300120135BCD80312013529D9031201357F1E
:100CE300D9031201351BDA031201354FDB0312015D
:100CF300352ADC0312013589DC0312013515DD03C6
:100D030012013583DD031201350FDE0312013512A3
:100D1300DE031201355CDE03120135CEDE03120160
:100D23003560DF0312013501E00312013521E003D1
:100D330012013569E003120135B2E003120135CE29
:100D4300E003120135F4E0031201356EE1031201F1
:100D5300357CE1031201350BE20312013574E20322
:100D63001201354E9805120135D398051201351538
:100D73009905120135F99905120135669A05120193
:100D830035AA9A05120135EE9A051201351B9B050A
:100D9300120135439B051201357B9B05120135B9C1
:100DA3009B05120135E09B051201355A9C05120182
:100DB30035A49C0512013529DC0112013522DE011F
:100DC3001201350EE10112013562E1011201358D87
:100DD300E10112013567E201120135A6E2011201B8
:100DE30035EDE20112013500E30112013541E30162
:100DF3001201356EE301120135BCE301120135FB2B
:100E0300E30112013526E40112013579E4011201EF
:100E13003508E501120135E6E70112013501EA0162
:100E23001201353FEA01120135B4EB01120135F924
:100E3300EB01120135EDEC0112013506EF01120150
:100E43003568EF01120135B9EF01120135D4F40110
:100E530012013523F50112013569F50112013551EE
:100E6300F7011201351FF90112013524F9011201AD
:100E730035FEF90112013577FA01120135A7FB019D
:100E8300120135B9FB011201353DC605120135AF1B
:100E9300C60512013505C70512013549C7051201FB
:100EA3003569C705120135B6C705120135FEC705F9
:100EB30012013551C805120135A2C8051201358842
:100EC300A80412013507A90412013500AF04120169
:100ED3003506B00412013579B10412013510B2049C
:100EE3001201350080021201354980021201357664
:100EF3008002120135A88002120135B4800212016A
:100F030035C08002120135D78002120135B2810249
:100F13001201351082021201354582021201357623
:100F23008302120135C383021201350984021201BF
:100F330035758402120135198502120135CF8502F8
:100F43001201352E86021201359F8602120135FDEC
:100F530086021201352F8802120135978902120188
:100F630035618A021201356E8A02120135B08A0296
:100F7300120135C08A02120135E48A02120135E7F3
:100F83008A02120135D38B021201356F8C021201D2
:100F930035088D021201359F8D02120135CC8D0269
:100FA3001201352A8E02120135718E02120135C1EA
:100FB3008E02120135118F02120135838F02120145
:100FC300351E9002120135C9900212013568910253
:100FD300120135E691021201352D9202120135916B
:100FE3009202120135C09202120135579302120187
:100FF30035699502120135AD9502120135F8950256
:101003001201357E9602120135089702120135212D
:101013009802120135A79802120135CC98021201E9
:10102300352399021201353899021201358099024C
:10103300120135F39902120135389A021201354132
:101043009B02120135F29B02120135509C021201E0
:1010530035AC9C02120135C59C02120135A4BB04B8
:10106300120135F8BB0412013504BC04120135CE5C
:10107300BC04120135FBBC0412013529BD04120165
:101083003595BD04120135CBBD0412013504BE04F0
:101093001201351CBE0412013571BE041201358ADA
:1010A300BE04120135CFBE04120135E2BE041201A3
:1010B30035FCBE0412013512BF0412013530C004E1
:1010C3001201355BC10412013545C20412013536E4
:1010D300C304120135FAFF03120135008005120122
:1010E30035838305120135D084051201352ABE03E9
:1010F300120135FDC00312013503C10312013593FB
:10110300C303120135F6C503120135B79305120166
:10111300354E94051201350C9505120135369505AA
:101123001201351097051201351598051201354145
:101133006300120135736300120135906F001201D1
:1011430035E17000120135EA71001201356973004F
:10115300120135547400120135A37400120135BD18
:101163007400120135FF74001201350A7500120173
:10117300355175001201355A750012013506760096
:10118300120135DF76001201352677001201358E04
:101193007700120135D07700120135FE7700120176
:1011A300353B780012013506C602120135D1C9025A
:1011B300120135D7C9021201357BD002120135CF96
:1011C300D402120135B8D8021201354BB60512010B
:1011D30035C1B605120135D7B60512013567B70516
:1011E300120135A4B705120135DEB7051201351812
:1011F300B8051201358BB805120135CCB8051201BB
:1012030035D5B805120135E1B80512013500B90528
:101213001201352AB9051201353FB90512013567A7
:10122300B905120135C9B905120135F0B905120125
:1012330035C6DC04120135D9DC04120135F3DC04B4
:1012430012013520DD0412013566DD0412013599E2
:10125300DD04120135D7DD041201353CDE04120131
:101263003551DE041201355CDE0412013569DE04FA
:1012730012013580DE041201358EDE041201359D24
:10128300DE04120135B2DE04120135C7DE04120199
:1012930035D2DE04120135DEDE04120135EBDE0445
:1012A300120135FEDE0412013509DF041201352E69
:1012B300DF04120135D2DF04120135E2DF0412012B
:1012C30035F7DF041201350CE00412013526E00482
:1012D30012013543E00412013560E0041201356B5D
:1012E300E00412013517E104120135F8E10412019B
:1012F300351DE20412013528E2041201353DE204F2
:1013030012013551E204120135B2E204120135B87B
:10131300E204120135BEE204120135C4E2041201F3
:1013230035DCE2041201350FE304120135998A0416
:10133300120135BB8A04120135838B041201353D3A
:101343008E04120135538F04120135749004120177
:10135300354E9104120135FD9104120135A7B003F6
:101363001201353EB103120135D6B103120135C660
:10137300B203120135FDB20312013510B30312019A
:10138300357EB30312013519B50312013540B50398
:10139300120135E2B50312013517B60312013528E0
:1013A300B603120135A1B603120135C2B603120109
:1013B30035DAB60312013532B8031201353BBA03ED
:1013C3001201358BBC031201358EBD03120135DDCD
:1013D300BD031201350BA20312013508A303120149
:1013E30035F3A303120135FDA30312013507A4034B
:1013F30012013529A40312013535A40312013587DF
:10140300A503120135B6A503120135E6A6031201A1
:101413003528A70312013554A8031201352AA9035D
:101423001201357CA903120135DBA9031201351220
:10143300AA031201354DAA03120135E8AD031201C7
:101443003501AE0312013583AE0312013591AE03AC
:10145300120135E6AE03120135F4AE031201356114
:10146300AF03120135D3AF0312013519B0031201D3
:101473003597E203120135B9E203120135A3E40300
:1014830012013548E8031201358BE9031201356572
:10149300EA03120135FEDD0512013523DE051201D3
:1014A3003594DE05120135F0C404120135F9C40484
:1014B30012013502C50412013533C6041201355237
:1014C300C80412013588C804120135C2C8041201C8
:1014D30035F8C80412013532C90412013566C9044E
:1014E30012013592C904120135DBC9041201351505
:1014F300CA041201355DCA04120135B3CA041201CC
:1015030035E8CA0412013543CB041201357DCB04FF
:10151300120135CECB0412013504CC041201353E41
:10152300CC041201356CCC041201358FCC041201AA
:101533003515E80512013541E8051201359CE8052A
:10154300120135A6E805120135B6E8051201351D6D
:10155300CD0412013561CD041201350FCE04120101
:101563003587CE04120135D9CE0412013579CF0463
:10157300120135B5CF041201354FD004120135CC19
:10158300D00412013525D2041201353ED2041201D2
:101593003576D30412013509D40412013572D4040B
:1015A300120135DED4041201356EA1051201359501
:1015B300A105120135C5A105120135C0E8051201C7
:1015C300351E9B01120135399E0112013529A001F7
:1015D3001201359BA00112013559A10112013504F5
:1015E300A20112013594A20112013523A3011201B4
:1015F300354DA301120135BAA301120135F4A80137
:1016030012013587A901120135B6AA011201351A53
:10161300AB01120135CEAB0112013581AE011201CE
:1016230035BBAE0112013525AF0112013582AF0181
:10163300120135DFAF011201353CB001120135272C
:10164300B1011201356DB101120135B8B1011201B9
:1016530035D9B1011201353BB30112013556B3013E
:10166300120135DCB40112013509B5011201354906
:10167300B5011201358FB501120135ADB501120166
:1016830035EBB50112013529B80112013562B801F4
:10169300120135F9B80112013599B9011201352C3E
:1016A300BA011201359EBA01120135DFBB011201E5
:1016B3003562F404120135F6F40412013535F604EB
:1016C300120135BEF60412013591F704120135BA41
:1016D300F70412013521F80412013589F8041201C7
:1016E3003523E30512013534E30512013505E4051D
:1016F300120135B8C00512013583C305120135DB6C
:10170300FF03120135B4DF05120135C4DF051201F1
:1017130035E4DF05120135E0E00512013591C3051B
:101723001201352CC40512013522C6051201356498
:10173300D8051201359AD8051201350AD9051201C7
:101743003535D90512013598D90512013508DA0561
:1017530012013546DA0512013549DA05120135253C
:101763008A051201354A8A05120135718A0512016B
:1017730035988A05120135C08A05120135F88A05A4
:10178300120135288B05120135EF8B05120135DA6D
:101793008C05120135148D051201355D8E0512017C
:1017A30035E49C05120135069D05120135989D050A
:1017B300120135969E0512013587A005120135E702
:1017C300A00512013550A105120135F87F00120161
:1017D300354AD205120135EED3051201355AD40527
:1017E3001201354DE9041201354AEB04120135D0DB
:1017F300EB04120135D2EC0412013592ED0412010F
:101803003507EE0412013567EE041201356AEE0462
:1018130012013578EE041201358CEE04120135A461
:10182300EE04120135BCEE04120135CAEE041201B6
:1018330035E2EE0412013552E705120135CCE70516
:10184300120135DCE705120135ECE7051201350518
:10185300E80512013509FE021201353AFE021201B2
:101863003564FE021201351FFF021201353FFF02EC
:1018730012013597FF02120135F19404120135FF6D
:10188300940412013545950412013598950412010B
:1018930035E095041201353A96041201355B96043E
:1018A3001201352F99041201353D9904120135991E
:1018B3009904120135CC9904120135DF9904120100
:1018C300356A9A04120135039B04120135809B0487
:1018D300120135B99B04120135419C04120135985C
:1018E3009C04120135F59C04120135079D04120175
:1018F30035389D04120135419D041201358E9E0435
:1019030012013546DC05120135A7DC051201354409
:10191300DD05120135AADD05120135CDA50512013C
:101923003500A60512013527A7051201354CA70579
:1019330012013511A805120135EDA805120135D0A4
:10194300FE041201359CFF0412013581CB051201FF
:1019530035C6CB0512013506CC05120135A3CD05DD
:10196300120135FAE40512013515E5051201352595
:10197300E5051201358AE505120135CAE5051201AF
:10198300358EE605120135C29E041201359E9F0471
:10199300120135E59F0412013522A0041201358E90
:1019A300A004120135E6A00412013556A104120168
:1019B3003526A2041201350FA30412013586A304B0
:1019C3001201351BA504120135A6A5041201351514
:1019D300A6041201358DA604120135A4A604120132
:1019E30035CDA7041201351FA80412013591E30474
:1019F300120135B1E304120135A1E404120135EA01
:101A0300E4041201350AE50412013548E504120124
:101A130035A3E504120135E1E5041201352BE60493
:101A2300120135D3E8041201353CE904120135AD46
:101A3300B202120135C6B702120135BDBA02120154
:101A430035E3BA021201350CBB02120135BEBB02EB
:101A53001201359FBD02120135BABE02120135D300
:101A6300BE02120135C9C30212013502C4021201BA
:101A73003546C40212013553C5021201351C390023
:101A83001201355039001201358B3900120135FD31
:101A93003900120135C63A00120135DD3A00120150
:101AA30035B93B00120135AE3F00120135BE3F0090
:101AB300120135EF3F00120135C2400012013523F8
:101AC30041001201354C41001201354F4100120112
:101AD30035904100120135AE410012013515420027
:101AE300120135F14300120135B1440012013503EF
:101AF30045001201350A4500120135214500120146
:101B030035F64500120135064600120135444600FC
:101B13001201355D4600120135744600120135008D
:101B230047001201351B47001201354849001201D5
:101B330035735900120135765900120135635D0082
:101B43001201351C61001201359EEB02120135D2E0
:101B5300EC0212013513ED0212013584F002120179
:101B630035BDF002120135CEF002120135EAF10261
:101B7300120135FBF10212013594F202120135A470
:101B8300F2021201355AF8021201351AF902120152
:101B93003576F9021201350AFA021201356FFA029B
:101BA30012013580FC021201352FFD02120135A707
:101BB300ED03120135F6F1031201359AF403120114
:101BC30035D3F403120135E4F40312013503F503AD
:101BD3001201358FF603120135A0F60312013567A2
:101BE300F703120135F8F70312013525D504120165
:101BF3003524D60412013541D6041201351AD8040E
:101C03001201353ED904120135D6DA041201351713
:101C1300EB05120135D7BD05120135F1E0051201BF
:101C230035957F00120135A59103120135B896034E
:101C33001201355DD40512013595FF03120135CD2F
:101C4300EA0512013561B20512013500EA051201F8
:101C5300352AEA0512013596EA05120135D5FF0149
:101C6300120135F9EA05E066701008A3E066700A10
:101C730008A3E066700408A3E06622C008C3E096E8
:101C8300F50808A3E096420808A3E096420808A3D3
:101C9300E0964208A2D265D033E5087001D3D0089C
:101CA30022C3E7960809E7960809E7960809E79625
:101CB30022C3E09608A3E09608A3E09608A3E09663
:101CC30022C008C3E096F50808A3E096420808A3DB
:101CD300E096420808A3E09645087001D3D0082295
:101CE300080808E630E71112259D121CFB080808B6
:101CF300C64480C618181822181818E9799EC60811
:101D0300CAC608CBC608CCC6C370207996CACBCC4A
:101D13007019798ECBCC70137986CC700EF9802A2A
:101D2300CA33CACB33CBCC33CC331930E7F2CCCB69
:101D3300CA3350147004EA30E00DE4CA3ACACB3B0C
:101D4300CBCC3CCC500209C3E913C6CC182313C631
:101D5300CB18C6CA18C6F922121D9B20F01430E70F
:101D63002B74FFFCFBFA747F8022E4FCFBFA748083
:101D7300801AB48008BC00F2BB00EF800F50EBF96F
:101D8300E4C39AFAE49BFBE49CFCE499C6CC18C632
:101D9300CB18C6CA18C6F922E4C9C608CAC608CBF6
:101DA300C6D3330308CCC63392F0C3947F402E943A
:101DB300184019C9B90704CACBCC225025C309CA94
:101DC30033CACB33CBCC33CC33D9F422F4600DC933
:101DD300CCC313CB13CBCA13CAD9F6CC22E4FCFB76
:101DE300FA2214FCFBFA22E6261846184618462265
:101DF300E72719471947194722181818E60846080C
:101E03007009E626087005E633F422082219191929
:101E1300E70947097009E727097005E733F4220941
:101E230022E6084608C3134608336002E633F42269
:101E3300E7094709C3134709336002E733F4221262
:101E43001E246025121E336020121DEA7003021D3A
:101E5300F3080808E76670101819E766700A18197E
:101E6300E76670041819E76622F422121E24601C28
:101E7300121E336017121DEA7007121DF37001D38F
:101E830022C0D0121DF37006D0D0B322C32233D0A8
:101E9300D0501430E0F6C3E7960809E7960809E73F
:101EA300960809E796B32220E0D5E6970809E69756
:101EB3000809E6970809E697B322121E24601B124D
:101EC3001E336016121DEA7007121DF3600CB32255
:101ED300C0D0121DF37005D0D022C32233D0D0500E
:101EE3001330E0EBC3E7960809E7960809E796087D
:101EF30009E7962220E0E4E6970809E6970809E651
:101F0300970809E6972200121E24604F121E3360C1
:101F130012E7548066F6121DFC7011121DF3703B1C
:101F2300090909F4F618F618F618F622121E1070AD
:101F330015121DEA08080860EAE6447FF618768061
:101F430018E4F618F622121DEA6016121DF3701239
:101F5300E4F608F608F608E65480F60909091818A5
:101F63001822EAC0E0EBC0E0ECC0E0EDC0E0E68799
:101F7300F0A4FBACF008E687F0A42CFCE435F0FAFF
:101F83001809E687F0A42C4B60027401CA35F0FCF3
:101F9300E433FB09E687F0D2F7A42CCB35F0FC1928
:101FA30008E687F0A42BCC35F0FBE433FD0819E6F3
:101FB30087F0D2E7A42C4ACB35F0CD3400FC09E6F8
:101FC30087F0D2E7A42DCC35F0FDE433FA0918E607
:101FD30087F0D2F7A42CCD35F0CA3400FC08E6878D
:101FE300F0D2E7D2F7A42ACC35F07A7E20E70B0AA9
:101FF300CB33CBCD33CDCC33CC33CB335014700474
:10200300ED30E00ED2F1E4CD3DCDCC3CCC3B5005E0
:10201300DA05C2F1EB547FC63308E63392F0FBE7EF
:102023003309E733C39A502D2B70190C0D4C4D70A7
:10203300151806E608C333700D20F10AA2F013F653
:10204300E418800B4024E4F630F002768018F6188A
:10205300F618F68024D33B14501074FFA2F013F645
:10206300187680E418F618F6800FA2F013F618E637
:102073003303F618ECF618EDF6D0E0FDD0E0FCD013
:10208300E0FBD0E0FA22121E336046121E24603DAC
:10209300E9687008F618F618F618F622748067F7E0
:1020A3001220BD090909748067F722121E24601DDE
:1020B300121E337005191919801A121DFC701F1294
:1020C3001E10C37003E6673319191940071818184F
:1020D3002208080874FFF618F618F618F622121EDE
:1020E300106017121DF3702192F0121DEA7019503F
:1020F3001720F014080808090909E7F61819E7F684
:102103001819E7F61819E7F622121DEA60E6E869DE
:10211300701F0808E62480F608E436F618547FB4E6
:102123007F0CE654806007F6E418F618F6221818B8
:1021330022E9C6CC08C6CD08C6CE08C6CFC0E0E8A3
:10214300C0E0EAC0E0EBC0E009E9F809E7FA09E713
:10215300FBE6F918E6F8C3EC98ED99EE9AEBC2E7C3
:10216300F5F0EFC2E795F0500E600CEBCFFBEACE33
:10217300FAE9CDF9E8CCF8EAA2E7D2E7FAEB33FBC8
:1021830013F5F0EEA2E7D2E7FEEF33FFC5F013A29B
:10219300E730E601B313C5F0C3C0E0C0F07F00C36E
:1021A3009BFB605E9418600F401D14601AD0E023FF
:1021B300F9D0E0F802228F8AF0E9486003D2F0E414
:1021C300AFF0FAF9F8803BEB30E40D89F0EA6003F5
:1021D300D2F0E4AFF0F9CAF8EB30E30D88F0EF602A
:1021E30002D2F0AFF0E4CAC9F8EB54076014FBC3A2
:1021F300EA13FAE913F9E813F8EF135002D2E0FFF8
:10220300DBEDD0E0C0E030E739C3E49FFFF5F0EC4D
:1022130098FC42F0ED99FD42F0EE9AFE42F0D0E0D8
:10222300F9D0E0F8E5F0607AE923F9EE20E742D847
:10223300028067C3EF33FFEC33FCED33FDEE33FE77
:1022430080EAEC28FCED39FDEE3AFED0E023F9D02C
:10225300E0F84002801BC3EE13FEED13FDEC13FC0C
:10226300EF135002D2E0FF08B800067F7F74FF80AF
:102273002EEF3350178CF020F00260100CBC000CD2
:102283000DBD00080EBE000408E860DFE933E81363
:10229300FFEE2313FE4F4D4C8008E95480FFE4FE0C
:1022A300FDFCEE33EF33F47004FCFD7E80D0E0FBE5
:1022B300D0E0FAD0E0F8D0E0CFC618CEC618CDC62D
:1022C30018CCC6F922121E24700418181822121EE4
:1022D30033700D74FFF61819F61819F61819F6224B
:1022E300E7548066F6121DEA700F121DF370F014A6
:1022F300F608F608F608F680D1121DF3700CF608FE
:10230300F608768008E6447F80EC121E13700C12E8
:102313001DFF60BFE65480F6E480BB121DFF70050D
:1023230019191980A5E869700C763F18768018F69C
:1023330018F6E8F922E6CDC0E018ECC0E0E633CDAC
:1023430033CDD313F6E719FCE7191933CC33C39410
:102353007F400ECD9D502408E65480F6E418F680A5
:102363000FF4043D14501408E6447FF6187680E415
:1023730018F618F6D0E0FCD0E0FD22CCD313CCFD48
:1023830018E4C6CBC0E018E4C6CAC0E00808ED08EC
:10239300C633E613F618E433C675F003C3CA97CA07
:1023A30009CB97CB199C40047D08802EBD00030206
:1023B300247116B6FF050606081618C3CA33CACB1E
:1023C30033CB33CA27CA09CB37CB193CC37D08802B
:1023D3003E187D0820E75CC633C6CA33CACB33CB6D
:1023E30033DDF1D5F0EB30E77BCA97CA09CB974AC7
:1023F300CB199C406F4B7025E620E0218066187D49
:1024030008C3CA97CA09CB97CB199CD3C633C6CA8C
:1024130033CACB33CB3350C9DDE7D5F0E1D3E4C6C0
:1024230036C608C636C608C636C608C636C618181F
:10243300188031C3CA97CA09CB97CB199CB340976D
:10244300C633C6CA33CACB33CB33DD34D5F02EC63D
:10245300A2E0C640C8CA27CA09CB37194A70BECB07
:102463003CB480B90808E63308E633601F1818182F
:10247300D0E0FAD0E0FBD0E0FCD0E0FD22187D08EC
:10248300CA27CA09CB37CB193CD3808013F618E48B
:10249300B67F11F618B6FF0EF618C60470D20808F8
:1024A300768080CAF618F618F680C5080808EAC0D0
:1024B300E0EBC0E086F0E7A4FA180986F0E7A42A67
:1024C300FA180986F0E7A42AFA180986F0E7A42A7D
:1024D300FA1986F0E7A4FBE5F02AFA190886F0E773
:1024E300A42BFBE5F03AFA190886F0E7A42BFBE5E9
:1024F300F03AFA18180986F0E7A4C5F02BFBE43A82
:10250300FA1908E7C5F0C6A426F6E5F03BFBE43A62
:10251300FA1886F0E7A4F6E5F00826F6E43B08F699
:10252300E43A08F6D0E0FBD0E0FA22E4CFC0E0E4DE
:10253300CEC0E0E4CDC0E0E4CCC0E075F020E626F8
:10254300F608E633F608E633F608E633F618181805
:10255300EC33FCED33FDEE33FEEF33FFC3EC9709B1
:10256300ED9709EE9709EF97191919400FFFEC97AB
:10257300FC09ED97FD09EE97FE191906D5F0BFEC9E
:10258300F709EDF709EEF709EFF7191919D0E0FC90
:10259300D0E0FDD0E0FED0E0FF22181818E4C39687
:1025A300F608E496F608E496F608E496F622601632
:1025B300080808C6C313C618C613C618C613C61818
:1025C300C613C6D5E0EA2270090808082260161867
:1025D3001818C6C333C608C633C608C633C608C6EA
:1025E30033C6D5E0EA22E627F60809E637F60809F6
:1025F300E637F60809E637F622E026F608A3E036C2
:10260300F608A3E036F608A3E036F622E026F00843
:10261300A3E036F008A3E036F008A3E036F022C3C7
:10262300E697F60809E697F60809E697F60809E635
:1026330097F622C3E0C696F608A3E0C696F608A36B
:10264300E0C696F608A3E0C696F622C3E096F00825
:10265300A3E096F008A3E096F008A3E096F022E644
:1026630057F60809E657F60809E657F60809E65744
:10267300F622E056F608A3E056F608A3E056F6085D
:10268300A3E056F622E056F008A3E056F008A3E0D4
:1026930056F008A3E056F022E066F608A3E066F6DB
:1026A30008A3E066F608A3E066F622E0F608A3E0D6
:1026B300F608A3E0F608A3E0F622E6F008A3E6F0A6
:1026C30008A3E6F008A3E6F022E0FAA3E0FBA3E008
:1026D300FCA3E0FD22EAF0A3EBF0A3ECF0A3EDF002
:1026E30022E0F8A3E0F9A3E0FAA3E0FB22E8F0A3D9
:1026F300E9F0A3EAF0A3EBF022CAC0E0E6F0A308F6
:10270300DAFAD0E0FA22CAC0E0E0A3C582CCC582DF
:10271300C583CDC583F0A3C582CCC582C583CDC592
:1027230083DAE6D0E0CA22C3E498F8E499F91227E1
:102733006B8026C3E49AFAE49BFBE920E7E91227BE
:102743006BE498F8E499F922C3E498F8E499F91250
:10275300276BE498F8E499F9C3E49AFAE49BFB2223
:10276300EB20E7CFE920E7E0B90010BB0008E88AD7
:10277300F084F8AAF022E4FBC8FA22EB70227B1063
:10278300C833C8C933C9335007C39AC3DBF28006C1
:102793009A50012ADBEAC833F4C8C933F4C9FA22D0
:1027A30075F008E4C833C8C933C933C99AC99B5003
:1027B30004C92AC93BD5F0ECFBC833F4C8E4C9FA11
:1027C30022600D08C6A2E713C618C613C6D5E0F3E8
:1027D30022600C08C6C313C618C613C6D5E0F4227C
:1027E300700422600D18C6C333C608C633C6D5E0CD
:1027F300F41822251810AF08F518400C1519800895
:10280300F51840021519D2AF2200C0D0251810AF19
:1028130008F518500C05198008F51850020519D24F
:10282300AFD0D0222518F58210AF08F518400C154B
:10283300198008F51840021519D2AF85198322258E
:1028430018F582E43519F583222518F8E43519F9CA
:10285300222518FAE43519FB222518FCE43519FD65
:1028630022E4732518C582C0E0E51934FFC583C08F
:10287300E0E518C3958224F810AF08858319858293
:10288300188008858319858218D2AFCEF0A3E5207E
:10289300F0A37808E608F0A3DEFAEFF0A3E58124BD
:1028A300FAF8E608F0A3E608F0A3E608F0A30808A0
:1028B300E608F0A3E608F0A315811581D0E0FED069
:1028C300E0F8158115811581E8C0E0EEC0E022250E
:1028D30018C582C0E0E51934FFC583C0E0E518C31D
:1028E300958224F910AF088583198582188008859D
:1028F3008319858218D2AFCEF0A3E520F0A3780820
:10290300E608F0A3DEFAEFF0A3E58124FBF8E6087E
:10291300F0A3E608F0A30808E608F0A3E608F0A38E
:1029230015811581D0E0FED0E0F815811581E8C04E
:10293300E0EEC0E022851983851882E0A3FEE0A3C0
:10294300F5207808E0A3F608DFFAE0A3FFE0A3C0D0
:10295300E0E0A3C0E0E0A3C0E0E0A3C0E0E0A3C0E8
:10296300E010AF0885821885831980088582188551
:102973008319D2AFD083D08202013285198385189F
:1029830082E0A3FEE0A3F5207808E0A3F608DFFACF
:10299300E0A3FFE0A3C0E0E0A3C0E0E0A3C0E0E069
:1029A300A3C0E010AF08858218858319800885824B
:1029B30018858319D2AFD083D08222C0D02518C501
:1029C30082C0E0E51934FFC583C0E0E518C39582F2
:1029D30024F310AF0885831985821880088583192D
:1029E300858218D2AFC8F0A3E9F0A3EAF0A3EBF015
:1029F300A37908E709F0A3D8FAECF0A3EDF0A3EE6E
:102A0300F0A3EFF0A3D0E0F0A3D0E0F0A3D0E0F088
:102A1300A3E520F0A3E5F0F0A322851983851882AE
:102A2300E0C0E0A3E0F9A3E0FAA3E0FBA37808E0A9
:102A3300F608A3DFFAE0FCA3E0FDA3E0FEA3E0FFBA
:102A4300A3E0C0E0A3E0C0E0A3E0F5D0A3E0F5205D
:102A5300A3E0A3F5F010AF088583198582188008D9
:102A6300858319858218D2AFD082D083D0E0F8D085
:102A7300E03274048006740280027401C0E0F4043E
:102A8300122827D0E01226FC2274048004740280EA
:102A930000CCC0E0EDC0E0E518C39CCCAD195001FB
:102AA3001D10AF068C188D1980068C188D19D2AFA6
:102AB300122709D0E0FDD0E0FC22D083D082E9C008
:102AC300E0E493A3C386F0C5F095F0F908E493A37B
:102AD30086F0C5F095F0700BE493A3C3994005E924
:102AE300048002A3E475F002A42582F582E5F035A3
:102AF30083F583D0E0F9E493A3C0E0E493C0E0223C
:102B0300D083D082ECC0E0EDC0E0E493A3FCE49377
:102B1300A3FDED4C600D122B4FEC24FFFCED34FFB5
:102B2300FD80EFE493A3FCE493A3FDED4C600D1251
:102B33002B8EEC24FFFCED34FFFD80EFD0E0FDD0C5
:102B4300E0FCE493A3C0E0E493C0E022C0E0C3E46C
:102B53009396087401939618400FE49366700808DF
:102B6300740193661870007019A3A3C3E4939608C5
:102B73007401939618A3A3400DD0E0D0E0D0E002F7
:102B83002B3FA3A3A3A3A3A3D0E022C0E0C0F0885C
:102B9300F0E4936670080874019366187000A8F057
:102BA300A3A3700BD0F0D0E0D0E0D0E0022B3FA382
:062BB300A3D0F0D0E022E7
:102BBC0074F61228D2EAFEEBFF8C088D09EE243451
:102BCC00F8E43FF9E8FCE9FD122CEEE0FAEE2437CC
:102BDC00F582E43FF583E0F88508F0A4C885F00A97
:102BEC008509F0A4250AF9EA28F8E439F97A257B55
:102BFC000012276BEA8C828D83F0FA131313541F87
:102C0C00F8EE28F8E43FF9E8245DF582E439F58321
:102C1C00E0C0E074075AF8D0E0B800028004C31397
:102C2C00D8FCA2E05003EA8020EE2436F582E43F83
:102C3C00F583E0F5F0EA84A8F0EE28F8E43FF9E833
:102C4C002438F582E439F583E0F97F0302297E7498
:102C5C00F51228D2EAFEEBFFEE2434F582E43FF5C0
:102C6C0083E0C0E0122CEED0E0F08E828F83A3A321
:102C7C00A3A3A3E0FAA3E0FB8E828F83A3A3A3A359
:102C8C00A3A3A3E0C39AF508A3E09BF509EE247F68
:102C9C00F8E43FF9880A890B8882F583E0640170B7
:102CAC002CEE2480F582E43FF583EA2401F8E43B22
:102CBC00F9E0687003A3E06970137C1A7D08EEFAE2
:102CCC00EFFB120FE5850A82850B83E4F0AC08ADAF
:102CDC0009EEFAEFFB122BBCE9F91237D97F04028B
:102CEC00297EEE2435F582E43FF58322C082C08331
:102CFC00851882851983E0F8A3E0F9C3EA9CEB9D63
:102D0C005010C3EC98ED99401BC3EA98EB99501402
:102D1C00800EC3EA98EB994007C3EC98ED994004F8
:102D2C00790180027900D083D08222EAC39CFAEB2D
:102D3C009DFB2274ED1228D29004C3E06408600558
:102D4C00E06407702C9061C8E060269004F1E0F814
:102D5C0074FF68601CE875F00DA4C8AAF02AF97419
:102D6C00F328FE740439FF8E828F83A3A3A3E07033
:102D7C00057900022EE1EE2468F50EE43FF50F9084
:102D8C006060E0850E82850F83F07510B4751108B4
:102D9C00750800750900E5D914F50AE5D95403F551
:102DAC000B601FEE2483F50CE43FF50D7403650BEB
:102DBC006059E50A6017EE2467F582E43FF583E07D
:102DCC00700B793DEEFAEFFB12101580A49008AF52
:102DDC00E064016023850C82850D83E060047A0435
:102DEC0080027A00E50AC39AFA95E0FB120DC98AB3
:102DFC00088B09EA4509700612130F022D7D850C0C
:102E0C0082850D83E070048A108B117A008014E5A2
:102E1C00D9C0E0EAF8E51028F582E43511F583D045
:102E2C00E0F00AEAC3950A40E6850C82850D83E042
:102E3C00602874FC250AF50A7810122A79AC0AA9C4
:102E4C000BEEFAEFFB1210CF740212280CE9700A89
:102E5C00AA08AB09121909022DCE7403650B605434
:102E6C00850A0C750D00780C122A79AC10AD11AADC
:102E7C0008AB09121093740212280C850E82850F70
:102E8C0083E0F87480687005750C7F8002880CE50F
:102E9C000CF50D780D122A7D780B122A7DA90AAC3F
:102EAC0008AD099004F1E0FA7B00120BE9740212F0
:102EBC00280C801C9004C3E06408AC10AD117009A0
:102ECC00EEFAEFFB1210FF8007EEFAEFFB1211B9CE
:102EDC0012131B79017F0C02297E74F31228D27411
:102EEC00FC1227F6EAFEEBFF8909A2AFE433F508E2
:102EFC00C2AFEE2463F50AE43FF50B8010AA0AABCF
:102F0C000B12104B121909900821E004F0850A826B
:102F1C00850B83E0F8A3E0F9E849602DE82402FA78
:102F2C00E439FBEA2402F50CE43BF50D780C122A8B
:102F3C00798A828B83E0FCA3E0F9EEFAEFFB1210A6
:102F4C003F740212280CE960B4900821E0604D90A7
:102F5C000822E0F8900821E0C398500C740265092F
:102F6C00703A900823E060348E828F83A3A3A3A3CE
:102F7C00E0851882851983122FB87402122842E852
:102F8C00122FB8900820E028F0740212285CAA18BE
:102F9C00AB197901120C49900821E4F0E508A2E084
:102FAC0092AF740412280C7F0602297EF0A3E4F081
:102FBC00900821E0F82200008521878522C622C0D6
:102FCC00E074EB1229BEA2AFE433F508C2AF759BD7
:102FDC0000906182E0A2E05030E591A2E0502A75A9
:102FEC0091FE74016521702112315E12121312319F
:102FFC004C122A8C123583740412280CE96401706B
:10300C0005790112126D122D3F906182E0A2E550FC
:10301C005DE591A2E550577591DF9004C3E064071C
:10302C006005E06408702F12315E74016521703EFA
:10303C0012121312314C122A8C123583740412287A
:10304C000CE964017005790112126D7901EEFAEF49
:10305C00FB122EE68018E0640D70139004E5E0047A
:10306C00F064287002E4F07A00E0F9121321906108
:10307C0082E0A2E64003023121E591A2E640030280
:10308C0031217591BF9004C3E0640570081211FBE7
:10309C00121207800312120175210012128BE99093
:1030AC0004C4F0790012126D120F077A017B0090A4
:1030BC0004C2E0F91218D9907803E064427056907B
:1030CC0008B3E014F0704EC2AF1230D800782AD09A
:1030DC00E0F618D0E0F6E59F5407F87005750DFF83
:1030EC008003750D7FC4C0E07829E6F50A08E65523
:1030FC000DF50B740B780A1227D4D0E0250AF89042
:10310C006270E0A2E740F8E8C333906272F090621C
:10311C0070E0D2E0F0906181E0A2E35009E5E9A211
:10312C00E3500375E9F7A3E0A2E75009E591A2E7A4
:10313C00500375917FE508A2E092AF7F08022A1D2B
:10314C008E828F83E0F8A3E0C82416F582E438F56C
:10315C0083229004F1E0F875F00DA4C8AAF02AF9C6
:10316C0074F328FE740439FF22C0E0C0D0C082C0C2
:10317C0083906183E0A2E05009E5BFA2E0500375A3
:10318C00BFFEE0A2E15009E5BFA2E1500375BFFD0F
:10319C00E0A2E25009E5BFA2E2500375BFFBE0A23A
:1031AC00E35009E5BFA2E3500375BFF7E0A2E4507A
:1031BC0009E5BFA2E4500375BFEFE0A2E55009E5B5
:1031CC00BFA2E5500375BFDFE0A2E65009E5BFA240
:1031DC00E6500375BFBFD083D082D0D0D0E032C0D0
:1031EC00E074F21229BEE5A7A2E4500FE5A1A2E417
:1031FC00500953A7EF75A1EF12323FE5A7A2E55096
:10320C000CE5A1A2E5500653A7DF75A1DFE5A7A247
:10321C00E15009E5A1A2E1500375A1FDE5A7A2E2E9
:10322C00500CE5A1A2E2500653A7FB75A1FB7F0150
:10323C00022A1D74F81228D27521019004C3E0648F
:10324C000670077A007B001211E3A2AFE433FED2C2
:10325C00AF9004C9E0640170187A207B009004C21E
:10326C00E0F9121A117A207B009004C2E0F91218CE
:10327C00DF906182E0D2E6F09008B0E0602185C674
:10328C002280169004C8E064017008E5C654F84426
:10329C0005F5C653BEFC122FC47401652160E4EE23
:1032AC00A2E092AF7F0102297E0000008E238F24C2
:1032BC00858228858327851882851983E0CEA3E033
:1032CC00CF852882852783EBC9EAC8EDCBECCA757C
:1032DC00F010C3E833C8E933C9EA33CAEB33CBC3C4
:1032EC00EA9EF526EB9FF525B35004AB25AA26ECF8
:1032FC0033CCED33CDD5F0DAAE23AF242274E91202
:10330C0028D274FA1227F6EAFEEBFF8C088D09120C
:10331C001225EAF8EBF9ECFAEDFB8E828F8312267C
:10332C00F09004C3E024F7C3940550067510010215
:10333C0034401211598A0A8B0BEA450B7003023484
:10334C003D1212198A0C8B0D121219EA650C7003BE
:10335C00EB650D60ECEEFCEFFDAA18AB1912121F19
:10336C00850A82850B83A3A3780C1226AE909A1C37
:10337C00780C12267585188285198378141226AE5E
:10338C00909A1C7814122675780C7914121CA4507F
:10339C001F780C7914122622909ABC780C121CC43B
:1033AC004047850C10850D11850E12850F13804535
:1033BC00909ABC85141085151185161285171378F3
:1033CC0010790C1226227810121CC4501C75100097
:1033DC0075110075120075130178107914122622DC
:1033EC007810790C1225E9800C7510017511007597
:1033FC001200751300740978101225CA909A04787B
:10340C000C1226AE7810790C12252E9004C3E064B1
:10341C0008600AE064066005E064057020909A700C
:10342C007810121CC45016909AB878101225FC8093
:10343C000C7510007511007512007513008508824B
:10344C0085098378101226BD740612280C7F100291
:10345C00297E74F71228D21212379008AEE064015C
:10346C007010906245E4F0A3F053F4F343FE0C5358
:10347C0090F31211D1E5C654B84441F5C6E59E54FB
:10348C0047644170F8906185740FF09008ACE0F4DB
:10349C007002A3E0602C7508017509009008ACE07F
:1034AC0078081227E3E508F4FAA3E0600814600A30
:1034BC0014600C800DEA52808008EA52908003EA76
:1034CC0052A079007F0202297E74F71228D2E9FEFD
:1034DC00EAFF74016E700C7A807B009004C2E0F9F4
:1034EC001218D9903914E493F46008E493F9120E8D
:1034FC00E9800953C6B8E59E544770FA1211D7906B
:10350C0008AEE064017003120F1F9008ACE0F47079
:10351C0002A3E0602B7508017509009008ACE078F7
:10352C00081227E3E508FAA3E0600814600A1460A7
:10353C000C800DEA42808008EA42908003EA42A0A7
:10354C001211598A088B09A808A909E8496016E5DF
:10355C00E170FCE82414F582E439F583E0F874FF9B
:10356C0068600288E174016F700A7A019004C2E00D
:10357C00F912196F0234D074F11228D28A088B090F
:10358C008C0A8D0B909A1C7808122675740F1228D1
:10359C0042780C1226AE909A1C780C12267578087C
:1035AC00790C121CA4909ABC50107808790C122635
:1035BC00227808121CC44014800E780C790812264C
:1035CC0022780C121CC450047901800279007F0807
:1035DC0002297E74ED1228D28A088B098C0A8D0B75
:1035EC00909A1C78081226757413122842780C12C3
:1035FC0026AE909A1C780C122675780C7908121C41
:10360C00A440117808790C122622AA08AB09AC0A3E
:10361C00AD0B802275100075110075120075130129
:10362C007810790C122622781079081225E9AA1044
:10363C00AB11AC12AD137F0C02297E909A1C78084A
:10364C001226AE8A828B8378081226887F04022980
:10365C007E74F51228D28C828D8378081226AE8A5D
:10366C00828B83780812264E1236B1C3E098F0A3F1
:10367C00E0991236A3401E9099F878081226AE8A6B
:10368C00828B83780812260F8E828F83E02420F0A1
:10369C00A3E0344EF080A4F08E828F83C3E094209C
:1036AC00A3E0944E22EA2404F8E43BF9E8FEE9FF97
:1036BC008C828D83A3A3A3A3E0F8A3E0F98E828F61
:1036CC00832274F51228D2E9FE90083CE0FAA3E0BC
:1036DC00FBEE29F8E433F9741628F582749439F565
:1036EC0083E02AF508A3E03BF5097808122A7990C3
:1036FC009A9C1226CC1232B8740212280C8A088BAF
:10370C00098C0A8D0B741078081225B1AA08AB0924
:10371C007F0402297E74F11228D28A0C8B0D8C0E38
:10372C008D0F7411122842122A907411122842E043
:10373C002401F508A3E03400F509E4F50AF50B784B
:10374C000C79081224AE909AB478081226AE780C34
:10375C0079081224AEAA0CAB0DAC0EAD0F1232B818
:10376C00740212280C8B09EA450960047A01800264
:10377C007A00EC2AFCE43DFD7413122842E0F8A315
:10378C00E0F9E8FEE9FFECF8EDF97A717B0212271B
:10379C006B88088909E4F50AF50B8E828F8378080B
:1037AC001226BDECF8EDF97A717B0212276B8A08B0
:1037BC008B09740578081227E38E828F83A3A3A349
:1037CC00A3E508F0A3E509F07F0802297EC082C0BA
:1037DC0083E9906000F0D083D08222C0E074F212B2
:1037EC0029BEA2AFE433FED2AFC2C0E5D1A2E450F1
:1037FC000675D10F121831751A00EEF8EEA2E09290
:10380C00AF7F01022A1DC0E074F21229BEA2AFE400
:10381C0033FED2AFE589A2E14006E589A2E250036E
:10382C0012174D758900758900C2C5751A00EEF81E
:10383C00EEA2E092AF7F01022A1DC0E074F21229C1
:10384C00BEA2AFE433FED2AFE58BA2E05003121759
:10385C004D758B00C2E8751A00EEF8EEA2E092AF3F
:10386C007F01022A1DC0E0C0D0E8C0E0E9C0E0A2A0
:10387C00AFE433F8D2AFC2C7751A00E8F9E8A2E09A
:10388C0092AFD0E0F9D0E0F8D0D0D0E032C0E0C0B8
:10389C00D0E8C0E0E9C0E0EAC0E0C082C083A2AFDB
:1038AC00E433FAD2AF901142E0F8901143E0687023
:1038BC000B539AFB9011447401F0802CC2E99011C7
:1038CC0042E0F8740128901142F0790074C228F596
:1038DC0082741039F583E0F5C1901142E0C39480F5
:1038EC0040069011427400F0EAF8EAA2E092AFD0E0
:1038FC0083D082D0E0FAD0E0F9D0E0F8D0D0D0E09C
:07390C0032C2AF02000022ED
:10391400FFFFFFFFFFFFFFFFEAF8EBF9E824FFFAE0
:10392400E934FFFBE84960217800790078DC790507
:10393400C3E89401E99400A2D265D03340DA00E8E8
:1039440024FFF8E934FFF980E702013274F7122802
:103954006689087E0080010EEEC395085022EEF8B9
:103964007900EA28F582EB39F583E0FFEEF8790077
:10397400EC28F582ED39F583E06F60DB7900800295
:1039840079017F0102293874F0122866E9FE7C006F
:10399400750800750900750A00750B00803A909A45
:1039A40020780C1226AE7808790C1224AEECF87943
:1039B40000EA28F582EB39F583E0F87900E824D0B1
:1039C400F50CE934FFF50DE50D3395E0F50EF50F33
:1039D4007808790C1225E90CECC39E500FECF879A9
:1039E40000EA28F582EB39F583E070B2AA08AB0946
:1039F400AC0AAD0B7F0802293874F712286674EFFD
:103A04001227F6909405AC18AD1974111227097891
:103A1400F07919888289837430F088828983A3A815
:103A240082A983888289837478F088828983A3A891
:103A340082A983EA2406FA50010B7E06806CEA24EC
:103A4400FFF582EB34FFF583AA82AB83E0C4540F05
:103A5400FC7D00851882851983E5822CF582E58337
:103A64003DF583E0C0E088828983D0E0F0888289D4
:103A740083A3A882A9838A828B83E0FC7D00EC5413
:103A84000FFCED5400FD851882851983E5822CF521
:103A940082E5833DF583E0C0E088828983D0E0F04D
:103AA40088828983A3A882A9831EEE709188828963
:103AB400837400F07AF07B19741112280C7F0102D0
:103AC4002938C082C0837C377D197AB6798012196F
:103AD400DBE9D083D08202013274F7122866E9FE52
:103AE400EE6003023B789019377404F0901938742F
:103AF40000F09019397400F090193A7400F07C6B5E
:103B04007D997A3B7B19121C519019477400F07C03
:103B1400797D997A487B19121C5190194F7400F0E1
:103B24007C0D7D0079007A507B1912189790196AE0
:103B34007400F090196B7400F07C787D0079007A41
:103B44006D7B191218979019E57400F0A37400F0B6
:103B54009019E77400F09019E87400F09019E97472
:103B640000F09019EA74F4F0A37401F09019EC7465
:103B740000F0802B74016E70267C0D7D0079007A34
:103B8400507B1912189790196A7400F090196B748D
:103B940000F07C787D0079007A6D7B191218977C8F
:103BA400007D0079007A097B041215C1E9121A9587
:103BB4007F0102293874F412286674D31227F69010
:103BC4001937E0F5087509007808122A797CE17D37
:103BD400907402122854121C51740212280CAA1850
:103BE400AB191218798A088B09AC08AD09AA18AB6D
:103BF400191218437A647B00121A7D901938E0F583
:103C0400087509007808122A797C647D917402127F
:103C14002854121C51740212280CAA18AB19121839
:103C2400798A088B09AC08AD09AA18AB1912184394
:103C34007A647B00121A7D901939E0F50875090041
:103C44007808122A797C317D917402122854121C4E
:103C540051740212280CAA18AB191218798A088B0D
:103C640009AC08AD09AA18AB191218437A647B0091
:103C7400121A7D90193AE0F5087509007808122A9D
:103C8400797C6C7D927402122854121C51740212B5
:103C9400280CAA18AB191218798A088B09AC08AD3C
:103CA40009AA18AB191218437A647B00121A7D759D
:103CB400083B7509197808122A797C3E7D927402B2
:103CC400122854121C51740212280CAA18AB19128F
:103CD40018798A088B09AC08AD09AA18AB1912180F
:103CE400437A647B00121A7D901947E0F508750940
:103CF400007808122A797C837D9274021228541267
:103D04001C51740212280CAA18AB191218798A08CB
:103D14008B09AC08AD09AA18AB191218437A647B55
:103D240000121A7D7508487509197808122A797CD9
:103D3400DF7D927402122854121C51740212280C52
:103D4400AA18AB191218798A088B09AC08AD09AA0C
:103D540018AB191218437A647B00121A7D90194F1C
:103D6400E0F5087509007808122A797C9A7D927426
:103D740002122854121C51740212280CAA18AB19EE
:103D84001218798A088B09AC08AD09AA18AB191264
:103D940018437A647B00121A7D75085075091978E6
:103DA40008122A797CFC7D907402122854121C514A
:103DB400740212280CAA18AB191218798A088B09F4
:103DC400AC08AD09AA18AB191218437A647B001227
:103DD4001A7D750800750900023E6E90962E7420B7
:103DE40012285C740D122709750A0C750B00780AE9
:103DF400122A79A808A909E875F00CA4C8AAF075D4
:103E0400F000A42AFA75F00CE9A42AF9746D28FCD0
:103E1400741939FD742212285412187F740212285E
:103E24000C742012284C880A890B780A122A797893
:103E340008122A797CC77D967404122854121C51E6
:103E4400740412280CAA18AB191218798A0A8B0B5D
:103E5400AC0AAD0BAA18AB191218437AC87B00122E
:103E64001A7D0508E5087002050990196AE0F879D9
:103E740000C3E50898E50999A2D265D0335003023E
:103E84003DDF9019E5122A907C807D9074021228FF
:103E940054121C51740212280CAA18AB1912187966
:103EA4008A088B09AC08AD09AA18AB191218437A11
:103EB400647B00121A7D9019E7E0F5083395E0F56C
:103EC400097808122A797C557D92740212285412BA
:103ED4001C51740212280CAA18AB191218798A08FA
:103EE4008B09AC08AD09AA18AB191218437A647B84
:103EF40000121A7D9019E9E0F50875090078081296
:103F04002A797C177D917402122854121C51740270
:103F140012280CAA18AB191218798A088B09AC0854
:103F2400AD09AA18AB191218437A647B00121A7DE2
:103F34009019EA122A907C567D9074021228541229
:103F44001C51740212280CAA18AB191218798A0889
:103F54008B09AC08AD09AA18AB191218437A647B13
:103F640000121A7D9019ECE0F50875090078081222
:103F74002A797CC67D907402122854121C51740252
:103F840012280CAA18AB191218798A088B09AC08E4
:103F9400AD09AA18AB191218437A647B00121A7D72
:103FA400742D12280C7F04022938C082C083901912
:103FB40047E0F9D083D082020132C082C083121A52
:103FC400A7E964017010901A6DE06402700479012D
:103FD40080127900800E901A78E0640670047901EA
:103FE40080027900D083D08202013274F4122866F0
:103FF40074F41227F6EAFEEBFF121AA7E9640160D3
:10400400030240B87508008002050890196AE0F8B8
:10401400E508C3985033AA18AB19A908121AB9E9CC
:104024006027750A0C750B00780A122A79EEFCEFEA
:10403400FD7402122854121891740212280CE960BB
:10404400C8E50890196CF0806B75080C7509007848
:1040540008122A79EEFCEFFD90196BE0F87900E87C
:1040640075F00CA4C8AAF075F000A42AFA75F00C37
:10407400E9A42AF9746D28FA741939FB12187F74AB
:104084000212280C90196BE090196CF090196BE0F7
:104094002401F090196BE075F00A84E5F090196B37
:1040A400F090196AE0C3940A500790196AE0240159
:1040B400F0121A95740C12280C7F0402293874F536
:1040C400122866890AEAFEEBFF121AA7E964017056
:1040D4004790196AE0F8E50AC398503C75080C75D6
:1040E40009007808122A79A80A7900E875F00CA466
:1040F400C8AAF075F000A42AFA75F00CE9A42AF90C
:10410400746D28FC741939FDEEFAEFFB12187F74F4
:104114000212280C7901800279007F03022938C039
:1041240082C08353F3FD53FDFD538FFDA281400FE5
:104134007A0A7B00121A7DA28140047901800279F7
:1041440000D083D082020132020132C082C0839047
:104154001939E0FD901938E0FC901937E0F97A2517
:104164007B1B121837121AA7E96401700D7C157DA8
:10417400007AF67B92121843800B7C187D007A4BF0
:104184007B91121843D083D08202013274F7122833
:1041940066E9FEEEFA79011217A7E943FD60EEF82D
:1041A400EEA2E092867F0102293874EC1228667E22
:1041B40031750C00750D00750E40750F40121C0F03
:1041C4008A088B09AA08AB09EEF87900EAC398F5C6
:1041D40008EB99F509E5093395E0F50AF50B78083C
:1041E400121CE3909A2478101226AE780C791012DF
:1041F4001F097808790C1222C87808122A75909A37
:10420400241226CC121C45740412280C7F0C02299B
:104214003874F5122866780079007C007D007E00F1
:104224007F007508E8750903901A09E064056003C6
:104234000243B6901A0AE0F8A3E0F9E875F002A484
:10424400C885F00A75F000A4250AF50A75F002E99C
:10425400A4250AF974FF28F582741939F583EAF064
:10426400A3EBF0901A0AE02401F0A3E03400F090EC
:104274001A0AE0F8A3E0F97A057B00122763901A82
:104284000AEAF0A3EBF078007900024388E8FAE93F
:10429400FBEA75F002A4CA85F00A75F000A4250AA9
:1042A400F50A75F002EBA4250AFB74FF2AF5827463
:1042B400193BF583E0FAA3E0FBC3EE9AEF9BA2D28D
:1042C40065D0335028E8FAE9FBEA75F002A4CAAED7
:1042D400F075F000A42EFE75F002EBA42EFB74FF23
:1042E4002AF58274193BF583E0FEA3E0FFE8FAE9BE
:1042F400FBEA75F002A4CA85F00A75F000A4250A49
:10430400F50A75F002EBA4250AFB74FF2AF5827402
:10431400193BF583C3E09508A3E09509A2D265D0C3
:1043240033502EE8FAE9FBEA75F002A4CA85F008D6
:1043340075F000A42508F50875F002EBA42508FB28
:1043440074FF2AF58274193BF583E0F508A3E0F5C0
:1043540009E8FAE9FBEA75F002A4CA85F00A75F0E7
:1043640000A4250AF50A75F002EBA4250AFB74FFE4
:104374002AF58274193BF583E02CFCA3E03DFD088B
:10438400E8700109C3E89405E99400A2D265D0332A
:104394005003024291ECC39EF8ED9FF9E8C39508DF
:1043A400F8E99509F97A037B00122763E8FAE9FB37
:1043B4008036901A09E0F87900E875F002A4C8ACD8
:1043C400F075F000A42CFC75F002E9A42CF974FF3C
:1043D40028F582741939F583EAF0A3EBF0901A09F1
:1043E400E02401F07A007B007F0302293874F01284
:1043F400286674E01227F6E9FEEE9019E7F0121A27
:10440400ADE970030244A7EEFA3395E0FB121AD724
:104414008A088B098C0A8D0B909A28780C1226AE88
:104424007808790C121F097808121D5BAA08AB09D9
:10443400121ADD8A088B097808122A79EEF404F539
:10444400087509007808122A797CC17D93740412D6
:104454002854121C51740412280C9019EEE0603A8E
:10446400AA18AB19121C638A088B09AC08AD09AAF7
:1044740018AB19121843AA18AB19121C638A088BBB
:1044840009AC08AD09AA18AB19120529E97A107B01
:1044940000901A38E0F91218D9E97905AA18AB196D
:1044A400121795742012280C7F0802293874F6120A
:1044B400286674E81227F69091AEAC18AD197418FA
:1044C4001227097508487509197808122A797C6633
:1044D4007D957402122854121C51740212280CAADD
:1044E40018AB191218798A088B09AC08AD09AA18F7
:1044F400AB19121843741812280C7F020229387A57
:104504003B7B19020132C082C08390196AE06004C7
:10451400790180027901D083D082020132C082C045
:1045240083121AADE960030245BD121AA7E96401BA
:104534007053121AF5E9701C901A0CE07007790197
:10454400121AD18029901A0CE064017021790012AA
:104554001AD1801A901A0CE070077901121AD180CE
:104564000D901A0CE0640970057900121AD1901AA2
:104574000CE02401F0901A0CE075F00A84E5F09048
:104584001A0CF0802F901A0CE070077900121AD1DF
:10459400800D901A0CE0640A70057901121AD1900A
:1045A4001A0CE02401F0901A0CE075F01484E5F084
:1045B400901A0CF0121B438032901A0CE0700779A9
:1045C40001121AD1800D901A0CE064017005790073
:1045D400121AD1901A0CE02401F0901A0CE075F034
:1045E4003284E5F0901A0CF0121B31D083D0820291
:1045F4000132C082C08390194FE0F9D083D0820287
:10460400013274F012286679067A487B19121A89E5
:104614008A0C8B0D8C0E8D0F850C08850D09850E6B
:104624000A850F0B909A9C780C1226AE7808790CA8
:1046340012252EAA0CAB0DAC0EAD0F7F0802293843
:10464400C082C08390193AE0640270047901800248
:104654007900D083D082020132C082C08390193A9B
:10466400E07004790180027900D083D082020132A3
:1046740074F61228669019EFE064037004790080E0
:10468400769019EFE0640160089019EFE06404701B
:104694004190196AE0605E75080C7509007808128B
:1046A4002A7990196CE0F87900E875F00CA4C8AC8C
:1046B400F075F000A42CFC75F00CE9A42CF9746DD1
:1046C40028FC741939FD12187F740212280C790120
:1046D40080259019EFE06402701B75080C750900C1
:1046E4007808122A797C5D7D1912187F74021228C9
:1046F4000C7901800279007F0202293874F61228AD
:10470400669019EAE0F508A3E0F509AA08AB09E404
:10471400FCFD7F0202293874EB12286674F4122718
:10472400F68A14750B1474055514700302493E7E01
:10473400007F009019ED7400F0901CB3E0640170E8
:104744004212184F8A088B09AE08AF09EE4F603049
:10475400C3EE9415EF940040047E147F00EEFAEF4C
:10476400FB1219578A0A8B0B850A08850B09EEFC84
:10477400EFFDAA08AB0912183DAA08AB0912195D8E
:1047840002493E12184F8A088B09AE08AF09EE4F52
:1047940070197C007D007E007F00901A11ECF0A35C
:1047A400EDF0A3EEF0A3EFF002493E901A111226A9
:1047B400E4E8494A4B7029121A29EAF8EBF9ECFAB1
:1047C400EDFB901A0D1226F0EEFCEFFDE4FEFF90D7
:1047D4001A11ECF0A3EDF0A3EEF0A3EFF002493EC2
:1047E400121AADE97005750B168003750B14121AB5
:1047F400298A0C8B0D8C0E8D0FA80B7900C3EE98B3
:10480400EF995029909A84C082C083850C10850D3D
:1048140011850E12850F13901A0D7810122636D0BA
:1048240083D0827810121CC4400302493E750A00EA
:10483400AA0B7B001219578A108B11851008851159
:1048440009E5084509700E7C047D007ACF7B991236
:10485400184302493EA80B7900C3E89EE99F50051E
:10486400850B0A8003EEF50A121AADE9707DAC0AD5
:104874007D00AA08AB0912183DE50AC3940340441D
:10488400A80A7900E50828F8E50939F9E824FEF5CD
:1048940082E934FFF583E0640D7029A80A7900E504
:1048A4000828F8E50939F9E824FFF582E934FFF529
:1048B40083E0640A700EAC0A7D00AA08AB09121BDF
:1048C4002BE98002740070477C0D7D99AA18AB19FE
:1048D400121C51AA18AB191218798A108B11AC103A
:1048E400AD11AA18AB191218438024AC0A7D00AA92
:1048F40008AB0912183DAC0A7D00AA08AB091205E1
:1049040029E97A107B00901A38E0F91218D9E99055
:104914001A0D780C1226BDA80A7900EEC398FCEF94
:1049240099FDE4FEFF901A11ECF0A3EDF0A3EEF074
:10493400A3EFF0AA08AB0912195D740C12280C7FBE
:104944000D02293874E912286674B91227F6EAFEB2
:10495400EBFF8C088D097514017515007404650846
:10496400700474006509703479047CD97D99EEFA79
:10497400EFFB121A83E960247CD47D99AA18AB1941
:10498400121C51AA18AB191218798A088B09AC08A1
:10499400AD09AA18AB1912184302595274086508D4
:1049A400700474006509701679087C127D98EEFA1B
:1049B400EFFB121A83E96006121AA1025952740A13
:1049C40065087004740065096003024A9579077CE0
:1049D400FD7D98EEFAEFFB121A83E97003024A9503
:1049E4008E828F83A3A3A3A3A3A3A3E024D0604BAD
:1049F40014604814604514604214603F24F5600359
:104A0400024A8F901937E0F5087509007808122AD0
:104A1400797C337D977402122854121C517402124B
:104A2400280CAA18AB191218798A088B09AC08AD9E
:104A340009AA18AB191218430259528E828F83A304
:104A4400A3A3A3A3A3A3E024D0901937F0121A952B
:104A5400901937E0F5087509007808122A797CDF87
:104A64007D967402122854121C51740212280CAA46
:104A740018AB191218798A088B09AC08AD09AA1861
:104A8400AB191218437515010259527514000259D5
:104A940052740A6508700474006509701679077CFD
:104AA400F57D98EEFAEFFB121A83E960067514009F
:104AB400025952740A650870047400650970167905
:104AC400077CED7D98EEFAEFFB121A83E960067518
:104AD4001400025952740A65087004740065096070
:104AE40003024BA679077CE57D98EEFAEFFB121AD8
:104AF40083E97003024BA68E828F83A3A3A3A3A38F
:104B0400A3A3E024D0604514604214603F24F36002
:104B140003024BA090193AE0F508750900780812D1
:104B24002A797C337D977402122854121C51740222
:104B340012280CAA18AB191218798A088B09AC0828
:104B4400AD09AA18AB191218430259528E828F83E9
:104B5400A3A3A3A3A3A3A3E024D090193AF0121A09
:104B64009590193AE0F5087509007808122A797CBD
:104B7400DF7D967402122854121C51740212280C00
:104B8400AA18AB191218798A088B09AC08AD09AABE
:104B940018AB191218437515010259527514000205
:104BA4005952E508C3940AF8E5099400F9C3E89456
:104BB4000BE994004003024C8179077CD57D98EE83
:104BC400FAEFFB121A83E97003024C818E828F8301
:104BD400A3A3A3A3A3A3A3E0643F703575083B7507
:104BE40009197808122A797CEB7D967402122854EC
:104BF400121C51740212280CAA18AB191218798AC3
:104C0400088B09AC08AD09AA18AB1912184302594C
:104C1400527C0C7D0079007A3B7B19121897E508C9
:104C240024F9F508E50934FFF5097808122A79EE24
:104C34002407FCE43FFD7A3B7B1912187F740212AF
:104C4400280C121A9575083B7509197808122A79E7
:104C54007CF77D967402122854121C517402122897
:104C64000CAA18AB191218798A088B09AC08AD097B
:104C7400AA18AB19121843751501025952740A6522
:104C840008700474006509703C79087C6C7D98EEAA
:104C9400FAEFFB121A83E9602C7C567D97AA18ABB5
:104CA40019121C51AA18AB191218798A088B09AC6D
:104CB40008AD09AA18AB191218437900121A9B758A
:104CC4001501025952740A6508700474006509706C
:104CD4001679087C7E7D98EEFAEFFB121A83E96060
:104CE40006751501025952740A650870047400654A
:104CF400096003024DC379077CCD7D98EEFAEFFB82
:104D0400121A83E97003024DC38E828F83A3A3A377
:104D1400A3A3A3A3E024D0604214603F24F2600361
:104D2400024DBD901947E0F5087509007808122A6C
:104D3400797C337D977402122854121C5174021228
:104D4400280CAA18AB191218798A088B09AC08AD7B
:104D540009AA18AB191218430259528E828F83A3E1
:104D6400A3A3A3A3A3A3E024D0F9E970089019474F
:104D74007400F080069019477401F0121A95901986
:104D840047E0F5087509007808122A797CDF7D96DA
:104D94007402122854121C51740212280CAA18AB63
:104DA400191218798A088B09AC08AD09AA18AB192D
:104DB40012184375150102595275140002595274A0
:104DC4000A6508700474006509701079087C907D88
:104DD40098EEFAEFFB121A83E97022740F650870DB
:104DE40004740065096003024EA279077CC57D98AE
:104DF400EEFAEFFB121A83E97003024EA28E828F41
:104E040083A3A3A3A3A3A3A3E0643F7035750848B9
:104E14007509197808122A797C897D9674021228FA
:104E240054121C51740212280CAA18AB19121879C6
:104E34008A088B09AC08AD09AA18AB1912184302E9
:104E440059527508067509007808122A79EE240764
:104E5400FCE43FFD7A487B1912187F740212280C77
:104E640090194E7400F0121A95750848750919784E
:104E740008122A797CF77D967402122854121C5168
:104E8400740212280CAA18AB191218798A088B0913
:104E9400AC08AD09AA18AB19121843025952740A86
:104EA40065087004740065096003024F6C79077C1F
:104EB400BD7D98EEFAEFFB121A83E97003024F6C82
:104EC4008E828F83A3A3A3A3A3A3A3E024D06042D1
:104ED40014603F24F26003024F6690194FE0F50816
:104EE4007509007808122A797C337D977402122898
:104EF40054121C51740212280CAA18AB19121879F6
:104F04008A088B09AC08AD09AA18AB191218430218
:104F140059528E828F83A3A3A3A3A3A3A3E024D077
:104F240090194FF0121A9590194FE0F50875090081
:104F34007808122A797CDF7D967402122854121C98
:104F440051740212280CAA18AB191218798A088B0A
:104F540009AC08AD09AA18AB19121843751501025A
:104F64005952751400025952C3E508940AE509948C
:104F740000404579087CB47D98EEFAEFFB121A8361
:104F8400E960357508507509197808122A797CE0AA
:104F94007D957402122854121C51740212280CAA12
:104FA40018AB191218798A088B09AC08AD09AA182C
:104FB400AB19121843025952740A6508700474003C
:104FC4006509600302505779087C997D98EEFAEFE1
:104FD400FB121A83E9607C121AA7E96401706E90CF
:104FE4009A6C744312285C74041227097E00901989
:104FF400EF7401F090196AE070047E0180057E0070
:10500400121B4FEEF83395E0F97443122842E582FF
:1050140028F582E58339F583E0F5087509007808F9
:10502400122A797C0F7D977402122854121C517431
:105034000212280CAA18AB191218798A088B09AC29
:1050440008AD09AA18AB1912184302595275140075
:1050540002595274146508700474006509600302EF
:10506400510679067C727D99EEFAEFFB121A83E9F8
:10507400700302510690994D744012285C74031217
:105084002709750800121AA7E96401706F9019EFD7
:105094007402F0750A0C750B00780A122A79EE2452
:1050A40006FCE43FFD7A5D7B1912187F7402122816
:1050B4000CA80879007440122842E58228F582E59C
:1050C4008339F583E0F5087509007808122A797C9C
:1050D4000F7D977402122854121C51740212280C6A
:1050E400AA18AB191218798A088B09AC08AD09AA59
:1050F40018AB19121843121B4F02595275140002AF
:105104005952740A65087004740065097055790869
:105114007C3F7D98EEFAEFFB121A83E96045121A80
:10512400A7E9640170377901121A9B7C007D00792C
:10513400007A097B041215C1E97C6C7D97AA18AB2F
:1051440019121C51AA18AB191218798A088B09ACC8
:1051540008AD09AA18AB1912184302595275140064
:10516400025952740A6508700474006509600302E8
:10517400523079087C1B7D98EEFAEFFB121A83E912
:105184007003025230121AA7E9640160030252301C
:10519400121AA7E96401600302522A90196AE070A6
:1051A400247C007D95AA18AB19121C51AA18AB19BE
:1051B4001218798A088B09AC08AD09AA18AB191220
:1051C40018430259527E0090196AE0F8EEC39840E1
:1051D40003025952EEF87900E875F00CA4C8AAF05D
:1051E40075F000A42AFA75F00CE9A42AF9746D2864
:1051F400F508741939F5097808122A797C557D96D1
:105204007402122854121C51740212280CAA18ABEE
:10521400191218798A088B09AC08AD09AA18AB19B8
:105224001218430E80A1751400025952740A6508BD
:10523400700474006509704579087C487D98EEFA1D
:10524400EFFB121A83E960357508E375099978084C
:10525400122A797CDE7D997402122854121C51742E
:105264000212280CAA18AB191218798A088B09ACF7
:1052740008AD09AA18AB19121843025952740A65E9
:1052840008700474006509600302532E79077C2DAD
:105294007D99EEFAEFFB121A83E9700302532E1282
:1052A4001AA7E96401707D8E828F83A3A3A3A3A3AD
:1052B400A3A3E0643F70309019E5122A907C567DD8
:1052C400997402122854121C51740212280CAA1840
:1052D400AB191218798A088B09AC08AD09AA18AB66
:1052E400191218430259529019E57410F0A3742747
:1052F400F0121A959019E5122A907C4A7D95740251
:10530400122854121C51740212280CAA18AB191238
:1053140018798A088B09AC08AD09AA18AB191218B8
:1053240043025952751400025952740A65087004F4
:1053340074006509704A790A7C5A7D98EEFAEFFB8D
:10534400121A83E9603A9019E7E0F5083395E0F51D
:10535400097808122A797C967D96740212285412D0
:105364001C51740212280CAA18AB191218798A0855
:105374008B09AC08AD09AA18AB191218430259528B
:10538400740A6508700474006509600302545B794B
:10539400077C357D99EEFAEFFB121A83E97003025C
:1053A400545B8E828F83A3A3A3A3A3A3A3E0643F30
:1053B40070389019E9E0F5087509007808122A791F
:1053C4007C6F7D967402122854121C5174021228A8
:1053D4000CAA18AB191218798A088B09AC08AD0904
:1053E400AA18AB191218430259528E828F83A3A3B1
:1053F400A3A3A3A3A3E024D09019E9F09019E9E0B2
:10540400C3940440069019E97400F0121A95901997
:10541400E9E0F5087509007808122A797CDF7D96A1
:105424007402122854121C51740212280CAA18ABCC
:10543400191218798A088B09AC08AD09AA18AB1996
:105444001218439019E9E0F87403C398F9120BC5D4
:10545400E9751501025952740A65087004740065EF
:1054640009600F740F650870047400650960030215
:10547400553C79077C1D7D99EEFAEFFB121A83E9FE
:10548400700302553C121AA7E960030255368E8256
:105494008F83A3A3A3A3A3A3A3E0643F70309019B5
:1054A400EA122A907CD37D947402122854121C515F
:1054B400740212280CAA18AB191218798A088B09DD
:1054C400AC08AD09AA18AB1912184302595279064F
:1054D400EE2407FAE43FFB121A898A088B098C0A26
:1054E4008D0B9019EAE508F0A3E509F09019EAC3D9
:1054F400E09410A3E094274003025952121A9590A5
:1055040019EA122A907C4A7D957402122854121CBE
:1055140051740212280CAA18AB191218798A088B34
:1055240009AC08AD09AA18AB191218437515010284
:105534005952751400025952740A650870047400B3
:105544006509600302560779077CDD7D98EEFAEF62
:10555400FB121A83E970030256078E828F83A3A37A
:10556400A3A3A3A3A3E0643F70389019ECE0F5086B
:105574007509007808122A797C337D977402122801
:1055840054121C51740212280CAA18AB191218795F
:105594008A088B09AC08AD09AA18AB191218430282
:1055A40059527901EE2407FAE43FFB121A898A085A
:1055B4008B098C0A8D0BE5089019ECF09019ECE03E
:1055C400C394025038121A959019ECE0F508750945
:1055D400007808122A797CDF7D967402122854120E
:1055E4001C51740212280CAA18AB191218798A08D3
:1055F4008B09AC08AD09AA18AB191218437515012B
:10560400025952740A6508700474006509704B7974
:105614000A7C987D97EEFAEFFB121A83E9603B123D
:105624001AA7E96401702D9019EF7403F07C827D50
:1056340097AA18AB19121C51AA18AB191218798A17
:10564400088B09AC08AD09AA18AB19121843121B30
:105654004F025952751400025952740A65087004B5
:1056640074006509703A79077C057D99EEFAEFFBC1
:10567400121A83E9602A121AA7E96401701C9019AE
:10568400EF7404F08E828F83A3A3A3A3A3A3A3E048
:1056940024D0F9121B85E90259527514000259529B
:1056A40074096508700474006509600302594F7930
:1056B400067C807D99EEFAEFFB121A83E9700302EF
:1056C400594F8E828F83A3A3A3A3A3A3E0F516E56A
:1056D4001624CC601814601914601A14601B14701A
:1056E4000302578A14700302585E02594A7E0480EA
:1056F4000A7E0580067E0680027E0779801216EDFA
:105704007A04EEF91216E78A088B09AC08AD098C05
:10571400088D09E4F50AF50B7808121CFE909A30FE
:10572400780C1226AE7808790C121F09909A3478F6
:105734000C1226AE7808790C1222C87808122A7541
:105744008C088D097808122A79A8167900E824D0E3
:10575400F508E934FFF5097808122A797C967D91D9
:105764007408122854121C51740812280CAA18AB7D
:10577400191218798A088B09AC08AD09AA18AB1953
:105784001218430259527E117F0175089975090157
:1057940079001216ED7A02790F1216E78A0A8B0B3A
:1057A400AC0AAD0BC3EC9508ED9509400478648010
:1057B40059C3EE9CEF9D40047800804EE508C39EDB
:1057C400F8E5099FF9E82401FAE439FB8A088B0912
:1057D400740278081227D4AA08AB09ECC39EF8ED2A
:1057E4009FF9E875F019A4C8AEF075F000A42EFE78
:1057F40075F019E9A42EF9E82AF8E93BF9E824FF41
:10580400F8E934FFF912276BE8F88808750900787D
:1058140008122A798C088D097808122A79A8167931
:1058240000E824D0F508E934FFF5097808122A794C
:105834007CC87D927406122854121C5174061228D6
:105844000CAA18AB191218798A088B09AC08AD098F
:10585400AA18AB19121843025952750C00750D00A1
:10586400750E00750F0090624B7401F09061A9747D
:1058740001F07E00805779001216ED7A03790E123A
:1058840016E78A088B09AC08AD098C088D09E4F584
:105894000AF50B7808121CFE909A3878101226AE7E
:1058A40078087910121F09909A3C78101226AE7865
:1058B4000879101220AE909A4078101226AE78081B
:1058C40079101222C8780C79081220AE0EEEC39417
:1058D4004040A3850C08850D09850E0A850F0B90A1
:1058E4009A44780C1226AE7808790C1222C8906279
:1058F4004BE0C2E0F09061A9E0C2E0F07808122A1F
:10590400758C088D097808122A79A8167900E8247C
:10591400D0F508E934FFF5097808122A797CB17DBD
:10592400927408122854121C51740812280CAA18D4
:10593400AB191218798A088B09AC08AD09AA18ABFF
:105944001912184380087514008003751400E515B6
:1059540060117AC87B00121A7DC2AF75C9AB75C9D4
:105964005B80FEA914744712280C7F0F02293802A9
:10597400013274F612286674C81227F6E9FE7F0114
:10598400EEA2E54003025A16901CB4E0C2E5F07C96
:10599400647D997A157B1A121C517CD37D967A21E9
:1059A4007B1A121C51901CB3E070047401800274C1
:1059B40000901CB3F0901CB3E060077901121969E0
:1059C40080057900121969901CB3E0F50875090087
:1059D4007808122A797CFE7D97740E122854121CC2
:1059E40051740212280C7906740C1228541217955B
:1059F400740C122854121C638A088B09AC08AD0974
:105A0400740C1228541218497A017B00121A7D0270
:105A14005C26EEA2E05042901CB4E0C2E0F07C5D53
:105A24007D997A157B1A121C517C247D987A217BEE
:105A34001A121C51121AA7E964016003025C269031
:105A44001A6DE064027003025C267C0A7D007A9879
:105A54007B97121B2BE9025C26EEA2E45031901CCA
:105A6400B4E0C2E4F07C2D7D987A157B1A121C51A7
:105A74007CA67D947A217B1A121C519019EEE07059
:105A840004780180027800E89019EEF0025C26EEBA
:105A9400A2E3503B901CB4E0C2E3F07C757D987A9D
:105AA400157B1A121C517C757D987A217B1A121C65
:105AB40051121AA7E964016003025C26901A6DE092
:105AC40064027003025C267901121B73025C26EEE9
:105AD400A2E15020901CB4E0C2E1F07CB87D977A3A
:105AE400157B1A121C517C1F7D937A217B1A121C80
:105AF40051025C26EEA2E24003025C24901CB4E056
:105B0400C2E2F07C617D977A157B1A121C517CB538
:105B14007D947A217B1A121C51121AA7E964016040
:105B240003025BC8901A6DE064026039121B79E9C4
