:020000040000FA
:0600000002011A0231C5E5
:03002B000238C1D7
:03003300023896FA
:03003B000238E99F
:0300430002383749
:0300530002323B3B
:03006B00023963F4
:1000830002301BE5C754F84401F5C779012200008B
:100093000080FB120086B90003020104E479217891
:1000A30008B800028004F709D8FCE479297802B87B
:1000B30000028004F709D8FCE4900281784F791993
:1000C3008002F0A3D8FCD9FA781A90014A7A01BACF
:1000D30000028007E493A3F608DAF97ACF7B1A903B
:1000E300014B781379058015E493A3AD82AE838A1F
:1000F300828B83F0A3AA82AB838D828E83D8E9D9C6
:10010300E775826C7583EC740512012C7582917509
:100113008300740012012C75D00075813F7518811E
:10012300751902759F00020096C09FF59FE473D076
:100133009F22D083D082C09FE493C0E0740193C018
:10014300E0740293F59F220101070D0743073D0762
:10015300FF0000B4000028002800283075A000A08C
:1001630000A000A00000080008E001F0001000104B
:10017300001000100010001000500050005000103C
:10018300001000D0070000000000000F0001000570
:1001930000307507001000010081FF00000000FF20
:1001A300FFFF81089F088708C308FF0202020802B5
:1001B3005000A0000000E80302139B010000D49A42
:1001C30002F99A010000321B02FF9A0100000A049F
:1001D30002F99A010000331B02039B010000200473
:1001E30002F99A010000341B02059B01000022045E
:1001F30002F99A010000351B02079B080000230443
:1002030002F99A010000361B020D9B010000371B07
:10021300FFFF0100FF2002139B010000D79A02F9A0
:100223009A0100009C1B02159B000000000002FDC8
:100233009A03000053041700091109110911091148
:1002430009110911091109110911091109110911DB
:1002530009116D138B136713B114C314AB1402028A
:1002630002020202020202010D0000001001021349
:100273009B010000E09A02F99A010000E51B020BC2
:100283009B010000A20E02F99A010000E61B02097D
:100293009B010000639602F99A010000E71B02F537
:1002A3009A010000669502F99A010000E81B02ED2D
:1002B3009A010000559302F99A010000E91B02E339
:1002C3009A0100001F9302F99A010000EA1B02E55C
:1002D3009A010000799302F99A010000EB1B02E7EF
:1002E3009A010000679302F99A010000EC1B02E9EE
:1002F3009A0100009E9502F99A010000ED1B02EBA2
:100303009A010000EE1B0401E803057710020A0AB4
:10031300DF16FFFFFF000130750302010600000036
:1003230000000000000000000000000000000000CA
:10033300000000000000000000FFFF0600800CE842
:1003430003013FFEFF0101010201060302F0FF0268
:1003530001061AFF4C000215E2C56DB5DFFB48D25A
:10036300B060D0F5A71096E000010002CD131C1970
:100373001C251C2B1C1F1C0A436861726163746576
:100383007269737469632031000243686172616347
:10039300746572697374696320320008436861721B
:1003A3006163746572697374696320330010436811
:1003B30061726163746572697374696320340002E6
:1003C300436861726163746572697374696320352C
:1003D300001643686172616374657269737469635B
:1003E30020360010436861726163746572697374C7
:1003F300696320370002139B010000D19A02F99A26
:10040300010000FE1C02199B030000921A02FB9AD2
:10041300010000FF1C02F99A010000101D021B9B42
:10042300010000931A02FB9A010000111D02F99AC0
:10043300010000221D021D9B020000941A02FB9A78
:10044300010000231D02F99A010000341D021F9BC5
:10045300000000951A02FD9A030000961A02FB9A07
:10046300010000351D02F99A010000461D02219B7F
:10047300040000981A02FB9A010000471D02F99A32
:10048300010000581D02239B0300009D1A02FD9AE0
:10049300030000B21A02FB9A010000591D02F99AE7
:1004A3000100006A1D02259B000000B41A02FD9A98
:1004B300030000C91A02FB9A0100006B1D0100B082
:1004C300423BAAB83F0000003F8C906339AA0CA3BB
:1004D3003A00941E3C8042633DCFFE753E15723157
:1004E3003F0000803FF304353F8096184B30313294
:1004F3003334353637383941424344454600286E54
:10050300756C6C20706F696E7465722900303132BE
:1005130033343536373839616263646566003F3F8B
:100523003F000000807FF9021550B743BA5100E73E
:10053300DB2E0000A040000080BF2292D43EDD9B52
:100543002A3F0400004000000000FFFF7F7FFFFF01
:100553007FFF010080341872313F12013535D00519
:100563001201351CD10512013516D205120135E8E9
:10057300CD05120135FBCD051201351CCE05120147
:100583003587CE05120135C8CE05120135E9CE05F2
:100593001201352ACF05120135C2CF051201350AE2
:1005A300D0051201351EBA0512013531BA05120103
:1005B3003562BA051201359CBA05120135F5BA0543
:1005C3001201353CBB0512013584BB05120135B35D
:1005D300BB05120135E2BB0512013519BC05120139
:1005E3003560BC0512013579BC05120135CEBC0559
:1005F300120135E7BC0512013535BD051201356F12
:10060300BD05120135008004120135038104120176
:1006130035308104120135818104120135A481042E
:10062300120135B68104120135B98104120135F77F
:1006330081041201356B8204120135D78204120141
:10064300359F8304120135BB8304120135F2830401
:100653001201352C8404120135C3840412013515AB
:10066300850412013546850412013577850412018C
:1006730035848504120135EE8504120135F18504B4
:10068300120135FE85041201350186041201355825
:1006930086041201355B8604120135948604120127
:1006A30035978604120135CB8604120135CE8604B4
:1006B3001201352287041201356B87041201357B41
:1006C3008704120135AE8704120135BB870412017A
:1006D30035BE8704120135268804120135288904A2
:1006E300120135CC8904120135358A0412013573A0
:1006F3008A041201353AB20412013537B3041201E8
:1007030035CDB30412013518B4041201357CB40499
:1007130012013506B504120135BFB504120135E1E6
:10072300B8041201355EBA0412013581BA0412010C
:100733003529AA05120135CEAB05120135EEAB05FD
:100743001201350FAD0512013562AD05120135E712
:10075300FB011201350FFC011201353CFC011201B2
:100763003574FC01120135D2FC011201351EFD0165
:1007730012013585FD01120135C5FD011201350256
:10078300FE0112013530FE01120135DAFE011201BC
:1007930035E4FE01120135F1FE0112013524FF019A
:1007A30012013530FF0112013548FF0112013552A4
:1007B300FF0112013517E70512013525E70512017F
:1007C300353DE70512013555E7051201356CE7059F
:1007D300120135008003120135AA8003120135BDD1
:1007E3008103120135398203120135578303120144
:1007F300359383031201352E8403120135128503C9
:10080300120135D585031201354D8603120135DBFF
:1008130087031201354C880312013506890312013F
:1008230035F88903120135388A03120135EC8A033E
:100833001201351E8B03120135148D031201355B32
:100843008D03120135798D03120135DF8D031201FA
:1008530035AE8E03120135728F0312013591910368
:100863001201359B9103120135A7F803120135914B
:10087300F9031201353CFA031201358DFA03120113
:10088300353DFB03120135AEFB0312013593FC0327
:10089300120135C7FC03120135C0FD03120135FDFA
:1008A300FD03120135D9FE0312013518FF031201AE
:1008B3003534FF031201356CD605120135F0D60528
:1008C3001201351BD70512013535D8051201356FD5
:1008D300AE0512013585AE05120135A3AE05120131
:1008E30035B4AF05120135BEAF05120135E9B005C8
:1008F300120135E0B1051201354DB205120135572C
:10090300B205120135A4E304120135DAE40412013D
:100913003554E50412013584E50412013597E504E5
:10092300120135EEE50412013503E804120135F531
:100933009C02120135A69D02120135C29D021201CD
:10094300358B9E02120135A59E02120135B09E021F
:10095300120135869F0212013563A002120135F39D
:10096300A002120135AAA102120135B8A402120194
:1009730035A7A60212013559A70212013522A80292
:1009830012013567AB0212013511AC021201353A7F
:10099300AD02120135F6AE0212013596AF02120115
:1009A30035E4AF0212013523B002120135F6B0026D
:1009B3001201352AB102120135B7B1021201350A0B
:1009C300D90212013596D902120135FADA0212015F
:1009D3003506DB0212013541DB02120135B0DB02C1
:1009E300120135B9DC02120135C2DD02120135896B
:1009F300DE02120135E6DF0212013504E0021201C4
:100A03003521E002120135CEE0021201354BE1023D
:100A130012013573E1021201353DE4021201354240
:100A2300E4021201355BE602120135A9E602120166
:100A33003519E70212013557E70212013533E8028F
:100A4300120135F3E8021201353FE9021201354282
:100A5300E90212013586E902120135CEE9021201DB
:100A6300350DEA021201352FEA0212013563EA025B
:100A7300120135C6EA021201351B85051201352420
:100A8300850512013532850512013585850512016B
:100A930035A48505120135E985051201352D870534
:100AA300120135C887051201350C88051201353648
:100AB3008805120135A58805120135EB8805120159
:100AC30035628905120135138A051201351EBC01F1
:100AD3001201352EBC01120135CFBC011201352B99
:100AE300BD01120135E8BD0112013504BF01120138
:100AF3003536BF0112013565BF0112013512C1013F
:100B030012013589C301120135F9C501120135EB13
:100B1300C601120135E4C701120135EBC901120107
:100B230035DFCC011201350ECE0112013512D00191
:100B330012013522D101120135B1D201120135A2C0
:100B4300D301120135F0D3011201355FD401120133
:100B53003583D401120135D4D40112013575D9017D
:100B630012013576DA01120135D7DA0112013502A5
:100B7300DB01120135C8DB0112013586EF041201D6
:100B83003590EF04120135D5EF04120135E9EF0476
:100B930012013579F004120135B2F004120135ED7A
:100BA300F00412013516F10412013564F104120147
:100BB3003579F1041201358EF104120135A3F104E4
:100BC300120135E6F104120135FBF1041201356619
:100BD300F2041201357AF2041201358EF204120185
:100BE30035A3F204120135DDF20412013501F304D9
:100BF3001201352DF30412013564F304120135C6D5
:100C0300F30412013538F4041201357BF4041201A4
:100C130035A5F404120135D0F40412013511E505AC
:100C2300120135A6CA0312013589CB03120135041B
:100C3300CC031201353FCC0312013590CD031201D1
:100C43003519CE0312013531D003120135C3D20356
:100C530012013575D30312013581D403120135F422
:100C6300D5031201354DD60312013543FA0412019F
:100C73003586FA041201350AFB04120135DDFB0443
:100C8300120135B4FE04120135E3C8051201359093
:100C9300C9051201359DCA05120135DCCA051201C9
:100CA3003536CB0512013557DA05120135BADA05A7
:100CB30012013557DB051201358CDB05120135BCFA
:100CC300DB05120135DDDB0512013518DC051201E8
:100CD3003538DC05120135038F051201358F8F0579
:100CE3001201354E900512013566910512013580CA
:100CF3009305120135F6D6031201351BD7031201F2
:100D030035E8D703120135BCD80312013529D903BD
:100D13001201357FD9031201351BDA031201354F56
:100D2300DB031201352ADC0312013589DC031201CE
:100D33003515DD0312013583DD031201350FDE03A3
:100D430012013512DE031201355CDE03120135CECA
:100D5300DE0312013560DF0312013501E0031201E6
:100D63003521E00312013569E003120135B2E003D6
:100D7300120135CEE003120135F4E0031201356EA2
:100D8300E1031201357CE1031201350BE203120189
:100D93003574E2031201354E9805120135D39805D7
:100DA300120135159905120135F9990512013566B8
:100DB3009A05120135AA9A05120135EE9A05120118
:100DC300351B9B05120135439B051201357B9B05A2
:100DD300120135B99B05120135E09B051201355A05
:100DE3009C05120135A49C0512013534DC01120166
:100DF300352DDE0112013519E1011201356DE101D5
:100E030012013598E10112013572E201120135B187
:100E1300E201120135F8E2011201350BE30112017F
:100E2300354CE30112013579E301120135C7E301C2
:100E330012013506E40112013531E4011201358452
:100E4300E40112013513E501120135F1E701120145
:100E5300350CEA011201354AEA01120135BFEB01F3
:100E630012013504EC01120135F8EC0112013511C0
:100E7300EF0112013573EF01120135C4EF011201C5
:100E830035DFF4011201352EF50112013574F50138
:100E93001201355CF7011201352AF9011201352FD0
:100EA300F90112013509FA0112013582FA01120121
:100EB30035B2FB01120135C4FB011201353DC605F4
:100EC300120135AFC60512013505C70512013549B3
:100ED300C70512013569C705120135B6C7051201E9
:100EE30035FEC70512013551C805120135A2C805E3
:100EF30012013588A80412013507A904120135002F
:100F0300AF0412013506B00412013579B1041201A0
:100F13003510B204120135008002120135498002F6
:100F2300120135768002120135A88002120135B410
:100F33008002120135C08002120135D780021201EE
:100F430035B2810212013510820212013545820247
:100F5300120135768302120135C38302120135096A
:100F630084021201357584021201351985021201BA
:100F730035CF85021201352E86021201359F860276
:100F8300120135FD86021201352F880212013597B1
:100F93008902120135618A021201356E8A02120139
:100FA30035B08A02120135C08A02120135E48A0281
:100FB300120135E78A02120135D38B021201356F14
:100FC3008C02120135088D021201359F8D02120128
:100FD30035CC8D021201352A8E02120135718E0233
:100FE300120135C18E02120135118F0212013583B0
:100FF3008F021201351E9002120135C990021201AF
:1010030035689102120135E691021201352D9202E3
:10101300120135919202120135C092021201355725
:101023009302120135699502120135AD9502120141
:1010330035F895021201357E9602120135089702A2
:10104300120135219802120135A79802120135CCFD
:1010530098021201352399021201353899021201BF
:1010630035809902120135F39902120135389A023B
:10107300120135419B02120135F29B0212013550D8
:101083009C02120135AC9C02120135C59C0212016F
:1010930035A4BB04120135F8BB0412013504BC04AA
:1010A300120135CEBC04120135FBBC0412013529F3
:1010B300BD0412013595BD04120135CBBD041201E7
:1010C3003504BE041201351CBE0412013571BE0481
:1010D3001201358ABE04120135CFBE04120135E276
:1010E300BE04120135FCBE0412013512BF04120105
:1010F3003530C0041201355BC10412013545C20409
:1011030012013536C304120135F6FF03120135000F
:101113008005120135838305120135D08405120140
:10112300352ABE03120135FDC00312013503C10385
:1011330012013593C303120135F6C503120135B706
:1011430093051201354E94051201350C95051201D4
:101153003536950512013510970512013515980599
:1011630012013526640012013558640012013575E9
:101173007000120135C67100120135CF72001201E1
:10118300354E74001201353975001201358875002A
:10119300120135A27500120135E47500120135EF15
:1011A30075001201353676001201353F76001201C3
:1011B30035EB7600120135C477001201350B780048
:1011C300120135737800120135B57800120135E349
:1011D300780012013520790012013506C60212018A
:1011E30035D1C902120135D7C9021201357BD002AC
:1011F300120135CFD402120135B8D8021201354B92
:10120300B605120135C1B605120135D7B60512016F
:101213003567B705120135A4B705120135DEB705E9
:1012230012013518B8051201358BB805120135CCFA
:10123300B805120135D5B805120135E1B80512011B
:101243003500B9051201352AB9051201353FB90533
:1012530012013567B905120135C9B905120135F017
:10126300B905120135D9DC04120135ECDC04120195
:101273003506DD0412013533DD0412013579DD0451
:10128300120135ACDD04120135EADD041201354FDC
:10129300DE0412013564DE041201356FDE0412012F
:1012A300357CDE0412013593DE04120135A1DE0420
:1012B300120135B0DE04120135C5DE04120135DA40
:1012C300DE04120135E5DE04120135F1DE041201FC
:1012D30035FEDE0412013511DF041201351CDF0473
:1012E30012013541DF04120135E5DF04120135F542
:1012F300DF041201350AE0041201351FE004120174
:101303003539E00412013556E00412013573E00467
:101313001201357EE0041201352AE1041201350B76
:10132300E20412013530E2041201353BE2041201FA
:101333003550E20412013564E204120135C5E204BA
:10134300120135CBE204120135D1E204120135D783
:10135300E204120135EFE20412013522E304120123
:1013630035998A04120135BB8A04120135838B0433
:101373001201353D8E04120135538F041201357469
:1013830090041201354E9104120135FD91041201AE
:1013930035A7B0031201353EB103120135D6B103AF
:1013A300120135C6B203120135FDB2031201351025
:1013B300B3031201357EB30312013519B5031201CC
:1013C3003540B503120135E2B50312013517B603F3
:1013D30012013528B603120135A1B603120135C235
:1013E300B603120135DAB60312013532B80312011E
:1013F300353BBA031201358BBC031201358EBD0395
:10140300120135DDBD031201350BA20312013508AC
:10141300A303120135F3A303120135FDA303120144
:101423003507A40312013529A40312013535A4039A
:1014330012013587A503120135B6A503120135E65E
:10144300A60312013528A70312013554A80312017C
:10145300352AA9031201357CA903120135DBA9033F
:1014630012013512AA031201354DAA03120135E800
:10147300AD0312013501AE0312013583AE03120130
:101483003591AE03120135E6AE03120135F4AE0316
:1014930012013561AF03120135D3AF0312013519C0
:1014A300B00312013597E203120135B9E2031201C9
:1014B30035A3E40312013548E8031201358BE90330
:1014C30012013565EA03120135DCDF05120135012E
:1014D300E00512013572E005120135F0C404120172
:1014E30035F9C40412013502C50412013533C604AB
:1014F30012013552C80412013588C804120135C2DD
:10150300C804120135F8C80412013532C9041201A6
:101513003566C90412013592C904120135DBC904C9
:1015230012013515CA041201355DCA04120135B31F
:10153300CA04120135E8CA0412013543CB0412016F
:10154300357DCB04120135CECB0412013504CC0416
:101553001201353ECC041201356CCC041201358FD7
:10156300CC0412013517EB0512013543EB051201CB
:10157300359EEB05120135A8EB05120135B8EB05D5
:101583001201351DCD0412013561CD041201350F51
:10159300CE0412013587CE04120135D9CE041201CF
:1015A3003579CF04120135B5CF041201354FD0047C
:1015B300120135CCD00412013525D2041201353E77
:1015C300D20412013576D30412013509D404120171
:1015D3003572D404120135DED4041201356EA1052F
:1015E30012013595A105120135C5A1051201354634
:1015F300DC051201355DDC051201358CDC051201B9
:101603003512DD05120135C2EB05120135299B01A7
:10161300120135449E0112013534A001120135A691
:10162300A00112013564A1011201350FA2011201BB
:10163300359FA2011201352EA30112013558A301D2
:10164300120135C5A301120135FFA801120135921C
:10165300A901120135C1AA0112013525AB011201FD
:1016630035D9AB011201358CAE01120135C6AE017D
:1016730012013530AF011201358DAF01120135EA88
:10168300AF0112013547B00112013532B101120128
:101693003578B101120135C3B101120135E4B1014D
:1016A30012013546B30112013561B301120135E769
:1016B300B40112013514B50112013554B5011201FB
:1016C300359AB501120135B8B501120135F6B501E8
:1016D30012013534B8011201356DB8011201350418
:1016E300B901120135A4B90112013537BA0112014A
:1016F30035A9BA01120135EABB01120135F8F40428
:101703001201358CF504120135CBF6041201355460
:10171300F70412013527F80412013550F8041201B9
:1017230035B7F8041201351FF90412013525E60512
:1017330012013536E60512013507E705120135B802
:10174300C00512013583C305120135E0FF01120103
:101753003592E105120135A2E105120135C2E10519
:10176300120135BEE20512013591C3051201352C74
:10177300C40512013522C60512013564D8051201CC
:10178300359AD8051201350AD90512013535D9051F
:1017930012013598D90512013508DA0512013546CB
:1017A300DA0512013549DA05120135258A051201D8
:1017B300354A8A05120135718A05120135988A0561
:1017C300120135C08A05120135F88A051201352840
:1017D3008B05120135EF8B05120135DA8C051201E9
:1017E30035148D051201355D8E05120135E49C0516
:1017F300120135069D05120135989D051201359696
:101803009E0512013587A005120135E7A0051201D7
:101813003550A105120135F87F001201354AD20572
:10182300120135EED3051201355AD4051201355490
:101833007A00120135517C00120135D77C00120168
:1018430035D97D00120135997E001201350E7F00D6
:101853001201356E7F00120135717F001201357F51
:101863007F00120135937F00120135AB7F00120117
:1018730035C37F00120135D17F00120135E97F00A6
:1018830012013554EA05120135CEEA05120135DE9F
:10189300EA05120135EEEA0512013507EB051201DF
:1018A3003509FE021201353AFE0212013564FE02C9
:1018B3001201351FFF021201353FFF021201359756
:1018C300FF02120135F19404120135FF9404120151
:1018D30035459504120135989504120135E09504B8
:1018E3001201353A96041201355B96041201352F25
:1018F30099041201353D9904120135999904120195
:1019030035CC9904120135DF99041201356A9A0422
:10191300120135039B04120135809B04120135B972
:101923009B04120135419C04120135989C04120159
:1019330035F59C04120135079D04120135389D04C9
:10194300120135419D041201358E9E041201352486
:10195300DE0512013585DE0512013522DF05120190
:101963003588DF05120135CDA50512013500A60521
:1019730012013527A7051201354CA70512013511B0
:10198300A805120135EDA805120135CFE2051201B4
:10199300359BE30512013581CB05120135C6CB0515
:1019A30012013506CC05120135A3CD05120135FC14
:1019B300E70512013517E80512013527E80512017D
:1019C300358CE805120135CCE80512013590E9059F
:1019D300120135C29E041201359E9F04120135E5A2
:1019E3009F0412013522A0041201358EA0041201B6
:1019F30035E6A00412013556A10412013526A204CE
:101A03001201350FA30412013586A3041201351BFD
:101A1300A504120135A6A50412013515A604120169
:101A2300358DA604120135A4A604120135CDA704F1
:101A33001201351FA804120135CAE904120135EA5F
:101A4300E904120135DAEA0412013523EB04120129
:101A53003543EB0412013581EB04120135DCEB0451
:101A63001201351AEC0412013564EC041201350C31
:101A7300EF0412013575EF04120135ADB202120104
:101A830035C6B702120135BDBA02120135E3BA02F7
:101A93001201350CBB02120135BEBB021201359F88
:101AA300BD02120135BABE02120135D3BE021201C4
:101AB30035C9C30212013502C40212013546C402FC
:101AC30012013553C502120135B03900120135E454
:101AD30039001201351F3A00120135913A00120103
:101AE300355A3B00120135713B001201354D3C0064
:101AF3001201354240001201355240001201358374
:101B03004000120135564100120135B74100120160
:101B130035BA4100120135FB41001201351942006B
:101B23001201358042001201355C44001201351C5C
:101B330045001201356E450012013575450012014D
:101B4300358C45001201356146001201357146009E
:101B5300120135AF4600120135C84600120135DFC8
:101B630046001201356B470012013586470012010A
:101B730035B34900120135DE59001201355B5A00B5
:101B8300120135485E001201350162001201359ED3
:101B9300EB02120135D2EC0212013513ED021201F0
:101BA3003584F002120135BDF002120135CEF00288
:101BB300120135EAF102120135FBF10212013594EB
:101BC300F202120135A4F2021201355AF80212018F
:101BD300351AF90212013576F9021201350AFA02B1
:101BE3001201356FFA0212013580FC021201352F02
:101BF300FD02120135A7ED03120135F6F1031201BF
:101C0300359AF403120135D3F403120135E4F403D6
:101C130012013503F5031201358FF603120135A0C6
:101C2300F60312013567F703120135F8F7031201C2
:101C33003525D50412013533D60412013550D604A7
:101C430012013529D8041201354DD904120135E9A1
:101C5300DA04120135EEED05120135F6ED05120138
:101C630035B2ED05120135D7BD05120135F3E30594
:101C730012013595FF03120135A59103120135B801
:101C830096031201355DD405120135E0EC0512010E
:101C9300355DED0512013561B20512013566FF04AC
:101CA30012013590FF0412013526ED051201358925
:101CB300ED05120135D0ED05E066701008A3E0666E
:101CC300700A08A3E066700408A3E06622C008C394
:101CD300E096F50808A3E096420808A3E0964208B8
:101CE30008A3E0964208A2D265D033E5087001D379
:101CF300D00822C3E7960809E7960809E79608097A
:101D0300E79622C3E09608A3E09608A3E09608A30B
:101D1300E09622C008C3E096F50808A3E0964208BF
:101D230008A3E096420808A3E09645087001D3D0C3
:101D33000822080808E630E7111225EF121D4D08A6
:101D43000808C64480C618181822181818E9799E7E
:101D5300C608CAC608CBC608CCC6C370207996CAC3
:101D6300CBCC7019798ECBCC70137986CC700EF9ED
:101D7300802ACA33CACB33CBCC33CC331930E7F206
:101D8300CCCBCA3350147004EA30E00DE4CA3ACA2B
:101D9300CB3BCBCC3CCC500209C3E913C6CC1823B4
:101DA30013C6CB18C6CA18C6F922121DED20F014AB
:101DB30030E72B74FFFCFBFA747F8022E4FCFBFA10
:101DC3007480801AB48008BC00F2BB00EF800F500F
:101DD300EBF9E4C39AFAE49BFBE49CFCE499C6CCDC
:101DE30018C6CB18C6CA18C6F922E4C9C608CAC69B
:101DF30008CBC6D3330308CCC63392F0C3947F40D9
:101E03002E94184019C9B90704CACBCC225025C354
:101E130009CA33CACB33CBCC33CC33D9F422F460E5
:101E23000DC9CCC313CB13CBCA13CAD9F6CC22E446
:101E3300FCFBFA2214FCFBFA22E626184618461885
:101E43004622E72719471947194722181818E608A1
:101E530046087009E626087005E633F422082219BD
:101E63001919E70947097009E727097005E733F4EA
:101E7300220922E6084608C3134608336002E63304
:101E8300F422E7094709C3134709336002E733F430
:101E930022121E766025121E856020121E3C7003DE
:101EA300021E45080808E76670101819E766700AED
:101EB3001819E76670041819E76622F422121E76D1
:101EC300601C121E856017121E3C7007121E45709F
:101ED30001D322C0D0121E457006D0D0B322C32234
:101EE30033D0D0501430E0F6C3E7960809E79608DC
:101EF30009E7960809E796B32220E0D5E697080993
:101F0300E6970809E6970809E697B322121E76605A
:101F13001B121E856016121E3C7007121E45600CB4
:101F2300B322C0D0121E457005D0D022C32233D0B5
:101F3300D0501330E0EBC3E7960809E7960809E7AA
:101F4300960809E7962220E0E4E6970809E6970851
:101F530009E6970809E6972200121E76604F121EC3
:101F6300856012E7548066F6121E4E7011121E45EC
:101F7300703B090909F4F618F618F618F622121E32
:101F8300627015121E3C08080860EAE6447FF618E2
:101F9300768018E4F618F622121E3C6016121E45CF
:101FA3007012E4F608F608F608E65480F609090903
:101FB30018181822EAC0E0EBC0E0ECC0E0EDC0E086
:101FC300E687F0A4FBACF008E687F0A42CFCE4352C
:101FD300F0FA1809E687F0A42C4B60027401CA35A5
:101FE300F0FCE433FB09E687F0D2F7A42CCB35F001
:101FF300FC1908E687F0A42BCC35F0FBE433FD088D
:1020030019E687F0D2E7A42C4ACB35F0CD3400FC97
:1020130009E687F0D2E7A42DCC35F0FDE433FA09C5
:1020230018E687F0D2F7A42CCD35F0CA3400FC08AB
:10203300E687F0D2E7D2F7A42ACC35F07A7E20E700
:102043000B0ACB33CBCD33CDCC33CC33CB33501482
:102053007004ED30E00ED2F1E4CD3DCDCC3CCC3B71
:102063005005DA05C2F1EB547FC63308E63392F02C
:10207300FBE73309E733C39A502D2B70190C0D4C32
:102083004D70151806E608C333700D20F10AA2F04F
:1020930013F6E418800B4024E4F630F0027680183F
:1020A300F618F618F68024D33B14501074FFA2F0F0
:1020B30013F6187680E418F618F6800FA2F013F6DC
:1020C30018E63303F618ECF618EDF6D0E0FDD0E091
:1020D300FCD0E0FBD0E0FA22121E856046121E7689
:1020E300603DE9687008F618F618F618F622748051
:1020F30067F712210F090909748067F722121E7608
:10210300601D121E857005191919801A121E4E7052
:102113001F121E62C37003E66733191919400718AB
:1021230018182208080874FFF618F618F618F6228D
:10213300121E626017121E45702192F0121E3C702F
:1021430019501720F014080808090909E7F61819A7
:10215300E7F61819E7F61819E7F622121E3C60E6AF
:10216300E869701F0808E62480F608E436F6185478
:102173007FB47F0CE654806007F6E418F618F62265
:10218300181822E9C6CC08C6CD08C6CE08C6CFC0EB
:10219300E0E8C0E0EAC0E0EBC0E009E9F809E7FAEB
:1021A30009E7FBE6F918E6F8C3EC98ED99EE9AEB2C
:1021B300C2E7F5F0EFC2E795F0500E600CEBCFFBF2
:1021C300EACEFAE9CDF9E8CCF8EAA2E7D2E7FAEBEE
:1021D30033FB13F5F0EEA2E7D2E7FEEF33FFC5F0D2
:1021E30013A2E730E601B313C5F0C3C0E0C0F07F2C
:1021F30000C39BFB605E9418600F401D14601AD0EF
:10220300E023F9D0E0F80222E18AF0E9486003D242
:10221300F0E4AFF0FAF9F8803BEB30E40D89F0EA33
:102223006003D2F0E4AFF0F9CAF8EB30E30D88F0C5
:10223300EF6002D2F0AFF0E4CAC9F8EB54076014C0
:10224300FBC3EA13FAE913F9E813F8EF135002D2C8
:10225300E0FFDBEDD0E0C0E030E739C3E49FFFF5FA
:10226300F0EC98FC42F0ED99FD42F0EE9AFE42F05C
:10227300D0E0F9D0E0F8E5F0607AE923F9EE20E761
:1022830042D8028067C3EF33FFEC33FCED33FDEE3E
:1022930033FE80EAEC28FCED39FDEE3AFED0E02374
:1022A300F9D0E0F84002801BC3EE13FEED13FDEC02
:1022B30013FCEF135002D2E0FF08B800067F7F74CF
:1022C300FF802EEF3350178CF020F00260100CBC0F
:1022D300000C0DBD00080EBE000408E860DFE93302
:1022E300E813FFEE2313FE4F4D4C8008E95480FFA3
:1022F300E4FEFDFCEE33EF33F47004FCFD7E80D08E
:10230300E0FBD0E0FAD0E0F8D0E0CFC618CEC61894
:10231300CDC618CCC6F922121E76700418181822DE
:10232300121E85700D74FFF61819F61819F6181990
:10233300F622E7548066F6121E3C700F121E45709B
:10234300F014F608F608F608F680D1121E45700C54
:10235300F608F608768008E6447F80EC121E657066
:102363000C121E5160BFE65480F6E480BB121E516E
:10237300700519191980A5E869700C763F187680E5
:1023830018F618F6E8F922E6CDC0E018ECC0E0E64E
:1023930033CD33CDD313F6E719FCE7191933CC3317
:1023A300C3947F400ECD9D502408E65480F6E41874
:1023B300F6800FF4043D14501408E6447FF61876B3
:1023C30080E418F618F6D0E0FCD0E0FD22CCD3135D
:1023D300CCFD18E4C6CBC0E018E4C6CAC0E00808C8
:1023E300ED08C633E613F618E433C675F003C3CA23
:1023F30097CA09CB97CB199C40047D08802EBD005A
:10240300030224C316B6FF050606081618C3CA330B
:10241300CACB33CB33CA27CA09CB37CB193CC37DCD
:1024230008803E187D0820E75CC633C6CA33CACB92
:1024330033CB33DDF1D5F0EB30E77BCA97CA09CB59
:10244300974ACB199C406F4B7025E620E0218066AC
:10245300187D08C3CA97CA09CB97CB199CD3C63337
:10246300C6CA33CACB33CB3350C9DDE7D5F0E1D38A
:10247300E4C636C608C636C608C636C608C636C655
:102483001818188031C3CA97CA09CB97CB199CB3C4
:102493004097C633C6CA33CACB33CB33DD34D5F00A
:1024A3002EC6A2E0C640C8CA27CA09CB37194A704C
:1024B300BECB3CB480B90808E63308E633601F1886
:1024C3001818D0E0FAD0E0FBD0E0FCD0E0FD2218F1
:1024D3007D08CA27CA09CB37CB193CD3808013F6B2
:1024E30018E4B67F11F618B6FF0EF618C60470D2BC
:1024F3000808768080CAF618F618F680C50808081A
:10250300EAC0E0EBC0E086F0E7A4FA180986F0E73A
:10251300A42AFA180986F0E7A42AFA180986F0E72C
:10252300A42AFA1986F0E7A4FBE5F02AFA1908862B
:10253300F0E7A42BFBE5F03AFA190886F0E7A42BA1
:10254300FBE5F03AFA18180986F0E7A4C5F02BFB6F
:10255300E43AFA1908E7C5F0C6A426F6E5F03BFB12
:10256300E43AFA1886F0E7A4F6E5F00826F6E43B29
:1025730008F6E43A08F6D0E0FBD0E0FA22E4CFC054
:10258300E0E4CEC0E0E4CDC0E0E4CCC0E075F020F0
:10259300E626F608E633F608E633F608E633F618D9
:1025A3001818EC33FCED33FDEE33FEEF33FFC3ECD1
:1025B3009709ED9709EE9709EF97191919400FFF3E
:1025C300EC97FC09ED97FD09EE97FE191906D5F076
:1025D300BFECF709EDF709EEF709EFF7191919D071
:1025E300E0FCD0E0FDD0E0FED0E0FF22181818E4B4
:1025F300C396F608E496F608E496F608E496F622FF
:102603006016080808C6C313C618C613C618C6132F
:10261300C618C613C6D5E0EA227009080808226066
:1026230016181818C6C333C608C633C608C633C639
:1026330008C633C6D5E0EA22E627F60809E637F6E8
:102643000809E637F60809E637F622E026F608A376
:10265300E036F608A3E036F608A3E036F622E026D5
:10266300F008A3E036F008A3E036F008A3E036F064
:1026730022C3E697F60809E697F60809E697F608EF
:1026830009E697F622C3E0C696F608A3E0C696F6D7
:1026930008A3E0C696F608A3E0C696F622C3E09622
:1026A300F008A3E096F008A3E096F008A3E096F004
:1026B30022E657F60809E657F60809E657F6080929
:1026C300E657F622E056F608A3E056F608A3E056CE
:1026D300F608A3E056F622E056F008A3E056F00809
:1026E300A3E056F008A3E056F022E066F608A3E064
:1026F30066F608A3E066F608A3E066F622E0F608AD
:10270300A3E0F608A3E0F608A3E0F622E6F008A3A8
:10271300E6F008A3E6F008A3E6F022E0FAA3E0FB64
:10272300A3E0FCA3E0FD22EAF0A3EBF0A3ECF0A30B
:10273300EDF022E0F8A3E0F9A3E0FAA3E0FB22E83E
:10274300F0A3E9F0A3EAF0A3EBF022CAC0E0E6F0BD
:10275300A308DAFAD0E0FA22CAC0E0E0A3C582CC2B
:10276300C582C583CDC583F0A3C582CCC582C5838D
:10277300CDC583DAE6D0E0CA22C3E498F8E499F938
:102783001227BD8026C3E49AFAE49BFBE920E7E91C
:102793001227BDE498F8E499F922C3E498F8E49980
:1027A300F91227BDE498F8E499F9C3E49AFAE49B93
:1027B300FB22EB20E7CFE920E7E0B90010BB0008DC
:1027C300E88AF084F8AAF022E4FBC8FA22EB70222C
:1027D3007B10C833C8C933C9335007C39AC3DBF26C
:1027E30080069A50012ADBEAC833F4C8C933F4C916
:1027F300FA2275F008E4C833C8C933C933C99AC982
:102803009B5004C92AC93BD5F0ECFBC833F4C8E498
:10281300C9FA22600D08C6A2E713C618C613C6D5A7
:10282300E0F322600C08C6C313C618C613C6D5E06E
:10283300F422700422600D18C6C333C608C633C61B
:10284300D5E0F41822251810AF08F518400C151917
:102853008008F51840021519D2AF2200C0D0251800
:1028630010AF08F518500C05198008F5185002052B
:1028730019D2AFD0D0222518F58210AF08F5184031
:102883000C15198008F51840021519D2AF85198364
:10289300222518F582E43519F583222518F8E43545
:1028A30019F9222518FAE43519FB222518FCE43519
:1028B30019FD22E4732518C582C0E0E51934FFC56C
:1028C30083C0E0E518C3958224F810AF0885831907
:1028D3008582188008858319858218D2AFCEF0A32C
:1028E300E520F0A37808E608F0A3DEFAEFF0A3E50D
:1028F3008124FAF8E608F0A3E608F0A3E608F0A3BB
:102903000808E608F0A3E608F0A315811581D0E0D6
:10291300FED0E0F8158115811581E8C0E0EEC0E036
:10292300222518C582C0E0E51934FFC583C0E0E560
:1029330018C3958224F910AF0885831985821880FE
:1029430008858319858218D2AFCEF0A3E520F0A3C2
:102953007808E608F0A3DEFAEFF0A3E58124FBF89C
:10296300E608F0A3E608F0A30808E608F0A3E608E3
:10297300F0A315811581D0E0FED0E0F81581158113
:10298300E8C0E0EEC0E022851983851882E0A3FE4B
:10299300E0A3F5207808E0A3F608DFFAE0A3FFE060
:1029A300A3C0E0E0A3C0E0E0A3C0E0E0A3C0E0E098
:1029B300A3C0E010AF08858218858319800885823B
:1029C30018858319D2AFD083D0820201328519834F
:1029D300851882E0A3FEE0A3F5207808E0A3F608BB
:1029E300DFFAE0A3FFE0A3C0E0E0A3C0E0E0A3C000
:1029F300E0E0A3C0E010AF08858218858319800842
:102A0300858218858319D2AFD083D08222C0D02586
:102A130018C582C0E0E51934FFC583C0E0E518C3DB
:102A2300958224F310AF0885831985821880088561
:102A33008319858218D2AFC8F0A3E9F0A3EAF0A303
:102A4300EBF0A37908E709F0A3D8FAECF0A3EDF0D3
:102A5300A3EEF0A3EFF0A3D0E0F0A3D0E0F0A3D077
:102A6300E0F0A3E520F0A3E5F0F0A3228519838528
:102A73001882E0C0E0A3E0F9A3E0FAA3E0FBA378A7
:102A830008E0F608A3DFFAE0FCA3E0FDA3E0FEA361
:102A9300E0FFA3E0C0E0A3E0C0E0A3E0F5D0A3E043
:102AA300F520A3E0A3F5F010AF08858319858218FC
:102AB3008008858319858218D2AFD082D083D0E075
:102AC300F8D0E03274048006740280027401C0E01E
:102AD300F404122879D0E012274E2274048004747F
:102AE300028000CCC0E0EDC0E0E518C39CCCAD197A
:102AF30050011D10AF068C188D1980068C188D1986
:102B0300D2AF12275BD0E0FDD0E0FC22D083D0828D
:102B1300E9C0E0E493A3C386F0C5F095F0F908E4B7
:102B230093A386F0C5F095F0700BE493A3C399408B
:102B330005E9048002A3E475F002A42582F582E589
:102B4300F03583F583D0E0F9E493A3C0E0E493C0C8
:102B5300E022D083D082ECC0E0EDC0E0E493A3FC9C
:102B6300E493A3FDED4C600D122BA1EC24FFFCEDCF
:102B730034FFFD80EFE493A3FCE493A3FDED4C60ED
:102B83000D122BE0EC24FFFCED34FFFD80EFD0E0D1
:102B9300FDD0E0FCE493A3C0E0E493C0E022C0E0F6
:102BA300C3E49396087401939618400FE4936670F8
:102BB3000808740193661870007019A3A3C3E49303
:102BC30096087401939618A3A3400DD0E0D0E0D0EB
:102BD300E0022B91A3A3A3A3A3A3D0E022C0E0C050
:102BE300F088F0E493667008087401936618700027
:102BF300A8F0A3A3700BD0F0D0E0D0E0D0E0022B7C
:082C030091A3A3D0F0D0E02260
:102C0C0074F6122924EAFEEBFF8C088D09EE2434AD
:102C1C00F8E43FF9E8FCE9FD122D3EE0FAEE24372A
:102C2C00F582E43FF583E0F88508F0A4C885F00A46
:102C3C008509F0A4250AF9EA28F8E439F97A257B04
:102C4C00001227BDEA8C828D83F0FA131313541FE4
:102C5C00F8EE28F8E43FF9E8245DF582E439F583D1
:102C6C00E0C0E074075AF8D0E0B800028004C31347
:102C7C00D8FCA2E05003EA8020EE2436F582E43F33
:102C8C00F583E0F5F0EA84A8F0EE28F8E43FF9E8E3
:102C9C002438F582E439F583E0F97F030229D074F6
:102CAC00F5122924EAFEEBFFEE2434F582E43FF51D
:102CBC0083E0C0E0122D3ED0E0F08E828F83A3A380
:102CCC00A3A3A3E0FAA3E0FB8E828F83A3A3A3A309
:102CDC00A3A3A3E0C39AF508A3E09BF509EE247F18
:102CEC00F8E43FF9880A890B8882F583E064017067
:102CFC002CEE2480F582E43FF583EA2401F8E43BD2
:102D0C00F9E0687003A3E06970137C1A7D08EEFA91
:102D1C00EFFB121019850A82850B83E4F0AC08AD29
:102D2C0009EEFAEFFB122C0CE9F91238297F040298
:102D3C0029D0EE2435F582E43FF58322C082C0838E
:102D4C00851882851983E0F8A3E0F9C3EA9CEB9D12
:102D5C005010C3EC98ED99401BC3EA98EB995014B2
:102D6C00800EC3EA98EB994007C3EC98ED994004A8
:102D7C00790180027900D083D08222EAC39CFAEBDD
:102D8C009DFB2274ED1229249004C3E064086005B5
:102D9C00E06407702C9061C8E060269004F1E0F8C4
:102DAC0074FF68601CE875F00DA4C8AAF02AF974C9
:102DBC00F328FE740439FF8E828F83A3A3A3E070E3
:102DCC00057900022F31EE2468F50EE43FF50F90E3
:102DDC006060E0850E82850F83F07510B475110864
:102DEC00750800750900E5D914F50AE5D95403F501
:102DFC000B601FEE2483F50CE43FF50D7403650B9B
:102E0C006059E50A6017EE2467F582E43FF583E02C
:102E1C00700B793DEEFAEFFB12104980A49008AFCD
:102E2C00E064016023850C82850D83E060047A04E4
:102E3C0080027A00E50AC39AFA95E0FB120DFD8A2E
:102E4C00088B09EA45097006121343022DCD850C37
:102E5C0082850D83E070048A108B117A008014E552
:102E6C00D9C0E0EAF8E51028F582E43511F583D0F5
:102E7C00E0F00AEAC3950A40E6850C82850D83E0F2
:102E8C00602874FC250AF50A7810122ACBAC0AA922
:102E9C000BEEFAEFFB121103740212285EE9700AB2
:102EAC00AA08AB09121955022E1E7403650B605447
:102EBC00850A0C750D00780C122ACBAC10AD11AA3A
:102ECC0008AB091210C7740212285E850E82850F9A
:102EDC0083E0F87480687005750C7F8002880CE5BF
:102EEC000CF50D780D122ACF780B122ACFA90AAC4B
:102EFC0008AD099004F1E0FA7B00120C1D7402126B
:102F0C00285E801C9004C3E06408AC10AD117009FD
:102F1C00EEFAEFFB1211338007EEFAEFFB1211ED14
:102F2C0012134F79017F0C0229D074F312292474E7
:102F3C00FC122848EAFEEBFF8909A2AFE433F5083E
:102F4C00C2AFEE2463F50AE43FF50B8010AA0AAB7E
:102F5C000B12107F121955900821E004F0850A829B
:102F6C00850B83E0F8A3E0F9E849602DE82402FA28
:102F7C00E439FBEA2402F50CE43BF50D780C122A3B
:102F8C00CB8A828B83E0FCA3E0F9EEFAEFFB121004
:102F9C0073740212285EE960B4900821E0604D90D1
:102FAC000822E0F8900821E0C398500C74026509DF
:102FBC00703A900823E060348E828F83A3A3A3A37E
:102FCC00E08518828519831230087402122894E85F
:102FDC00123008900820E028F074021228AEAA18CB
:102FEC00AB197901120C7D900821E4F0E508A2E000
:102FFC0092AF740412285E7F060229D0F0A3E4F08D
:10300C00900821E0F82200008521878522C622C085
:10301C00E074EB122A10A2AFE433F508C2AF759B33
:10302C0000906182E0A2E05030E591A2E0502A7558
:10303C0091FE7401652170211231AE1212471231CA
:10304C009C122ADE1235D3740412285EE9640170D6
:10305C000579011212A1122D8F906182E0A2E55028
:10306C005DE591A2E550577591DF9004C3E06407CC
:10307C006005E06408702F1231AE74016521703E5A
:10308C0012124712319C122ADE1235D37404122804
:10309C005EE96401700579011212A17901EEFAEF73
:1030AC00FB122F368018E0640D70139004E5E004D9
:1030BC00F064287002E4F07A00E0F9121355906184
:1030CC0082E0A2E64003023171E591A2E6400302E0
:1030DC0031717591BF9004C3E06405700812122F12
:1030EC0012123B80031212357521001212BFE990A7
:1030FC0004C4F079001212A1120F3B7A017B0090EC
:10310C0004C2E0F9121925907803E06442705690DD
:10311C0008B3E014F0704EC2AF12312800782AD0F8
:10312C00E0F618D0E0F6E59F5407F87005750DFF32
:10313C008003750D7FC4C0E07829E6F50A08E655D2
:10314C000DF50B740B780A122826D0E0250AF8909E
:10315C006270E0A2E740F8E8C333906272F09062CC
:10316C0070E0D2E0F0906181E0A2E35009E5E9A2C1
:10317C00E3500375E9F7A3E0A2E75009E591A2E754
:10318C00500375917FE508A2E092AF7F08022A6F89
:10319C008E828F83E0F8A3E0C82416F582E438F51C
:1031AC0083229004F1E0F875F00DA4C8AAF02AF976
:1031BC0074F328FE740439FF22C0E0C0D0C082C072
:1031CC0083906183E0A2E05009E5BFA2E050037553
:1031DC00BFFEE0A2E15009E5BFA2E1500375BFFDBF
:1031EC00E0A2E25009E5BFA2E2500375BFFBE0A2EA
:1031FC00E35009E5BFA2E3500375BFF7E0A2E4502A
:10320C0009E5BFA2E4500375BFEFE0A2E55009E564
:10321C00BFA2E5500375BFDFE0A2E65009E5BFA2EF
:10322C00E6500375BFBFD083D082D0D0D0E032C07F
:10323C00E074F2122A10E5A7A2E4500FE5A1A2E473
:10324C00500953A7EF75A1EF12328FE5A7A2E550F5
:10325C000CE5A1A2E5500653A7DF75A1DFE5A7A2F7
:10326C00E15009E5A1A2E1500375A1FDE5A7A2E299
:10327C00500CE5A1A2E2500653A7FB75A1FB7F0100
:10328C00022A6F74F81229247521019004C3E0649A
:10329C000670077A007B00121217A2AFE433FED23D
:1032AC00AF9004C9E0640170187A207B009004C2CE
:1032BC00E0F9121A5D7A207B009004C2E0F9121931
:1032CC002B906182E0D2E6F09008B0E0602185C6D8
:1032DC002280169004C8E064017008E5C654F844D6
:1032EC0005F5C653BEFC1230147401652160E4EE82
:1032FC00A2E092AF7F010229D00000008E238F2420
:10330C00858228858327851882851983E0CEA3E0E2
:10331C00CF852882852783EBC9EAC8EDCBECCA752B
:10332C00F010C3E833C8E933C9EA33CAEB33CBC373
:10333C00EA9EF526EB9FF525B35004AB25AA26ECA7
:10334C0033CCED33CDD5F0DAAE23AF242274E912B1
:10335C00292474FA122848EAFEEBFF8C088D091216
:10336C001259EAF8EBF9ECFAEDFB8E828F831227F7
:10337C00429004C3E024F7C3940550067510010273
:10338C00349012118D8A0A8B0BEA450B70030234B0
:10339C008D12124D8A0C8B0D12124DEA650C7003B6
:1033AC00EB650D60ECEEFCEFFDAA18AB1912125395
:1033BC00850A82850B83A3A3780C122700909A1997
:1033CC00780C1226C7851882851983781412270069
:1033DC00909A1978141226C7780C7914121CF6508E
:1033EC001F780C7914122674909AB9780C121D1649
:1033FC004047850C10850D11850E12850F138045E5
:10340C00909AB985141085151185161285171378A5
:10341C0010790C1226747810121D16501C751000A1
:10342C007511007512007513017810791412267439
:10343C007810790C12263B800C75100175110075F3
:10344C0012007513007409781012261C9099F178EB
:10345C000C1227007810790C1225809004C3E064BC
:10346C0008600AE064066005E0640570209099F934
:10347C007810121D165016909AB5781012264E80A0
:10348C000C751000751100751200751300850882FB
:10349C00850983781012270F740612285E7F10029C
:1034AC0029D074F712292412126B9008AEE0640133
:1034BC007010906245E4F0A3F053F4F343FE0C5308
:1034CC0090F3121205E5C654B84441F5C6E59E5476
:1034DC0047644170F8906185740FF09008ACE0F48B
:1034EC007002A3E0602C7508017509009008ACE02F
:1034FC007808122835E508F4FAA3E0600814600A8D
:10350C0014600C800DEA52808008EA52908003EA25
:10351C0052A079007F020229D074F7122924E9FE07
:10352C00EAFF74016E700C7A807B009004C2E0F9A3
:10353C001219259039A8E493F46008E493F9120F5A
:10354C001D800953C6B8E59E544770FA12120B90B1
:10355C0008AEE064017003120F539008ACE0F470F5
:10356C0002A3E0602B7508017509009008ACE078A7
:10357C0008122835E508FAA3E0600814600A146004
:10358C000C800DEA42808008EA42908003EA42A057
:10359C0012118D8A088B09A808A909E8496016E55B
:1035AC00E170FCE82414F582E439F583E0F874FF4B
:1035BC0068600288E174016F700A7A019004C2E0BD
:1035CC00F91219BB02352074F11229248A088B09CF
:1035DC008C0A8D0B909A1978081226C7740F122832
:1035EC0094780C122700909A19780C1226C7780838
:1035FC00790C121CF6909AB950107808790C122696
:10360C00747808121D164014800E780C7908122656
:10361C0074780C121D1650047901800279007F0811
:10362C000229D074ED1229248A088B098C0A8D0B7F
:10363C00909A1978081226C77413122894780C12D1
:10364C002700909A19780C1226C7780C7908121C4E
:10365C00F640117808790C122674AA08AB09AC0A4A
:10366C00AD0B8022751000751100751200751301D9
:10367C007810790C1226747810790812263BAA104F
:10368C00AB11AC12AD137F0C0229D0909A197808AB
:10369C001227008A828B8378081226DA7F0402298B
:1036AC00D074F51229248C828D8378081227008A15
:1036BC00828B8378081226A0123701C3E098F0A3FE
:1036CC00E0991236F3401E909AA578081227008ACA
:1036DC00828B8378081226618E828F83E02420F0FF
:1036EC00A3E0344EF080A4F08E828F83C3E094204C
:1036FC00A3E0944E22EA2404F8E43BF9E8FEE9FF47
:10370C008C828D83A3A3A3A3E0F8A3E0F98E828F10
:10371C00832274F5122924E9FE90083CE0FAA3E018
:10372C00FBEE29F8E433F9746628F582749439F5C4
:10373C0083E02AF508A3E03BF5097808122ACB9020
:10374C009A6D12271E123308740212285E8A088B97
:10375C00098C0A8D0B74107808122603AA08AB0981
:10376C007F040229D074F11229248A0C8B0D8C0E43
:10377C008D0F7411122894122AE27411122894E0FD
:10378C002401F508A3E03400F509E4F50AF50B78FB
:10379C000C7908122500909AAD7808122700780C45
:1037AC007908122500AA0CAB0DAC0EAD0F12330824
:1037BC00740212285E8B09EA450960047A018002C2
:1037CC007A00EC2AFCE43DFD7413122894E0F8A373
:1037DC00E0F9E8FEE9FFECF8EDF97A717B021227CB
:1037EC00BD88088909E4F50AF50B8E828F83780869
:1037FC0012270FECF8EDF97A717B021227BD8A08BB
:10380C008B09740578081228358E828F83A3A3A3A5
:10381C00A3E508F0A3E509F07F080229D0C082C017
:10382C0083E9906000F0D083D08222C0E074F21261
:10383C002A10A2AFE433FED2AFC2C0E5D1A2E4504D
:10384C000675D10F12187D751A00EEF8EEA2E092F3
:10385C00AF7F01022A6FC0E074F2122A10A2AFE40B
:10386C0033FED2AFE589A2E14006E589A2E250031E
:10387C00121799758900758900C2C5751A00EEF882
:10388C00EEA2E092AF7F01022A6FC0E074F2122A1E
:10389C0010A2AFE433FED2AFE58BA2E050031217B7
:1038AC0099758B00C2E8751A00EEF8EEA2E092AFA3
:1038BC007F01022A6FC0E0C0D0E8C0E0E9C0E0A2FE
:1038CC00AFE433F8D2AFC2C7751A00E8F9E8A2E04A
:1038DC0092AFD0E0F9D0E0F8D0D0D0E032C0E0C068
:1038EC00D0E8C0E0E9C0E0EAC0E0C082C083A2AF8B
:1038FC00E433FAD2AF901152E0F8901153E06870B3
:10390C000B539AFB9011547401F0802CC2E9901166
:10391C0052E0F8740128901152F0790074D228F515
:10392C0082741039F583E0F5C1901152E0C3948094
:10393C0040069011527400F0EAF8EAA2E092AFD07F
:10394C0083D082D0E0FAD0E0F9D0E0F8D0D0D0E04B
:10395C0032C2AF02000022C0E074F2122A10901A98
:10396C00CB74FFF0901ACC74FFF07C027D007ACB04
:10397C007B1A12055DE97A047B00901A4AE0F91271
:10398C001925E9A291E433F4D2F0A29130F001B3FD
:10399C009291758900C2C57F01022A6FFFFFFFFF5C
:1039AC00FFFFFFFFEAF8EBF9E824FFFAE934FFFB2D
:1039BC00E84960217800790078DC7905C3E8940146
:1039CC00E99400A2D265D03340DA00E824FFF8E98C
:1039DC0034FFF980E702013274F71228B889087EA7
:1039EC000080010EEEC395085022EEF87900EA280B
:1039FC00F582EB39F583E0FFEEF87900EC28F582DF
:103A0C00ED39F583E06F60DB7900800279017F018D
:103A1C0002298A74F01228B8E9FE7C00750800753A
:103A2C000900750A00750B00803A909A7D780C128B
:103A3C0027007808790C122500ECF87900EA28F5B3
:103A4C0082EB39F583E0F87900E824D0F50CE93401
:103A5C00FFF50DE50D3395E0F50EF50F7808790CB3
:103A6C0012263B0CECC39E500FECF87900EA28F5BB
:103A7C0082EB39F583E070B2AA08AB09AC0AAD0B46
:103A8C007F0802298A74F71228B874EF122848901C
:103A9C0093D2AC18AD19741112275B7800791A887F
:103AAC008289837430F088828983A3A882A9838851
:103ABC008289837478F088828983A3A882A983EA97
:103ACC002406FA50010B7E06806CEA24FFF582EB8B
:103ADC0034FFF583AA82AB83E0C4540FFC7D0085D0
:103AEC001882851983E5822CF582E5833DF583E008
:103AFC00C0E088828983D0E0F088828983A3A88281
:103B0C00A9838A828B83E0FC7D00EC540FFCED547E
:103B1C0000FD851882851983E5822CF582E5833DAD
:103B2C00F583E0C0E088828983D0E0F088828983C5
:103B3C00A3A882A9831EEE7091888289837400F0F9
:103B4C007A007B1A741112285E7F0102298AC082C6
:103B5C00C0837C477D197AB67980121A27E9D08305
:103B6C00D08202013274F71228B8E9FEEE6003022B
:103B7C003C0C9019477404F09019487400F090199B
:103B8C00497400F090194A7400F07C747D957A4B5E
:103B9C007B19121CA39019577400F07C707D997AD4
:103BAC00587B19121CA390195F7400F07C0D7D00DA
:103BBC0079007A607B191218E390197A7400F090EE
:103BCC00197B7400F07C787D0079007A7D7B19126A
:103BDC0018E39019F57400F0A37400F09019F774C1
:103BEC0000F09019F87400F09019F97400F0901925
:103BFC00FA74F4F0A37401F09019FC7400F0802BAB
:103C0C0074016E70267C0D7D0079007A607B191230
:103C1C0018E390197A7400F090197B7400F07C789A
:103C2C007D0079007A7D7B191218E37C007D007988
:103C3C00007A097B0412160DE9121AE17F010229A0
:103C4C008A74F41228B874D3122848901947E0F5F6
:103C5C00087509007808122ACB7CE17D9074021259
:103C6C0028A6121CA3740212285EAA18AB191218EB
:103C7C00C58A088B09AC08AD09AA18AB1912188FA4
:103C8C007A647B00121AC9901948E0F5087509008E
:103C9C007808122ACB7C4B7D9174021228A6121C38
:103CAC00A3740212285EAA18AB191218C58A088BC5
:103CBC0009AC08AD09AA18AB1912188F7A647B00ED
:103CCC00121AC9901949E0F5087509007808122AEA
:103CDC00CB7C177D9174021228A6121CA3740212BD
:103CEC00285EAA18AB191218C58A088B09AC08AD46
:103CFC0009AA18AB1912188F7A647B00121AC99092
:103D0C00194AE0F5087509007808122ACB7CC87DA1
:103D1C009274021228A6121CA3740212285EAA180E
:103D2C00AB191218C58A088B09AC08AD09AA18ABD7
:103D3C001912188F7A647B00121AC975084B750911
:103D4C00197808122ACB7C6C7D9274021228A61268
:103D5C001CA3740212285EAA18AB191218C58A0883
:103D6C008B09AC08AD09AA18AB1912188F7A647BB1
:103D7C0000121AC9901957E0F50875090078081255
:103D8C002ACB7C9A7D9274021228A6121CA3740270
:103D9C0012285EAA18AB191218C58A088B09AC0830
:103DAC00AD09AA18AB1912188F7A647B00121AC9C4
:103DBC007508587509197808122ACB7C557D9274B0
:103DCC00021228A6121CA3740212285EAA18AB19A0
:103DDC001218C58A088B09AC08AD09AA18AB1912C0
:103DEC00188F7A647B00121AC990195FE0F5087578
:103DFC0009007808122ACB7CDF7D9274021228A667
:103E0C00121CA3740212285EAA18AB191218C58AC8
:103E1C00088B09AC08AD09AA18AB1912188F7A6473
:103E2C007B00121AC97508607509197808122ACB1B
:103E3C007CFC7D9074021228A6121CA3740212281A
:103E4C005EAA18AB191218C58A088B09AC08AD0903
:103E5C00AA18AB1912188F7A647B00121AC975084C
:103E6C0000750900023F0290961574201228AE745A
:103E7C000D12275B750A0C750B00780A122ACBA859
:103E8C0008A909E875F00CA4C8AAF075F000A42ADA
:103E9C00FA75F00CE9A42AF9747D28FC741939FD23
:103EAC0074221228A61218CB740212285E742012E7
:103EBC00289E880A890B780A122ACB7808122ACBFA
:103ECC007C417D9774041228A6121CA3740412283A
:103EDC005EAA18AB191218C58A0A8B0BAC0AAD0B6B
:103EEC00AA18AB1912188F7AC87B00121AC90508C8
:103EFC00E5087002050990197AE0F87900C3E50825
:103F0C0098E50999A2D265D0335003023E739019FB
:103F1C00F5122AE27C807D9074021228A6121CA352
:103F2C00740212285EAA18AB191218C58A088B09DC
:103F3C00AC08AD09AA18AB1912188F7A647B001261
:103F4C001AC99019F7E0F5083395E0F509780812CD
:103F5C002ACB7C3E7D9274021228A6121CA37402FA
:103F6C0012285EAA18AB191218C58A088B09AC085E
:103F7C00AD09AA18AB1912188F7A647B00121AC9F2
:103F8C009019F9E0F5087509007808122ACB7C31F4
:103F9C007D9174021228A6121CA3740212285EAA28
:103FAC0018AB191218C58A088B09AC08AD09AA18E8
:103FBC00AB1912188F7A647B00121AC99019FA1275
:103FCC002AE27C567D9074021228A6121CA374025D
:103FDC0012285EAA18AB191218C58A088B09AC08EE
:103FEC00AD09AA18AB1912188F7A647B00121AC982
:103FFC009019FCE0F5087509007808122ACB7CC6EC
:10400C007D9074021228A6121CA3740212285EAAB8
:10401C0018AB191218C58A088B09AC08AD09AA1877
:10402C00AB1912188F7A647B00121AC9742D1228DE
:10403C005E7F0402298AC082C083901957E0F9D0B0
:10404C0083D082020132C082C083121AF3E9640168
:10405C007010901A7FE0640270047901801279006C
:10406C00800E901A8AE0640670047901800279004F
:10407C00D083D08202013274F41228B874F412285E
:10408C0048EAFEEBFF121AF3E96401600302414CAB
:10409C007508008002050890197AE0F8E508C398C5
:1040AC005033AA18AB19A908121B05E96027750A29
:1040BC000C750B00780A122ACBEEFCEFFD74021281
:1040CC0028A61218DD740212285EE960C8E5089073
:1040DC00197CF0806B75080C7509007808122ACBD6
:1040EC00EEFCEFFD90197BE0F87900E875F00CA47C
:1040FC00C8AAF075F000A42AFA75F00CE9A42AF904
:10410C00747D28FA741939FB1218CB740212285ECC
:10411C0090197BE090197CF090197BE02401F090D1
:10412C00197BE075F00A84E5F090197BF090197A10
:10413C00E0C3940A500790197AE02401F0121AE1B6
:10414C00740C12285E7F0402298A74F51228B8892F
:10415C000AEAFEEBFF121AF3E96401704790197A30
:10416C00E0F8E50AC398503C75080C75090078080E
:10417C00122ACBA80A7900E875F00CA4C8AAF0752D
:10418C00F000A42AFA75F00CE9A42AF9747D28FC35
:10419C00741939FDEEFAEFFB1218CB740212285E7B
:1041AC007901800279007F0302298A020132C082E0
:1041BC00C083901949E0FD901948E0FC901947E044
:1041CC00F97A6B7B1B121883121AF3E96401700DD8
:1041DC007C157D007AF67B9212188F800B7C187DF3
:1041EC00007A647B9112188FD083D08202013274D2
:1041FC00F71228B8E9FEEEFA79011217F3E943FD3C
:10420C0060EEF8EEA2E092867F0102298A74EC122D
:10421C0028B87E31750C00750D00750E40750F4079
:10422C00121C618A088B09AA08AB09EEF87900EA1E
:10423C00C398F508EB99F509E5093395E0F50AF50E
:10424C000B7808121D35909A2D7810122700780CD7
:10425C007910121F5B7808790C12231A7808122A2D
:10426C00C7909A2D12271E121C97740412285E7F79
:10427C000C02298A74F51228B8780079007C007D2C
:10428C00007E007F007508E8750903901A19E06438
:10429C00056003024421901A1AE0F8A3E0F9E875CE
:1042AC00F002A4C885F00A75F000A4250AF50A7579
:1042BC00F002E9A4250AF9740F28F582741A39F56D
:1042CC0083EAF0A3EBF0901A1AE02401F0A3E03497
:1042DC0000F0901A1AE0F8A3E0F97A057B00122797
:1042EC00B5901A1AEAF0A3EBF0780079000243F3C8
:1042FC00E8FAE9FBEA75F002A4CA85F00A75F00049
:10430C00A4250AF50A75F002EBA4250AFB740F2A02
:10431C00F582741A3BF583E0FAA3E0FBC3EE9AEF47
:10432C009BA2D265D0335028E8FAE9FBEA75F0027B
:10433C00A4CAAEF075F000A42EFE75F002EBA42E0C
:10434C00FB740F2AF582741A3BF583E0FEA3E0FFA1
:10435C00E8FAE9FBEA75F002A4CA85F00A75F000E8
:10436C00A4250AF50A75F002EBA4250AFB740F2AA2
:10437C00F582741A3BF583C3E09508A3E09509A276
:10438C00D265D033502EE8FAE9FBEA75F002A4CAE4
:10439C0085F00875F000A42508F50875F002EBA46B
:1043AC002508FB740F2AF582741A3BF583E0F50897
:1043BC00A3E0F509E8FAE9FBEA75F002A4CA85F076
:1043CC000A75F000A4250AF50A75F002EBA4250A7B
:1043DC00FB740F2AF582741A3BF583E02CFCA3E0E6
:1043EC003DFD08E8700109C3E89405E99400A2D2E8
:1043FC0065D03350030242FCECC39EF8ED9FF9E804
:10440C00C39508F8E99509F97A037B001227B5E8FA
:10441C00FAE9FB8036901A19E0F87900E875F00299
:10442C00A4C8ACF075F000A42CFC75F002E9A42C27
:10443C00F9740F28F582741A39F583EAF0A3EBF0BE
:10444C00901A19E02401F07A007B007F0302298A7C
:10445C0074F01228B874E0122848E9FEEE9019F7AF
:10446C00F0121AF9E97003024512EEFA3395E0FBEB
:10447C00121B1D8A088B098C0A8D0B909A31780CB3
:10448C001227007808790C121F5B7808121DADAA50
:10449C0008AB09121B238A088B097808122ACBEE69
:1044AC00F404F5087509007808122ACB7CF47D9386
:1044BC0074041228A6121CA3740412285E9019FE10
:1044CC00E0603AAA18AB19121CB58A088B09AC0823
:1044DC00AD09AA18AB1912188FAA18AB19121CB572
:1044EC008A088B09AC08AD09AA18AB1912055DE94D
:1044FC007A107B00901A4AE0F9121925E97905AA7D
:10450C0018AB191217E1742012285E7F0802298A51
:10451C0074F61228B874E81228489091AEAC18AD15
:10452C0019741812275B7508587509197808122A1E
:10453C00CB7CAC7D9574021228A6121CA3740212BB
:10454C00285EAA18AB191218C58A088B09AC08ADDD
:10455C0009AA18AB1912188F741812285E7F020260
:10456C00298A7A4B7B19020132C082C08390197A56
:10457C00E06004790180027901D083D0820201329B
:10458C00C082C083121AF9E96003024628121AF39A
:10459C00E964017053121B3BE9701C901A1CE0700B
:1045AC00077901121B178029901A1CE064017021F5
:1045BC007900121B17801A901A1CE07007790112EF
:1045CC001B17800D901A1CE0640970057900121BF2
:1045DC0017901A1CE02401F0901A1CE075F00A8464
:1045EC00E5F0901A1CF0802F901A1CE070077900EF
:1045FC00121B17800D901A1CE0640A7005790112C9
:10460C001B17901A1CE02401F0901A1CE075F01492
:10461C0084E5F0901A1CF0121B898032901A1CE071
:10462C0070077901121B17800D901A1CE064017041
:10463C00057900121B17901A1CE02401F0901A1C2B
:10464C00E075F03284E5F0901A1CF0121B77D083E1
:10465C00D082020132C082C08390195FE0F9D0830E
:10466C00D08202013274F01228B879067A587B197C
:10467C00121AD58A0C8B0D8C0E8D0F850C08850D9E
:10468C0009850E0A850F0B909A6D780C122700780D
:10469C0008790C122580AA0CAB0DAC0EAD0F7F085F
:1046AC0002298AC082C08390194AE064027004799E
:1046BC000180027900D083D082020132C082C08393
:1046CC0090194AE07004790180027900D083D0827D
:1046DC0002013274F61228B89019FFE064037004DA
:1046EC00790080769019FFE0640160089019FFE072
:1046FC006404704190197AE0605E75080C750900CD
:10470C007808122ACB90197CE0F87900E875F00C47
:10471C00A4C8ACF075F000A42CFC75F00CE9A42C2A
:10472C00F9747D28FC741939FD1218CB7402122807
:10473C005E790180259019FFE06402701B75080CEE
:10474C007509007808122ACB7C6D7D191218CB7470
:10475C000212285E7901800279007F0202298A7494
:10476C00F61228B89019FAE0F508A3E0F509AA08A2
:10477C00AB09E4FCFD7F0202298A74EB1228B874A1
:10478C00F41228488A14750B14740555147003021E
:10479C0049A97E007F009019FD7400F0901CC8E0C0
:1047AC006401704212189B8A088B09AE08AF09EE9F
:1047BC004F6030C3EE9415EF940040047E147F00DC
:1047CC00EEFAEFFB1219A38A0A8B0B850A08850BEC
:1047DC0009EEFCEFFDAA08AB09121889AA08AB096F
:1047EC001219A90249A912189B8A088B09AE08AFA5
:1047FC0009EE4F70197C007D007E007F00901A211D
:10480C00ECF0A3EDF0A3EEF0A3EFF00249A9901A9F
:10481C0021122736E8494A4B7029121A75EAF8EB2F
:10482C00F9ECFAEDFB901A1D122742EEFCEFFDE4B9
:10483C00FEFF901A21ECF0A3EDF0A3EEF0A3EFF045
:10484C000249A9121AF9E97005750B168003750B4C
:10485C0014121A758A0C8B0D8C0E8D0FA80B790007
:10486C00C3EE98EF995029909A35C082C083850C7D
:10487C0010850D11850E12850F13901A1D781012CC
:10488C002688D083D0827810121D1640030249A9C5
:10489C00750A00AA0B7B001219A38A108B118510C4
:1048AC0008851109E5084509700E7C047D007AD94C
:1048BC007B9912188F0249A9A80B7900C3E89EE9CD
:1048CC009F5005850B0A8003EEF50A121AF9E97060
:1048DC007DAC0A7D00AA08AB09121889E50AC394BD
:1048EC00034044A80A7900E50828F8E50939F9E8F5
:1048FC0024FEF582E934FFF583E0640D7029A80AE3
:10490C007900E50828F8E50939F9E824FFF582E98A
:10491C0034FFF583E0640A700EAC0A7D00AA08AB84
:10492C0009121B71E98002740070477C527D99AAB0
:10493C0018AB19121CA3AA18AB191218C58A108B24
:10494C0011AC10AD11AA18AB1912188F8024AC0A37
:10495C007D00AA08AB09121889AC0A7D00AA08AB25
:10496C000912055DE97A107B00901A4AE0F91219D8
:10497C0025E9901A1D780C12270FA80A7900EEC3AE
:10498C0098FCEF99FDE4FEFF901A21ECF0A3EDF0FA
:10499C00A3EEF0A3EFF0AA08AB091219A9740C123C
:1049AC00285E7F0D02298A74E91228B874B912287E
:1049BC0048EAFEEBFF8C088D09751401751500741F
:1049CC00046508700474006509703479047CD47D26
:1049DC0099EEFAEFFB121ACFE960247CDE7D99AADE
:1049EC0018AB19121CA3AA18AB191218C58A088B7C
:1049FC0009AC08AD09AA18AB1912188F0259BD746D
:104A0C00086508700474006509701679087C297DA6
:104A1C0098EEFAEFFB121ACFE96006121AED025962
:104A2C00BD740A65087004740065096003024B00CC
:104A3C0079077C1A7D99EEFAEFFB121ACFE9700315
:104A4C00024B008E828F83A3A3A3A3A3A3A3E02472
:104A5C00D0604B14604814604514604214603F24CD
:104A6C00F56003024AFA901947E0F50875090078D9
:104A7C0008122ACB7CED7D9674021228A6121CA378
:104A8C00740212285EAA18AB191218C58A088B0971
:104A9C00AC08AD09AA18AB1912188F0259BD8E8239
:104AAC008F83A3A3A3A3A3A3A3E024D0901947F0BF
:104ABC00121AE1901947E0F5087509007808122AD6
:104ACC00CB7CE17D9674021228A6121CA3740212F0
:104ADC00285EAA18AB191218C58A088B09AC08AD48
:104AEC0009AA18AB1912188F7515010259BD751446
:104AFC00000259BD740A65087004740065097016CB
:104B0C0079077C127D99EEFAEFFB121ACFE9600659
:104B1C007514000259BD740A6508700474006509A7
:104B2C00701679077C0A7D99EEFAEFFB121ACFE921
:104B3C0060067514000259BD740A6508700474008F
:104B4C0065096003024C1179077C027D99EEFAEF3E
:104B5C00FB121ACFE97003024C118E828F83A3A330
:104B6C00A3A3A3A3A3E024D0604514604214603F28
:104B7C0024F36003024C0B90194AE0F50875090008
:104B8C007808122ACB7CED7D9674021228A6121C92
:104B9C00A3740212285EAA18AB191218C58A088BC6
:104BAC0009AC08AD09AA18AB1912188F0259BD8EA1
:104BBC00828F83A3A3A3A3A3A3A3E024D090194A19
:104BCC00F0121AE190194AE0F508750900780812FC
:104BDC002ACB7CE17D9674021228A6121CA37402C7
:104BEC0012285EAA18AB191218C58A088B09AC08D2
:104BFC00AD09AA18AB1912188F7515010259BD759C
:104C0C0014000259BDE508C3940AF8E5099400F9AB
:104C1C00C3E8940BE994004003024CEC79077CFA4E
:104C2C007D98EEFAEFFB121ACFE97003024CEC8E72
:104C3C00828F83A3A3A3A3A3A3A3E0643F703575C2
:104C4C00084B7509197808122ACB7CC97D96740219
:104C5C001228A6121CA3740212285EAA18AB1912F1
:104C6C0018C58A088B09AC08AD09AA18AB1912181B
:104C7C008F0259BD7C0C7D0079007A4B7B19121880
:104C8C00E3E50824F9F508E50934FFF5097808127D
:104C9C002ACBEE2407FCE43FFD7A4B7B191218CB90
:104CAC00740212285E121AE175084B7509197808FE
:104CBC00122ACB7CBD7D9674021228A6121CA374FA
:104CCC000212285EAA18AB191218C58A088B09ACF7
:104CDC0008AD09AA18AB1912188F7515010259BD28
:104CEC00740A6508700474006509703C79087C715D
:104CFC007D98EEFAEFFB121ACFE9602C7C7A7D9747
:104D0C00AA18AB19121CA3AA18AB191218C58A0839
:104D1C008B09AC08AD09AA18AB1912188F790012BF
:104D2C001AE77515010259BD740A65087004740000
:104D3C006509701679087C837D98EEFAEFFB121AE0
:104D4C00CFE960067515010259BD740A6508700437
:104D5C00740065096003024E2E79077CF27D98EE93
:104D6C00FAEFFB121ACFE97003024E2E8E828F835C
:104D7C00A3A3A3A3A3A3A3E024D0604214603F2465
:104D8C00F26003024E28901957E0F5087509007877
:104D9C0008122ACB7CED7D9674021228A6121CA355
:104DAC00740212285EAA18AB191218C58A088B094E
:104DBC00AC08AD09AA18AB1912188F0259BD8E8216
:104DCC008F83A3A3A3A3A3A3A3E024D0F9E9700822
:104DDC009019577400F080069019577401F0121A4C
:104DEC00E1901957E0F5087509007808122ACB7C78
:104DFC00E17D9674021228A6121CA3740212285E7E
:104E0C00AA18AB191218C58A088B09AC08AD09AAE7
:104E1C0018AB1912188F7515010259BD75140002C3
:104E2C0059BD740A6508700474006509701079081E
:104E3C007C957D98EEFAEFFB121ACFE97022740F75
:104E4C0065087004740065096003024F0D79077CD6
:104E5C00DB7D98EEFAEFFB121ACFE97003024F0DCF
:104E6C008E828F83A3A3A3A3A3A3A3E0643F703577
:104E7C007508587509197808122ACB7C707D9674C0
:104E8C00021228A6121CA3740212285EAA18AB19CF
:104E9C001218C58A088B09AC08AD09AA18AB1912EF
:104EAC00188F0259BD7508067509007808122ACBAF
:104EBC00EE2407FCE43FFD7A587B191218CB7402E0
:104ECC0012285E90195E7400F0121AE1750858757C
:104EDC0009197808122ACB7CBD7D9674021228A67B
:104EEC00121CA3740212285EAA18AB191218C58AD8
:104EFC00088B09AC08AD09AA18AB1912188F025906
:104F0C00BD740A65087004740065096003024FD70C
:104F1C0079077CCB7D98EEFAEFFB121ACFE9700380
:104F2C00024FD78E828F83A3A3A3A3A3A3A3E024B2
:104F3C00D0604214603F24F26003024FD190195F9D
:104F4C00E0F5087509007808122ACB7CED7D967483
:104F5C00021228A6121CA3740212285EAA18AB19FE
:104F6C001218C58A088B09AC08AD09AA18AB19121E
:104F7C00188F0259BD8E828F83A3A3A3A3A3A3A3CF
:104F8C00E024D090195FF0121AE190195FE0F50857
:104F9C007509007808122ACB7CE17D9674021228E0
:104FAC00A6121CA3740212285EAA18AB191218C5FB
:104FBC008A088B09AC08AD09AA18AB1912188F75A1
:104FCC0015010259BD7514000259BDC3E508940AB8
:104FDC00E5099400404579087CB97D98EEFAEFFB21
:104FEC00121ACFE960357508607509197808122A0C
:104FFC00CB7CA47D9674021228A6121CA3740212F8
:10500C00285EAA18AB191218C58A088B09AC08AD12
:10501C0009AA18AB1912188F0259BD740A650870C9
:10502C00047400650960030250C279087CB07D9855
:10503C00EEFAEFFB121ACFE9607C121AF3E9640165
:10504C00706E909A0174431228AE740412275B7E22
:10505C00009019FF7401F090197AE070047E0180C1
:10506C00057E00121B95EEF83395E0F97443122877
:10507C0094E58228F582E58339F583E0F508750916
:10508C00007808122ACB7CB17D9674021228A612E5
:10509C001CA3740212285EAA18AB191218C58A0830
:1050AC008B09AC08AD09AA18AB1912188F0259BD9F
:1050BC007514000259BD74146508700474006509F8
:1050CC00600302517179067C857D99EEFAEFFB1233
:1050DC001ACFE97003025171909ADA74401228AE1B
:1050EC00740312275B750800121AF3E96401706FE0
:1050FC009019FF7402F0750A0C750B00780A122ACD
:10510C00CBEE2406FCE43FFD7A6D7B191218CB74B0
:10511C000212285EA80879007440122894E58228AF
:10512C00F582E58339F583E0F508750900780812F6
:10513C002ACB7CB17D9674021228A6121CA3740291
:10514C0012285EAA18AB191218C58A088B09AC086C
:10515C00AD09AA18AB1912188F121B950259BD75FF
:10516C0014000259BD740A65087004740065097056
:10517C005579087C8C7D98EEFAEFFB121ACFE9601A
:10518C0045121AF3E9640170377901121AE77C00B1
:10519C007D0079007A097B0412160DE97C647D97F9
:1051AC00AA18AB19121CA3AA18AB191218C58A0895
:1051BC008B09AC08AD09AA18AB1912188F0259BD8E
:1051CC007514000259BD740A6508700474006509F1
:1051DC00600302529B79087C4D7D98EEFAEFFB122E
:1051EC001ACFE9700302529B121AF3E964016003AF
:1051FC0002529B121AF3E964016003025295901952
:10520C007AE070247CC47D94AA18AB19121CA3AA52
:10521C0018AB191218C58A088B09AC08AD09AA1865
:10522C00AB1912188F0259BD7E0090197AE0F8EE76
:10523C00C39840030259BDEEF87900E875F00CA450
:10524C00C8AAF075F000A42AFA75F00CE9A42AF9A2
:10525C00747D28F508741939F5097808122ACB7C65
:10526C002F7D9674021228A6121CA3740212285EBB
:10527C00AA18AB191218C58A088B09AC08AD09AA73
:10528C0018AB1912188F0E80A17514000259BD7439
:10529C000A6508700474006509704579087C207DE6
:1052AC0098EEFAEFFB121ACFE960357508E3750931
:1052BC00997808122ACB7CE87D9974021228A612E0
:1052CC001CA3740212285EAA18AB191218C58A08FE
:1052DC008B09AC08AD09AA18AB1912188F0259BD6D
:1052EC00740A6508700474006509600302539979A7
:1052FC00077C327D99EEFAEFFB121ACFE9700302AC
:10530C005399121AF3E96401707D8E828F83A3A3E3
:10531C00A3A3A3A3A3E0643F70309019F5122AE273
:10532C007C777D9974021228A6121CA37402122891
:10533C005EAA18AB191218C58A088B09AC08AD09FE
:10534C00AA18AB1912188F0259BD9019F57410F0E8
:10535C00A37427F0121AE19019F5122AE27C827DCF
:10536C009574021228A6121CA3740212285EAA18A5
:10537C00AB191218C58A088B09AC08AD09AA18AB71
:10538C001912188F0259BD7514000259BD740A65A3
:10539C0008700474006509704A790A7C327D98EEB5
:1053AC00FAEFFB121ACFE9603A9019F7E0F50833DF
:1053BC0095E0F5097808122ACB7C087D96740212C8
:1053CC0028A6121CA3740212285EAA18AB19121874
:1053DC00C58A088B09AC08AD09AA18AB1912188F2D
:1053EC000259BD740A6508700474006509600302F3
:1053FC0054C679077C5A7D99EEFAEFFB121ACFE965
:10540C0070030254C68E828F83A3A3A3A3A3A3A36A
:10541C00E0643F70389019F9E0F5087509007808D8
:10542C00122ACB7CFB7D9574021228A6121CA37445
:10543C000212285EAA18AB191218C58A088B09AC7F
:10544C0008AD09AA18AB1912188F0259BD8E828F9C
:10545C0083A3A3A3A3A3A3A3E024D09019F9F09052
:10546C0019F9E0C3940440069019F97400F0121A6B
:10547C00E19019F9E0F5087509007808122ACB7C3F
:10548C00E17D9674021228A6121CA3740212285EE7
:10549C00AA18AB191218C58A088B09AC08AD09AA51
:1054AC0018AB1912188F9019F9E0F87403C398F916
:1054BC00120BF9E97515010259BD740A65087004DF
:1054CC0074006509600F740F650870047400650939
:1054DC0060030255A779077C427D99EEFAEFFB1227
:1054EC001ACFE970030255A7121AF3E960030255AB
:1054FC00A18E828F83A3A3A3A3A3A3A3E0643F7075
:10550C00309019FA122AE27C007D9574021228A6BA
:10551C00121CA3740212285EAA18AB191218C58AA1
:10552C00088B09AC08AD09AA18AB1912188F0259CF
:10553C00BD7906EE2407FAE43FFB121AD58A088BD4
:10554C00098C0A8D0B9019FAE508F0A3E509F09087
:10555C0019FAC3E09410A3E0942740030259BD123A
:10556C001AE19019FA122AE27C827D9574021228B3
:10557C00A6121CA3740212285EAA18AB191218C525
:10558C008A088B09AC08AD09AA18AB1912188F75CB
:10559C0015010259BD7514000259BD740A650870D5
:1055AC000474006509600302567279077C3A7D9990
:1055BC00EEFAEFFB121ACFE970030256728E828F4D
:1055CC0083A3A3A3A3A3A3A3E0643F70389019FC07
:1055DC00E0F5087509007808122ACB7CED7D9674ED
:1055EC00021228A6121CA3740212285EAA18AB1968
:1055FC001218C58A088B09AC08AD09AA18AB191288
:10560C00188F0259BD7901EE2407FAE43FFB121AF8
:10561C00D58A088B098C0A8D0BE5089019FCF09043
:10562C0019FCE0C394025038121AE19019FCE0F511
:10563C00087509007808122ACB7CE17D9674021259
:10564C0028A6121CA3740212285EAA18AB191218F1
:10565C00C58A088B09AC08AD09AA18AB1912188FAA
:10566C007515010259BD740A65087004740065094A
:10567C00704B790A7C597D97EEFAEFFB121ACFE941
:10568C00603B121AF3E96401702D9019FF7403F05A
:10569C007CA67D97AA18AB19121CA3AA18AB1912D9
:1056AC0018C58A088B09AC08AD09AA18AB191218D1
:1056BC008F121B950259BD7514000259BD740A65F1
:1056CC0008700474006509703A79077CE37D98EEE4
:1056DC00FAEFFB121ACFE9602A121AF3E96401708F
:1056EC001C9019FF7404F08E828F83A3A3A3A3A331
:1056FC00A3A3E024D0F9121BCBE90259BD75140009
:10570C000259BD74096508700474006509600302D0
:10571C0059BA79067C7E7D99EEFAEFFB121ACFE925
:10572C0070030259BA8E828F83A3A3A3A3A3A3E011
:10573C00F516E51624CC601814601914601A146060
:10574C001B1470030257F51470030258C90259B5A3
:10575C007E04800A7E0580067E0680027E077980A4
:10576C001217397A04EEF91217338A088B09AC0830
:10577C00AD098C088D09E4F50AF50B7808121D505B
:10578C00909A39780C1227007808790C121F5B90CC
:10579C009A3D780C1227007808790C12231A780895
:1057AC00122AC78C088D097808122ACBA816790002
:1057BC00E824D0F508E934FFF5097808122ACB7CE7
:1057CC00267D9274081228A6121CA3740812285E57
:1057DC00AA18AB191218C58A088B09AC08AD09AA0E
:1057EC0018AB1912188F0259BD7E117F01750899DB
:1057FC0075090179001217397A02790F1217338A59
:10580C000A8B0BAC0AAD0BC3EC9508ED9509400463
:10581C0078648059C3EE9CEF9D40047800804EE57F
:10582C0008C39EF8E5099FF9E82401FAE439FB8ADC
:10583C00088B0974027808122826AA08AB09ECC355
:10584C009EF8ED9FF9E875F019A4C8AEF075F0005C
:10585C00A42EFE75F019E9A42EF9E82AF8E93BF913
:10586C00E824FFF8E934FFF91227BDE8F888087539
:10587C0009007808122ACB8C088D097808122ACBDB
:10588C00A8167900E824D0F508E934FFF509780862
:10589C00122ACB7CB17D9274061228A6121CA3741A
:1058AC000612285EAA18AB191218C58A088B09AC07
:1058BC0008AD09AA18AB1912188F0259BD750C0046
:1058CC00750D00750E00750F0090624B7401F09011
:1058DC0061A97401F07E00805779001217397A03A0
:1058EC00790E1217338A088B09AC08AD098C088D18
:1058FC0009E4F50AF50B7808121D50909A417810BE
:10590C0012270078087910121F5B909A45781012B4
:10591C00270078087910122100909A4978101227E4
:10592C00007808791012231A780C79081221000ECD
:10593C00EEC3944040A3850C08850D09850E0A859D
:10594C000F0B909A4D780C1227007808790C1223C3
:10595C001A90624BE0C2E0F09061A9E0C2E0F078EE
:10596C0008122AC78C088D097808122ACBA8167938
:10597C0000E824D0F508E934FFF5097808122ACBA1
:10598C007C837D9274081228A6121CA3740812281A
:10599C005EAA18AB191218C58A088B09AC08AD0998
:1059AC00AA18AB1912188F8008751400800375148F
:1059BC0000E51560117AC87B00121AC9C2AF75C90F
:1059CC00AB75C95B80FEA914744712285E7F0F0269
:1059DC00298AC082C08374FE122848909AEFAC18B2
:1059EC00AD19740212275B901A25E02401F0A3E094
:1059FC003400F0901A25C3E09458A3E0940240437D
:105A0C00121601900EAEE0C0E0851882851983D085
:105A1C00E0F0900EACE0C0E07401122894D0E0F0FD
:105A2C007C027D00AA18AB1912055DE97A047B0093
:105A3C00901A4AE0F9121925E9901A257400F0A37E
:105A4C007400F0740212285ED083D082020132748A
:105A5C00F61228B874C8122848E9FE7F01EEA2E5B8
:105A6C004003025AFB901CC9E0C2E5F07C697D99A9
:105A7C007A277B1A121CA37C117D977A337B1A121E
:105A8C001CA3901CC8E07004740180027400901C6C
:105A9C00C8F0901CC8E0600779011219B58005792F
:105AAC00001219B5901CC8E0F508750900780812A9
:105ABC002ACB7CC67D97740E1228A6121CA37402E6
:105ACC0012285E7906740C1228A61217E1740C12B7
:105ADC0028A6121CB58A088B09AC08AD09740C12E7
:105AEC0028A61218957A017B00121AC9025D0BEEDA
:105AFC00A2E05042901CC9E0C2E0F07C627D997A31
:105B0C00277B1A121CA37C3B7D987A337B1A121CC0
:105B1C00A3121AF3E964016003025D0B901A7FE093
