:020000040000FA
:0600000002011A02317931
:03002B0002387523
:0300330002384A46
:03003B0002389DEB
:030043000237EB96
:030053000231EF88
:03006B0002391740
:10008300022FCFE5C754F84401F5C77901220000D8
:100093000080FB120086B90003020104E479217891
:1000A30008B800028004F709D8FCE479297802B87B
:1000B30000028004F709D8FCE4900281783B7919A7
:1000C3008002F0A3D8FCD9FA781A90014A7A01BACF
:1000D30000028007E493A3F608DAF97ABB7B1A904F
:1000E300014B78DF79048015E493A3AD82AE838A54
:1000F300828B83F0A3AA82AB838D828E83D8E9D9C6
:10010300E77582007583EA740512012C7582917577
:100113008300740012012C75D00075813F7518811E
:10012300751902759F00020096C09FF59FE473D076
:100133009F22D083D082C09FE493C0E0740193C018
:10014300E0740293F59F2201CD06D9060F07090734
:10015300FF0000B4000028002800283075A000A08C
:1001630000A000A00000080008E001F0001000104B
:10017300001000100010001000500050005000103C
:10018300001000D0070000000000000F0001000570
:1001930000307507001000010081FF00000000FF20
:1001A300FFFF4D086B0853088F08FF020202080285
:1001B3005000A0000000E80302F19A010000D79A62
:1001C30002F79A0100001E1B02019B0100000A04B2
:1001D30002F79A0100001F1B02039B010000200489
:1001E30002F79A010000201B02059B010000220474
:1001F30002F79A010000211B02079B080000230459
:1002030002F79A010000221B020B9B010000231B33
:10021300FFFF0100FF2002F19A010000DA9A02F7C2
:100223009A010000881B020D9B000000000002FBE6
:100233009A03000053041700D510D510D510D5101C
:10024300D510D510D510D510D510D510D510D51083
:10025300D5103913571333137D148F1477140202F7
:1002630002020202020202010D000000100102F16B
:100273009A010000E09A02F79A010000D11B020FD5
:100283009B010000A20E02F79A010000D21B020993
:100293009B0100007D9602F79A010000D31B02FD2B
:1002A3009A010000829502F79A010000D41B02EB29
:1002B3009A010000AF9302F79A010000D51B02FFD9
:1002C3009A0100008B9302F79A010000D61B02E308
:1002D3009A010000439302F79A010000D71B02E53D
:1002E3009A010000559302F79A010000D81B02E718
:1002F3009A010000589502F79A010000D91B02E900
:100303009A010000DA1B01E803057710020A0A9339
:1003130016FFFFFF00013075030201060000000015
:1003230000000000000000000000000000000000CA
:100333000000000000000000FFFF0600800CE8033F
:10034300013FFEFF01010201060302F0FF02010665
:100353001AFF4C000215E2C56DB5DFFB48D2B06051
:10036300D0F5A71096E000010002CDC71BCD1BD925
:100373001BDF1BD31B0A4368617261637465726977
:100383007374696320310002436861726163746549
:100393007269737469632032000843686172616330
:1003A3007465726973746963203300104368617202
:1003B300616374657269737469632034000243680E
:1003C30061726163746572697374696320350016C1
:1003D300436861726163746572697374696320361B
:1003E3000002F19A010000DD9A02F79A010000E889
:1003F3001C02179B030000801A02F99A010000E90E
:100403001C02F79A010000FA1C02199B01000081EB
:100413001A02F99A010000FB1C02F79A0100000C72
:100423001D021B9B020000821A02F99A0100000DB3
:100433001D02F79A0100001E1D021D9B0000008390
:100443001A02FB9A030000841A02F99A0100001FA2
:100453001D02F79A010000301D021F9B0400008655
:100463001A02F99A010000311D02F79A01000042B5
:100473001D02219B0300008B1A02FB9A030000A0BC
:100483001A02F99A010000431D0100B0423BAAB8C9
:100493003F0000003F8C906339AA0CA33A00941EDE
:1004A3003C8042633DCFFE753E1572313F000080B4
:1004B3003FF304353F8096184B30313233343536B1
:1004C30037383941424344454600286E756C6C20E9
:1004D300706F696E7465722900303132333435368A
:1004E300373839616263646566003F3F3F0000004F
:1004F300807FF9021550B743BA5100E7DB2E0000A5
:10050300A040000080BF2292D43EDD9B2A3F04001E
:10051300004000000000FFFF7F7FFFFF7FFF01001F
:1005230080341872313F12013535D0051201351C64
:10053300D10512013516D205120135E8CD05120198
:1005430035FBCD051201351CCE0512013587CE05CD
:10055300120135C8CE05120135E9CE051201352A3F
:10056300CF05120135C2CF051201350AD00512019C
:10057300351EBA0512013531BA0512013562BA05C5
:100583001201359CBA05120135F5BA051201353C45
:10059300BB0512013584BB05120135B3BB0512013E
:1005A30035E2BB0512013519BC0512013560BC05E6
:1005B30012013579BC05120135CEBC05120135E7B0
:1005C300BC0512013535BD051201356FBD0512019C
:1005D3003500800412013503810412013530810492
:1005E300120135818104120135A48104120135B64B
:1005F3008104120135B98104120135F78104120116
:10060300356B8204120135D782041201359F8304AE
:10061300120135BB8304120135F283041201352C18
:100623008404120135C384041201351585041201B3
:100633003546850412013577850412013584850416
:10064300120135EE8504120135F18504120135FEE0
:1006530085041201350186041201355886041201FE
:10066300355B86041201359486041201359786049E
:10067300120135CB8604120135CE860412013522D0
:1006830087041201356B87041201357B870412013D
:1006930035AE8704120135BB8704120135BE8704CA
:1006A300120135268804120135288904120135CC3C
:1006B3008904120135358A04120135738A04120143
:1006C300353AB20412013537B304120135CDB30400
:1006D30012013518B4041201357CB4041201350635
:1006E300B504120135BFB504120135E1B804120196
:1006F300355EBA0412013581BA0412013529AA05FF
:10070300120135CEAB05120135EEAB051201350FE3
:10071300AD0512013562AD05120135E3FB0112018E
:10072300350BFC0112013538FC0112013570FC0157
:10073300120135CEFC011201351AFD01120135817A
:10074300FD01120135C1FD01120135FEFD0112014A
:10075300352CFE01120135D6FE01120135E0FE01F2
:10076300120135EDFE0112013520FF011201352C76
:10077300FF0112013544FF011201354EFF01120141
:100783003515E40512013523E4051201353BE40573
:1007930012013553E4051201356AE40512013500EF
:1007A3008003120135AA8003120135BD81031201B2
:1007B30035398203120135578303120135938303BD
:1007C3001201352E8403120135128503120135D52A
:1007D30085031201354D8603120135DB87031201B0
:1007E300354C8803120135068903120135F8890354
:1007F300120135388A03120135EC8A031201351EC2
:100803008B03120135148D031201355B8D03120125
:1008130035798D03120135DF8D03120135AE8E0359
:10082300120135728F031201359191031201359B29
:100833009103120135A7F80312013591F90312014F
:10084300353CFA031201358DFA031201353DFB03E2
:10085300120135AEFB0312013593FC03120135C7B8
:10086300FC03120135C0FD03120135FDFD03120126
:1008730035D9FE0312013518FF0312013534FF0386
:100883001201356CD605120135F0D6051201351B60
:10089300D70512013535D8051201356FAE051201A2
:1008A3003585AE05120135A3AE05120135B4AF058A
:1008B300120135BEAF05120135E9B005120135E06D
:1008C300B1051201354DB20512013557B2051201BA
:1008D30035967900120135CC7A00120135467B003A
:1008E300120135767B00120135897B00120135E058
:1008F3007B00120135F57D00120135F59C021201D2
:1009030035A69D02120135C29D021201358B9E024E
:10091300120135A59E02120135B09E0212013586E1
:100923009F0212013563A002120135F3A0021201E6
:1009330035AAA102120135B8A402120135A7A602F5
:1009430012013559A70212013522A8021201356797
:10095300AB0212013511AC021201353AAD0212019C
:1009630035F6AE0212013596AF02120135E4AF023D
:1009730012013523B002120135F6B0021201352AF5
:10098300B102120135B7B1021201350AD9021201BF
:100993003596D902120135FADA0212013506DB0265
:1009A30012013541DB02120135B0DB02120135B908
:1009B300DC02120135C2DD0212013589DE021201A9
:1009C30035E6DF0212013504E00212013521E002AF
:1009D300120135CEE0021201354BE10212013573EB
:1009E300E1021201353DE40212013542E402120133
:1009F300355BE602120135A9E60212013519E70259
:100A030012013557E70212013533E802120135F3BB
:100A1300E8021201353FE90212013542E9021201EF
:100A23003586E902120135CEE9021201350DEA02DB
:100A33001201352FEA0212013563EA02120135C6AB
:100A4300EA021201351B85051201352485051201C1
:100A530035328505120135858505120135A48505D5
:100A6300120135E985051201352D8705120135C8B7
:100A730087051201350C88051201353688051201E8
:100A830035A58805120135EB880512013562890504
:100A9300120135138A051201351ABC011201352AD8
:100AA300BC01120135CBBC0112013527BD01120176
:100AB30035E4BD0112013500BF0112013532BF011A
:100AC30012013561BF011201350EC10112013585D5
:100AD300C301120135F5C501120135E7C601120143
:100AE30035E0C701120135E7C901120135DBCC013D
:100AF3001201350ACE011201350ED0011201351E45
:100B0300D101120135ADD2011201359ED30112017B
:100B130035ECD3011201355BD4011201357FD401C9
:100B2300120135D0D40112013571D9011201357288
:100B3300DA01120135D3DA01120135FEDA011201AD
:100B430035C4DB01120135F0EE04120135FAEE046F
:100B53001201353FEF0412013553EF04120135E35F
:100B6300EF041201351CF00412013557F004120191
:100B73003580F004120135CEF004120135E3F004A0
:100B8300120135F8F0041201350DF104120135504C
:100B9300F10412013565F104120135D0F10412019B
:100BA30035E4F104120135F8F1041201350DF204B4
:100BB30012013547F2041201356BF2041201359725
:100BC300F204120135CEF20412013530F30412019E
:100BD30035A2F304120135E5F3041201350FF404D1
:100BE3001201353AF4041201350FE205120135A65C
:100BF300CA0312013589CB0312013504CC03120158
:100C0300353FCC0312013590CD0312013519CE03C4
:100C130012013531D003120135C3D20312013575E8
:100C2300D30312013581D403120135F4D503120124
:100C3300354DD603120135ADF904120135F0F9042F
:100C430012013574FA0412013547FB041201351EF3
:100C5300FE04120135E3C80512013590C9051201DE
:100C6300359DCA05120135DCCA0512013536CB059F
:100C730012013557DA05120135BADA051201355773
:100C8300DB051201358CDB05120135BCDB051201D6
:100C930035DDDB0512013518DC0512013538DC05BD
:100CA300120135038F051201358F8F051201354E61
:100CB30090051201356691051201358093051201E5
:100CC30035F6D6031201351BD703120135E8D703D6
:100CD300120135BCD80312013529D9031201357F1E
:100CE300D9031201351BDA031201354FDB0312015D
:100CF300352ADC0312013589DC0312013515DD03C6
:100D030012013583DD031201350FDE0312013512A3
:100D1300DE031201355CDE03120135CEDE03120160
:100D23003560DF0312013501E00312013521E003D1
:100D330012013569E003120135B2E003120135CE29
:100D4300E003120135F4E0031201356EE1031201F1
:100D5300357CE1031201350BE20312013574E20322
:100D63001201354E9805120135D398051201351538
:100D73009905120135F99905120135669A05120193
:100D830035AA9A05120135EE9A051201351B9B050A
:100D9300120135439B051201357B9B05120135B9C1
:100DA3009B05120135E09B051201355A9C05120182
:100DB30035A49C0512013530DC0112013529DE0111
:100DC30012013515E10112013569E1011201359472
:100DD300E1011201356EE201120135ADE2011201AA
:100DE30035F4E20112013507E30112013548E3014D
:100DF30012013575E301120135C3E3011201350216
:100E0300E4011201352DE40112013580E4011201E0
:100E1300350FE501120135EDE70112013508EA014D
:100E230012013546EA01120135BBEB01120135000F
:100E3300EC01120135F4EC011201350DEF01120141
:100E4300356FEF01120135C0EF01120135DBF401FB
:100E53001201352AF50112013570F50112013558D9
:100E6300F70112013526F9011201352BF90112019F
:100E73003505FA011201357EFA01120135AEFB0187
:100E8300120135C0FB011201353DC605120135AF14
:100E9300C60512013505C70512013549C7051201FB
:100EA3003569C705120135B6C705120135FEC705F9
:100EB30012013551C805120135A2C8051201358842
:100EC300A80412013507A90412013500AF04120169
:100ED3003506B00412013579B10412013510B2049C
:100EE3001201350080021201354980021201357664
:100EF3008002120135A88002120135B4800212016A
:100F030035C08002120135D78002120135B2810249
:100F13001201351082021201354582021201357623
:100F23008302120135C383021201350984021201BF
:100F330035758402120135198502120135CF8502F8
:100F43001201352E86021201359F8602120135FDEC
:100F530086021201352F8802120135978902120188
:100F630035618A021201356E8A02120135B08A0296
:100F7300120135C08A02120135E48A02120135E7F3
:100F83008A02120135D38B021201356F8C021201D2
:100F930035088D021201359F8D02120135CC8D0269
:100FA3001201352A8E02120135718E02120135C1EA
:100FB3008E02120135118F02120135838F02120145
:100FC300351E9002120135C9900212013568910253
:100FD300120135E691021201352D9202120135916B
:100FE3009202120135C09202120135579302120187
:100FF30035699502120135AD9502120135F8950256
:101003001201357E9602120135089702120135212D
:101013009802120135A79802120135CC98021201E9
:10102300352399021201353899021201358099024C
:10103300120135F39902120135389A021201354132
:101043009B02120135F29B02120135509C021201E0
:1010530035AC9C02120135C59C02120135A4BB04B8
:10106300120135F8BB0412013504BC04120135CE5C
:10107300BC04120135FBBC0412013529BD04120165
:101083003595BD04120135CBBD0412013504BE04F0
:101093001201351CBE0412013571BE041201358ADA
:1010A300BE04120135CFBE04120135E2BE041201A3
:1010B30035FCBE0412013512BF0412013530C004E1
:1010C3001201355BC10412013545C20412013536E4
:1010D300C304120135F37F001201350080051201AC
:1010E30035838305120135D084051201352ABE03E9
:1010F300120135FDC00312013503C10312013593FB
:10110300C303120135F6C503120135B79305120166
:10111300354E94051201350C9505120135369505AA
:10112300120135109705120135159805120135681E
:1011330063001201359A6300120135B76F00120183
:1011430035087100120135117200120135907300D8
:101153001201357B7400120135CA7400120135E4A3
:101163007400120135267500120135317500120124
:10117300357875001201358175001201352D760021
:101183001201350677001201354D7700120135B58E
:101193007700120135F77700120135257800120127
:1011A3003562780012013506C602120135D1C90233
:1011B300120135D7C9021201357BD002120135CF96
:1011C300D402120135B8D8021201354BB60512010B
:1011D30035C1B605120135D7B60512013567B70516
:1011E300120135A4B705120135DEB7051201351812
:1011F300B8051201358BB805120135CCB8051201BB
:1012030035D5B805120135E1B80512013500B90528
:101213001201352AB9051201353FB90512013567A7
:10122300B905120135C9B905120135F0B905120125
:1012330035C6DC04120135D9DC04120135F3DC04B4
:1012430012013520DD0412013566DD0412013599E2
:10125300DD04120135D7DD041201353CDE04120131
:101263003551DE041201355CDE0412013569DE04FA
:1012730012013580DE041201358EDE041201359D24
:10128300DE04120135B2DE04120135C7DE04120199
:1012930035D2DE04120135DEDE04120135EBDE0445
:1012A300120135FEDE0412013509DF041201352E69
:1012B300DF04120135D2DF04120135E2DF0412012B
:1012C30035F7DF041201350CE00412013526E00482
:1012D30012013543E00412013560E0041201356B5D
:1012E300E00412013517E104120135F8E10412019B
:1012F300351DE20412013528E2041201353DE204F2
:1013030012013551E204120135B2E204120135B87B
:10131300E204120135BEE204120135C4E2041201F3
:1013230035DCE2041201350FE304120135998A0416
:10133300120135BB8A04120135838B041201353D3A
:101343008E04120135538F04120135749004120177
:10135300354E9104120135FD9104120135A7B003F6
:101363001201353EB103120135D6B103120135C660
:10137300B203120135FDB20312013510B30312019A
:10138300357EB30312013519B50312013540B50398
:10139300120135E2B50312013517B60312013528E0
:1013A300B603120135A1B603120135C2B603120109
:1013B30035DAB60312013532B8031201353BBA03ED
:1013C3001201358BBC031201358EBD03120135DDCD
:1013D300BD031201350BA20312013508A303120149
:1013E30035F3A303120135FDA30312013507A4034B
:1013F30012013529A40312013535A40312013587DF
:10140300A503120135B6A503120135E6A6031201A1
:101413003528A70312013554A8031201352AA9035D
:101423001201357CA903120135DBA9031201351220
:10143300AA031201354DAA03120135E8AD031201C7
:101443003501AE0312013583AE0312013591AE03AC
:10145300120135E6AE03120135F4AE031201356114
:10146300AF03120135D3AF0312013519B0031201D3
:101473003597E203120135B9E203120135A3E40300
:1014830012013548E8031201358BE9031201356572
:10149300EA03120135FEDD0512013523DE051201D3
:1014A3003594DE05120135F0C404120135F9C40484
:1014B30012013502C50412013533C6041201355237
:1014C300C80412013588C804120135C2C8041201C8
:1014D30035F8C80412013532C90412013566C9044E
:1014E30012013592C904120135DBC9041201351505
:1014F300CA041201355DCA04120135B3CA041201CC
:1015030035E8CA0412013543CB041201357DCB04FF
:10151300120135CECB0412013504CC041201353E41
:10152300CC041201356CCC041201358FCC041201AA
:101533003515E80512013541E8051201359CE8052A
:10154300120135A6E805120135B6E8051201351D6D
:10155300CD0412013561CD041201350FCE04120101
:101563003587CE04120135D9CE0412013579CF0463
:10157300120135B5CF041201354FD004120135CC19
:10158300D00412013525D2041201353ED2041201D2
:101593003576D30412013509D40412013572D4040B
:1015A300120135DED4041201356EA1051201359501
:1015B300A105120135C5A105120135C0E8051201C7
:1015C30035259B01120135409E0112013530A001E2
:1015D300120135A2A00112013560A1011201350BE0
:1015E300A2011201359BA2011201352AA3011201A6
:1015F3003554A301120135C1A301120135FBA80122
:101603001201358EA901120135BDAA01120135213E
:10161300AB01120135D5AB0112013588AE011201C0
:1016230035C2AE011201352CAF0112013589AF016C
:10163300120135E6AF0112013543B0011201352E17
:10164300B10112013574B101120135BFB1011201AB
:1016530035E0B10112013542B3011201355DB30129
:10166300120135E3B40112013510B50112013550F1
:10167300B50112013596B501120135B4B501120158
:1016830035F2B50112013530B80112013569B801DF
:1016930012013500B901120135A0B9011201353328
:1016A300BA01120135A5BA01120135E6BB011201D7
:1016B3003562F404120135F6F40412013535F604EB
:1016C300120135BEF60412013591F704120135BA41
:1016D300F70412013521F80412013589F8041201C7
:1016E3003523E30512013534E30512013505E4051D
:1016F300120135B8C00512013583C305120135DC6B
:10170300FF01120135B4DF05120135C4DF051201F3
:1017130035E4DF05120135E0E00512013591C3051B
:101723001201352CC40512013522C6051201356498
:10173300D8051201359AD8051201350AD9051201C7
:101743003535D90512013598D90512013508DA0561
:1017530012013546DA0512013549DA05120135253C
:101763008A051201354A8A05120135718A0512016B
:1017730035988A05120135C08A05120135F88A05A4
:10178300120135288B05120135EF8B05120135DA6D
:101793008C05120135148D051201355D8E0512017C
:1017A30035E49C05120135069D05120135989D050A
:1017B300120135969E0512013587A005120135E702
:1017C300A00512013550A105120135F87F00120161
:1017D300354AD205120135EED3051201355AD40527
:1017E3001201354DE9041201354AEB04120135D0DB
:1017F300EB04120135D2EC0412013592ED0412010F
:101803003507EE0412013567EE041201356AEE0462
:1018130012013578EE041201358CEE04120135A461
:10182300EE04120135BCEE04120135CAEE041201B6
:1018330035E2EE0412013552E705120135CCE70516
:10184300120135DCE705120135ECE7051201350518
:10185300E80512013509FE021201353AFE021201B2
:101863003564FE021201351FFF021201353FFF02EC
:1018730012013597FF02120135F19404120135FF6D
:10188300940412013545950412013598950412010B
:1018930035E095041201353A96041201355B96043E
:1018A3001201352F99041201353D9904120135991E
:1018B3009904120135CC9904120135DF9904120100
:1018C300356A9A04120135039B04120135809B0487
:1018D300120135B99B04120135419C04120135985C
:1018E3009C04120135F59C04120135079D04120175
:1018F30035389D04120135419D041201358E9E0435
:1019030012013546DC05120135A7DC051201354409
:10191300DD05120135AADD05120135CDA50512013C
:101923003500A60512013527A7051201354CA70579
:1019330012013511A805120135EDA805120135D0A4
:10194300FE041201359CFF0412013581CB051201FF
:1019530035C6CB0512013506CC05120135A3CD05DD
:10196300120135FAE40512013515E5051201352595
:10197300E5051201358AE505120135CAE5051201AF
:10198300358EE605120135C29E041201359E9F0471
:10199300120135E59F0412013522A0041201358E90
:1019A300A004120135E6A00412013556A104120168
:1019B3003526A2041201350FA30412013586A304B0
:1019C3001201351BA504120135A6A5041201351514
:1019D300A6041201358DA604120135A4A604120132
:1019E30035CDA7041201351FA80412013591E30474
:1019F300120135B1E304120135A1E404120135EA01
:101A0300E4041201350AE50412013548E504120124
:101A130035A3E504120135E1E5041201352BE60493
:101A2300120135D3E8041201353CE904120135AD46
:101A3300B202120135C6B702120135BDBA02120154
:101A430035E3BA021201350CBB02120135BEBB02EB
:101A53001201359FBD02120135BABE02120135D300
:101A6300BE02120135C9C30212013502C4021201BA
:101A73003546C40212013553C5021201356C3900D3
:101A8300120135A03900120135DB39001201354D41
:101A93003A00120135163B001201352D3B001201AD
:101AA30035093C00120135FE3F001201350E40009E
:101AB3001201353F40001201351241001201357306
:101AC3004100120135764100120135B74100120180
:101AD30035D541001201353C42001201351844004E
:101AE300120135D844001201352A4500120135315F
:101AF30045001201354845001201351D460012010B
:101B0300352D46001201356B46001201358446001F
:101B13001201359B46001201352747001201354259
:101B230047001201356F49001201359A590012011D
:101B3300359D59001201358A5D001201354361005C
:101B43001201359EEB02120135D2EC02120135135C
:101B5300ED0212013584F002120135BDF0021201CB
:101B630035CEF002120135EAF102120135FBF10222
:101B730012013594F202120135A4F2021201355A10
:101B8300F8021201351AF90212013576F90212012F
:101B9300350AFA021201356FFA0212013580FC028E
:101BA3001201352FFD02120135A7ED03120135F69F
:101BB300F1031201359AF403120135D3F403120130
:101BC30035E4F40312013503F5031201358FF603EF
:101BD300120135A0F60312013567F703120135F838
:101BE300F70312013525D50412013524D604120159
:101BF3003541D6041201351AD8041201353ED904F1
:101C0300120135D6DA041201354BEB0512013553B7
:101C1300EB051201352DEB05120135D7BD05120178
:101C230035F1E00512013595FF03120135A5910346
:101C3300120135B896031201355DD40512013574CE
:101C4300EA05120135BAEA0512013561B20512013E
:101C5300356AE90512013594E905120135BC7F00A7
:101C6300120135E6EA051201350FEB05E066701047
:101C730008A3E066700A08A3E066700408A3E066A0
:101C830022C008C3E096F50808A3E096420808A31B
:101C9300E096420808A3E0964208A2D265D033E555
:101CA300087001D3D00822C3E7960809E79608090C
:101CB300E7960809E79622C3E09608A3E09608A3EF
:101CC300E09608A3E09622C008C3E096F50808A3AF
:101CD300E096420808A3E096420808A3E096450868
:101CE3007001D3D00822080808E630E7111225A3B3
:101CF300121D01080808C64480C6181818221818AF
:101D030018E9799EC608CAC608CBC608CCC6C370F4
:101D1300207996CACBCC7019798ECBCC7013798687
:101D2300CC700EF9802ACA33CACB33CBCC33CC3335
:101D33001930E7F2CCCBCA3350147004EA30E00D0B
:101D4300E4CA3ACACB3BCBCC3CCC500209C3E9131F
:101D5300C6CC182313C6CB18C6CA18C6F922121D3F
:101D6300A120F01430E72B74FFFCFBFA747F802270
:101D7300E4FCFBFA7480801AB48008BC00F2BB0058
:101D8300EF800F50EBF9E4C39AFAE49BFBE49CFC6D
:101D9300E499C6CC18C6CB18C6CA18C6F922E4C93A
:101DA300C608CAC608CBC6D3330308CCC63392F0E1
:101DB300C3947F402E94184019C9B90704CACBCCE9
:101DC300225025C309CA33CACB33CBCC33CC33D946
:101DD300F422F4600DC9CCC313CB13CBCA13CAD9F5
:101DE300F6CC22E4FCFBFA2214FCFBFA22E62618CA
:101DF300461846184622E727194719471947221854
:101E03001818E60846087009E626087005E633F454
:101E1300220822191919E70947097009E7270970E8
:101E230005E733F4220922E6084608C313460833BC
:101E33006002E633F422E7094709C3134709336015
:101E430002E733F422121E2A6025121E3960201283
:101E53001DF07003021DF9080808E76670101819D1
:101E6300E766700A1819E76670041819E76622F422
:101E730022121E2A601C121E396017121DF07007F1
:101E8300121DF97001D322C0D0121DF97006D0D0F3
:101E9300B322C32233D0D0501430E0F6C3E7960800
:101EA30009E7960809E7960809E796B32220E0D5E3
:101EB300E6970809E6970809E6970809E697B32223
:101EC300121E2A601B121E396016121DF0700712B3
:101ED3001DF9600CB322C0D0121DF97005D0D022B9
:101EE300C32233D0D0501330E0EBC3E7960809E7A1
:101EF300960809E7960809E7962220E0E4E69708A2
:101F030009E6970809E6970809E6972200121E2AB0
:101F1300604F121E396012E7548066F6121E02707B
:101F230011121DF9703B090909F4F618F618F61891
:101F3300F622121E167015121DF008080860EAE654
:101F4300447FF618768018E4F618F622121DF06026
:101F530016121DF97012E4F608F608F608E6548026
:101F6300F609090918181822EAC0E0EBC0E0ECC032
:101F7300E0EDC0E0E687F0A4FBACF008E687F0A450
:101F83002CFCE435F0FA1809E687F0A42C4B600228
:101F93007401CA35F0FCE433FB09E687F0D2F7A4F9
:101FA3002CCB35F0FC1908E687F0A42BCC35F0FBDD
:101FB300E433FD0819E687F0D2E7A42C4ACB35F0C9
:101FC300CD3400FC09E687F0D2E7A42DCC35F0FD33
:101FD300E433FA0918E687F0D2F7A42CCD35F0CA1A
:101FE3003400FC08E687F0D2E7D2F7A42ACC35F018
:101FF3007A7E20E70B0ACB33CBCD33CDCC33CC3336
:10200300CB3350147004ED30E00ED2F1E4CD3DCD6E
:10201300CC3CCC3B5005DA05C2F1EB547FC6330808
:10202300E63392F0FBE73309E733C39A502D2B7065
:10203300190C0D4C4D70151806E608C333700D20AE
:10204300F10AA2F013F6E418800B4024E4F630F012
:1020530002768018F618F618F68024D33B14501035
:1020630074FFA2F013F6187680E418F618F6800FC2
:10207300A2F013F618E63303F618ECF618EDF6D0D3
:10208300E0FDD0E0FCD0E0FBD0E0FA22121E396084
:1020930046121E2A603DE9687008F618F618F6180D
:1020A300F622748067F71220C3090909748067F761
:1020B30022121E2A601D121E397005191919801A61
:1020C300121E02701F121E16C37003E6673319191E
:1020D3001940071818182208080874FFF618F6188C
:1020E300F618F622121E166017121DF9702192F0CF
:1020F300121DF07019501720F01408080809090977
:10210300E7F61819E7F61819E7F61819E7F6221291
:102113001DF060E6E869701F0808E62480F608E40D
:1021230036F618547FB47F0CE654806007F6E41843
:10213300F618F622181822E9C6CC08C6CD08C6CE72
:1021430008C6CFC0E0E8C0E0EAC0E0EBC0E009E9C0
:10215300F809E7FA09E7FBE6F918E6F8C3EC98EDA6
:1021630099EE9AEBC2E7F5F0EFC2E795F0500E60F7
:102173000CEBCFFBEACEFAE9CDF9E8CCF8EAA2E71B
:10218300D2E7FAEB33FB13F5F0EEA2E7D2E7FEEF6B
:1021930033FFC5F013A2E730E601B313C5F0C3C0A4
:1021A300E0C0F07F00C39BFB605E9418600F401D8E
:1021B30014601AD0E023F9D0E0F80222958AF0E9FE
:1021C300486003D2F0E4AFF0FAF9F8803BEB30E477
:1021D3000D89F0EA6003D2F0E4AFF0F9CAF8EB300E
:1021E300E30D88F0EF6002D2F0AFF0E4CAC9F8EB78
:1021F30054076014FBC3EA13FAE913F9E813F8EF81
:10220300135002D2E0FFDBEDD0E0C0E030E739C38A
:10221300E49FFFF5F0EC98FC42F0ED99FD42F0EEFF
:102223009AFE42F0D0E0F9D0E0F8E5F0607AE923D5
:10223300F9EE20E742D8028067C3EF33FFEC33FCAB
:10224300ED33FDEE33FE80EAEC28FCED39FDEE3A8A
:10225300FED0E023F9D0E0F84002801BC3EE13FE6A
:10226300ED13FDEC13FCEF135002D2E0FF08B800AE
:10227300067F7F74FF802EEF3350178CF020F0021F
:1022830060100CBC000C0DBD00080EBE000408E875
:1022930060DFE933E813FFEE2313FE4F4D4C800854
:1022A300E95480FFE4FEFDFCEE33EF33F47004FCED
:1022B300FD7E80D0E0FBD0E0FAD0E0F8D0E0CFC6DE
:1022C30018CEC618CDC618CCC6F922121E2A700421
:1022D30018181822121E39700D74FFF61819F61803
:1022E30019F61819F622E7548066F6121DF0700FDE
:1022F300121DF970F014F608F608F608F680D112EC
:102303001DF9700CF608F608768008E6447F80EC29
:10231300121E19700C121E0560BFE65480F6E4808D
:10232300BB121E05700519191980A5E869700C7692
:102333003F18768018F618F6E8F922E6CDC0E018C3
:10234300ECC0E0E633CD33CDD313F6E719FCE71940
:102353001933CC33C3947F400ECD9D502408E654EB
:1023630080F6E418F6800FF4043D14501408E64494
:102373007FF6187680E418F618F6D0E0FCD0E0FD7E
:1023830022CCD313CCFD18E4C6CBC0E018E4C6CAF4
:10239300C0E00808ED08C633E613F618E433C67543
:1023A300F003C3CA97CA09CB97CB199C40047D0895
:1023B300802EBD000302247716B6FF050606081615
:1023C30018C3CA33CACB33CB33CA27CA09CB37CBDB
:1023D300193CC37D08803E187D0820E75CC633C6E0
:1023E300CA33CACB33CB33DDF1D5F0EB30E77BCA4D
:1023F30097CA09CB974ACB199C406F4B7025E620AF
:10240300E0218066187D08C3CA97CA09CB97CB1908
:102413009CD3C633C6CA33CACB33CB3350C9DDE7EB
:10242300D5F0E1D3E4C636C608C636C608C636C6F6
:1024330008C636C61818188031C3CA97CA09CB977D
:10244300CB199CB34097C633C6CA33CACB33CB33FD
:10245300DD34D5F02EC6A2E0C640C8CA27CA09CBD0
:1024630037194A70BECB3CB480B90808E63308E696
:1024730033601F181818D0E0FAD0E0FBD0E0FCD08E
:10248300E0FD22187D08CA27CA09CB37CB193CD3F4
:10249300808013F618E4B67F11F618B6FF0EF6180F
:1024A300C60470D20808768080CAF618F618F6803B
:1024B300C5080808EAC0E0EBC0E086F0E7A4FA1814
:1024C3000986F0E7A42AFA180986F0E7A42AFA187D
:1024D3000986F0E7A42AFA1986F0E7A4FBE5F02AB7
:1024E300FA190886F0E7A42BFBE5F03AFA190886F7
:1024F300F0E7A42BFBE5F03AFA18180986F0E7A4F5
:10250300C5F02BFBE43AFA1908E7C5F0C6A426F692
:10251300E5F03BFBE43AFA1886F0E7A4F6E5F008A9
:1025230026F6E43B08F6E43A08F6D0E0FBD0E0FAFE
:1025330022E4CFC0E0E4CEC0E0E4CDC0E0E4CCC010
:10254300E075F020E626F608E633F608E633F608EB
:10255300E633F6181818EC33FCED33FDEE33FEEFDB
:1025630033FFC3EC9709ED9709EE9709EF97191914
:1025730019400FFFEC97FC09ED97FD09EE97FE1943
:102583001906D5F0BFECF709EDF709EEF709EFF7F8
:10259300191919D0E0FCD0E0FDD0E0FED0E0FF2215
:1025A300181818E4C396F608E496F608E496F608B5
:1025B300E496F6226016080808C6C313C618C613A5
:1025C300C618C613C618C613C6D5E0EA2270090892
:1025D3000808226016181818C6C333C608C633C6BF
:1025E30008C633C608C633C6D5E0EA22E627F6088E
:1025F30009E637F60809E637F60809E637F622E072
:1026030026F608A3E036F608A3E036F608A3E0367C
:10261300F622E026F008A3E036F008A3E036F0083F
:10262300A3E036F022C3E697F60809E697F6080911
:10263300E697F60809E697F622C3E0C696F608A3DE
:10264300E0C696F608A3E0C696F608A3E0C696F69B
:1026530022C3E096F008A3E096F008A3E096F00802
:10266300A3E096F022E657F60809E657F60809E6CE
:1026730057F60809E657F622E056F608A3E056F6A1
:1026830008A3E056F608A3E056F622E056F008A3A6
:10269300E056F008A3E056F008A3E056F022E06607
:1026A300F608A3E066F608A3E066F608A3E066F67C
:1026B30022E0F608A3E0F608A3E0F608A3E0F6227A
:1026C300E6F008A3E6F008A3E6F008A3E6F022E0AC
:1026D300FAA3E0FBA3E0FCA3E0FD22EAF0A3EBF006
:1026E300A3ECF0A3EDF022E0F8A3E0F9A3E0FAA352
:1026F300E0FB22E8F0A3E9F0A3EAF0A3EBF022CA9F
:10270300C0E0E6F0A308DAFAD0E0FA22CAC0E0E0BB
:10271300A3C582CCC582C583CDC583F0A3C582CCB6
:10272300C582C583CDC583DAE6D0E0CA22C3E49867
:10273300F8E499F91227718026C3E49AFAE49BFB23
:10274300E920E7E9122771E498F8E499F922C3E450
:1027530098F8E499F9122771E498F8E499F9C3E435
:102763009AFAE49BFB22EB20E7CFE920E7E0B900EC
:1027730010BB0008E88AF084F8AAF022E4FBC8FA48
:1027830022EB70227B10C833C8C933C9335007C347
:102793009AC3DBF280069A50012ADBEAC833F4C8F5
:1027A300C933F4C9FA2275F008E4C833C8C933C978
:1027B30033C99AC99B5004C92AC93BD5F0ECFBC85D
:1027C30033F4C8E4C9FA22600D08C6A2E713C61899
:1027D300C613C6D5E0F322600C08C6C313C618C6D9
:1027E30013C6D5E0F422700422600D18C6C333C6A5
:1027F30008C633C6D5E0F41822251810AF08F5181B
:10280300400C15198008F51840021519D2AF2200A3
:10281300C0D0251810AF08F518500C05198008F51D
:102823001850020519D2AFD0D0222518F58210AF67
:1028330008F518400C15198008F51840021519D22F
:10284300AF851983222518F582E43519F5832225EE
:1028530018F8E43519F9222518FAE43519FB22256D
:1028630018FCE43519FD22E4732518C582C0E0E5A0
:102873001934FFC583C0E0E518C3958224F810AF6F
:10288300088583198582188008858319858218D263
:10289300AFCEF0A3E520F0A37808E608F0A3DEFAB4
:1028A300EFF0A3E58124FAF8E608F0A3E608F0A325
:1028B300E608F0A30808E608F0A3E608F0A31581EC
:1028C3001581D0E0FED0E0F8158115811581E8C0AF
:1028D300E0EEC0E0222518C582C0E0E51934FFC54B
:1028E30083C0E0E518C3958224F910AF08858319E6
:1028F3008582188008858319858218D2AFCEF0A30C
:10290300E520F0A37808E608F0A3DEFAEFF0A3E5EC
:102913008124FBF8E608F0A3E608F0A30808E6081C
:10292300F0A3E608F0A315811581D0E0FED0E0F80E
:1029330015811581E8C0E0EEC0E022851983851872
:1029430082E0A3FEE0A3F5207808E0A3F608DFFA0F
:10295300E0A3FFE0A3C0E0E0A3C0E0E0A3C0E0E0A9
:10296300A3C0E0E0A3C0E010AF08858218858319F7
:102973008008858218858319D2AFD083D082020163
:1029830032851983851882E0A3FEE0A3F520780839
:10299300E0A3F608DFFAE0A3FFE0A3C0E0E0A3C0F2
:1029A300E0E0A3C0E0E0A3C0E010AF088582188593
:1029B30083198008858218858319D2AFD083D0828A
:1029C30022C0D02518C582C0E0E51934FFC583C0F5
:1029D300E0E518C3958224F310AF08858319858237
:1029E300188008858319858218D2AFC8F0A3E9F04F
:1029F300A3EAF0A3EBF0A37908E709F0A3D8FAEC74
:102A0300F0A3EDF0A3EEF0A3EFF0A3D0E0F0A3D09A
:102A1300E0F0A3D0E0F0A3E520F0A3E5F0F0A322DB
:102A2300851983851882E0C0E0A3E0F9A3E0FAA347
:102A3300E0FBA37808E0F608A3DFFAE0FCA3E0FDDF
:102A4300A3E0FEA3E0FFA3E0C0E0A3E0C0E0A3E0B7
:102A5300F5D0A3E0F520A3E0A3F5F010AF0885833C
:102A6300198582188008858319858218D2AFD08290
:102A7300D083D0E0F8D0E032740480067402800280
:102A83007401C0E0F40412282DD0E012270222744E
:102A930004800474028000CCC0E0EDC0E0E518C3FC
:102AA3009CCCAD1950011D10AF068C188D198006F2
:102AB3008C188D19D2AF12270FD0E0FDD0E0FC2285
:102AC300D083D082E9C0E0E493A3C386F0C5F09538
:102AD300F0F908E493A386F0C5F095F0700BE49346
:102AE300A3C3994005E9048002A3E475F002A42579
:102AF30082F582E5F03583F583D0E0F9E493A3C052
:102B0300E0E493C0E022D083D082ECC0E0EDC0E0EB
:102B1300E493A3FCE493A3FDED4C600D122B55EC61
:102B230024FFFCED34FFFD80EFE493A3FCE493A3C7
:102B3300FDED4C600D122B94EC24FFFCED34FFFDF6
:102B430080EFD0E0FDD0E0FCE493A3C0E0E493C0C9
:102B5300E022C0E0C3E49396087401939618400FF3
:102B6300E49366700808740193661870007019A3E3
:102B7300A3C3E49396087401939618A3A3400DD0BE
:102B8300E0D0E0D0E0022B45A3A3A3A3A3A3D0E00E
:102B930022C0E0C0F088F0E49366700808740193E3
:102BA30066187000A8F0A3A3700BD0F0D0E0D0E0BB
:0C2BB300D0E0022B45A3A3D0F0D0E0221C
:102BC00074F61228D8EAFEEBFF8C088D09EE243447
:102BD000F8E43FF9E8FCE9FD122CF2E0FAEE2437C4
:102BE000F582E43FF583E0F88508F0A4C885F00A93
:102BF0008509F0A4250AF9EA28F8E439F97A257B51
:102C000000122771EA8C828D83F0FA131313541F7C
:102C1000F8EE28F8E43FF9E8245DF582E439F5831D
:102C2000E0C0E074075AF8D0E0B800028004C31393
:102C3000D8FCA2E05003EA8020EE2436F582E43F7F
:102C4000F583E0F5F0EA84A8F0EE28F8E43FF9E82F
:102C50002438F582E439F583E0F97F03022984748E
:102C6000F51228D8EAFEEBFFEE2434F582E43FF5B6
:102C700083E0C0E0122CF2D0E0F08E828F83A3A319
:102C8000A3A3A3E0FAA3E0FB8E828F83A3A3A3A355
:102C9000A3A3A3E0C39AF508A3E09BF509EE247F64
:102CA000F8E43FF9880A890B8882F583E0640170B3
:102CB0002CEE2480F582E43FF583EA2401F8E43B1E
:102CC000F9E0687003A3E06970137C1A7D08EEFADE
:102CD000EFFB120FE5850A82850B83E4F0AC08ADAB
:102CE00009EEFAEFFB122BC0E9F91237DD7F04027F
:102CF0002984EE2435F582E43FF58322C082C08327
:102D0000851882851983E0F8A3E0F9C3EA9CEB9D5E
:102D10005010C3EC98ED99401BC3EA98EB995014FE
:102D2000800EC3EA98EB994007C3EC98ED994004F4
:102D3000790180027900D083D08222EAC39CFAEB29
:102D40009DFB2274ED1228D89004C3E0640860054E
:102D5000E06407702C9061C8E060269004F1E0F810
:102D600074FF68601CE875F00DA4C8AAF02AF97415
:102D7000F328FE740439FF8E828F83A3A3A3E0702F
:102D8000057900022EE5EE2468F50EE43FF50F907C
:102D90006060E0850E82850F83F07510B4751108B0
:102DA000750800750900E5D914F50AE5D95403F54D
:102DB0000B601FEE2483F50CE43FF50D7403650BE7
:102DC0006059E50A6017EE2467F582E43FF583E079
:102DD000700B793DEEFAEFFB12101580A49008AF4E
:102DE000E064016023850C82850D83E060047A0431
:102DF00080027A00E50AC39AFA95E0FB120DC98AAF
:102E0000088B09EA4509700612130F022D81850C03
:102E100082850D83E070048A108B117A008014E59E
:102E2000D9C0E0EAF8E51028F582E43511F583D041
:102E3000E0F00AEAC3950A40E6850C82850D83E03E
:102E4000602874FC250AF50A7810122A7FAC0AA9BA
:102E50000BEEFAEFFB1210CF7402122812E9700A7F
:102E6000AA08AB09121909022DD27403650B60542C
:102E7000850A0C750D00780C122A7FAC10AD11AAD2
:102E800008AB091210937402122812850E82850F66
:102E900083E0F87480687005750C7F8002880CE50B
:102EA0000CF50D780D122A83780B122A83A90AAC2F
:102EB00008AD099004F1E0FA7B00120BE9740212EC
:102EC0002812801C9004C3E06408AC10AD11700996
:102ED000EEFAEFFB1210FF8007EEFAEFFB1211B9CA
:102EE00012131B79017F0C02298474F31228D87401
:102EF000FC1227FCEAFEEBFF8909A2AFE433F508D8
:102F0000C2AFEE2463F50AE43FF50B8010AA0AABCA
:102F10000B12104B121909900821E004F0850A8267
:102F2000850B83E0F8A3E0F9E849602DE82402FA74
:102F3000E439FBEA2402F50CE43BF50D780C122A87
:102F40007F8A828B83E0FCA3E0F9EEFAEFFB12109C
:102F50003F7402122812E960B4900821E0604D909D
:102F60000822E0F8900821E0C398500C740265092B
:102F7000703A900823E060348E828F83A3A3A3A3CA
:102F8000E0851882851983122FBC7402122848E844
:102F9000122FBC900820E028F07402122862AA18B0
:102FA000AB197901120C49900821E4F0E508A2E080
:102FB00092AF74041228127F06022984F0A3E4F071
:102FC000900821E0F82200008521878522C622C0D2
:102FD000E074EB1229C4A2AFE433F508C2AF759BCD
:102FE00000906182E0A2E05030E591A2E0502A75A5
:102FF00091FE740165217021123162121213123197
:1030000050122A921235877404122812E964017052
:1030100005790112126D122D43906182E0A2E550F4
:103020005DE591A2E550577591DF9004C3E0640718
:103030006005E06408702F12316274016521703EF2
:10304000121213123150122A921235877404122868
:1030500012E964017005790112126D7901EEFAEF3F
:10306000FB122EEA8018E0640D70139004E5E00472
:10307000F064287002E4F07A00E0F9121321906104
:1030800082E0A2E64003023125E591A2E640030278
:1030900031257591BF9004C3E0640570081211FBDF
:1030A000121207800312120175210012128BE9908F
:1030B00004C4F0790012126D120F077A017B0090A0
:1030C00004C2E0F91218D9907803E0644270569077
:1030D00008B3E014F0704EC2AF1230DC00782AD092
:1030E000E0F618D0E0F6E59F5407F87005750DFF7F
:1030F0008003750D7FC4C0E07829E6F50A08E6551F
:103100000DF50B740B780A1227DAD0E0250AF89037
:103110006270E0A2E740F8E8C333906272F0906218
:1031200070E0D2E0F0906181E0A2E35009E5E9A20D
:10313000E3500375E9F7A3E0A2E75009E591A2E7A0
:10314000500375917FE508A2E092AF7F08022A2321
:103150008E828F83E0F8A3E0C82416F582E438F568
:1031600083229004F1E0F875F00DA4C8AAF02AF9C2
:1031700074F328FE740439FF22C0E0C0D0C082C0BE
:1031800083906183E0A2E05009E5BFA2E05003759F
:10319000BFFEE0A2E15009E5BFA2E1500375BFFD0B
:1031A000E0A2E25009E5BFA2E2500375BFFBE0A236
:1031B000E35009E5BFA2E3500375BFF7E0A2E45076
:1031C00009E5BFA2E4500375BFEFE0A2E55009E5B1
:1031D000BFA2E5500375BFDFE0A2E65009E5BFA23C
:1031E000E6500375BFBFD083D082D0D0D0E032C0CC
:1031F000E074F21229C4E5A7A2E4500FE5A1A2E40D
:10320000500953A7EF75A1EF123243E5A7A2E5508D
:103210000CE5A1A2E5500653A7DF75A1DFE5A7A243
:10322000E15009E5A1A2E1500375A1FDE5A7A2E2E5
:10323000500CE5A1A2E2500653A7FB75A1FB7F014C
:10324000022A2374F81228D87521019004C3E0647F
:103250000670077A007B001211E3A2AFE433FED2BE
:10326000AF9004C9E0640170187A207B009004C21A
:10327000E0F9121A117A207B009004C2E0F91218CA
:10328000DF906182E0D2E6F09008B0E0602185C670
:103290002280169004C8E064017008E5C654F84422
:1032A00005F5C653BEFC122FC87401652160E4EE1B
:1032B000A2E092AF7F010229840000008E238F24B8
:1032C000858228858327851882851983E0CEA3E02F
:1032D000CF852882852783EBC9EAC8EDCBECCA7578
:1032E000F010C3E833C8E933C9EA33CAEB33CBC3C0
:1032F000EA9EF526EB9FF525B35004AB25AA26ECF4
:1033000033CCED33CDD5F0DAAE23AF242274E912FD
:1033100028D874FA1227FCEAFEEBFF8C088D0912FC
:103320001225EAF8EBF9ECFAEDFB8E828F83122678
:10333000F69004C3E024F7C394055006751001020B
:1033400034441211598A0A8B0BEA450B700302347C
:10335000411212198A0C8B0D121219EA650C7003B6
:10336000EB650D60ECEEFCEFFDAA18AB1912121F15
:10337000850A82850B83A3A3780C1226B4909A2128
:10338000780C12267B85188285198378141226B44E
:10339000909A21781412267B780C7914121CAA506A
:1033A0001F780C7914122628909AC1780C121CCA26
:1033B0004047850C10850D11850E12850F13804531
:1033C000909AC185141085151185161285171378EA
:1033D00010790C1226287810121CCA501C75100087
:1033E00075110075120075130178107914122628D2
:1033F0007810790C1225EF800C751001751100758D
:103400001200751300740978101225D0909A09786B
:103410000C1226B47810790C1225349004C3E064A1
:1034200008600AE064066005E064057020909A7503
:103430007810121CCA5016909ABD7810122602807D
:103440000C75100075110075120075130085088247
:1034500085098378101226C374061228127F100281
:10346000298474F71228D81212379008AEE064014C
:103470007010906245E4F0A3F053F4F343FE0C5354
:1034800090F31211D1E5C654B84441F5C6E59E54F7
:1034900047644170F8906185740FF09008ACE0F4D7
:1034A0007002A3E0602C7508017509009008ACE07B
:1034B00078081227E9E508F4FAA3E0600814600A26
:1034C00014600C800DEA52808008EA52908003EA72
:1034D00052A079007F0202298474F71228D8E9FEED
:1034E000EAFF74016E700C7A807B009004C2E0F9F0
:1034F0001218D9903964E493F46008E493F9120E39
:10350000E9800953C6B8E59E544770FA1211D79066
:1035100008AEE064017003120F1F9008ACE0F47075
:1035200002A3E0602B7508017509009008ACE078F3
:10353000081227E9E508FAA3E0600814600A14609D
:103540000C800DEA42808008EA42908003EA42A0A3
:103550001211598A088B09A808A909E8496016E5DB
:10356000E170FCE82414F582E439F583E0F874FF97
:1035700068600288E174016F700A7A019004C2E009
:10358000F912196F0234D474F11228D88A088B0901
:103590008C0A8D0B909A21780812267B740F1228C2
:1035A00048780C1226B4909A21780C12267B780861
:1035B000790C121CAA909AC150107808790C122626
:1035C000287808121CCA4014800E780C790812263C
:1035D00028780C121CCA50047901800279007F08F7
:1035E00002298474ED1228D88A088B098C0A8D0B65
:1035F000909A21780812267B7413122848780C12AE
:1036000026B4909A21780C12267B780C7908121C2B
:10361000AA40117808790C122628AA08AB09AC0A2E
:10362000AD0B802275100075110075120075130125
:103630007810790C122628781079081225EFAA1034
:10364000AB11AC12AD137F0C022984909A2178083B
:103650001226B48A828B83780812268E7F04022970
:103660008474F51228D88C828D8378081226B48A47
:10367000828B8378081226541236B5C3E098F0A3E3
:10368000E0991236A7401E9099F978081226B48A5C
:10369000828B8378081226158E828F83E02420F097
:1036A000A3E0344EF080A4F08E828F83C3E0942098
:1036B000A3E0944E22EA2404F8E43BF9E8FEE9FF93
:1036C0008C828D83A3A3A3A3E0F8A3E0F98E828F5D
:1036D000832274F51228D8E9FE90083CE0FAA3E0B2
:1036E000FBEE29F8E433F9741628F582749439F561
:1036F00083E02AF508A3E03BF5097808122A7F90B9
:103700009A7D1226D21232BC74021228128A088BB9
:10371000098C0A8D0B741078081225B7AA08AB091A
:103720007F0402298474F11228D88A0C8B0D8C0E28
:103730008D0F7411122848122A967411122848E02D
:103740002401F508A3E03400F509E4F50AF50B7847
:103750000C79081224B4909AB978081226B4780C1F
:1037600079081224B4AA0CAB0DAC0EAD0F1232BC0A
:1037700074021228128B09EA450960047A0180025A
:103780007A00EC2AFCE43DFD7413122848E0F8A30B
:10379000E0F9E8FEE9FFECF8EDF97A717B02122717
:1037A0007188088909E4F50AF50B8E828F83780801
:1037B0001226C3ECF8EDF97A717B021227718A08A0
:1037C0008B09740578081227E98E828F83A3A3A33F
:1037D000A3E508F0A3E509F07F08022984C082C0B0
:1037E00083E9906000F0D083D08222C0E074F212AE
:1037F00029C4A2AFE433FED2AFC2C0E5D1A2E450E7
:103800000675D10F121831751A00EEF8EEA2E0928B
:10381000AF7F01022A23C0E074F21229C4A2AFE4F0
:1038200033FED2AFE589A2E14006E589A2E250036A
:1038300012174D758900758900C2C5751A00EEF81A
:10384000EEA2E092AF7F01022A23C0E074F21229B7
:10385000C4A2AFE433FED2AFE58BA2E0500312174F
:103860004D758B00C2E8751A00EEF8EEA2E092AF3B
:103870007F01022A23C0E0C0D0E8C0E0E9C0E0A296
:10388000AFE433F8D2AFC2C7751A00E8F9E8A2E096
:1038900092AFD0E0F9D0E0F8D0D0D0E032C0E0C0B4
:1038A000D0E8C0E0E9C0E0EAC0E0C082C083A2AFD7
:1038B000E433FAD2AF901142E0F8901143E068701F
:1038C0000B539AFB9011447401F0802CC2E99011C3
:1038D00042E0F8740128901142F0790074C228F592
:1038E00082741039F583E0F5C1901142E0C39480F1
:1038F00040069011427400F0EAF8EAA2E092AFD0DC
:1039000083D082D0E0FAD0E0F9D0E0F8D0D0D0E097
:1039100032C2AF02000022C0E074F21229C474FF68
:103920001227FC8518828519837401F07C017D00C3
:10393000AA18AB19120529E97A047B00901A38E01D
:10394000F91218D9E9A291E433F4D2F0A29130F03F
:1039500001B39291758900C2C574011228127F01CA
:03396000022A2315
:10396400FFFFFFFFFFFFFFFFEAF8EBF9E824FFFA90
:10397400E934FFFBE84960217800790078DC7905B7
:10398400C3E89401E99400A2D265D03340DA00E898
:1039940024FFF8E934FFF980E702013274F71228B2
:1039A4006C89087E0080010EEEC395085022EEF863
:1039B4007900EA28F582EB39F583E0FFEEF8790027
:1039C400EC28F582ED39F583E06F60DB7900800245
:1039D40079017F0102293E74F012286CE9FE7C0013
:1039E400750800750900750A00750B00803A909AF5
:1039F40025780C1226B47808790C1224B4ECF879E2
:103A040000EA28F582EB39F583E0F87900E824D060
:103A1400F50CE934FFF50DE50D3395E0F50EF50FE2
:103A24007808790C1225EF0CECC39E500FECF87952
:103A340000EA28F582EB39F583E070B2AA08AB09F5
:103A4400AC0AAD0B7F0802293E74F712286C74EFA0
:103A54001227FC909405AC18AD19741112270F7835
:103A6400F07919888289837430F088828983A3A8C5
:103A740082A983888289837478F088828983A3A841
:103A840082A983EA2406FA50010B7E06806CEA249C
:103A9400FFF582EB34FFF583AA82AB83E0C4540FB5
:103AA400FC7D00851882851983E5822CF582E583E7
:103AB4003DF583E0C0E088828983D0E0F088828984
:103AC40083A3A882A9838A828B83E0FC7D00EC54C3
:103AD4000FFCED5400FD851882851983E5822CF5D1
:103AE40082E5833DF583E0C0E088828983D0E0F0FD
:103AF40088828983A3A882A9831EEE709188828913
:103B0400837400F07AF07B1974111228127F010279
:103B1400293EC082C0837C377D197AB67980121918
:103B2400DBE9D083D08202013274F712286CE9FEFB
:103B3400EE6003023BC89019377404F0901938748E
:103B440000F09019397400F090193A7400F07C7404
:103B54007D957A3B7B19121C579019477400F07CB1
:103B6400777D997A487B19121C5790194F7400F08D
:103B74007C0D7D0079007A507B1912189790196A90
:103B84007400F090196B7400F07C787D0079007AF1
:103B94006D7B191218979019E57400F0A37400F066
:103BA4009019E77400F09019E87400F09019E97422
:103BB40000F09019EA74F4F0A37401F09019EC7415
:103BC40000F0802B74016E70267C0D7D0079007AE4
:103BD400507B1912189790196A7400F090196B743D
:103BE40000F07C787D0079007A6D7B191218977C3F
:103BF400007D0079007A097B041215C1E9121A9537
:103C04007F0102293E74F412286C74D31227FC90AD
:103C14001937E0F5087509007808122A7F7CFC7DC5
:103C240090740212285A121C577402122812AA18ED
:103C3400AB191218798A088B09AC08AD09AA18AB1C
:103C4400191218437A647B00121A7D901938E0F532
:103C5400087509007808122A7F7C7D7D9174021210
:103C6400285A121C577402122812AA18AB191218D7
:103C7400798A088B09AC08AD09AA18AB1912184344
:103C84007A647B00121A7D901939E0F508750900F1
:103C94007808122A7F7C177D91740212285A121C0C
:103CA400577402122812AA18AB191218798A088BB1
:103CB40009AC08AD09AA18AB191218437A647B0041
:103CC400121A7D90193AE0F5087509007808122A4D
:103CD4007F7CDF7D92740212285A121C57740212E0
:103CE4002812AA18AB191218798A088B09AC08ADE6
:103CF40009AA18AB191218437A647B00121A7D754D
:103D0400083B7509197808122A7F7C837D92740216
:103D140012285A121C577402122812AA18AB19122C
:103D240018798A088B09AC08AD09AA18AB191218BE
:103D3400437A647B00121A7D901947E0F5087509EF
:103D4400007808122A7F7C9A7D92740212285A12F3
:103D54001C577402122812AA18AB191218798A086F
:103D64008B09AC08AD09AA18AB191218437A647B05
:103D740000121A7D7508487509197808122A7F7C83
:103D8400C87D92740212285A121C57740212281207
:103D9400AA18AB191218798A088B09AC08AD09AABC
:103DA40018AB191218437A647B00121A7D90194FCC
:103DB400E0F5087509007808122A7F7C6C7D9274FE
:103DC4000212285A121C577402122812AA18AB198C
:103DD4001218798A088B09AC08AD09AA18AB191214
:103DE40018437A647B00121A7D7508507509197896
:103DF40008122A7F7CC67D90740212285A121C571E
:103E04007402122812AA18AB191218798A088B099D
:103E1400AC08AD09AA18AB191218437A647B0012D6
:103E24001A7D750800750900023EBE9095EE742057
:103E3400122862740D12270F750A0C750B00780A8C
:103E4400122A7FA808A909E875F00CA4C8AAF0757D
:103E5400F000A42AFA75F00CE9A42AF9746D28FC80
:103E6400741939FD742212285A12187F7402122808
:103E7400127420122852880A890B780A122A7F7831
:103E840008122A7F7C1D7D97740412285A121C572D
:103E94007404122812AA18AB191218798A0A8B0B07
:103EA400AC0AAD0BAA18AB191218437AC87B0012DE
:103EB4001A7D0508E5087002050990196AE0F87989
:103EC40000C3E50898E50999A2D265D033500302EE
:103ED4003E2F9019E5122A967C807D907402122858
:103EE4005A121C577402122812AA18AB1912187904
:103EF4008A088B09AC08AD09AA18AB191218437AC1
:103F0400647B00121A7D9019E7E0F5083395E0F51B
:103F1400097808122A7F7C557D92740212285A125D
:103F24001C577402122812AA18AB191218798A089D
:103F34008B09AC08AD09AA18AB191218437A647B33
:103F440000121A7D9019E9E0F50875090078081245
:103F54002A7F7C317D91740212285A121C577402F4
:103F6400122812AA18AB191218798A088B09AC08FE
:103F7400AD09AA18AB191218437A647B00121A7D92
:103F84009019EA122A967C567D90740212285A12CD
:103F94001C577402122812AA18AB191218798A082D
:103FA4008B09AC08AD09AA18AB191218437A647BC3
:103FB40000121A7D9019ECE0F508750900780812D2
:103FC4002A7F7CE17D90740212285A121C577402D5
:103FD400122812AA18AB191218798A088B09AC088E
:103FE400AD09AA18AB191218437A647B00121A7D22
:103FF400742D1228127F0402293EC082C0839019B6
:1040040047E0F9D083D082020132C082C083121A01
:10401400A7E964017010901A6DE0640270047901DC
:1040240080127900800E901A78E064067004790199
:1040340080027900D083D08202013274F412286C99
:1040440074F41227FCEAFEEBFF121AA7E96401607C
:10405400030241087508008002050890196AE0F817
:10406400E508C3985033AA18AB19A908121AB9E97C
:104074006027750A0C750B00780A122A7FEEFCEF94
:10408400FD740212285A1218917402122812E9605F
:10409400C8E50890196CF0806B75080C75090078F8
:1040A40008122A7FEEFCEFFD90196BE0F87900E826
:1040B40075F00CA4C8AAF075F000A42AFA75F00CE7
:1040C400E9A42AF9746D28FA741939FB12187F745B
:1040D4000212281290196BE090196CF090196BE0A1
:1040E4002401F090196BE075F00A84E5F090196BE7
:1040F400F090196AE0C3940A500790196AE0240109
:10410400F0121A95740C1228127F0402293E74F5D9
:1041140012286C890AEAFEEBFF121AA7E9640170FF
:104124004790196AE0F8E50AC398503C75080C7585
:1041340009007808122A7FA80A7900E875F00CA40F
:10414400C8AAF075F000A42AFA75F00CE9A42AF9BB
:10415400746D28FC741939FDEEFAEFFB12187F74A4
:10416400021228127901800279007F0302293E029B
:104174000132C082C083901939E0FD901938E0FC07
:10418400901937E0F97A1F7B1B121837121AA7E926
:104194006401700D7C157D007AF67B9212184380C1
:1041A4000B7C187D007A647B91121843D083D082F3
:1041B40002013274F712286CE9FEEEFA7901121743
:1041C400A7E943FD60EEF8EEA2E092867F010229A2
:1041D4003E74EC12286C7E31750C00750D00750E62
:1041E40040750F40121C158A088B09AA08AB09EE0A
:1041F400F87900EAC398F508EB99F509E5093395D0
:10420400E0F50AF50B7808121CE9909A2978101247
:1042140026B4780C7910121F0F7808790C1222CE6C
:104224007808122A7B909A291226D2121C4B740405
:104234001228127F0C02293E74F512286C7800793A
:10424400007C007D007E007F007508E875090390FE
:104254001A09E0640560030243DD901A0AE0F8A33A
:10426400E0F9E875F002A4C885F00A75F000A42509
:104274000AF50A75F002E9A4250AF974FF28F58203
:10428400741939F583EAF0A3EBF0901A0AE02401DB
:10429400F0A3E03400F0901A0AE0F8A3E0F97A05FC
:1042A4007B00122769901A0AEAF0A3EBF0780079F0
:1042B400000243AFE8FAE9FBEA75F002A4CA85F00C
:1042C4000A75F000A4250AF50A75F002EBA4250A84
:1042D400FB74FF2AF58274193BF583E0FAA3E0FB33
:1042E400C3EE9AEF9BA2D265D0335028E8FAE9FBDB
:1042F400EA75F002A4CAAEF075F000A42EFE75F0C3
:1043040002EBA42EFB74FF2AF58274193BF583E0BB
:10431400FEA3E0FFE8FAE9FBEA75F002A4CA85F01F
:104324000A75F000A4250AF50A75F002EBA4250A23
:10433400FB74FF2AF58274193BF583C3E09508A347
:10434400E09509A2D265D033502EE8FAE9FBEA756C
:10435400F002A4CA85F00875F000A42508F50875D4
:10436400F002EBA42508FB74FF2AF58274193BF5CF
:1043740083E0F508A3E0F509E8FAE9FBEA75F00241
:10438400A4CA85F00A75F000A4250AF50A75F0029E
:10439400EBA4250AFB74FF2AF58274193BF583E02C
:1043A4002CFCA3E03DFD08E8700109C3E89405E98D
:1043B4009400A2D265D03350030242B8ECC39EF8F5
:1043C400ED9FF9E8C39508F8E99509F97A037B00AC
:1043D400122769E8FAE9FB8036901A09E0F87900B7
:1043E400E875F002A4C8ACF075F000A42CFC75F0DC
:1043F40002E9A42CF974FF28F582741939F583EACB
:10440400F0A3EBF0901A09E02401F07A007B007F1E
:104414000302293E74F012286C74E01227FCE9FEB2
:10442400EE9019E7F0121AADE970030244CEEEFAE9
:104434003395E0FB121AD18A088B098C0A8D0B90F4
:104444009A2D780C1226B47808790C121F0F78086C
:10445400121D61AA08AB09121AD78A088B097808B9
:10446400122A7FEEF404F5087509007808122A7FF1
:104474007CC17D93740412285A121C5774041228A8
:10448400129019EEE0603AAA18AB19121C698A0856
:104494008B09AC08AD09AA18AB19121843AA18ABBA
:1044A40019121C698A088B09AC08AD09AA18AB1942
:1044B400120529E97A107B00901A38E0F91218D90C
:1044C400E97905AA18AB1912179574201228127FDE
:1044D4000802293E74F612286C74E81227FC9091A5
:1044E400F6AC18AD19741812270F75084875091918
:1044F4007808122A7F7C3C7D95740212285A121C7B
:10450400577402122812AA18AB191218798A088B48
:1045140009AC08AD09AA18AB19121843741812286B
:10452400127F0202293E7A3B7B19020132C082C00B
:104534008390196AE06004790180027901D083D004
:1045440082020132C082C083121AADE960030245BF
:10455400E4121AA7E964017053121AEFE9701C906F
:104564001A0CE070077901121ACB8029901A0CE01A
:10457400640170217900121ACB801A901A0CE07031
:10458400077901121ACB800D901A0CE064097005AA
:104594007900121ACB901A0CE02401F0901A0CE066
:1045A40075F00A84E5F0901A0CF0802F901A0CE054
:1045B40070077900121ACB800D901A0CE0640A700F
:1045C400057901121ACB901A0CE02401F0901A0C10
:1045D400E075F01484E5F0901A0CF0121B3D803263
:1045E400901A0CE070077901121ACB800D901A0C06
:1045F400E0640170057900121ACB901A0CE02401D2
:10460400F0901A0CE075F03284E5F0901A0CF01278
:104614001B2BD083D082020132C082C08390194FF9
:10462400E0F9D083D08202013274F012286C79064A
:104634007A487B19121A898A0C8B0D8C0E8D0F8582
:104644000C08850D09850E0A850F0B909A7D780C50
:104654001226B47808790C122534AA0CAB0DAC0ED2
:10466400AD0F7F0802293EC082C08390193AE064EE
:10467400027004790180027900D083D08202013271
:10468400C082C08390193AE07004790180027900F5
:10469400D083D08202013274F612286C9019EFE0B4
:1046A40064037004790080769019EFE06401600877
:1046B4009019EFE06404704190196AE0605E750837
:1046C4000C7509007808122A7F90196CE0F87900BB
:1046D400E875F00CA4C8ACF075F000A42CFC75F0DF
:1046E4000CE9A42CF9746D28FC741939FD12187F97
:1046F4007402122812790180259019EFE064027087
:104704001B75080C7509007808122A7F7C5D7D19D9
:1047140012187F74021228127901800279007F0234
:1047240002293E74F612286C9019EAE0F508A3E019
:10473400F509AA08AB09E4FCFD7F0202293E74EBEB
:1047440012286C74F41227FC8A14750B1474055522
:104754001470030249657E007F009019ED7400F027
:10476400901CB3E06401704212184F8A088B09AEA2
:1047740008AF09EE4F6030C3EE9415EF9400400487
:104784007E147F00EEFAEFFB1219578A0A8B0B8511
:104794000A08850B09EEFCEFFDAA08AB0912183DC7
:1047A400AA08AB0912195D02496512184F8A088BD1
:1047B40009AE08AF09EE4F70197C007D007E007FC2
:1047C40000901A11ECF0A3EDF0A3EEF0A3EFF002C9
:1047D4004965901A111226EAE8494A4B7029121ABF
:1047E40029EAF8EBF9ECFAEDFB901A0D1226F6EE35
:1047F400FCEFFDE4FEFF901A11ECF0A3EDF0A3EE44
:10480400F0A3EFF0024965121AADE97005750B16B5
:104814008003750B14121A298A0C8B0D8C0E8D0FC4
:10482400A80B7900C3EE98EF995029909A91C08211
:10483400C083850C10850D11850E12850F13901AF7
:104844000D781012263CD083D0827810121CCA40F6
:1048540003024965750A00AA0B7B001219578A10D6
:104864008B11851008851109E5084509700E7C0433
:104874007D007AD47B99121843024965A80B79000C
:10488400C3E89EE99F5005850B0A8003EEF50A12E2
:104894001AADE9707DAC0A7D00AA08AB0912183D77
:1048A400E50AC394034044A80A7900E50828F8E51A
:1048B4000939F9E824FEF582E934FFF583E0640D53
:1048C4007029A80A7900E50828F8E50939F9E824E7
:1048D400FFF582E934FFF583E0640A700EAC0A7DCB
:1048E40000AA08AB09121B25E98002740070477CFA
:1048F400227D99AA18AB19121C57AA18AB191218C1
:10490400798A108B11AC10AD11AA18AB1912184387
:104914008024AC0A7D00AA08AB0912183DAC0A7DBC
:1049240000AA08AB09120529E97A107B00901A380D
:10493400E0F91218D9E9901A0D780C1226C3A80AC6
:104944007900EEC398FCEF99FDE4FEFF901A11EC98
:10495400F0A3EDF0A3EEF0A3EFF0AA08AB0912194F
:104964005D740C1228127F0D02293E74E912286C22
:1049740074B91227FCEAFEEBFF8C088D097514014B
:104984007515007404650870047400650970347941
:10499400047CCF7D99EEFAEFFB121A83E960247C44
:1049A400D97D99AA18AB19121C57AA18AB19121859
:1049B400798A088B09AC08AD09AA18AB19121843F7
:1049C40002597974086508700474006509701679D1
:1049D400087C207D98EEFAEFFB121A83E960061238
:1049E4001AA1025979740A65087004740065096093
:1049F40003024ABC79077C0A7D99EEFAEFFB121A8E
:104A040083E97003024ABC8E828F83A3A3A3A3A36A
:104A1400A3A3E024D0604B146048146045146042A2
:104A240014603F24F56003024AB6901937E0F50894
:104A34007509007808122A7F7CE17D967402122899
:104A44005A121C577402122812AA18AB1912187998
:104A54008A088B09AC08AD09AA18AB1912184302CD
:104A640059798E828F83A3A3A3A3A3A3A3E024D005
:104A7400901937F0121A95901937E0F50875090066
:104A84007808122A7F7CED7D96740212285A121C33
:104A9400577402122812AA18AB191218798A088BB3
:104AA40009AC08AD09AA18AB19121843751501020F
:104AB4005979751400025979740A650870047400F0
:104AC4006509701679077C027D99EEFAEFFB121ADC
:104AD40083E96006751400025979740A6508700444
:104AE40074006509701679077CFA7D98EEFAEFFB7D
:104AF400121A83E96006751400025979740A65086C
:104B04007004740065096003024BCD79077CF27D63
:104B140098EEFAEFFB121A83E97003024BCD8E82F2
:104B24008F83A3A3A3A3A3A3A3E024D0604514600D
:104B34004214603F24F36003024BC790193AE0F536
:104B4400087509007808122A7F7CE17D96740212A8
:104B5400285A121C577402122812AA18AB191218D8
:104B6400798A088B09AC08AD09AA18AB1912184345
:104B74000259798E828F83A3A3A3A3A3A3A3E024C2
:104B8400D090193AF0121A9590193AE0F50875097F
:104B9400007808122A7F7CED7D96740212285A123E
:104BA4001C577402122812AA18AB191218798A0811
:104BB4008B09AC08AD09AA18AB1912184375150175
:104BC400025979751400025979E508C3940AF8E585
:104BD400099400F9C3E8940BE994004003024CA83B
:104BE40079077CE27D98EEFAEFFB121A83E97003F1
:104BF400024CA88E828F83A3A3A3A3A3A3A3E064E0
:104C04003F703575083B7509197808122A7F7CF9BD
:104C14007D96740212285A121C577402122812AA82
:104C240018AB191218798A088B09AC08AD09AA18AF
:104C3400AB191218430259797C0C7D0079007A3B38
:104C44007B19121897E50824F9F508E50934FFF5EE
:104C5400097808122A7FEE2407FCE43FFD7A3B7BA7
:104C64001912187F7402122812121A9575083B75CE
:104C740009197808122A7F7C057D97740212285A34
:104C8400121C577402122812AA18AB191218798A26
:104C9400088B09AC08AD09AA18AB1912184375158D
:104CA40001025979740A6508700474006509703C3E
:104CB40079087C8C7D98EEFAEFFB121A83E9602C5C
:104CC4007CA67D97AA18AB19121C57AA18AB191207
:104CD40018798A088B09AC08AD09AA18AB191218FF
:104CE400437900121A9B751501025979740A6508F3
:104CF400700474006509701679087C837D98EEFA57
:104D0400EFFB121A83E96006751501025979740ADA
:104D140065087004740065096003024DEA79077C34
:104D2400D37D98EEFAEFFB121A83E97003024DEA81
:104D34008E828F83A3A3A3A3A3A3A3E024D0604262
:104D440014603F24F26003024DE4901947E0F50833
:104D54007509007808122A7F7CE17D967402122876
:104D64005A121C577402122812AA18AB1912187975
:104D74008A088B09AC08AD09AA18AB1912184302AA
:104D840059798E828F83A3A3A3A3A3A3A3E024D0E2
:104D9400F9E970089019477400F080069019477477
:104DA40001F0121A95901947E0F508750900780882
:104DB400122A7F7CED7D96740212285A121C5774B5
:104DC40002122812AA18AB191218798A088B09AC96
:104DD40008AD09AA18AB19121843751501025979BF
:104DE400751400025979740A650870047400650921
:104DF400701079087C957D98EEFAEFFB121A83E91E
:104E04007022740F65087004740065096003024E13
:104E1400C979077CCB7D98EEFAEFFB121A83E9700F
:104E240003024EC98E828F83A3A3A3A3A3A3A3E0EB
:104E3400643F70357508487509197808122A7F7C13
:104E4400977D96740212285A121C57740212281263
:104E5400AA18AB191218798A088B09AC08AD09AAEB
:104E640018AB1912184302597975080675090078A8
:104E740008122A7FEE2407FCE43FFD7A487B1912CE
:104E8400187F740212281290194E7400F0121A95A9
:104E94007508487509197808122A7F7C057D97746E
:104EA4000212285A121C577402122812AA18AB199B
:104EB4001218798A088B09AC08AD09AA18AB191223
:104EC4001843025979740A6508700474006509600E
:104ED40003024F9379077C4A7D99EEFAEFFB121A8D
:104EE40083E97003024F938E828F83A3A3A3A3A3AA
:104EF400A3A3E024D0604214603F24F26003024F75
:104F04008D90194FE0F5087509007808122A7F7C06
:104F1400E17D96740212285A121C57740212281248
:104F2400AA18AB191218798A088B09AC08AD09AA1A
:104F340018AB191218430259798E828F83A3A3A345
:104F4400A3A3A3A3E024D090194FF0121A959019AB
:104F54004FE0F5087509007808122A7F7CED7D96EC
:104F6400740212285A121C577402122812AA18AB7F
:104F7400191218798A088B09AC08AD09AA18AB195B
:104F8400121843751501025979751400025979C331
:104F9400E508940AE5099400404579087CB97D98B0
:104FA400EEFAEFFB121A83E960357508507509199A
:104FB4007808122A7F7CE17D95740212285A121C0B
:104FC400577402122812AA18AB191218798A088B7E
:104FD40009AC08AD09AA18AB19121843025979741F
:104FE4000A6508700474006509600302507E79083C
:104FF4007C9E7D98EEFAEFFB121A83E9607C121A0C
:10500400A7E96401706E909A717443122862740463
:1050140012270F7E009019EF7401F090196AE07066
:10502400047E0180057E00121B49EEF83395E0F9F9
:105034007443122848E58228F582E58339F583E034
:10504400F5087509007808122A7F7C297D97740277
:1050540012285A121C577402122812AA18AB1912D9
:1050640018798A088B09AC08AD09AA18AB1912186B
:10507400430259797514000259797414650870044F
:1050840074006509600302512D79067C7E7D99EEDA
:10509400FAEFFB121A83E9700302512D909AD1742E
:1050A40040122862740312270F750800121AA7E928
:1050B4006401706F9019EF7402F0750A0C750B009F
:1050C400780A122A7FEE2406FCE43FFD7A5D7B1900
:1050D40012187F7402122812A8087900744012284A
:1050E40048E58228F582E58339F583E0F5087509FA
:1050F400007808122A7F7C297D97740212285A129C
:105104001C577402122812AA18AB191218798A08AB
:105114008B09AC08AD09AA18AB19121843121B4924
:10512400025979751400025979740A650870047477
:10513400006509705579087C4D7D98EEFAEFFB12F5
:105144001A83E96045121AA7E964017037790112DC
:105154001A9B7C007D0079007A097B041215C1E951
:105164007C857D97AA18AB19121C57AA18AB191283
:1051740018798A088B09AC08AD09AA18AB1912185A
:1051840043025979751400025979740A6508700448
:1051940074006509600302525779087C3B7D98EEE0
:1051A400FAEFFB121A83E97003025257121AA7E9A5
:1051B40064016003025257121AA7E96401600302F2
:1051C400525190196AE070247CD37D94AA18AB19CB
:1051D400121C57AA18AB191218798A088B09AC0843
:1051E400AD09AA18AB191218430259797E00901917
:1051F4006AE0F8EEC3984003025979EEF87900E8C2
:1052040075F00CA4C8AAF075F000A42AFA75F00C85
:10521400E9A42AF9746D28F508741939F509780890
:10522400122A7F7C3C7D96740212285A121C5774F1
:1052340002122812AA18AB191218798A088B09AC21
:1052440008AD09AA18AB191218430E80A1751400F1
:10525400025979740A650870047400650970457907
:10526400087C327D98EEFAEFFB121A83E9603575FB
:1052740008E87509997808122A7F7CE37D997402FD
:1052840012285A121C577402122812AA18AB1912A7
:1052940018798A088B09AC08AD09AA18AB19121839
:1052A40043025979740A650870047400650960033F
:1052B40002535579077C327D99EEFAEFFB121A837B
:1052C400E97003025355121AA7E96401707D8E82B6
:1052D4008F83A3A3A3A3A3A3A3E0643F7030901977
:1052E400E5122A967C627D99740212285A121C5780
:1052F4007402122812AA18AB191218798A088B0999
:10530400AC08AD09AA18AB191218430259799019BF
:10531400E57410F0A37427F0121A959019E5122A77
:10532400967C4A7D95740212285A121C57740212F4
:105334002812AA18AB191218798A088B09AC08AD7F
:1053440009AA18AB191218430259797514000259A5
:1053540079740A6508700474006509704A790A7CD6
:10536400C27D98EEFAEFFB121A83E9603A9019E7CE
:10537400E0F5083395E0F5097808122A7F7C567D1C
:1053840096740212285A121C577402122812AA1870
:10539400AB191218798A088B09AC08AD09AA18ABA5
:1053A40019121843025979740A6508700474006567
:1053B40009600302548279077C5A7D99EEFAEFFB67
:1053C400121A83E970030254828E828F83A3A3A3EB
:1053D400A3A3A3A3E0643F70389019E9E0F508752E
:1053E40009007808122A7F7C8A7D96740212285A52
:1053F400121C577402122812AA18AB191218798AAF
:10540400088B09AC08AD09AA18AB19121843025944
:10541400798E828F83A3A3A3A3A3A3A3E024D09014
:1054240019E9F09019E9E0C3940440069019E9746D
:1054340000F0121A959019E9E0F50875090078084A
:10544400122A7F7CED7D96740212285A121C57741E
:1054540002122812AA18AB191218798A088B09ACFF
:1054640008AD09AA18AB191218439019E9E0F874A9
:1054740003C398F9120BC5E9751501025979740A29
:105484006508700474006509600F740F6508700482
:1054940074006509600302556379077C2A7D99EEDF
:1054A400FAEFFB121A83E97003025563121AA7E993
:1054B400600302555D8E828F83A3A3A3A3A3A3A33A
:1054C400E0643F70309019EA122A967C007D95744E
:1054D4000212285A121C577402122812AA18AB1965
:1054E4001218798A088B09AC08AD09AA18AB1912ED
:1054F40018430259797906EE2407FAE43FFB121A9D
:10550400898A088B098C0A8D0B9019EAE508F0A3A7
:10551400E509F09019EAC3E09410A3E0942740034E
:10552400025979121A959019EA122A967C4A7D95A5
:10553400740212285A121C577402122812AA18ABA9
:10554400191218798A088B09AC08AD09AA18AB1985
:1055540012184375150102597975140002597974AA
:105564000A6508700474006509600302562E790701
:105574007CEA7D98EEFAEFFB121A83E97003025677
:105584002E8E828F83A3A3A3A3A3A3A3E0643F705F
:10559400389019ECE0F5087509007808122A7F7C28
:1055A400E17D96740212285A121C577402122812B2
:1055B400AA18AB191218798A088B09AC08AD09AA84
:1055C40018AB191218430259797901EE2407FAE449
:1055D4003FFB121A898A088B098C0A8D0BE5089007
:1055E40019ECF09019ECE0C394025038121A95901B
:1055F40019ECE0F5087509007808122A7F7CED7D26
:1056040096740212285A121C577402122812AA18ED
:10561400AB191218798A088B09AC08AD09AA18AB22
:1056240019121843751501025979740A6508700432
:1056340074006509704B790A7C7A7D97EEFAEFFB6A
:10564400121A83E9603B121AA7E96401702D9019BC
:10565400EF7403F07C597D97AA18AB19121C57AA52
:1056640018AB191218798A088B09AC08AD09AA1865
:10567400AB19121843121B490259797514000259C7
:1056840079740A6508700474006509703A79077CB6
:10569400127D99EEFAEFFB121A83E9602A121AA717
:1056A400E96401701C9019EF7404F08E828F83A357
:1056B400A3A3A3A3A3A3E024D0F9121B7FE9025957
:1056C40079751400025979740965087004740065C9
:1056D40009600302597679067C857D99EEFAEFFB21
:1056E400121A83E970030259768E828F83A3A3A3CF
:1056F400A3A3A3E0F516E51624CC601814601914CE
:10570400601A14601B1470030257B114700302581A
:10571400850259717E04800A7E0580067E06800219
:105724007E0779801216ED7A04EEF91216E78A08DC
:105734008B09AC08AD098C088D09E4F50AF50B78E2
:1057440008121D04909A35780C1226B47808790C46
:10575400121F0F909A39780C1226B47808790C121B
:1057640022CE7808122A7B8C088D097808122A7FA9
:10577400A8167900E824D0F508E934FFF50978087B
:10578400122A7F7C967D91740812285A121C577431
:1057940008122812AA18AB191218798A088B09ACB6
:1057A40008AD09AA18AB191218430259797E117F62
:1057B4000175089975090179001216ED7A02790FBD
:1057C4001216E78A0A8B0BAC0AAD0BC3EC9508EDF5
:1057D4009509400478648059C3EE9CEF9D40047899
:1057E40000804EE508C39EF8E5099FF9E82401FA14
:1057F400E439FB8A088B09740278081227DAAA08AC
:10580400AB09ECC39EF8ED9FF9E875F019A4C8AE96
:10581400F075F000A42EFE75F019E9A42EF9E82A1B
:10582400F8E93BF9E824FFF8E934FFF9122771E8B5
:10583400F888087509007808122A7F8C088D097881
:1058440008122A7FA8167900E824D0F508E934FF65
:10585400F5097808122A7F7C3E7D92740612285A34
:10586400121C577406122812AA18AB191218798A36
:10587400088B09AC08AD09AA18AB191218430259D0
:1058840079750C00750D00750E00750F0090624B54
:105894007401F09061A97401F07E008057790012C0
:1058A40016ED7A03790E1216E78A088B09AC08AD57
:1058B400098C088D09E4F50AF50B7808121D04908B
:1058C4009A3D78101226B478087910121F0F909A16
:1058D4004178101226B4780879101220B4909A45B1
:1058E40078101226B4780879101222CE780C790830
:1058F4001220B40EEEC3944040A3850C08850D0914
:10590400850E0A850F0B909A49780C1226B47808F4
:10591400790C1222CE90624BE0C2E0F09061A9E0D3
:10592400C2E0F07808122A7B8C088D097808122AC4
:105934007FA8167900E824D0F508E934FFF5097842
:1059440008122A7F7CB17D92740812285A121C57BF
:105954007408122812AA18AB191218798A088B092C
:10596400AC08AD09AA18AB191218438008751400C5
:105974008003751400E51560117AC87B00121A7D46
:10598400C2AF75C9AB75C95B80FEA91474471228F0
:10599400127F0F02293E02013274F612286C74C879
:1059A4001227FCE9FE7F01EEA2E54003025A3D9076
:1059B4001CB4E0C2E5F07C707D997A157B1A121C48
:1059C400577CD57D967A217B1A121C57901CB3E024
:1059D4007004740180027400901CB3F0901CB3E056
:1059E4006007790112196980057900121969901C00
:1059F400B3E0F5087509007808122A7F7C027D98C7
:105A0400740E12285A121C57740212281279067442
:105A14000C12285A121795740C12285A121C698AEF
:105A2400088B09AC08AD09740C12285A1218497A6B
:105A3400017B00121A7D025C4DEEA2E05042901CE4
:105A4400B4E0C2E0F07C8C7D997A157B1A121C5765
:105A54007C297D987A217B1A121C57121AA7E964B3
:105A6400016003025C4D901A6DE064027003025CF5
:105A74004D7C0A7D007A7A7B97121B25E9025C4DE6
:105A8400EEA2E45031901CB4E0C2E4F07C567D9860
:105A94007A157B1A121C577CA67D947A217B1A12E4
:105AA4001C579019EEE07004780180027800E890A9
:105AB40019EEF0025C4DEEA2E3503B901CB4E0C240
:105AC400E3F07C5F7D987A157B1A121C577C5F7D0E
:105AD400987A217B1A121C57121AA7E964016003F1
:105AE400025C4D901A6DE064027003025C4D790112
:105AF400121B6D025C4DEEA2E15020901CB4E0C27A
:105B0400E1F07CC67D977A157B1A121C577C677D61
:105B1400937A217B1A121C57025C4DEEA2E24003D9
