:020000040000FA
:0600000002011A0231B9F1
:03002B0002393E59
:030033000239137C
:03003B0002396621
:030043000238B4CC
:0300530002322F47
:03006B000238DF79
:1000830002300FE5C754F84401F5C7790122000097
:100093000080FB120086B90003020104E479217891
:1000A30008B800028004F709D8FCE479297802B87B
:1000B30000028004F709D8FCE4900281783B7919A7
:1000C3008002F0A3D8FCD9FA781A90014A7A01BACF
:1000D30000028007E493A3F608DAF97ABB7B1A904F
:1000E300014B78DF79048015E493A3AD82AE838A54
:1000F300828B83F0A3AA82AB838D828E83D8E9D9C6
:10010300E775824F7583DB740512012C7582917537
:100113008300740012012C75D00075813F7518811E
:10012300751902759F00020096C09FF59FE473D076
:100133009F22D083D082C09FE493C0E0740193C018
:10014300E0740293F59F2201CD06D9060F07090734
:10015300FF0000B4000028002800283075A000A08C
:1001630000A000A00000080008E001F0001000104B
:10017300001000100010001000500050005000103C
:10018300001000D0070000000000000F0001000570
:1001930000307507001000010081FF00000000FF20
:1001A300FFFF4D086B0853088F08FF020202080285
:1001B3005000A0000000E80302EE8C010000CF8C89
:1001C30002F48C0100001E1B02FC8C0100000A04D7
:1001D30002F48C0100001F1B02FE8C0100002004AE
:1001E30002F48C010000201B02008D010000220498
:1001F30002F48C010000211B02068D080000230479
:1002030002F48C010000221B02088D010000231B55
:10021300FFFF0100FF2002EE8C010000D28C02F4EC
:100223008C010000881B020E8D000000000002F804
:100233008C03000053041700871087108710871062
:1002430087108710871087108710871087108710F3
:100253008710B512D312AF12F9130B14F313020262
:1002630002020202020202010D000000100102EE6E
:100273008C010000DB8C02F48C010000D11B020412
:100283008D010000A20E02F48C010000D21B0202B9
:100293008D010000578802F48C010000D31B02F08B
:1002A3008C010000688702F48C010000D41B02E873
:1002B3008C0100008D8502F48C010000D51B02DE49
:1002C3008C010000218502F48C010000D61B02E0A2
:1002D3008C0100009F8502F48C010000D71B02E211
:1002E3008C010000458502F48C010000D81B02E458
:1002F3008C010000A08702F48C010000D91B02E6E8
:100303008C010000DA1B01E803057710020A0A0FCB
:1003130016FFFFFF00013075030201060000000015
:1003230000000000000000000000000000000000CA
:100333000000000000000000FFFF0600800CE8033F
:10034300013FFEFF01010201060302F0FF02010665
:100353001AFF4C000215E2C56DB5DFFB48D2B06051
:10036300D0F5A71096E000010002CD491B4F1B5B9F
:100373001B611B551B0A4368617261637465726973
:100383007374696320310002436861726163746549
:100393007269737469632032000843686172616330
:1003A3007465726973746963203300104368617202
:1003B300616374657269737469632034000243680E
:1003C30061726163746572697374696320350016C1
:1003D300436861726163746572697374696320361B
:1003E3000002EE8C010000CC8C02F48C010000E8CA
:1003F3001C02128D030000801A02F68C010000E932
:100403001C02F48C010000FA1C02148D010000810F
:100413001A02F68C010000FB1C02F48C0100000C94
:100423001D02168D020000821A02F68C0100000DD7
:100433001D02F48C0100001E1D02188D00000083B4
:100443001A02F88C030000841A02F68C0100001FC4
:100453001D02F48C010000301D021A8D0400008679
:100463001A02F68C010000311D02F48C01000042D7
:100473001D021C8D0300008B1A02F88C030000A0E0
:100483001A02F68C010000431D0100B0423BAAB8DA
:100493003F0000003F8C906339AA0CA33A00941EDE
:1004A3003C8042633DCFFE753E1572313F000080B4
:1004B3003FF304353F8096184B30313233343536B1
:1004C30037383941424344454600286E756C6C20E9
:1004D300706F696E7465722900303132333435368A
:1004E300373839616263646566003F3F3F0000004F
:1004F300807FF9021550B743BA5100E7DB2E0000A5
:10050300A040000080BF2292D43EDD9B2A3F04001E
:10051300004000000000FFFF7F7FFFFF7FFF01001F
:1005230080341872313F120135ACBF051201359387
:10053300C0051201358DC1051201355FBD051201DC
:100543003572BD0512013593BD05120135FEBD059A
:100553001201353FBE0512013560BE05120135A1FA
:10056300BE0512013539BF0512013581BF051201E0
:10057300352E7C00120135417C00120135727C005E
:10058300120135AC7C00120135057D001201354C9A
:100593007D00120135947D00120135C37D001201E7
:1005A30035F27D00120135297E00120135707E007F
:1005B300120135897E00120135DE7E00120135F706
:1005C3007E00120135457F001201357F7F00120145
:1005D3003579E6031201357CE703120135A9E703F8
:1005E300120135FAE7031201351DE8031201352F15
:1005F300E80312013532E80312013570E8031201F2
:1006030035E4E80312013550E90312013518EA0312
:1006130012013534EA031201356BEA03120135A5E1
:10062300EA031201353CEB031201358EEB03120191
:1006330035BFEB03120135F0EB03120135FDEB037C
:1006430012013567EC031201356AEC0312013577A9
:10065300EC031201357AEC03120135D1EC031201DC
:1006630035D4EC031201350DED0312013510ED0302
:1006730012013544ED0312013547ED031201359B99
:10068300ED03120135E4ED03120135F4ED0312011C
:100693003527EE0312013534EE0312013537EE032D
:1006A3001201359FEE03120135A1EF031201354507
:1006B300F003120135AEF003120135ECF003120121
:1006C30035F6A604120135F3A70412013589A804EF
:1006D300120135D4A80412013538A904120135C218
:1006E300A9041201357BAA041201359DAD04120140
:1006F300351AAF041201353DAF0412013593A0053D
:1007030012013538A20512013558A20512013579B7
:10071300A305120135CCA30512013504FC04120113
:10072300352CFC0412013559FC0412013591FC04EB
:10073300120135EFFC041201353BFD04120135A211
:10074300FD04120135E2FD041201351FFE041201FE
:10075300354DFE04120135F7FE0412013501FF0485
:100763001201350EFF0412013541FF041201354D0C
:10077300FF0412013565FF041201356FFF041201F6
:1007830035A5D605120135B3D605120135CBD605ED
:10079300120135E3D605120135FAD605120135CE1D
:1007A300EA0212013578EB021201358BEC021201D9
:1007B3003507ED0212013525EE0212013561EE0215
:1007C300120135FCEE02120135E0EF02120135A3EE
:1007D300F0021201351BF102120135A9F2021201D6
:1007E300351AF302120135D4F302120135C6F402AD
:1007F30012013506F502120135BAF502120135EC84
:10080300F502120135E2F70212013529F80212014D
:100813003547F802120135ADF8021201357CF902B1
:1008230012013540FA021201355FFC0212013569EB
:10083300FC0212013536C80412013520C904120125
:1008430035CBC9041201351CCA04120135CCCA04C4
:100853001201353DCB0412013522CC041201355669
:10086300CC041201354FCD041201358CCD04120195
:100873003568CE04120135A7CE04120135C3CE0468
:10088300120135E3C50512013567C605120135921C
:10089300C605120135ACC705120135D9A4051201ED
:1008A30035EFA4051201350DA5051201351EA60568
:1008B30012013528A60512013553A7051201354A41
:1008C300A805120135B7A805120135C1A805120103
:1008D3003572D504120135A8D60412013522D70486
:1008E30012013552D70412013565D704120135BC04
:1008F300D704120135D1D904120135029D02120128
:1009030035B39D02120135CF9D02120135989E0227
:10091300120135B29E02120135BD9E0212013593BA
:100923009F0212013570A00212013500A1021201CB
:1009330035B7A102120135C5A402120135B4A602CE
:1009430012013566A7021201352FA8021201357470
:10095300AB021201351EAC0212013547AD02120182
:100963003503AF02120135A3AF02120135F1AF0215
:1009730012013530B00212013503B10212013537CD
:10098300B102120135C4B10212013513C6021201BC
:10099300359FC60212013503C8021201350FC80282
:1009A3001201354AC802120135B9C802120135C213
:1009B300C902120135CBCA0212013592CB021201D0
:1009C30035EFCC021201350DCD021201352ACD02CD
:1009D300120135D7CD0212013554CE021201357CF6
:1009E300CE0212013546D1021201354BD10212015A
:1009F3003564D302120135B2D30212013522D40277
:100A030012013560D4021201353CD502120135FCC6
:100A1300D50212013548D6021201354BD602120116
:100A2300358FD602120135D7D60212013516D702F9
:100A330012013538D7021201356CD702120135CFB6
:100A4300D702120135008005120135098005120114
:100A5300351780051201356A800512013589800535
:100A6300120135CE8005120135128205120135AD12
:100A73008205120135F182051201351B830512012E
:100A8300358A8305120135D0830512013547840564
:100A9300120135F8840512013515AE011201352511
:100AA300AE01120135C6AE0112013522AF011201AA
:100AB30035DFAF01120135FBB0011201352DB10154
:100AC3001201355CB10112013509B3011201358000
:100AD300B501120135F0B701120135E2B801120177
:100AE30035DBB901120135E2BB01120135D6BE0176
:100AF30012013505C00112013509C2011201351970
:100B0300C301120135A8C40112013599C5011201AF
:100B130035E7C50112013556C6011201357AC60102
:100B2300120135CBC6011201356CCB011201356DB3
:100B3300CC01120135CECC01120135F9CC011201E1
:100B430035BFCD01120135F7E60412013501E70483
:100B530012013546E7041201355AE704120135EA5A
:100B6300E70412013523E8041201355EE80412019B
:100B73003587E804120135D5E804120135EAE804A3
:100B8300120135FFE80412013514E9041201355747
:100B9300E9041201356CE904120135D7E9041201A5
:100BA30035EBE904120135FFE90412013514EA04B7
:100BB3001201354EEA0412013572EA041201359E20
:100BC300EA04120135D5EA0412013537EB041201A8
:100BD30035A9EB04120135ECEB0412013516EC04D4
:100BE30012013541EC041201359FD40512013585FC
:100BF300AC0312013568AD03120135E3AD031201F5
:100C0300351EAE031201356FAF03120135F8AF0382
:100C130012013510B203120135A2B4031201355487
:100C2300B50312013560B603120135D3B7031201C0
:100C3300352CB803120135E1F60412013524F7040B
:100C4300120135A8F7041201357BF804120135525D
:100C5300FB04120135E9B50512013596B6051201FB
:100C630035A3B705120135E2B7051201353CB805C6
:100C7300120135C3CB0512013526CC05120135C34C
:100C8300CC05120135F8CC0512013528CD0512012A
:100C93003549CD0512013584CD05120135A4CD05A5
:100CA300120135E88905120135748A0512013533BD
:100CB3008B051201354B8C05120135658E0512012A
:100CC30035C8C403120135EDC403120135BAC50397
:100CD3001201358EC603120135FBC60312013551CD
:100CE300C703120135EDC70312013521C9031201F0
:100CF30035FCC9031201355BCA03120135E7CA0388
:100D030012013555CB03120135E1CB03120135E452
:100D1300CB031201352ECC03120135A0CC031201F3
:100D23003532CD03120135D3CD03120135F3CD0393
:100D33001201353BCE0312013584CE03120135A0D7
:100D4300CE03120135C6CE0312013540CF03120183
:100D5300354ECF03120135DDCF0312013546D003E3
:100D63001201356AFB03120135EFFB031201353122
:100D7300FC0312013515FD0312013582FD03120137
:100D830035C6FD031201350AFE0312013537FE0392
:100D93001201355FFE0312013597FE03120135D5AB
:100DA300FE03120135FCFE0312013576FF03120127
:100DB30035C0FF031201352BCE0112013524D001BA
:100DC30012013511D30112013565D301120135909A
:100DD300D30112013569D401120135A4D4011201E2
:100DE30035D4D401120135E7D40112013528D501D8
:100DF30012013555D501120135A3D501120135D89C
:100E0300D5011201350ED6011201356DD60112013D
:100E130035F2D60112013591D90112013579DB0181
:100E2300120135B5DB0112013533DD0112013578CD
:100E3300DD0112013579DE0112013563E001120192
:100E430035E6E00112013555E10112013591E60164
:100E5300120135E9E601120135CBE8011201359A99
:100E6300EA011201359FEA011201356DEB0112010E
:100E73003508EC0112013556ED0112013567ED011C
:100E830012013587B80512013572B905120135B55E
:100E9300B90512013504BA0512013555BA05120117
:100EA30035A6BA05120135579D04120135D09D04AC
:100EB3001201358AA30412013595A4041201353EAB
:100EC300A604120135CCA6041201350080021201DA
:100ED30035818002120135AE8002120135F980029C
:100EE300120135FA81021201353F82021201356B7C
:100EF3008202120135E7830212013569840212016D
:100F030035B88402120135238502120135D78502D3
:100F1300120135748602120135EF8602120135790A
:100F23008702120135CC870212013514890212019E
:100F330035938A021201355E8B021201356B8B02E7
:100F4300120135BB8B02120135CB8B02120135EF37
:100F53008B02120135F28B02120135DB8C02120176
:100F630035BD8D021201355F8E02120135FA8E02F4
:100F7300120135218F021201357E8F02120135D500
:100F83008F02120135239002120135719002120172
:100F930035DA90021201357A910212013516920266
:100FA300120135A39202120135189302120135681A
:100FB3009302120135C79302120135EE9302120117
:100FC30035A89402120135999602120135E2960270
:100FD3001201351497021201358B97021201351550
:100FE3009902120135C99902120135EE99021201D3
:100FF300352D9A02120135429A02120135859A0261
:10100300120135F59A02120135369B021201354B56
:101013009C02120135CC9C021201359793041201F4
:1010230035E29304120135EE9304120135C29404A0
:10103300120135D99404120135169504120135476E
:1010430095041201357F9504120135D595041201DB
:1010530035EB95041201352796041201353A9604AF
:10106300120135619604120135959604120135BBC0
:101073009704120135059904120135019A041201EE
:10108300351E9B04120135E77F00120135B4F104CC
:1010930012013562F50412013596F604120135D5B5
:1010A300B80312013598BB031201359EBB0312012D
:1010B300355BBE03120135B5C0031201359C8E05A5
:1010C300120135338F05120135F18F051201351BDE
:1010D30090051201355192051201350D640012017C
:1010E300354864001201358D7000120135F9710025
:1010F300120135F672001201357B76001201356557
:101103007700120135B17700120135CB7700120158
:10111300350878001201351378001201351C780068
:10112300120135CC78001201359C7900120135E3A8
:101133007900120135497A00120135BB7A00120198
:1011430035A7D802120135EFDB02120135F5DB02B8
:1011530012013548E30212013555E702120135B594
:10116300AC051201354BAD0512013561AD05120118
:1011730035BAAD05120135FEAD0512013538AE05A0
:10118300120135D0AE051201353FAF0512013548C6
:10119300AF0512013554AF051201356EAF051201CB
:1011A3003598AF05120135ADAF051201350FB00506
:1011B30012013536B00512013524CF041201353141
:1011C300CF041201354BCF041201357ECF04120137
:1011D30035BCCF0412013521D00412013536D004B9
:1011E30012013541D0041201354ED0041201356588
:1011F300D00412013573D00412013582D0041201D8
:101203003597D004120135ACD004120135B7D004A0
:10121300120135C3D004120135D0D004120135DFD9
:10122300D004120135EAD0041201350FD1041201A2
:1012330035B3D104120135C3D104120135D8D10419
:10124300120135EDD10412013507D2041201352400
:10125300D20412013541D2041201354CD2041201D9
:1012630035F8D204120135D9D304120135FED30463
:1012730012013509D4041201351ED404120135328A
:10128300D40412013593D40412013599D404120104
:10129300359FD404120135A5D404120135BDD404FD
:1012A300120135F0D40412013512F1031201353461
:1012B300F103120135FCF103120135B6F4031201F7
:1012C30035CCF503120135EDF603120135C7F703EB
:1012D30012013576F803120135029F031201359985
:1012E3009F0312013531A00312013521A10312011D
:1012F3003558A1031201356BA103120135D9A1039E
:1013030012013574A3031201359BA3031201353D6A
:10131300A40312013572A40312013583A40312013D
:1013230035FCA4031201351DA50312013535A503B0
:101333001201358DA60312013596A803120135E675
:10134300AA03120135E9AB0312013538AC031201CC
:10135300356690031201356391031201354E9203F2
:10136300120135589203120135629203120135843A
:101373009203120135909203120135E29303120195
:1013830035119403120135419503120135839503F9
:10139300120135AF9603120135859703120135D734
:1013A30097031201353698031201356D9803120124
:1013B30035A89803120135439C031201355C9C0345
:1013C300120135DE9C03120135EC9C0312013541F9
:1013D3009D031201354F9D03120135BC9D0312017C
:1013E300352E9E03120135749E0312013569D00315
:1013F3001201358BD00312013575D2031201351A50
:10140300D6031201355DD70312013537D803120114
:10141300356ACF051201358FCF0512013500D0058E
:1014230012013560B00412013569B004120135723E
:10143300B004120135A3B104120135C2B304120181
:1014430035F8B30412013532B40412013568B4041B
:10145300120135A2B404120135D6B40412013502C7
:10146300B5041201354BB50412013585B5041201DB
:1014730035CDB50412013523B60412013558B6042F
:10148300120135B3B604120135EDB6041201353E2F
:10149300B70412013574B704120135AEB704120153
:1014A30035DCB704120135FFB70412013554FF02CE
:1014B30012013580FF02120135DBFF02120135E50F
:1014C300FF02120135F5FF021201358DB804120136
:1014D30035D1B8041201357FB904120135F7B904C7
:1014E30012013549BA04120135E9BA04120135254E
:1014F300BB04120135BFBB041201353CBC0412010D
:101503003595BD04120135AEBD04120135E6BE04A6
:1015130012013579BF04120135E2BF041201354EC1
:10152300C004120135D89705120135FF9705120142
:10153300352F9805120135A5DA05120135208D01E5
:101543001201353B90011201352B92011201359D99
:1015530092011201355B93011201350694011201C8
:10156300359694011201352595011201354F9501E8
:10157300120135BC9501120135F69A011201358924
:101583009B01120135B89C011201351C9D0112010A
:1015930035D09D0112013583A001120135BDA00193
:1015A30012013527A10112013584A101120135E190
:1015B300A1011201353EA20112013529A301120135
:1015C300356FA301120135BAA301120135DBA30163
:1015D3001201353DA50112013558A501120135DE71
:1015E300A6011201350BA7011201354BA701120108
:1015F3003591A701120135AFA701120135EDA701FE
:101603001201352BAA0112013564AA01120135FB1F
:10161300AA011201359BAB011201352EAC01120157
:1016230035A0AC01120135E1AD0112013569EC04BD
:10163300120135FDEC041201353CEE04120135C5EF
:10164300EE0412013598EF04120135C1EF041201C3
:101653003528F00412013590F004120135B3D50595
:10166300120135C4D50512013595D605120135642D
:10167300B0051201352FB305120135AEDD05120198
:101683003520D10512013530D10512013550D10570
:101693001201354CD2051201353DB305120135D87F
:1016A300B305120135CEB505120135D0C9051201B6
:1016B3003506CA0512013576CA05120135A1CA05D8
:1016C30012013504CB0512013574CB05120135B275
:1016D300CB05120135B5CB051201350A850512017B
:1016E300352F85051201355685051201357D850592
:1016F300120135A58505120135DD85051201350D6C
:101703008605120135D48605120135BF87051201FE
:1017130035F987051201354289051201354E9305C6
:10172300120135709305120135029405120135003B
:101733009505120135F196051201355197051201F0
:1017430035BA9705120135F87F00120135C1C1057D
:1017530012013565C305120135D1C3051201355494
:10176300E10412013551E304120135D7E3041201F8
:1017730035D9E40412013599E5041201350EE60466
:101783001201356EE60412013571E6041201357F4C
:10179300E60412013593E604120135ABE6041201A7
:1017A30035C3E604120135D1E604120135E9E60436
:1017B300120135E2D9051201355CDA051201356CE7
:1017C300DA051201357CDA0512013595DA051201C5
:1017D30035DBC7051201350CC80512013536C805BE
:1017E300120135F1C80512013511C9051201356918
:1017F300C9051201350080041201350E800412015F
:1018030035548004120135A78004120135EF80049A
:101813001201354981041201356A81041201353EF2
:1018230084041201354C8404120135A88404120186
:1018330035DB8404120135EE840412013579850405
:101843001201351286041201358F8604120135C840
:101853008604120135508704120135A7870412014B
:1018630035048804120135168804120135478804AB
:101873001201355088041201359D8904120135B2D5
:10188300CD0512013513CE05120135B0CE05120177
:101893003516CF05120135379C051201356A9C05B3
:1018A300120135919D05120135B69D051201357B57
:1018B3009E05120135579F051201355DD2051201B0
:1018C3003529D305120135F8BA051201353DBB059B
:1018D3001201357DBB051201351ABD051201358A8A
:1018E300D705120135A5D705120135B5D705120164
:1018F300351AD8051201355AD8051201351ED905F6
:10190300120135D18904120135AD8A04120135F46F
:101913008A04120135318B041201359D8B041201A7
:1019230035F58B04120135658C04120135358D04B0
:101933001201351E8E04120135958E041201352ACB
:101943009004120135B5900412013524910412015B
:10195300359C9104120135B39104120135DC9204D4
:101963001201352E930412013598DB04120135B8A8
:10197300DB04120135A8DC04120135F1DC04120189
:101983003511DD041201354FDD04120135AADD04E2
:10199300120135E8DD0412013532DE04120135DAB5
:1019A300E00412013543E104120135BAB202120117
:1019B30035D3B702120135CABA02120135F0BA02A1
:1019C30012013519BB02120135CBBB02120135AC32
:1019D300BD02120135C7BE02120135E0BE0212017B
:1019E30035D6C3021201350FC40212013553C402A6
:1019F30012013560C502120135E839001201351CA8
:101A03003A00120135573A00120135C93A00120162
:101A130035923B00120135A93B00120135853C008C
:101A23001201357A40001201358A4000120135BB9C
:101A330040001201358E4100120135EF41001201C1
:101A4300351842001201351B42001201355C420079
:101A53001201357A4200120135E14200120135BD0F
:101A630044001201357D4500120135CF45001201B6
:101A730035D64500120135ED4500120135C2460049
:101A8300120135D2460012013510470012013529E3
:101A93004700120135404700120135CC47001201BF
:101AA30035E74700120135144A001201353F5A0049
:101AB300120135425A001201352F5E00120135E83A
:101AC30061001201358AED01120135BEEE011201EA
:101AD30035FFEE0112013570F201120135A9F20151
:101AE300120135BAF201120135D6F301120135E7BD
:101AF300F30112013580F40112013590F401120152
:101B03003546FA0112013506FB0112013562FB016C
:101B1300120135F6FB011201355BFC011201356C34
:101B2300FE011201351BFF0112013579DB0312019E
:101B330035C8DF031201356CE203120135A5E20358
:101B4300120135B6E203120135D5E2031201356104
:101B5300E40312013572E40312013539E50312017E
:101B630035CAE50312013595C00412013594C10449
:101B7300120135B1C1041201358AC304120135AE15
:101B8300C40412013546C604120135EBDD0512010A
:101B93003573FC0212013581D3051201357BDC0557
:101BA300120135008003120135138503120135D468
:101BB300C305120135DCDC0512013559DD051201BF
:101BC30035CBA805120135E5DB051201350FDC0520
:101BD30012013522DD0512013585DD05120135CDF2
:101BE300DD05E066701008A3E066700A08A3E066EE
:101BF300700408A3E06622C008C3E096F50808A3B2
:101C0300E096420808A3E096420808A3E09642083B
:101C1300A2D265D033E5087001D3D00822C3E7967A
:101C23000809E7960809E7960809E79622C3E096AC
:101C330008A3E09608A3E09608A3E09622C008C391
:101C4300E096F50808A3E096420808A3E096420848
:101C530008A3E09645087001D3D00822080808E6D7
:101C630030E711122519121C77080808C64480C6EC
:101C730018181822181818E9799EC608CAC608CB7E
:101C8300C608CCC6C370207996CACBCC7019798E9E
:101C9300CBCC70137986CC700EF9802ACA33CACBA9
:101CA30033CBCC33CC331930E7F2CCCBCA3350141B
:101CB3007004EA30E00DE4CA3ACACB3BCBCC3CCC4F
:101CC300500209C3E913C6CC182313C6CB18C6CADE
:101CD30018C6F922121D1720F01430E72B74FFFCED
:101CE300FBFA747F8022E4FCFBFA7480801AB480D0
:101CF30008BC00F2BB00EF800F50EBF9E4C39AFA83
:101D0300E49BFBE49CFCE499C6CC18C6CB18C6CA7A
:101D130018C6F922E4C9C608CAC608CBC6D333031A
:101D230008CCC63392F0C3947F402E94184019C94F
:101D3300B90704CACBCC225025C309CA33CACB3353
:101D4300CBCC33CC33D9F422F4600DC9CCC313CB41
:101D530013CBCA13CAD9F6CC22E4FCFBFA2214FC37
:101D6300FBFA22E62618461846184622E7271947A3
:101D73001947194722181818E60846087009E62675
:101D8300087005E633F4220822191919E7094709EF
:101D93007009E727097005E733F4220922E60846AC
:101DA30008C3134608336002E633F422E709470900
:101DB300C3134709336002E733F422121DA06025E1
:101DC300121DAF6020121D667003021D6F08080804
:101DD300E76670101819E766700A1819E766700449
:101DE3001819E76622F422121DA0601C121DAF60B1
:101DF30017121D667007121D6F7001D322C0D01217
:101E03001D6F7006D0D0B322C32233D0D05014300C
:101E1300E0F6C3E7960809E7960809E7960809E795
:101E230096B32220E0D5E6970809E6970809E697D6
:101E33000809E697B322121DA0601B121DAF60169E
:101E4300121D667007121D6F600CB322C0D0121DE5
:101E53006F7005D0D022C32233D0D0501330E0EBC3
:101E6300C3E7960809E7960809E7960809E7962263
:101E730020E0E4E6970809E6970809E6970809E6EB
:101E8300972200121DA0604F121DAF6012E754800D
:101E930066F6121D787011121D6F703B090909F463
:101EA300F618F618F618F622121D8C7015121D6618
:101EB30008080860EAE6447FF618768018E4F61806
:101EC300F622121D666016121D6F7012E4F608F6F4
:101ED30008F608E65480F609090918181822EAC01A
:101EE300E0EBC0E0ECC0E0EDC0E0E687F0A4FBACC3
:101EF300F008E687F0A42CFCE435F0FA1809E6872D
:101F0300F0A42C4B60027401CA35F0FCE433FB09E6
:101F1300E687F0D2F7A42CCB35F0FC1908E687F05E
:101F2300A42BCC35F0FBE433FD0819E687F0D2E7A8
:101F3300A42C4ACB35F0CD3400FC09E687F0D2E778
:101F4300A42DCC35F0FDE433FA0918E687F0D2F777
:101F5300A42CCD35F0CA3400FC08E687F0D2E7D2D2
:101F6300F7A42ACC35F07A7E20E70B0ACB33CBCD0E
:101F730033CDCC33CC33CB3350147004ED30E00E7F
:101F8300D2F1E4CD3DCDCC3CCC3B5005DA05C2F1DA
:101F9300EB547FC63308E63392F0FBE73309E733AC
:101FA300C39A502D2B70190C0D4C4D70151806E665
:101FB30008C333700D20F10AA2F013F6E418800B66
:101FC3004024E4F630F002768018F618F618F6800E
:101FD30024D33B14501074FFA2F013F6187680E458
:101FE30018F618F6800FA2F013F618E63303F61866
:101FF300ECF618EDF6D0E0FDD0E0FCD0E0FBD0E04D
:10200300FA22121DAF6046121DA0603DE9687008F8
:10201300F618F618F618F622748067F712203909B5
:102023000909748067F722121DA0601D121DAF708D
:1020330005191919801A121D78701F121D8CC3708F
:1020430003E66733191919400718181822080808F6
:1020530074FFF618F618F618F622121D8C60171284
:102063001D6F702192F0121D667019501720F01425
:10207300080808090909E7F61819E7F61819E7F631
:102083001819E7F622121D6660E6E869701F080852
:10209300E62480F608E436F618547FB47F0CE65441
:1020A300806007F6E418F618F622181822E9C6CC61
:1020B30008C6CD08C6CE08C6CFC0E0E8C0E0EAC077
:1020C300E0EBC0E009E9F809E7FA09E7FBE6F918EC
:1020D300E6F8C3EC98ED99EE9AEBC2E7F5F0EFC2A0
:1020E300E795F0500E600CEBCFFBEACEFAE9CDF9A1
:1020F300E8CCF8EAA2E7D2E7FAEB33FB13F5F0EE0C
:10210300A2E7D2E7FEEF33FFC5F013A2E730E60103
:10211300B313C5F0C3C0E0C0F07F00C39BFB605E98
:102123009418600F401D14601AD0E023F9D0E0F832
:1021330002220B8AF0E9486003D2F0E4AFF0FAF927
:10214300F8803BEB30E40D89F0EA6003D2F0E4AFB2
:10215300F0F9CAF8EB30E30D88F0EF6002D2F0AF8C
:10216300F0E4CAC9F8EB54076014FBC3EA13FAE9B5
:1021730013F9E813F8EF135002D2E0FFDBEDD0E0E0
:10218300C0E030E739C3E49FFFF5F0EC98FC42F080
:10219300ED99FD42F0EE9AFE42F0D0E0F9D0E0F87E
:1021A300E5F0607AE923F9EE20E742D8028067C3BD
:1021B300EF33FFEC33FCED33FDEE33FE80EAEC2826
:1021C300FCED39FDEE3AFED0E023F9D0E0F8400211
:1021D300801BC3EE13FEED13FDEC13FCEF13500253
:1021E300D2E0FF08B800067F7F74FF802EEF3350E4
:1021F300178CF020F00260100CBC000C0DBD000821
:102203000EBE000408E860DFE933E813FFEE231392
:10221300FE4F4D4C8008E95480FFE4FEFDFCEE3395
:10222300EF33F47004FCFD7E80D0E0FBD0E0FAD005
:10223300E0F8D0E0CFC618CEC618CDC618CCC6F984
:1022430022121DA0700418181822121DAF700D74ED
:10225300FFF61819F61819F61819F622E7548066CE
:10226300F6121D66700F121D6F70F014F608F60853
:10227300F608F680D1121D6F700CF608F60876800A
:1022830008E6447F80EC121D8F700C121D7B60BF2B
:10229300E65480F6E480BB121D7B70051919198082
:1022A300A5E869700C763F18768018F618F6E8F9F9
:1022B30022E6CDC0E018ECC0E0E633CD33CDD31336
:1022C300F6E719FCE7191933CC33C3947F400ECDDD
:1022D3009D502408E65480F6E418F6800FF4043D7C
:1022E30014501408E6447FF6187680E418F618F6BE
:1022F300D0E0FCD0E0FD22CCD313CCFD18E4C6CB58
:10230300C0E018E4C6CAC0E00808ED08C633E61307
:10231300F618E433C675F003C3CA97CA09CB97CB43
:10232300199C40047D08802EBD00030223ED16B6E0
:10233300FF050606081618C3CA33CACB33CB33CA04
:1023430027CA09CB37CB193CC37D08803E187D08CB
:1023530020E75CC633C6CA33CACB33CB33DDF1D5F2
:10236300F0EB30E77BCA97CA09CB974ACB199C405D
:102373006F4B7025E620E0218066187D08C3CA975D
:10238300CA09CB97CB199CD3C633C6CA33CACB333E
:10239300CB3350C9DDE7D5F0E1D3E4C636C608C672
:1023A30036C608C636C608C636C61818188031C3DE
:1023B300CA97CA09CB97CB199CB34097C633C6CAF1
:1023C30033CACB33CB33DD34D5F02EC6A2E0C640BF
:1023D300C8CA27CA09CB37194A70BECB3CB480B9E7
:1023E3000808E63308E633601F181818D0E0FAD05F
:1023F300E0FBD0E0FCD0E0FD22187D08CA27CA0923
:10240300CB37CB193CD3808013F618E4B67F11F693
:1024130018B6FF0EF618C60470D20808768080CA74
:10242300F618F618F680C5080808EAC0E0EBC0E025
:1024330086F0E7A4FA180986F0E7A42AFA180986B1
:10244300F0E7A42AFA180986F0E7A42AFA1986F015
:10245300E7A4FBE5F02AFA190886F0E7A42BFBE5CD
:10246300F03AFA190886F0E7A42BFBE5F03AFA18DC
:10247300180986F0E7A4C5F02BFBE43AFA1908E73C
:10248300C5F0C6A426F6E5F03BFBE43AFA1886F05D
:10249300E7A4F6E5F00826F6E43B08F6E43A08F686
:1024A300D0E0FBD0E0FA22E4CFC0E0E4CEC0E0E429
:1024B300CDC0E0E4CCC0E075F020E626F608E633B4
:1024C300F608E633F608E633F6181818EC33FCED95
:1024D30033FDEE33FEEF33FFC3EC9709ED9709EEBF
:1024E3009709EF97191919400FFFEC97FC09ED971E
:1024F300FD09EE97FE191906D5F0BFECF709EDF7C4
:1025030009EEF709EFF7191919D0E0FCD0E0FDD077
:10251300E0FED0E0FF22181818E4C396F608E4960C
:10252300F608E496F608E496F6226016080808C64C
:10253300C313C618C613C618C613C618C613C6D502
:10254300E0EA227009080808226016181818C6C3A2
:1025530033C608C633C608C633C608C633C6D5E075
:10256300EA22E627F60809E637F60809E637F60809
:1025730009E637F622E026F608A3E036F608A3E0DC
:1025830036F608A3E036F622E026F008A3E036F09C
:1025930008A3E036F008A3E036F022C3E697F60876
:1025A30009E697F60809E697F60809E697F622C3BF
:1025B300E0C696F608A3E0C696F608A3E0C696F62C
:1025C30008A3E0C696F622C3E096F008A3E096F0CF
:1025D30008A3E096F008A3E096F022E657F6080970
:1025E300E657F60809E657F60809E657F622E056D5
:1025F300F608A3E056F608A3E056F608A3E056F65D
:1026030022E056F008A3E056F008A3E056F008A332
:10261300E056F022E066F608A3E066F608A3E0665B
:10262300F608A3E066F622E0F608A3E0F608A3E0C6
:10263300F608A3E0F622E6F008A3E6F008A3E6F026
:1026430008A3E6F022E0FAA3E0FBA3E0FCA3E0FD8D
:1026530022EAF0A3EBF0A3ECF0A3EDF022E0F8A361
:10266300E0F9A3E0FAA3E0FB22E8F0A3E9F0A3EA90
:10267300F0A3EBF022CAC0E0E6F0A308DAFAD0E058
:10268300FA22CAC0E0E0A3C582CCC582C583CDC50A
:1026930083F0A3C582CCC582C583CDC583DAE6D0DA
:1026A300E0CA22C3E498F8E499F91226E78026C326
:1026B300E49AFAE49BFBE920E7E91226E7E498F8B9
:1026C300E499F922C3E498F8E499F91226E7E49827
:1026D300F8E499F9C3E49AFAE49BFB22EB20E7CFF1
:1026E300E920E7E0B90010BB0008E88AF084F8AA03
:1026F300F022E4FBC8FA22EB70227B10C833C8C96E
:1027030033C9335007C39AC3DBF280069A50012AB8
:10271300DBEAC833F4C8C933F4C9FA2275F008E414
:10272300C833C8C933C933C99AC99B5004C92AC914
:102733003BD5F0ECFBC833F4C8E4C9FA22600D08BA
:10274300C6A2E713C618C613C6D5E0F322600C0869
:10275300C6C313C618C613C6D5E0F422700422609C
:102763000D18C6C333C608C633C6D5E0F4182225F0
:102773001810AF08F518400C15198008F518400219
:102783001519D2AF2200C0D0251810AF08F5185084
:102793000C05198008F51850020519D2AFD0D022C4
:1027A3002518F58210AF08F518400C15198008F5A7
:1027B3001840021519D2AF851983222518F582E432
:1027C3003519F583222518F8E43519F9222518FA65
:1027D300E43519FB222518FCE43519FD22E47325A1
:1027E30018C582C0E0E51934FFC583C0E0E518C30E
:1027F300958224F810AF088583198582188008858F
:102803008319858218D2AFCEF0A3E520F0A3780810
:10281300E608F0A3DEFAEFF0A3E58124FAF8E60870
:10282300F0A3E608F0A3E608F0A30808E608F0A37F
:10283300E608F0A315811581D0E0FED0E0F81581FC
:1028430015811581E8C0E0EEC0E0222518C582C0DD
:10285300E0E51934FFC583C0E0E518C3958224F988
:1028630010AF0885831985821880088583198582AE
:1028730018D2AFCEF0A3E520F0A37808E608F0A3C2
:10288300DEFAEFF0A3E58124FBF8E608F0A3E608FF
:10289300F0A30808E608F0A3E608F0A31581158164
:1028A300D0E0FED0E0F815811581E8C0E0EEC0E08D
:1028B30022851983851882E0A3FEE0A3F52078081A
:1028C300E0A3F608DFFAE0A3FFE0A3C0E0E0A3C0C3
:1028D300E0E0A3C0E0E0A3C0E0E0A3C0E010AF08E5
:1028E3008582188583198008858218858319D2AF5C
:1028F300D083D082020132851983851882E0A3FE3A
:10290300E0A3F5207808E0A3F608DFFAE0A3FFE0F0
:10291300A3C0E0E0A3C0E0E0A3C0E0E0A3C0E010F8
:10292300AF088582188583198008858218858319E5
:10293300D2AFD083D08222C0D02518C582C0E0E5B3
:102943001934FFC583C0E0E518C3958224F310AFA3
:10295300088583198582188008858319858218D292
:10296300AFC8F0A3E9F0A3EAF0A3EBF0A37908E77B
:1029730009F0A3D8FAECF0A3EDF0A3EEF0A3EFF087
:10298300A3D0E0F0A3D0E0F0A3D0E0F0A3E520F0E3
:10299300A3E5F0F0A322851983851882E0C0E0A3A4
:1029A300E0F9A3E0FAA3E0FBA37808E0F608A3DFCD
:1029B300FAE0FCA3E0FDA3E0FEA3E0FFA3E0C0E098
:1029C300A3E0C0E0A3E0F5D0A3E0F520A3E0A3F5E6
:1029D300F010AF08858319858218800885831985CF
:1029E3008218D2AFD082D083D0E0F8D0E032740422
:1029F3008006740280027401C0E0F4041227A3D09D
:102A0300E0122678227404800474028000CCC0E0B3
:102A1300EDC0E0E518C39CCCAD1950011D10AF0605
:102A23008C188D1980068C188D19D2AF122685D07B
:102A3300E0FDD0E0FC22D083D082E9C0E0E493A3A0
:102A4300C386F0C5F095F0F908E493A386F0C5F0CA
:102A530095F0700BE493A3C3994005E9048002A3A6
:102A6300E475F002A42582F582E5F03583F583D081
:102A7300E0F9E493A3C0E0E493C0E022D083D082E2
:102A8300ECC0E0EDC0E0E493A3FCE493A3FDED4CC4
:102A9300600D122ACBEC24FFFCED34FFFD80EFE444
:102AA30093A3FCE493A3FDED4C600D122B0AEC24DD
:102AB300FFFCED34FFFD80EFD0E0FDD0E0FCE493BC
:102AC300A3C0E0E493C0E022C0E0C3E4939608749B
:102AD30001939618400FE493667008087401936697
:102AE3001870007019A3A3C3E49396087401939616
:102AF30018A3A3400DD0E0D0E0D0E0022ABBA3A3EB
:102B0300A3A3A3A3D0E022C0E0C0F088F0E49366BF
:102B130070080874019366187000A8F0A3A3700BE3
:102B2300D0F0D0E0D0E0D0E0022ABBA3A3D0F0D015
:022B3300E0229E
:102B380074F612284EEAFEEBFF8C088D09EE243459
:102B4800F8E43FF9E8FCE9FDEE2435122E54FAEEDC
:102B58002437122E54F88508F0A4C885F00A850990
:102B6800F0A4250AF9EA28F8E439F97A257B001255
:102B780026E7EA8C828D83F0FA131313541FF8EEBC
:102B880028F8E43FF9E8245DF582E439F583E0C0EC
:102B9800E074075AF8D0E0B800028004C313D8FCE8
:102BA800A2E0EE50082434F582E43F80182436125F
:102BB8002E54F5F0EA84A8F0EE28F8E43FF9E8246A
:102BC80038F582E439F583E0F97F030228FA74F7CF
:102BD80012284EEAFEEBFFEE2434122E54C0E0EE2B
:102BE8002435F582E43FF583D0E0F08E828F83A30D
:102BF800A3A3A3A3A3A3C082C0838E828F83A3A30E
:102C0800A3A3A3E0F8A3E0F9D083D082E0C398F5AA
:102C180008A3E099F509EE247F122E546401703E52
:102C2800EE2480F582E43FF583C082C0838E828FD4
:102C380083A3A3A3A3A3E0240108A3E03400F9D04D
:102C480083D082E0687003A3E06970127C1A7D0863
:102C5800120FBBEE247FF582E43FF583E4F0AC0865
:102C6800AD09EEFAEFFB122B38E9F91238A67F020C
:102C78000228FAC082C083851882851983E0F8A3E8
:102C8800E0F9C3EA9CEB9D5010C3EC98ED99401B0A
:102C9800C3EA98EB995014800EC3EA98EB99400761
:102CA800C3EC98ED994004790180027900D083D073
:102CB8008222EAC39CFAEB9DFB2274EF12284E9005
:102CC80004C3E064086005E06407702A9061C8E006
:102CD80060249004F1E0F4601DE0F875F00DA4C8DC
:102CE800AAF02AF974F328FE740439FF8E828F83C0
:102CF800A3A3A3E07003022DD0906060E0C0E0EED3
:102D08002468F582E43FF583D0E0F0750CB4750DC6
:102D180008750800750900E5D914F50AE5D95403C2
:102D2800F50E60127403650E6043E50A600AEE242E
:102D380067122E54700280759008AFE06401601F1E
:102D4800122E5160047A0480027A00E50AC39AFAC6
:102D580095E0FB120DC98A088B09EA45097005122E
:102D6800128B8064122E5170048A0C8B0DE50A6058
:102D780012850C82850D83F50BE5D9F0A3150BE5BB
:102D88000B70F6122E51604474FC250AF50A780C73
:102D98001229F5AC0AA90EEEFAEFFB1210817402A3
:102DA800122788E97026AA08AB09121885793D8E82
:102DB800828F83A3A3A3A3E0FA7B00120C19EEFA77
:102DC800EFFB120FDF1210E1790080787403650EB3
:102DD8006051850A1075110078101229F5AC0CADF8
:102DE8000DAA08AB091210457402122788EE246850
:102DF800122E5464807004747F8001E0F50C780C06
:102E08001229F9E50EF50C780C1229F9A90AAC0873
:102E1800AD099004F1E0FA7B00120BE97402122765
:102E280088801C9004C3E06408AC0CAD0D7009EEFA
:102E3800FAEFFB1210B18007EEFAEFFB12115312F2
:102E4800129779017F0A0228FAEE2483F582E43F7B
:102E5800F583E02274F212284E74FC122772EAFEFF
:102E6800EBFF8909A2AFE433F508C2AF022F26E0D1
:102E7800601B780C1229F5AC0BA90EEEFAEFFB12C9
:102E8800107B74021227887404250BF50B74012536
:102E98000BF5D9850ED9E50B6018F50A850C8285E6
:102EA8000D83E0F5D9A385820C85830D150AE50A03
:102EB80070EA75E195EE2463F8E43FF97A007B0047
:102EC800A2AFE433F50BC2AF88828983E0FCA3E0AC
:102ED800FDEC4D603A88828983E0FAA3E0FB8A82A0
:102EE8008B83E0FCA3E0FD88828983ECF0A3EDF0FE
:102EF8008A828B83E4F0A3F088828983E0FCA3E0D4
:102F0800FDEC4D700A88828983A3A3E4F0A3F0E561
:102F18000BA2E092AF121885900821E004F0EE248D
:102F280063122E54F8A3E0F9E8496064EE246312B2
:102F38002E542402F8A3E03400F988828983E582BC
:102F48002402F50CE43583F50DE0F50BA3E0F50E4E
:102F5800EE2462122E54640170369061D0E0F812AB
:102F68002E5160047C0480027C007480C398FA951A
:102F7800E0FBE50B2CF8E43400F9E82402F85001F2
:102F880009C3EA98EB99A2D265D0334003022E77A1
:102F9800900821E0604D900822E0F8900821E0C3F5
:102FA80098500C74026509703A900823E060348EDA
:102FB800828F83A3A3A3A3E0851882851983122F88
:102FC800FB74021227BEE8122FFB900820E028F0BD
:102FD80074021227D8AA18AB197901120C49900863
:102FE80021E4F0E508A2E092AF74041227887F0775
:102FF8000228FAF0A3E4F0900821E0F8220000008B
:103008008521878522C622C0E074EB12293AA2AF37
:10301800E433F508C2AF759B00906182E0A2E050EE
:1030280030E591A2E0502A7591FE74016521702166
:103038001231A21211A1123190122A0812365074BC
:1030480004122788E96401700579011211E9122C2C
:10305800C2906182E0A2E5505DE591A2E550577506
:1030680091DF9004C3E064076005E06408702F12E4
:1030780031A274016521703E1211A1123190122AF9
:10308800081236507404122788E964017005790122
:103098001211E97901EEFAEFFB122E5C8018E06458
:1030A8000D70139004E5E004F064287002E4F07AEF
:1030B80000E0F912129D906182E0A2E6400302311D
:1030C80065E591A2E640030231657591BF9004C39E
:1030D800E064057008121189121195800312118F8E
:1030E800752100121207E99004C4F079001211E961
:1030F800120EDD7A017B009004C2E0F91218559097
:103108007803E0644270569008B3E014F0704EC241
:10311800AF12311C00782AD0E0F618D0E0F6E59F0F
:103128005407F87005750DFF8003750D7FC4C0E066
:103138007829E6F50A08E6550DF50B740B780A129E
:103148002750D0E0250AF8906270E0A2E740F8E83E
:10315800C333906272F0906270E0D2E0F0906181C7
:10316800E0A2E35009E5E9A2E3500375E9F7A3E01B
:10317800A2E75009E591A2E7500375917FE508A2FF
:10318800E092AF7F080229998E828F83E0F8A3E04E
:10319800C82416F582E438F583229004F1E0F87526
:1031A800F00DA4C8AAF02AF974F328FE740439FFB4
:1031B80022C0E0C0D0C082C083906183E0A2E0500A
:1031C80009E5BFA2E0500375BFFEE0A2E15009E5A2
:1031D800BFA2E1500375BFFDE0A2E25009E5BFA21E
:1031E800E2500375BFFBE0A2E35009E5BFA2E3503C
:1031F8000375BFF7E0A2E45009E5BFA2E4500375E8
:10320800BFEFE0A2E55009E5BFA2E5500375BFDFB7
:10321800E0A2E65009E5BFA2E6500375BFBFD08320
:10322800D082D0D0D0E032C0E074F212293AE5A7BB
:10323800A2E6500FE5A1A2E6500953A7BF75A1BFAA
:10324800123283E5A7A2E5500CE5A1A2E55006538A
:10325800A7DF75A1DFE5A7A2E15009E5A1A2E1502A
:103268000375A1FDE5A7A2E2500CE5A1A2E2500674
:1032780053A7FB75A1FB7F0102299974F712284E09
:103288007521019004C3E0640670151211058A8245
:103298008B83A3A3A3A3A3A3E0FAA3E0FB12117754
:1032A800A2AFE433FED2AF9004C9E0640170187A8B
:1032B800207B009004C2E0F912198D7A207B0090DF
:1032C80004C2E0F912185B906182E0D2E6F090083F
:1032D800B0E0602185C62280169004C8E0640170C1
:1032E80008E5C654F84405F5C653BEFC1230087408
:1032F80001652160E4EEA2E092AF7F020228FA00A5
:103308008E238F24858228858327851882851983B3
:10331800E0CEA3E0CF852882852783EBC9EAC8EDF4
:10332800CBECCA75F010C3E833C8E933C9EA33CA2D
:10333800EB33CBC3EA9EF526EB9FF525B35004ABE0
:1033480025AA26EC33CCED33CDD5F0DAAE23AF2465
:103358002274E912284E74FA122772EAFEEBFF8CE7
:103368000A8D0B1211ADEAF8EBF9ECFAEDFB8E823F
:103378008F8312266C9004C3E024F7C3940550068B
:103388007514010234C01211058A088B09EA45092F
:1033980070030234BDEEFCEFFDAA18AB191211A799
:1033A800850882850983A3A3780C12262A908C1499
:1033B800780C1225F1851882851983781012262A2F
:1033C800908C1478101225F1780C7910121C20506A
:1033D8001F780C791012259E908CB4780C121C4022
:1033E8004047850C14850D15850E16850F178045E9
:1033F800908CB485101485111585121685131778CD
:1034080014790C12259E7814121C40501C75140057
:103418007515007516007517017814791012259E18
:103428007814790C122565800C75140175150075D2
:10343800160075170074097814122546908BE878E1
:103448000C12262A7814790C1224AA850882850978
:1034580083A3A3A3A3A3A31234DE1226E7880C89AF
:103468000DE4F50EF50F7814790C12256574041225
:1034780027BE1234DE1226E7E8FA8A0CE4F50D7846
:1034880014790C121C2050077814790C12259E9080
:1034980004C3E06408600AE064066005E06405703F
:1034A80020908CB07814121C405016908CAC781474
:1034B800122578800C75140075150075160075179F
:1034C80000850A82850B8378141226397406122720
:1034D800887F100228FAE0F8A3E0F97AD07B03226B
:1034E80074F712284E1211BF9008AEE064017010F4
:1034F800906245E4F0A3F053F4F343FE0C5390F3C9
:10350800121165E5C654B84441F5C6E59E544764B2
:103518004170F8906185740FF09008ACE0F4700287
:10352800A3E0604E9008ADE0600814601B14602EA4
:1035380080407508017509009008ACE078081227EA
:103548005FE508F45280802A750801750900900823
:10355800ACE0780812275FE508F4529080147508EB
:10356800017509009008ACE0780812275FE508F4B7
:1035780052A079007F020228FA74F712284EE9FE59
:10358800EAFF1211BF74016E700C7A807B00900400
:10359800C2E0F91218559039E0E493F46008E49316
:1035A800F9120ED1800953C6B8E59E544770FA1235
:1035B800116B9008AEE064017003120EF59008AC30
:1035C800E0F47002A3E0604B9008ADE0600814607E
:1035D8001A14602C803D7508017509009008ACE04C
:1035E800780812275FE50842808028750801750968
:1035F800009008ACE0780812275FE5084290801335
:103608007508017509009008ACE0780812275FE595
:103618000842A01211058A088B09A808A909E849D7
:103628006014E5E170FCE82414F582E439F583E0E0
:10363800F46003E0F5E174016F700A7A019004C246
:10364800E0F91218EB02357C74F112284E8A088BC7
:10365800098C0A8D0B908C1478081225F1740F12BE
:1036680027BE780C12262A908C14780C1225F17833
:1036780008790C121C20908CB450107808790C1220
:10368800259E7808121C404014800E780C79081288
:10369800259E780C121C4050047901800279007F25
:1036A800080228FA74ED12284E8A088B098C0A8DB4
:1036B8000B908C1478081225F174131227BE780C1D
:1036C80012262A908C14780C1225F1780C7908129D
:1036D8001C2040117808790C12259EAA08AB09AC69
:1036E8000AAD0B8022751000751100751200751354
:1036F800017810790C12259E78107908122565AA90
:1037080010AB11AC12AD137F0C0228FA908C147810
:103718000812262A8A828B8378081226047F0402DC
:1037280028FA74F512284E8C828D83780812262A7E
:103738008A828B8378081225CA123782C3E09CF0EC
:10374800A3E09D1237744022908C9C780812262A98
:103758008A828B83780812258B8A828B83A3A3A302
:10376800A3E02420F0A3E0344EF080A0F088828902
:1037780083C3E09420A3E0944E22EA2404F8E43BB7
:10378800F98C828D83A3A3A3A3E0FCA3E0FD888228
:1037980089832274F512284EE9FE90083CE0FAA3CA
:1037A800E0FBEE29F8E433F9747828F58274863959
:1037B800F583E02AF508A3E03BF50978081229F516
:1037C800908C6412264812330874021227888A08DB
:1037D8008B098C0A8D0B7410780812252DAA08AB5A
:1037E800097F040228FA74F112284E8A0C8B0D8C7A
:1037F8000E8D0F74111227BE122A0C74111227BED7
:10380800E02401F508A3E03400F509E4F50AF50B16
:10381800780C790812242A908CA4780812262A7821
:103828000C790812242AAA0CAB0DAC0EAD0F12337A
:103838000874021227888B09EA450960047A018016
:10384800027A00EC2AFCE43DFD74131227BEE0F86E
:10385800A3E0F9E8FEE9FFECF8EDF97A717B0212D2
:1038680026E788088909E4F50AF50B8E828F8378A4
:1038780008122639ECF8EDF97A717B021226E78AEC
:10388800088B097405780812275F8E828F83A3A39B
:10389800A3A3E508F0A3E509F07F080228FAC0828F
:1038A800C083E9906000F0D083D08222C0E074F237
:1038B80012293AA2AFE433FED2AFC2C0E5D1A2E4E6
:1038C800500675D10F1217AD751A00EEF8EEA2E08A
:1038D80092AF7F01022999C0E074F212293AA2AF8F
:1038E800E433FED2AFE589A2E14006E589A2E250C1
:1038F800031216C9758900758900C2C5751A00EECC
:10390800F8EEA2E092AF7F01022999C0E074F212AA
:10391800293AA2AFE433FED2AFE58BA2E0500312FE
:1039280016C9758B00C2E8751A00EEF8EEA2E0928F
:10393800AF7F01022999C0E0C0D0E8C0E0E9C0E04B
:10394800A2AFE433F8D2AFC2C7751A00E8F9E8A20B
:10395800E092AFD0E0F9D0E0F8D0D0D0E032C0E0CB
:10396800C0D0E8C0E0E9C0E0EAC0E0C082C083A2FD
:10397800AFE433FAD2AF901142E0F8901143E06817
:10398800700B539AFB9011447401F0802CC2E9909B
:103998001142E0F8740128901142F0790074C228AD
:1039A800F582741039F583E0F5C1901142E0C394B3
:1039B8008040069011427400F0EAF8EAA2E092AF63
:1039C800D083D082D0E0FAD0E0F9D0E0F8D0D0D0DF
:1039D800E032C2AF02000022FFFFFFFFFFFFFFFF40
:1039E800EAF8EBF9E824FFFAE934FFFBE84960213B
:1039F8007800790078DC7905C3E89401E99400A29D
:103A0800D265D03340DA00E824FFF8E934FFF980C2
:103A1800E702013274F71227E289087E0080010E5E
:103A2800EEC395085022EEF87900EA28F582EB39C2
:103A3800F583E0FFEEF87900EC28F582ED39F5839F
:103A4800E06F60DB7900800279017F010228B4749D
:103A5800F01227E2E9FE7C00750800750900750A76
:103A680000750B00803A908C20780C12262A780872
:103A7800790C12242AECF87900EA28F582EB39F55A
:103A880083E0F87900E824D0F50CE934FFF50DE57A
:103A98000D3395E0F50EF50F7808790C1225650CB5
:103AA800ECC39E500FECF87900EA28F582EB39F563
:103AB80083E070B2AA08AB09AC0AAD0B7F080228F4
:103AC800B474F71227E274EF1227729085F6AC18D7
:103AD800AD19741112268578F07919888289837452
:103AE80030F088828983A3A882A983888289837415
:103AF80078F088828983A3A882A983EA2406FA50E9
:103B0800010B7E06806CEA24FFF582EB34FFF58317
:103B1800AA82AB83E0C4540FFC7D00851882851906
:103B280083E5822CF582E5833DF583E0C0E0888259
:103B38008983D0E0F088828983A3A882A9838A82B6
:103B48008B83E0FC7D00EC540FFCED5400FD8518E0
:103B580082851983E5822CF582E5833DF583E0C0F3
:103B6800E088828983D0E0F088828983A3A882A92B
:103B7800831EEE7091888289837400F07AF07B1935
:103B880074111227887F010228B4C082C0837C3751
:103B98007D197AB67980121957E9D083D08202014B
:103BA8003274F71227E2E9FEEE6003023C449019F2
:103BB800377404F09019387400F09019397400F0D3
:103BC80090193A7400F07C6B7D8B7A3B7B19121B41
:103BD800CD9019477400F07C5D7D8B7A487B191273
:103BE8001BCD90194F7400F07C0D7D0079007A5040
:103BF8007B1912181390196A7400F090196B7400ED
:103C0800F07C787D0079007A6D7B19121813901971
:103C1800E57400F0A37400F09019E77400F09019AF
:103C2800E87400F09019E97400F09019EA74F4F05F
:103C3800A37401F09019EC7400F0802B74016E707D
:103C4800267C0D7D0079007A507B19121813901983
:103C58006A7400F090196B7400F07C787D0079002C
:103C68007A6D7B191218137C007D0079007A097B24
:103C78000412153DE9121A117F010228B474F412D6
:103C880027E274D3122772901937E0F508750900F6
:103C980078081229F57CE37D8274021227D0121B62
:103CA800CD7402122788AA18AB191217F58A088B47
:103CB80009AC08AD09AA18AB191217BF7A647B00C2
:103CC8001219F9901938E0F50875090078081229D1
:103CD800F57C7F7D8374021227D0121BCD740212EB
:103CE8002788AA18AB191217F58A088B09AC08ADF2
:103CF80009AA18AB191217BF7A647B001219F99038
:103D08001939E0F50875090078081229F57C337D22
:103D18008374021227D0121BCD7402122788AA18A6
:103D2800AB191217F58A088B09AC08AD09AA18ABAC
:103D3800191217BF7A647B001219F990193AE0F545
:103D48000875090078081229F57C577D84740212D9
:103D580027D0121BCD7402122788AA18AB19121784
:103D6800F58A088B09AC08AD09AA18AB191217BF58
:103D78007A647B001219F975083B750919780812DD
:103D880029F57CB37D8474021227D0121BCD7402EE
:103D9800122788AA18AB191217F58A088B09AC08DC
:103DA800AD09AA18AB191217BF7A647B001219F96A
:103DB800901947E0F50875090078081229F57CE1A3
:103DC8007D8474021227D0121BCD7402122788AA90
:103DD80018AB191217F58A088B09AC08AD09AA188F
:103DE800AB191217BF7A647B001219F97508487568
:103DF800091978081229F57C9C7D8474021227D051
:103E0800121BCD7402122788AA18AB191217F58A4B
:103E1800088B09AC08AD09AA18AB191217BF7A6448
:103E28007B001219F990194FE0F508750900780818
:103E38001229F57C6E7D8474021227D0121BCD7472
:103E480002122788AA18AB191217F58A088B09AC31
:103E580008AD09AA18AB191217BF7A647B001219AA
:103E6800F975085075091978081229F57CFE7D82C4
:103E780074021227D0121BCD7402122788AA18AB1D
:103E8800191217F58A088B09AC08AD09AA18AB19DD
:103E98001217BF7A647B001219F9750800750900BA
:103EA800023F3A90883D74201227D8740D12268557
:103EB800750A0C750B00780A1229F5A808A909E8F3
:103EC80075F00CA4C8AAF075F000A42AFA75F00CD5
:103ED800E9A42AF9746D28FC741939FD7422122793
:103EE800D01217FB740212278874201227C8880A78
:103EF800890B780A1229F578081229F57C1D7D8925
:103F080074041227D0121BCD7404122788AA18AB88
:103F1800191217F58A0A8B0BAC0AAD0BAA18AB1944
:103F28001217BF7AC87B001219F90508E508700254
:103F3800050990196AE0F87900C3E50898E5099938
:103F4800A2D265D0335003023EAB9019E5122A0C79
:103F58007C827D8274021227D0121BCD7402122734
:103F680088AA18AB191217F58A088B09AC08AD098D
:103F7800AA18AB191217BF7A647B001219F99019A5
:103F8800E7E0F5083395E0F50978081229F57C850E
:103F98007D8474021227D0121BCD7402122788AABE
:103FA80018AB191217F58A088B09AC08AD09AA18BD
:103FB800AB191217BF7A647B001219F99019E9E05E
:103FC800F50875090078081229F57C197D837402B3
:103FD8001227D0121BCD7402122788AA18AB191207
:103FE80017F58A088B09AC08AD09AA18AB1912177E
:103FF800BF7A647B001219F99019EA122A0C7C58CE
:104008007D8274021227D0121BCD7402122788AA4F
:1040180018AB191217F58A088B09AC08AD09AA184C
:10402800AB191217BF7A647B001219F99019ECE0EA
:10403800F50875090078081229F57CC87D82740294
:104048001227D0121BCD7402122788AA18AB191296
:1040580017F58A088B09AC08AD09AA18AB1912170D
:10406800BF7A647B001219F9742D1227887F040225
:1040780028B4C082C083901947E0F9D083D0820267
:104088000132C082C083121A23E964017010901AA9
:104098006DE064027004790180127900800E901A34
:1040A80078E064067004790180027900D083D082B8
:1040B80002013274F41227E274F4122772EAFEEB5A
:1040C800FF121A23E9640160030241847508008025
:1040D80002050890196AE0F8E508C3985033AA1851
:1040E800AB19A908121A35E96027750A0C750B0077
:1040F800780A1229F5EEFCEFFD74021227D0121887
:104108000D7402122788E960C8E50890196CF080E0
:104118006B75080C75090078081229F5EEFCEFFD9F
:1041280090196BE0F87900E875F00CA4C8AAF0754E
:10413800F000A42AFA75F00CE9A42AF9746D28FA9B
:10414800741939FB1217FB740212278890196BE057
:1041580090196CF090196BE02401F090196BE075E0
:10416800F00A84E5F090196BF090196AE0C3940A9C
:10417800500790196AE02401F0121A11740C1227E2
:10418800887F040228B474F51227E2890AEAFEEB54
:10419800FF121A23E96401704790196AE0F8E50AEA
:1041A800C398503C75080C75090078081229F5A8C1
:1041B8000A7900E875F00CA4C8AAF075F000A42AE2
:1041C800FA75F00CE9A42AF9746D28FC741939FD04
:1041D800EEFAEFFB1217FB740212278879018002AE
:1041E80079007F030228B4C082C08353F3FD53FDD6
:1041F800FD538FFDA281400F7A0A7B001219F9A2A4
:10420800814004790180027900D083D08202013292
:10421800020132C082C083901939E0FD901938E05C
:10422800FC901937E0F97AA17B1A1217B3121A23F6
:10423800E96401700D7C157D007AF87B841217BF44
:10424800800B7C187D007A667B831217BFD083D0E1
:104258008202013274F71227E2E9FEEEFA790112BE
:104268001723E943FD60EEF8EEA2E092867F010293
:1042780028B474EC1227E27E31750C00750D0075B8
:104288000E40750F40121B8B8A088B09AA08AB09D0
:10429800EEF87900EAC398F508EB99F509E50933D2
:1042A80095E0F50AF50B7808121C5F908C78781069
:1042B80012262A780C7910121E857808790C122299
:1042C8004478081229F1908C78122648121BC17480
:1042D800041227887F0C0228B474F51227E27800AC
:1042E80079007C007D007E007F007508E875090371
:1042F800901A09E064056003024482901A0AE0F803
:10430800A3E0F9E875F002A4C885F00A75F000A4E6
:10431800250AF50A75F002E9A4250AF974FF28F5BB
:1043280082741939F583EAF0A3EBF0901A0AE024B5
:1043380001F0A3E03400F0901A0AE0F8A3E0F97A5B
:10434800057B001226DF901A0AEAF0A3EBF078004A
:104358007900024454E8FAE9FBEA75F002A4CA8538
:10436800F00A75F000A4250AF50A75F002EBA425F9
:104378000AFB74FF2AF58274193BF583E0FAA3E07F
:10438800FBC3EE9AEF9BA2D265D0335028E8FAE936
:10439800FBEA75F002A4CAAEF075F000A42EFE7513
:1043A800F002EBA42EFB74FF2AF58274193BF58307
:1043B800E0FEA3E0FFE8FAE9FBEA75F002A4CA858B
:1043C800F00A75F000A4250AF50A75F002EBA42599
:1043D8000AFB74FF2AF58274193BF583C3E095083C
:1043E800A3E09509A2D265D033502EE8FAE9FBEA9A
:1043F80075F002A4CA85F00875F000A42508F50830
:1044080075F002EBA42508FB74FF2AF58274193BAA
:10441800F583E0F508A3E0F509E8FAE9FBEA75F0A9
:1044280002A4CA85F00A75F000A4250AF50A75F0F9
:1044380002EBA4250AFB74FF2AF58274193BF58365
:10444800E02CFCA3E03DFD08E8700109C3E89405F1
:10445800E99400A2D265D033500302435DECC39EB9
:10446800F8ED9FF9E8C39508F8E99509F97A037B0F
:10447800001226DFE8FAE9FB8036901A09E0F8799D
:1044880000E875F002A4C8ACF075F000A42CFC7527
:10449800F002E9A42CF974FF28F582741939F58320
:1044A800EAF0A3EBF0901A09E02401F07A007B000F
:1044B8007F030228B474F01227E274E0122772E92D
:1044C800FEEE9019E7F0121A29E97003024573EE1F
:1044D800FA3395E0FB121A538A088B098C0A8D0B64
:1044E800908C28780C12262A7808790C121E857868
:1044F80008121CD7AA08AB09121A598A088B09781E
:10450800081229F5EEF404F508750900780812294F
:10451800F57CC37D8574041227D0121BCD74041258
:1045280027889019EEE0603AAA18AB19121BDF8AA7
:10453800088B09AC08AD09AA18AB191217BFAA183D
:10454800AB19121BDF8A088B09AC08AD09AA18AB96
:1045580019120529E97A107B00901A38E0F9121827
:1045680055E97905AA18AB19121711742012278872
:104578007F080228B474F61227E274E812277290B2
:104588008428AC18AD197418122685750848750961
:104598001978081229F57C767D8774021227D012C3
:1045A8001BCD7402122788AA18AB191217F58A08AE
:1045B8008B09AC08AD09AA18AB191217BF741812E9
:1045C80027887F020228B47A3B7B19020132C08215
:1045D800C08390196AE06004790180027901D08370
:1045E800D082020132C082C083121A29E960030214
:1045F8004689121A23E964017053121A71E9701C72
:10460800901A0CE070077901121A4D8029901A0C43
:10461800E0640170217900121A4D801A901A0CE09A
:1046280070077901121A4D800D901A0CE064097018
:10463800057900121A4D901A0CE02401F0901A0C1A
:10464800E075F00A84E5F0901A0CF0802F901A0CAF
:10465800E070077900121A4D800D901A0CE0640A78
:1046680070057901121A4D901A0CE02401F0901A85
:104678000CE075F01484E5F0901A0CF0121ABF8063
:1046880032901A0CE070077901121A4D800D901AB9
:104698000CE0640170057900121A4D901A0CE024A0
:1046A80001F0901A0CE075F03284E5F0901A0CF0E5
:1046B800121AADD083D082020132C082C083901911
:1046C8004FE0F9D083D08202013274F01227E279E8
:1046D800067A487B19121A058A0C8B0D8C0E8D0FE1
:1046E800850C08850D09850E0A850F0B908C64785A
:1046F8000C12262A7808790C1224AAAA0CAB0DAC45
:104708000EAD0F7F080228B4C082C08390193AE02A
:1047180064027004790180027900D083D08202019A
:1047280032C082C08390193AE0700479018002791E
:1047380000D083D08202013274F61227E29019EF7A
:10474800E064037004790080769019EFE0640160FA
:10475800089019EFE06404704190196AE0605E7592
:10476800080C75090078081229F590196CE0F87999
:1047780000E875F00CA4C8ACF075F000A42CFC752A
:10478800F00CE9A42CF9746D28FC741939FD121782
:10479800FB7402122788790180259019EFE06402E2
:1047A800701B75080C75090078081229F57C5D7D69
:1047B800191217FB74021227887901800279007F89
:1047C800020228B474F61227E29019EAE0F508A369
:1047D800E0F509AA08AB09E4FCFD7F020228B474DD
:1047E800EB1227E274F41227728A14750B147405FD
:1047F80055147003024A0A7E007F009019ED740078
:10480800F0901CB3E0640170421217CB8A088B0940
:10481800AE08AF09EE4F6030C3EE9415EF94004038
:10482800047E147F00EEFAEFFB1218D38A0A8B0B72
:10483800850A08850B09EEFCEFFDAA08AB091217DB
:10484800B9AA08AB091218D9024A0A1217CB8A0862
:104858008B09AE08AF09EE4F70197C007D007E0011
:104868007F00901A11ECF0A3EDF0A3EEF0A3EFF0A7
:10487800024A0A901A11122660E8494A4B70291216
:1048880019A5EAF8EBF9ECFAEDFB901A0D12266C73
:10489800EEFCEFFDE4FEFF901A11ECF0A3EDF0A39F
:1048A800EEF0A3EFF0024A0A121A29E97005750B17
:1048B800168003750B141219A58A0C8B0D8C0E8D9E
:1048C8000FA80B7900C3EE98EF995029908C2CC053
:1048D80082C083850C10850D11850E12850F1390EB
:1048E8001A0D78101225B2D083D0827810121C408D
:1048F8004003024A0A750A00AA0B7B001218D38AE1
:10490800108B11851008851109E5084509700E7C82
:10491800047D007AD47B8B1217BF024A0AA80B7950
:1049280000C3E89EE99F5005850B0A8003EEF50A4F
:10493800121A29E9707DAC0A7D00AA08AB09121782
:10494800B9E50AC394034044A80A7900E50828F8A1
:10495800E50939F9E824FEF582E934FFF583E064D6
:104968000D7029A80A7900E50828F8E50939F9E859
:1049780024FFF582E934FFF583E0640A700EAC0A7F
:104988007D00AA08AB09121AA7E9800274007047D3
:104998007C467D8BAA18AB19121BCDAA18AB19122D
:1049A80017F58A108B11AC10AD11AA18AB19121794
:1049B800BF8024AC0A7D00AA08AB091217B9AC0A5B
:1049C8007D00AA08AB09120529E97A107B00901A24
:1049D80038E0F9121855E9901A0D780C122639A802
:1049E8000A7900EEC398FCEF99FDE4FEFF901A11D6
:1049F800ECF0A3EDF0A3EEF0A3EFF0AA08AB0912D8
:104A080018D9740C1227887F0D0228B474E912276C
:104A1800E274B9122772EAFEEBFF8C088D0975144F
:104A28000175150074046508700474006509703414
:104A380079047CCF7D8BEEFAEFFB1219FFE9602435
:104A48007CE37D8BAA18AB19121BCDAA18AB1912DF
:104A580017F58A088B09AC08AD09AA18AB19121703
:104A6800BF025A1E74086508700474006509701640
:104A780079087C147D8AEEFAEFFB1219FFE96006CB
:104A8800121A1D025A1E740A65087004740065091A
:104A98006003024B6179077C0E7D8BEEFAEFFB1207
:104AA80019FFE97003024B618E828F83A3A3A3A32E
:104AB800A3A3A3E024D0604B14604814604514609D
:104AC8004214603F24F56003024B5B901937E0F510
:104AD8000875090078081229F57CD57D88740212BA
:104AE80027D0121BCD7402122788AA18AB191217E7
:104AF800F58A088B09AC08AD09AA18AB191217BFBB
:104B0800025A1E8E828F83A3A3A3A3A3A3A3E02488
:104B1800D0901937F0121A11901937E0F508750975
:104B28000078081229F57CC97D8874021227D012F2
:104B38001BCD7402122788AA18AB191217F58A0818
:104B48008B09AC08AD09AA18AB191217BF75150166
:104B5800025A1E751400025A1E740A6508700474FD
:104B6800006509701679077C067D8BEEFAEFFB125B
:104B780019FFE96006751400025A1E740A65087068
:104B88000474006509701679077CFE7D8AEEFAEFD9
:104B9800FB1219FFE96006751400025A1E740A65B3
:104BA800087004740065096003024C7279077CF68A
:104BB8007D8AEEFAEFFB1219FFE97003024C728E40
:104BC800828F83A3A3A3A3A3A3A3E024D060451447
:104BD800604214603F24F36003024C6C90193AE081
:104BE800F50875090078081229F57CD57D887402C6
:104BF8001227D0121BCD7402122788AA18AB1912DB
:104C080017F58A088B09AC08AD09AA18AB19121751
:104C1800BF025A1E8E828F83A3A3A3A3A3A3A3E0DC
:104C280024D090193AF0121A1190193AE0F5087543
:104C3800090078081229F57CC97D8874021227D0EA
:104C4800121BCD7402122788AA18AB191217F58AFD
:104C5800088B09AC08AD09AA18AB191217BF75154E
:104C680001025A1E751400025A1EE508C3940AF878
:104C7800E5099400F9C3E8940BE994004003024D58
:104C88004D79077CEE7D8AEEFAEFFB1219FFE97089
:104C980003024D4D8E828F83A3A3A3A3A3A3A3E0F6
:104CA800643F703575083B75091978081229F57C39
:104CB800BD7D8874021227D0121BCD74021227887A
:104CC800AA18AB191217F58A088B09AC08AD09AAFE
:104CD80018AB191217BF025A1E7C0C7D0079007A96
:104CE8003B7B19121813E50824F9F508E50934FF88
:104CF800F50978081229F5EE2407FCE43FFD7A3B14
:104D08007B191217FB7402122788121A1175083BB7
:104D180075091978081229F57CB17D887402122763
:104D2800D0121BCD7402122788AA18AB191217F5D6
:104D38008A088B09AC08AD09AA18AB191217BF75F8
:104D48001501025A1E740A6508700474006509701A
:104D58003C79087C6E7D8AEEFAEFFB1219FFE96058
:104D68002C7C587D89AA18AB19121BCDAA18AB192F
:104D78001217F58A088B09AC08AD09AA18AB1912E5
:104D880017BF7900121A17751501025A1E740A65A1
:104D980008700474006509701679087C807D8AEEB5
:104DA800FAEFFB1219FFE96006751501025A1E7425
:104DB8000A65087004740065096003024E8F79075C
:104DC8007CD77D8AEEFAEFFB1219FFE97003024ED9
:104DD8008F8E828F83A3A3A3A3A3A3A3E024D06071
:104DE8004214603F24F26003024E89901947E0F5AF
:104DF8000875090078081229F57CD57D8874021297
:104E080027D0121BCD7402122788AA18AB191217C3
:104E1800F58A088B09AC08AD09AA18AB191217BF97
:104E2800025A1E8E828F83A3A3A3A3A3A3A3E02465
:104E3800D0F9E970089019477400F0800690194776
:104E48007401F0121A11901947E0F50875090078F5
:104E5800081229F57CC97D8874021227D0121BCD4F
:104E68007402122788AA18AB191217F58A088B0939
:104E7800AC08AD09AA18AB191217BF751501025A6B
:104E88001E751400025A1E740A65087004740065C1
:104E980009701079087C927D8AEEFAEFFB1219FFEF
:104EA800E97022740F6508700474006509600302D4
:104EB8004F6E79077CC77D8AEEFAEFFB1219FFE97E
:104EC8007003024F6E8E828F83A3A3A3A3A3A3A311
:104ED800E0643F703575084875091978081229F596
:104EE8007C647D8874021227D0121BCD74021227AD
:104EF80088AA18AB191217F58A088B09AC08AD09EE
:104F0800AA18AB191217BF025A1E750806750900B0
:104F180078081229F5EE2407FCE43FFD7A487B194E
:104F28001217FB740212278890194E7400F0121A97
:104F38001175084875091978081229F57CB17D881A
:104F480074021227D0121BCD7402122788AA18AB3C
:104F5800191217F58A088B09AC08AD09AA18AB19FC
:104F68001217BF025A1E740A650870047400650996
:104F7800600302503879077CBF7D8AEEFAEFFB1296
:104F880019FFE970030250388E828F83A3A3A3A36D
:104F9800A3A3A3E024D0604214603F24F26003027C
:104FA800503290194FE0F50875090078081229F574
:104FB8007CD57D8874021227D0121BCD740212276B
:104FC80088AA18AB191217F58A088B09AC08AD091D
:104FD800AA18AB191217BF025A1E8E828F83A3A379
:104FE800A3A3A3A3A3E024D090194FF0121A119001
:104FF800194FE0F50875090078081229F57CC97D74
:105008008874021227D0121BCD7402122788AA189E
:10501800AB191217F58A088B09AC08AD09AA18ABA9
:10502800191217BF751501025A1E751400025A1E6F
:10503800C3E508940AE5099400404579087CB67DE3
:105048008AEEFAEFFB1219FFE96035750850750909
:105058001978081229F57C987D8874021227D012D5
:105068001BCD7402122788AA18AB191217F58A08E3
:105078008B09AC08AD09AA18AB191217BF025A1E42
:10508800740A650870047400650960030251237985
:10509800087C9B7D8AEEFAEFFB1219FFE9607C120F
:1050A8001A23E96401706E908BFC74431227D8743C
:1050B800041226857E009019EF7401F090196AE0B9
:1050C80070047E0180057E00121ACBEEF83395E05D
:1050D800F974431227BEE58228F582E58339F58302
:1050E800E0F50875090078081229F57CA57D887413
:1050F800021227D0121BCD7402122788AA18AB19E6
:105108001217F58A088B09AC08AD09AA18AB191251
:1051180017BF025A1E751400025A1E7414650870CF
:10512800047400650960030251D279067C877D8B7F
:10513800EEFAEFFB1219FFE970030251D2908CD5F9
:1051480074401227D87403122685750800121A2392
:10515800E96401706F9019EF7402F0750A0C750B11
:1051680000780A1229F5EE2406FCE43FFD7A5D7BFF
:10517800191217FB7402122788A8087900744012C4
:1051880027BEE58228F582E58339F583E0F50875C1
:10519800090078081229F57CA57D8874021227D0A9
:1051A800121BCD7402122788AA18AB191217F58A98
:1051B800088B09AC08AD09AA18AB191217BF121A47
:1051C800CB025A1E751400025A1E740A6508700430
:1051D80074006509705579087C537D8AEEFAEFFBF7
:1051E8001219FFE96045121A23E964017037790141
:1051F800121A177C007D0079007A097B0412153D8C
:10520800E97CA57D89AA18AB19121BCDAA18AB1980
:105218001217F58A088B09AC08AD09AA18AB191240
:1052280017BF025A1E751400025A1E740A650870C8
:10523800047400650960030252FC79087C417D8A88
:10524800EEFAEFFB1219FFE970030252FC121A235F
:10525800E9640160030252FC121A23E96401600345
:105268000252F690196AE070247CC67D86AA18ABB3
:1052780019121BCDAA18AB191217F58A088B09AC9D
:1052880008AD09AA18AB191217BF025A1E7E009062
:10529800196AE0F8EEC3984003025A1EEEF8790046
:1052A800E875F00CA4C8AAF075F000A42AFA75F005
:1052B8000CE9A42AF9746D28F508741939F50978E8
:1052C800081229F57C167D8874021227D0121BCD8E
:1052D8007402122788AA18AB191217F58A088B09C5
:1052E800AC08AD09AA18AB191217BF0E80A1751426
:1052F80000025A1E740A6508700474006509704536
:1053080079087C1D7D8AEEFAEFFB1219FFE96035FA
:105318007508D975098B78081229F57CDE7D8B74A0
:10532800021227D0121BCD7402122788AA18AB19B3
:105338001217F58A088B09AC08AD09AA18AB19121F
:1053480017BF025A1E740A65087004740065096064
:10535800030253FA79077C2E7D8BEEFAEFFB1219C4
:10536800FFE970030253FA121A23E96401707D8E73
:10537800828F83A3A3A3A3A3A3A3E0643F70309069
:1053880019E5122A0C7C647D8B74021227D0121B3B
:10539800CD7402122788AA18AB191217F58A088B40
:1053A80009AC08AD09AA18AB191217BF025A1E900A
:1053B80019E57410F0A37427F0121A119019E51268
:1053C8002A0C7C847D8774021227D0121BCD7402AC
:1053D800122788AA18AB191217F58A088B09AC0886
:1053E800AD09AA18AB191217BF025A1E751400028C
:1053F8005A1E740A6508700474006509704A790AAF
:105408007C897D8AEEFAEFFB1219FFE9603A901960
:10541800E7E0F5083395E0F50978081229F57CFCF2
:105428007D8774021227D0121BCD7402122788AA16
:1054380018AB191217F58A088B09AC08AD09AA1818
:10544800AB191217BF025A1E740A6508700474005B
:105458006509600302552779077C3E7D8BEEFAEFDC
:10546800FB1219FFE970030255278E828F83A3A3CD
:10547800A3A3A3A3A3E0643F70389019E9E0F5085B
:1054880075090078081229F57C307D887402122786
:10549800D0121BCD7402122788AA18AB191217F55F
:1054A8008A088B09AC08AD09AA18AB191217BF02F4
:1054B8005A1E8E828F83A3A3A3A3A3A3A3E024D001
:1054C8009019E9F09019E9E0C3940440069019E9AD
:1054D8007400F0121A119019E9E0F50875090078BE
:1054E800081229F57CC97D8874021227D0121BCDB9
:1054F8007402122788AA18AB191217F58A088B09A3
:10550800AC08AD09AA18AB191217BF9019E9E0F851
:105518007403C398F9120BC5E9751501025A1E7474
:105528000A6508700474006509600F740F650870D7
:105538000474006509600302560879077C367D8B80
:10554800EEFAEFFB1219FFE97003025608121A234C
:10555800E960030256028E828F83A3A3A3A3A3A3A9
:10556800A3E0643F70309019EA122A0C7CE47D862F
:1055780074021227D0121BCD7402122788AA18AB06
:10558800191217F58A088B09AC08AD09AA18AB19C6
:105598001217BF025A1E7906EE2407FAE43FFB12DF
:1055A8001A058A088B098C0A8D0B9019EAE508F010
:1055B800A3E509F09019EAC3E09410A3E09427400A
:1055C80003025A1E121A119019EA122A0C7C847DC1
:1055D8008774021227D0121BCD7402122788AA18CA
:1055E800AB191217F58A088B09AC08AD09AA18ABD4
:1055F800191217BF751501025A1E751400025A1E9A
:10560800740A650870047400650960030256D3794A
:10561800077C267D8BEEFAEFFB1219FFE970030277
:1056280056D38E828F83A3A3A3A3A3A3A3E0643F2F
:1056380070389019ECE0F50875090078081229F51A
:105648007CD57D8874021227D0121BCD74021227D4
:1056580088AA18AB191217F58A088B09AC08AD0986
:10566800AA18AB191217BF025A1E7901EE2407FABD
:10567800E43FFB121A058A088B098C0A8D0BE50892
:105688009019ECF09019ECE0C394025038121A11FA
:105698009019ECE0F50875090078081229F57CC91D
:1056A8007D8874021227D0121BCD7402122788AA93
:1056B80018AB191217F58A088B09AC08AD09AA1896
:1056C800AB191217BF751501025A1E740A650870C6
:1056D8000474006509704B790A7C4D7D89EEFAEFF8
:1056E800FB1219FFE9603B121A23E96401702D903F
:1056F80019EF7403F07C9A7D89AA18AB19121BCD97
:10570800AA18AB191217F58A088B09AC08AD09AAB3
:1057180018AB191217BF121ACB025A1E75140002C1
:105728005A1E740A6508700474006509703A79078E
:105738007CDF7D8AEEFAEFFB1219FFE9602A121A64
:1057480023E96401701C9019EF7404F08E828F8332
:10575800A3A3A3A3A3A3A3E024D0F9121B01E902E6
:105768005A1E751400025A1E7409650870047400E4
:1057780065096003025A1B79067C567D8BEEFAEFA9
:10578800FB1219FFE97003025A1B8E828F83A3A3B1
:10579800A3A3A3A3E0F516E51624CC60181460199A
:1057A80014601A14601B1470030258561470030214
:1057B800592A025A167E04800A7E0580067E0680D3
:1057C800027E0779801216697A04EEF91216638A46
:1057D800088B09AC08AD098C088D09E4F50AF50BAE
:1057E8007808121C7A908C30780C12262A7808795E
:1057F8000C121E85908C34780C12262A7808790CA5
:1058080012224478081229F18C088D097808122987
:10581800F5A8167900E824D0F508E934FFF50978E9
:10582800081229F57C987D8374081227D0121BCDA5
:105838007408122788AA18AB191217F58A088B0959
:10584800AC08AD09AA18AB191217BF025A1E7E116F
:105858007F0175089975090179001216697A02792C
:105868000F1216638A0A8B0BAC0AAD0BC3EC9508B2
:10587800ED9509400478648059C3EE9CEF9D40047F
:105888007800804EE508C39EF8E5099FF9E82401F1
:10589800FAE439FB8A088B0974027808122750AA9F
:1058A80008AB09ECC39EF8ED9FF9E875F019A4C898
:1058B800AEF075F000A42EFE75F019E9A42EF9E8F3
:1058C8002AF8E93BF9E824FFF8E934FFF91226E75A
:1058D800E8F8880875090078081229F58C088D09F8
:1058E80078081229F5A8167900E824D0F508E934D3
:1058F800FFF50978081229F57C407D847406122783
:10590800D0121BCD7406122788AA18AB191217F5E6
:105918008A088B09AC08AD09AA18AB191217BF027F
:105928005A1E750C00750D00750E00750F009062FB
:105938004B7401F09061A97401F07E0080577900E2
:105948001216697A03790E1216638A088B09AC0855
:10595800AD098C088D09E4F50AF50B7808121C7A54
:10596800908C38781012262A78087910121E8590A3
:105978008C3C781012262A7808791012202A908CEC
:1059880040781012262A78087910122244780C7967
:105998000812202A0EEEC3944040A3850C08850DFA
:1059A80009850E0A850F0B908C44780C12262A78EC
:1059B80008790C12224490624BE0C2E0F09061A991
:1059C800E0C2E0F078081229F18C088D09780812F5
:1059D80029F5A8167900E824D0F508E934FFF50977
:1059E80078081229F57CCA7D8474081227D0121B06
:1059F800CD7408122788AA18AB191217F58A088BD4
:105A080009AC08AD09AA18AB191217BF800875149C
:105A1800008003751400E51560117AC87B0012191F
:105A2800F9C2AF75C9AB75C95B80FEA9147447127A
:105A380027887F0F0228B402013274F61227E27415
:105A4800C8122772E9FE7F01EEA2E54003025AE27E
:105A5800901CB4E0C2E5F07C797D8B7A157B1A1234
:105A68001BCD7C057D897A217B1A121BCD901CB336
:105A7800E07004740180027400901CB3F0901CB3B1
:105A8800E0600779011218E5800579001218E590A1
:105A98001CB3E0F50875090078081229F57CF67D35
:105AA80089740E1227D0121BCD740212278879062A
:105AB800740C1227D0121711740C1227D0121BDF86
:105AC8008A088B09AC08AD09740C1227D01217C5C7
:105AD8007A017B001219F9025CF2EEA2E0504290C2
:105AE8001CB4E0C2E0F07C727D8B7A157B1A121B25
:105AF800CD7C267D8A7A217B1A121BCD121A23E9C6
:105B080064016003025CF2901A6DE06402700302A3
:105B18005CF27C0A7D007A4D7B89121AA7E9025C47
